:020000040000FA
:06000000C4EF22F0120023
:020006001200E6
:060008000EEF00F01200F3
:02000E000100EF
:0C001000C0450000B5000000200000000A
:04001C00DACFE4FF54
:10002000E2CFDAFFE9CFE4FFEACFE4FFE652D9CF2F
:10003000E6FFE1CFD9FF070EE126D950010FE96EA7
:10004000DACFEAFFEE2A000EED229EA22DD00001AB
:10005000832B842300018D2B8E238F23902382A05A
:1000600003D00001856B02D00001852B0001862B97
:10007000020E0001825D0BE100018651640807E277
:1000800082A202D0829201D08282866B0CD00001C3
:10009000820504E182820001866B05D0825103E172
:1000A00082920001866B9E92070EE15C03E200D013
:1000B000E16AE552E16EE552E7CFD9FFE552E5CFBF
:1000C000EAFFE5CFE9FFE5CFDAFF1100D9CFE6FF80
:1000D000E1CFD9FF030EE12690D81DEC15F0000901
:1000E00001E1F0D8FBEC14F0040000018551106E22
:1000F000116A113404E21050FA08000E115410E293
:10010000000163050DE000016069E668010EE66E1E
:10011000E66A18EC22F0E552E552E552FBEC14F0E9
:100120000001666BD0EC1BF0D880E80E00018D5505
:10013000030E8E55000E8F55000E90550CE20001F7
:100140008D6B8E6B8F6B906B4BEC16F0030E00017A
:10015000635D01E1ACDA000191513B0812E200015C
:10016000916B0001922B000192513B0804E20001C7
:10017000926B0001932B00019351170802E20001DA
:10018000936B00016351040A25E0070A1BE0010A92
:1001900016E0030A11E0010A01E01FD0FF0E000182
:1001A000605D04E10001010E636F05D00001030EE4
:1001B000636FC9EC15F014D037EC15F011D0C9EC11
:1001C00015F00ED0000166AF04D09FEC17F09EEC46
:1001D0000AF006D034EC15F003D00001636B00D0B8
:1001E00021EC05F081D7030EE15C02E2E16AE55201
:1001F000E16EE552E7CFD9FF1200D9CFE6FFE1CF9C
:10020000D9FF080EE1262FD8070E926E1B0E936EB3
:10021000010E946E826A100EE66E7DEC22F0E552BD
:10022000450EE66E5CEC22F0E5529C0ECB6EFD0EA8
:10023000E66E99EC22F0E552829E809A8098809634
:10024000809480928090829A04EC1CF0F28CF28E62
:10025000080EE15C03E200D0E16AE552E16EE5528E
:10026000E7CFD9FF1200D9CFE6FFE1CFD9FFE652A1
:1002700000018D6B8E6B8F6B906B916B926B936BA0
:10028000946BDF6A080EDF5C18E2EA6ADF34FE0B6B
:10029000EA36E96E950EE926000EEA22EE6AED6A6C
:1002A000EA6ADF34FE0BEA36E96EA50EE926000E97
:1002B000EA22EE6AED6ADF2AE5D7E552E552E7CF9A
:1002C000D9FF1200D9CFE6FFE1CFD9FF020EE12618
:1002D000980EE66E4B0EE66EE66A18EC22F0E552DA
:1002E000E552E552980EE66E4C0EE66EE66A18ECA4
:1002F00022F0E552E552E552980EE66E4D0EE66E9E
:10030000E66A18EC22F0E552E552E552980EE66EE8
:100310004E0EE66EE66A18EC22F0E552E552E55222
:10032000980EE66E4F0EE66EE66A18EC22F0E55285
:10033000E552E552980EE66E500EE66EE66A18EC4F
:1003400022F0E552E552E552980EE66E510EE66E49
:10035000E66A18EC22F0E552E552E552980EE66E98
:10036000520EE66EE66A18EC22F0E552E552E552CE
:10037000E66A530EE66EE66A18EC22F0E552E552A4
:10038000E552E66A540EE66EE66A18EC22F0E55293
:10039000E552E552E66A550EE66EE66A18EC22F082
:1003A000E552E552E552E66A560EE66EE66A18EC4C
:1003B00022F0E552E552E552E66A570EE66EE66A2D
:1003C00018EC22F0E552E552E552E66A580EE66E68
:1003D000E66A18EC22F0E552E552E552E66A590E5B
:1003E000E66EE66A18EC22F0E552E552E552E66A5E
:1003F0005A0EE66EE66A18EC22F0E552E552E55236
:10040000E66A5B0EE66EE66A18EC22F0E552E5520B
:10041000E552E66A5C0EE66EE66A18EC22F0E552FA
:10042000E552E552E66A5D0EE66EE66A18EC22F0E9
:10043000E552E552E552E66A5E0EE66EE66A18ECB3
:1004400022F0E552E552E552E66A5F0EE66EE66A94
:1004500018EC22F0E552E552E552E66A600EE66ECF
:10046000E66A18EC22F0E552E552E552E66A610EC2
:10047000E66EE66A18EC22F0E552E552E552E66ACD
:10048000620EE66EE66A18EC22F0E552E552E5529D
:10049000E66A630EE66EE66A18EC22F0E552E55273
:1004A000E552E66A640EE66EE66A18EC22F0E55262
:1004B000E552E552E66A650EE66EE66A18EC22F051
:1004C000E552E552E552E66A660EE66EE66A18EC1B
:1004D00022F0E552E552E552E66A670EE66EE66AFC
:1004E00018EC22F0E552E552E552E66A680EE66E37
:1004F000E66A18EC22F0E552E552E552E66A690E2A
:10050000E66EE66A18EC22F0E552E552E552E66A3C
:100510006A0EE66EE66A18EC22F0E552E552E55204
:10052000E66A6B0EE66EE66A18EC22F0E552E552DA
:10053000E552E66A6C0EE66EE66A18EC22F0E552C9
:10054000E552E552E66A6D0EE66EE66A18EC22F0B8
:10055000E552E552E552E66A6E0EE66EE66A18EC82
:1005600022F0E552E552E552E66A6F0EE66EE66A63
:1005700018EC22F0E552E552E552E66A700EE66E9E
:10058000E66A18EC22F0E552E552E552E66A710E91
:10059000E66EE66A18EC22F0E552E552E552E66AAC
:1005A000720EE66EE66A18EC22F0E552E552E5526C
:1005B000E66A730EE66EE66A18EC22F0E552E55242
:1005C000E552E66A740EE66EE66A18EC22F0E55231
:1005D000E552E552E66A750EE66EE66A18EC22F020
:1005E000E552E552E552E66A760EE66EE66A18ECEA
:1005F00022F0E552E552E552E66A770EE66EE66ACB
:1006000018EC22F0E552E552E552E66A780EE66E05
:10061000E66A18EC22F0E552E552E552E66A790EF8
:10062000E66EE66A18EC22F0E552E552E552E66A1B
:100630007A0EE66EE66A18EC22F0E552E552E552D3
:10064000E66A420EE66EE66A18EC22F0E552E552E2
:10065000E552DF6A070EDF5C20E2010EDB6A080E5E
:10066000F36E010EDBCFF4FFF350F45C14E2E66AA4
:10067000010EDBCFE6FF080EDF02F350890FE552D3
:10068000E724E66EE66A18EC22F0E552E552E55200
:10069000010EDB2AE4D7DF2ADDD7020EE15C02E29D
:1006A000E16AE552E16EE552E7CFD9FF1200D9CFFA
:1006B000E6FFE1CFD9FF030EE126DF6A080EDF5C1B
:1006C00001E378D14B0EDF24E66EE66A3EEC22F0C1
:1006D000E552E552E76E010EE7CFDBFFDBAE68D1F6
:1006E000EA6ADF34FE0BEA36E96EA50EE926000E53
:1006F000EA22EE50ED103FE0EA6ADF34FE0BEA3604
:10070000E96EA50EE926000EEA22EE06000EEF5A6B
:10071000EA6ADF34FE0BEA36E96EA50EE926000E22
:10072000EA22EE50ED1027E14B0EDF24E66EE66A7A
:100730003EEC22F0E552E552040B1DE0010EDF52C3
:1007400006E0DFCFF3FFE846FE0BF306FCE1E66EC2
:10075000E66A08EC0EF0E552E552010EDBA20BD082
:10076000020EE66E010EE66EDFCFE6FF71EC0AF0D8
:10077000E552E552E552010EDF5206E0DFCFF3FF0E
:10078000E846FE0BF306FCE10001941501E110D1EF
:10079000EA6ADF34FE0BEA36E96E950EE926000EB2
:1007A000EA22EE50ED1001E103D1EA6ADF34FE0BDC
:1007B000EA36E96E950EE926000EEA22EE06000EF4
:1007C000EF5AEA6ADF34FE0BEA36E96E950EE92647
:1007D000000EEA22EE50ED1001E0EAD0DF50070AE9
:1007E0006AE0010A5BE0030A4CE0010A3DE0070A07
:1007F0002EE0010A1FE0030A10E0010A01E068D0C0
:1008000082AE04D0829E020EDB6A06D0828E010E7A
:10081000F36E020EF3CFDBFF5BD080AA04D0809A88
:10082000020EDB6A06D0808A010EF36E020EF3CF51
:10083000DBFF4ED080A804D08098020EDB6A06D081
:100840008088010EF36E020EF3CFDBFF41D080A64D
:1008500004D08096020EDB6A06D08086010EF36E0D
:10086000020EF3CFDBFF34D080A404D08094020EBC
:10087000DB6A06D08084010EF36E020EF3CFDBFF3D
:1008800027D080A204D08092020EDB6A06D080823C
:10089000010EF36E020EF3CFDBFF1AD080A004D05E
:1008A0008090020EDB6A06D08080010EF36E020E8D
:1008B000F3CFDBFF0DD082AA04D0829A020EDB6A4E
:1008C00006D0828A010EF36E020EF3CFDBFF00D05A
:1008D000DF50E824530FE66EE66A3EEC22F0E55264
:1008E000E552126E136A12C013F0126A12C0E6FFCC
:1008F00013C0E6FFDF50E824540FE66EE66A3EECD4
:1009000022F0E552E552E552E7CF13F0E552E7CF8A
:1009100012F000011224106E000E1320116EEA6A0C
:10092000DF34FE0BEA36E96E950EE926000EEA2268
:1009300010C0EEFF11C0EDFF020EDB501DE0010EF6
:10094000DBA60BD0030EE66E140EE66EDFCFE6FFDD
:1009500071EC0AF0E552E552E552010EDBAA0BD02C
:10096000190EE66E140EE66EDFCFE6FF71EC0AF0AC
:10097000E552E552E5521CD0010EDBA80BD0040E67
:10098000E66E140EE66EDFCFE6FF71EC0AF0E5527C
:10099000E552E552010EDBAC0BD0180EE66E140EDC
:1009A000E66EDFCFE6FF71EC0AF0E552E552E55264
:1009B000DF2A84D6030EE15C02E2E16AE552E16ED1
:1009C000E552E7CFD9FF1200000E00D01200010E51
:1009D00000D01200060E00D01200010E00D012004E
:1009E000080E00D01200010EE66EE66A3EEC22F020
:1009F000E552E55200D01200D9CFE6FFE1CFD9FF92
:100A0000FE0EDBCFE6FF010EE66EE66A18EC22F082
:100A1000E552E552E552E552E7CFD9FF1200410E0B
:100A2000E66EE66A3EEC22F0E552E55200D0120096
:100A3000420EE66EE66A3EEC22F0E552E55200D048
:100A40001200D9CFE6FFE1CFD9FFE652030E000135
:100A5000635D00E1E552E552E7CFD9FF1200D9CF3F
:100A6000E6FFE1CFD9FF050EE126DF6A020EF36E45
:100A7000FE0EDBCFF4FFF350F45C4AE30A0EF36E94
:100A8000FE0EDBCFF4FFF350F45C42E2FE0EDB50CF
:100A9000090A37E0010A31E00F0A29E0010A21E0E2
:100AA000030A19E0010A11E0070A09E0010A01E05E
:100AB0002ED08250800B01E0010EDF6E28D08050D6
:100AC000200B01E0010EDF6E22D08050100B01E000
:100AD000010EDF6E1CD08050080B01E0010EDF6EAE
:100AE00016D08050040B01E0010EDF6E10D0805054
:100AF000020B01E0010EDF6E0AD08050010BDF6EA9
:100B000006D08250200B01E0010EDF6E00D021D014
:100B1000FE0EDB5060080BE3FE0EDB50410FE66E6D
:100B2000E66A3EEC22F0E552E552DF6E12D0480E46
:100B3000F36EFE0EDBCFF4FFF350F45C0AE3FE0E1F
:100B4000DB50410FE66EE66A3EEC22F0E552E552DC
:100B5000DF6EDF50106E050EE15C03E200D0E16A4B
:100B6000E552E16E1050E552E7CFD9FF1200D9CF20
:100B7000E6FFE1CFD9FF080EE126050EDB6A060E7F
:100B8000DB6AFD0EDB1CDF6E020EF36EFE0EDBCFAA
:100B9000F4FFF350F45C01E2F9D30A0EF36EFE0E9B
:100BA000DBCFF4FFF350F45C01E3F0D3FE0EDB5037
:100BB0004B0FFE0FE66EE66A3EEC22F0E552E55280
:100BC000800B01E1E2D3FE0EDB50090A01E164D3A0
:100BD000010A01E1E8D20F0A01E16CD2010A01E148
:100BE000F0D1030A01E174D1010A01E1F8D0070A4A
:100BF00001E17CD0010A01E0C8D3010EF36E050EBD
:100C0000F3CFDBFFFD0EDB0436E1828E010EDF6EDB
:100C1000F36E060EF3CFDBFF000194914B0EE66EF0
:100C2000E66A3EEC22F0E552E552040B23E0630E47
:100C3000E66EE66A3EEC22F0E552E552106E116A6D
:100C400010C011F0106A10C0E6FF11C0E6FF640E7C
:100C5000E66EE66A3EEC22F0E552E552E552E7CF59
:100C600011F0E552E7CF10F000011024A56F000E3F
:100C70001120A66F3AD0FD0EDB5007E1829EDF6A9D
:100C8000060EDB6A0001949130D0020E106EFD0E4C
:100C9000DB50105C2AE1829E020EDF6E060EDB6ADC
:100CA00000019481530EE66EE66A3EEC22F0E552B6
:100CB000E552106E116A10C011F0106A10C0E6FF04
:100CC00011C0E6FF540EE66EE66A3EEC22F0E552F5
:100CD000E552E552E7CF11F0E552E7CF10F0000101
:100CE0001024956F000E1120966F4FD3010EF36EF6
:100CF000050EF3CFDBFFFD0EDB0436E1808A010E2B
:100D0000DF6EF36E060EF3CFDBFF000194934C0E03
:100D1000E66EE66A3EEC22F0E552E552040B23E073
:100D2000650EE66EE66A3EEC22F0E552E552106E84
:100D3000116A10C011F0106A10C0E6FF11C0E6FF82
:100D4000660EE66EE66A3EEC22F0E552E552E552AA
:100D5000E7CF11F0E552E7CF10F000011024A76FA4
:100D6000000E1120A86F3AD0FD0EDB5007E1809AEB
:100D7000DF6A060EDB6A0001949330D0020E106E1B
:100D8000FD0EDB50105C2AE1809A020EDF6E060E2B
:100D9000DB6A00019483550EE66EE66A3EEC22F0B3
:100DA000E552E552106E116A10C011F0106A10C0C1
:100DB000E6FF11C0E6FF560EE66EE66A3EEC22F054
:100DC000E552E552E552E7CF11F0E552E7CF10F0DA
:100DD00000011024976F000E1120986FD6D2010EDB
:100DE000F36E050EF3CFDBFFFD0EDB0436E18088EA
:100DF000010EDF6EF36E060EF3CFDBFF000194955C
:100E00004D0EE66EE66A3EEC22F0E552E552040B2A
:100E100023E0670EE66EE66A3EEC22F0E552E5520C
:100E2000106E116A10C011F0106A10C0E6FF11C0F8
:100E3000E6FF680EE66EE66A3EEC22F0E552E55209
:100E4000E552E7CF11F0E552E7CF10F00001102492
:100E5000A96F000E1120AA6F3AD0FD0EDB5007E1FA
:100E60008098DF6A060EDB6A0001949530D0020E8E
:100E7000106EFD0EDB50105C2AE18098020EDF6ED2
:100E8000060EDB6A00019485570EE66EE66A3EECBC
:100E900022F0E552E552106E116A10C011F0106A8E
:100EA00010C0E6FF11C0E6FF580EE66EE66A3EECA3
:100EB00022F0E552E552E552E7CF11F0E552E7CFD7
:100EC00010F000011024996F000E11209A6F5DD26E
:100ED000010EF36E050EF3CFDBFFFD0EDB0436E1F2
:100EE0008086010EDF6EF36E060EF3CFDBFF00018E
:100EF00094974E0EE66EE66A3EEC22F0E552E5521D
:100F0000040B23E0690EE66EE66A3EEC22F0E55241
:100F1000E552106E116A10C011F0106A10C0E6FFA1
:100F200011C0E6FF6A0EE66EE66A3EEC22F0E5527C
:100F3000E552E552E7CF11F0E552E7CF10F000019E
:100F40001024AB6F000E1120AC6F3AD0FD0EDB50B9
:100F500007E18096DF6A060EDB6A0001949730D0C5
:100F6000020E106EFD0EDB50105C2AE18096020E20
:100F7000DF6E060EDB6A00019487590EE66EE66AA4
:100F80003EEC22F0E552E552106E116A10C011F0ED
:100F9000106A10C0E6FF11C0E6FF5A0EE66EE66A60
:100FA0003EEC22F0E552E552E552E7CF11F0E55272
:100FB000E7CF10F0000110249B6F000E11209C6FF2
:100FC000E4D1010EF36E050EF3CFDBFFFD0EDB0463
:100FD00036E18084010EDF6EF36E060EF3CFDBFF89
:100FE000000194994F0EE66EE66A3EEC22F0E5525F
:100FF000E552040B23E06B0EE66EE66A3EEC22F04F
:10100000E552E552106E116A10C011F0106A10C05E
:10101000E6FF11C0E6FF6C0EE66EE66A3EEC22F0DB
:10102000E552E552E552E7CF11F0E552E7CF10F077
:1010300000011024AD6F000E1120AE6F3AD0FD0EEE
:10104000DB5007E18094DF6A060EDB6A00019499A9
:1010500030D0020E106EFD0EDB50105C2AE1809441
:10106000020EDF6E060EDB6A000194895B0EE66EEF
:10107000E66A3EEC22F0E552E552106E116A10C0AD
:1010800011F0106A10C0E6FF11C0E6FF5C0EE66EBC
:10109000E66A3EEC22F0E552E552E552E7CF11F068
:1010A000E552E7CF10F0000110249D6F000E1120D3
:1010B0009E6F6BD1010EF36E050EF3CFDBFFFD0EBD
:1010C000DB0436E18082010EDF6EF36E060EF3CF95
:1010D000DBFF0001949B500EE66EE66A3EEC22F0C8
:1010E000E552E552040B23E06D0EE66EE66A3EEC37
:1010F00022F0E552E552106E116A10C011F0106A2C
:1011000010C0E6FF11C0E6FF6E0EE66EE66A3EEC2A
:1011100022F0E552E552E552E7CF11F0E552E7CF74
:1011200010F000011024AF6F000E1120B06F3AD004
:10113000FD0EDB5007E18092DF6A060EDB6A0001DC
:10114000949B30D0020E106EFD0EDB50105C2AE135
:101150008092020EDF6E060EDB6A0001948B5D0E3C
:10116000E66EE66A3EEC22F0E552E552106E116A38
:1011700010C011F0106A10C0E6FF11C0E6FF5E0E4D
:10118000E66EE66A3EEC22F0E552E552E552E7CF24
:1011900011F0E552E7CF10F0000110249F6F000E10
:1011A0001120A06FF2D0010EF36E050EF3CFDBFF1E
:1011B000FD0EDB0436E18080010EDF6EF36E060E5D
:1011C000F3CFDBFF0001949D510EE66EE66A3EEC24
:1011D00022F0E552E552040B23E06F0EE66EE66A5C
:1011E0003EEC22F0E552E552106E116A10C011F08B
:1011F000106A10C0E6FF11C0E6FF700EE66EE66AE8
:101200003EEC22F0E552E552E552E7CF11F0E5520F
:10121000E7CF10F000011024B16F000E1120B26F63
:101220003AD0FD0EDB5007E18090DF6A060EDB6AE4
:101230000001949D30D0020E106EFD0EDB50105C4C
:101240002AE18090020EDF6E060EDB6A0001948DAB
:101250005F0EE66EE66A3EEC22F0E552E552106E55
:10126000116A10C011F0106A10C0E6FF11C0E6FF4D
:10127000600EE66EE66A3EEC22F0E552E552E5527B
:10128000E7CF11F0E552E7CF10F000011024A16F75
:10129000000E1120A26F79D0010EF36E050EF3CF70
:1012A000DBFFFD0EDB0436E1828A010EDF6EF36E9A
:1012B000060EF3CFDBFF0001949F520EE66EE66A46
:1012C0003EEC22F0E552E552040B23E0710EE66E8F
:1012D000E66A3EEC22F0E552E552106E116A10C04B
:1012E00011F0106A10C0E6FF11C0E6FF720EE66E44
:1012F000E66A3EEC22F0E552E552E552E7CF11F006
:10130000E552E7CF10F000011024B36F000E11205A
:10131000B46F3AD0FD0EDB5007E1829ADF6A060E09
:10132000DB6A0001949F30D0020E106EFD0EDB5080
:10133000105C2AE1829A020EDF6E060EDB6A000163
:10134000948F610EE66EE66A3EEC22F0E552E552BD
:10135000106E116A10C011F0106A10C0E6FF11C0C3
:10136000E6FF620EE66EE66A3EEC22F0E552E552DA
:10137000E552E7CF11F0E552E7CF10F0000110245D
:10138000A36F000E1120A46F00D03BD0FE0EDB50E7
:10139000600818E3FD0EDBCFE6FFFE0EDB50410FC9
:1013A000E66EE66A18EC22F0E552E552E552FE0ED2
:1013B000DB50410FE66EE66A3EEC22F0E552E55264
:1013C000DF6E1FD0480EF36EFE0EDBCFF4FFF3503E
:1013D000F45C17E3FD0EDBCFE6FFFE0EDB50410FA2
:1013E000E66EE66A18EC22F0E552E552E552FE0E92
:1013F000DB50410FE66EE66A3EEC22F0E552E55224
:10140000DF6EA7EC1BF0050EDB504EE0FE0EDB504E
:101410004B0FFE0FE66EE66A3EEC22F0E552E55217
:10142000E76E070EE7CFDBFF060EDB501FE0070E6F
:10143000DBA60CD0030EE66E140EE66EFE0EDB503D
:10144000FE0FE66E4ED8E552E552E552070EDBAAD6
:101450000CD0190EE66E140EE66EFE0EDB50FE0F7B
:10146000E66E3FD8E552E552E5521ED0070EDBA8E6
:101470000CD0040EE66E140EE66EFE0EDB50FE0F70
:10148000E66E2FD8E552E552E552070EDBAC0CD0E4
:10149000180EE66E140EE66EFE0EDB50FE0FE66EC4
:1014A00020D8E552E552E552DF50106E080EE15C9F
:1014B00003E200D0E16AE552E16E1050E552E7CF59
:1014C000D9FF12000001030E756F820E746F766BE8
:1014D000776B220E786F070E796F480E7A6FA7EF41
:1014E0001BF0D9CFE6FFE1CFD9FF0001030E756FE6
:1014F000830E746FFD0EDB50766F776BFC0EDBCFC7
:1015000078F0FE0EDBCF79F0420EE66EE66A3EEC36
:1015100022F0E552E55200017A6FFE0EDB50730FA8
:10152000E66EE66A3EEC22F0E552E55200017B6F82
:10153000A7EC1BF0E552E7CFD9FF1200D9CFE6FFA9
:10154000E1CFD9FF080EE12600016851691101E1E0
:1015500060D1DF6A070EDF5C01E35BD1080EDF02BA
:10156000F3508A0FE66EE66A3EEC22F0E552E55251
:10157000E76E010EE7CFDBFFDBAE49D1DB50400B5E
:101580000EE0080EDF02F350890FE66EE66A3EECCD
:1015900022F0E552E55200016B5D01E038D1010E09
:1015A000DBA815D000016D51106E116AFF0E1018E6
:1015B00002E1000E11180BE0410EE66EE66A3EEC09
:1015C00022F0E552E55200016D5D01E020D1010EEF
:1015D000DB50010B126E136A12C013F0126A12C0B4
:1015E000E6FF13C0E6FF080EDF02F350890F030F7A
:1015F000E66EE66A3EEC22F0E552E552E552E7CFB0
:1016000013F0E552E7CF12F000011224106E000E25
:101610001320116E020E10C0DBFF030E11C0DBFFA2
:10162000010EDB50020B126E136A12C013F0126A25
:1016300012C0E6FF13C0E6FF080EDF02F350890F69
:10164000020FE66EE66A3EEC22F0E552E552E55204
:10165000E7CF13F0E552E7CF12F000011224106E2D
:10166000000E1320116E040E10C0DBFF050E11C01A
:10167000DBFF080EDF02F350890F050FE66EE66A06
:101680003EEC22F0E552E552E76E060EE7CFDBFFB7
:10169000080EDF02F350890F040FE66EE66A3EEC97
:1016A00022F0E552E552E76E070EE7CFDBFF020EB0
:1016B000DB50000168190001126E030EDB500001BF
:1016C00069190001136E040EDB501214106E050E22
:1016D000DB501314116E1050111001E098D0070E5A
:1016E000DBCFE6FF060EDB5000016A19E552E71476
:1016F00001E08DD0080EDF02F350890F060FE66E71
:10170000E66A3EEC22F0E552E552040A6CE0140A67
:1017100056E01A0A40E0090A2BE0010A16E0030A23
:1017200001E075D0080EDF02F350890F070FE66E57
:10173000E66A3EEC22F0E552E552E66E010EDBCFA2
:10174000E6FF71D8E552E55262D0080EDF02F35091
:10175000890F070FE66EE66A3EEC22F0E552E5528D
:10176000E66E010EDBCFE6FF53DAE552E5524FD0CD
:10177000080EDF02F350890F070FE66EE66A3EECB3
:1017800022F0E552E552E66E010EDBCFE6FFD2DA3B
:10179000E552E5523CD0080EDF02F350890F070FE7
:1017A000E66EE66A3EEC22F0E552E552E66E010E88
:1017B000DBCFE6FF2DEC10F0E552E55228D0080E05
:1017C000DF02F350890F070FE66EE66A3EEC22F067
:1017D000E552E552E66E010EDBCFE6FF05EC11F0B7
:1017E000E552E55214D0080EDF02F350890F070FBF
:1017F000E66EE66A3EEC22F0E552E552E66E010E38
:10180000DBCFE6FF54EC11F0E552E55200D0DF2AC1
:10181000A1D6080EE15C02E2E16AE552E16EE55212
:10182000E7CFD9FF1200D9CFE6FFE1CFD9FF020EF3
:10183000E126DF6A080EDF5C01E3E0D1FD0EDBCFBD
:10184000E6FF010EDF5206E0DFCFF3FFE846FE0BB6
:10185000F306FCE1E552E71401E1CED1FE0EDBA672
:101860000CD0730EDF24E66EE66A3EEC22F0E55201
:10187000E55200016E5D01E0BFD14B0EDF24E66E44
:10188000E66A3EEC22F0E552E552E76E010EE7CF44
:10189000DBFFDBAEB1D1DF50070A01E163D1010A02
:1018A00001E130D1030A01E1FDD0010A01E1CAD012
:1018B000070A01E197D0010A65E0030A33E0010A53
:1018C00001E080D1828E000194914B0EE66EE66AB3
:1018D0003EEC22F0E552E552040B23E0630EE66E87
:1018E000E66A3EEC22F0E552E552106E116A10C035
:1018F00011F0106A10C0E6FF11C0E6FF640EE66E3C
:10190000E66A3EEC22F0E552E552E552E7CF11F0EF
:10191000E552E7CF10F000011024A56F000E112052
:10192000A66F50D1808A000194934C0EE66EE66A51
:101930003EEC22F0E552E552040B23E0650EE66E24
:10194000E66A3EEC22F0E552E552106E116A10C0D4
:1019500011F0106A10C0E6FF11C0E6FF660EE66ED9
:10196000E66A3EEC22F0E552E552E552E7CF11F08F
:10197000E552E7CF10F000011024A76F000E1120F0
:10198000A86F20D18088000194954D0EE66EE66A1E
:101990003EEC22F0E552E552040B23E0670EE66EC2
:1019A000E66A3EEC22F0E552E552106E116A10C074
:1019B00011F0106A10C0E6FF11C0E6FF680EE66E77
:1019C000E66A3EEC22F0E552E552E552E7CF11F02F
:1019D000E552E7CF10F000011024A96F000E11208E
:1019E000AA6FF0D08086000194974E0EE66EE66AEC
:1019F0003EEC22F0E552E552040B23E0690EE66E60
:101A0000E66A3EEC22F0E552E552106E116A10C013
:101A100011F0106A10C0E6FF11C0E6FF6A0EE66E14
:101A2000E66A3EEC22F0E552E552E552E7CF11F0CE
:101A3000E552E7CF10F000011024AB6F000E11202B
:101A4000AC6FC0D08084000194994F0EE66EE66AB8
:101A50003EEC22F0E552E552040B23E06B0EE66EFD
:101A6000E66A3EEC22F0E552E552106E116A10C0B3
:101A700011F0106A10C0E6FF11C0E6FF6C0EE66EB2
:101A8000E66A3EEC22F0E552E552E552E7CF11F06E
:101A9000E552E7CF10F000011024AD6F000E1120C9
:101AA000AE6F90D080820001949B500EE66EE66A85
:101AB0003EEC22F0E552E552040B23E06D0EE66E9B
:101AC000E66A3EEC22F0E552E552106E116A10C053
:101AD00011F0106A10C0E6FF11C0E6FF6E0EE66E50
:101AE000E66A3EEC22F0E552E552E552E7CF11F00E
:101AF000E552E7CF10F000011024AF6F000E112067
:101B0000B06F60D080800001949D510EE66EE66A51
:101B10003EEC22F0E552E552040B23E06F0EE66E38
:101B2000E66A3EEC22F0E552E552106E116A10C0F2
:101B300011F0106A10C0E6FF11C0E6FF700EE66EED
:101B4000E66A3EEC22F0E552E552E552E7CF11F0AD
:101B5000E552E7CF10F000011024B16F000E112004
:101B6000B26F30D0828A0001949F520EE66EE66A10
:101B70003EEC22F0E552E552040B23E0710EE66ED6
:101B8000E66A3EEC22F0E552E552106E116A10C092
:101B900011F0106A10C0E6FF11C0E6FF720EE66E8B
:101BA000E66A3EEC22F0E552E552E552E7CF11F04D
:101BB000E552E7CF10F000011024B36F000E1120A2
:101BC000B46F00D0010EDBA60AD0030EE66E140E31
:101BD000E66EDFCFE6FF85DCE552E552E552010E09
:101BE000DBAA0AD0190EE66E140EE66EDFCFE6FF12
:101BF00078DCE552E552E552DF2A1CD6020EE15CA4
:101C000002E2E16AE552E16EE552E7CFD9FF120048
:101C1000D9CFE6FFE1CFD9FF020EE126DF6A080E39
:101C2000DF5C01E37DD0FD0EDBCFE6FF010EDF526E
:101C300006E0DFCFF3FFE846FE0BF306FCE1E552DA
:101C4000E71401E16BD0FE0EDBA60CD0730EDF248F
:101C5000E66EE66A3EEC22F0E552E55200016E5D6A
:101C600001E05CD04B0EDF24E66EE66A3EEC22F02B
:101C7000E552E552E76E010EE7CFDBFFDBAE4ED05B
:101C8000DF50070A2BE0010A25E0030A1FE0010AE2
:101C900019E0070A13E0010A0DE0030A07E0010A50
:101CA00001E020D0829E000194911CD0809A000116
:101CB000949318D080980001949514D080960001D8
:101CC000949710D08094000194990CD080920001D8
:101CD000949B08D080900001949D04D0829A0001CA
:101CE000949F00D0010EDBA80BD0040EE66E140EFC
:101CF000E66EDFCFE6FF71EC0AF0E552E552E55201
:101D0000010EDBAC0BD0180EE66E140EE66EDFCFC4
:101D1000E6FF71EC0AF0E552E552E552DF2A7FD783
:101D2000020EE15C02E2E16AE552E16EE552E7CFC4
:101D3000D9FF1200D9CFE6FFE1CFD9FF020EE1268D
:101D4000DF6A080EDF5C01E37ED1FD0EDBCFE6FF2C
:101D5000010EDF5206E0DFCFF3FFE846FE0BF3068D
:101D6000FCE1E552E71401E16CD1FE0EDBA60CD0DC
:101D7000730EDF24E66EE66A3EEC22F0E552E55291
:101D800000016E5D01E05DD14B0EDF24E66EE66A78
:101D90003EEC22F0E552E552E76E010EE7CFDBFFA5
:101DA000DBAE4FD1DF50070A01E124D1010A01E186
:101DB000FAD0030A01E1D0D0010A01E1A6D0070A56
:101DC00001E17CD0010A53E0030A2AE0010A01E0A4
:101DD00038D1829E00019481530EE66EE66A3EEC95
:101DE00022F0E552E552106E116A10C011F0106A2F
:101DF00010C0E6FF11C0E6FF540EE66EE66A3EEC48
:101E000022F0E552E552E552E7CF11F0E552E7CF77
:101E100010F000011024956F000E1120966F11D163
:101E2000809A00019483550EE66EE66A3EEC22F03D
:101E3000E552E552106E116A10C011F0106A10C020
:101E4000E6FF11C0E6FF560EE66EE66A3EEC22F0B3
:101E5000E552E552E552E7CF11F0E552E7CF10F039
:101E600000011024976F000E1120986FEAD080981F
:101E700000019485570EE66EE66A3EEC22F0E552CC
:101E8000E552106E116A10C011F0106A10C0E6FF22
:101E900011C0E6FF580EE66EE66A3EEC22F0E5520F
:101EA000E552E552E7CF11F0E552E7CF10F000011F
:101EB0001024996F000E11209A6FC3D080960001F4
:101EC0009487590EE66EE66A3EEC22F0E552E55242
:101ED000106E116A10C011F0106A10C0E6FF11C038
:101EE000E6FF5A0EE66EE66A3EEC22F0E552E55257
:101EF000E552E7CF11F0E552E7CF10F000011024D2
:101F00009B6F000E11209C6F9CD0809400019489DF
:101F10005B0EE66EE66A3EEC22F0E552E552106E8C
:101F2000116A10C011F0106A10C0E6FF11C0E6FF80
:101F30005C0EE66EE66A3EEC22F0E552E552E552B2
:101F4000E7CF11F0E552E7CF10F0000110249D6FAC
:101F5000000E11209E6F75D080920001948B5D0E53
:101F6000E66EE66A3EEC22F0E552E552106E116A2A
:101F700010C011F0106A10C0E6FF11C0E6FF5E0E3F
:101F8000E66EE66A3EEC22F0E552E552E552E7CF16
:101F900011F0E552E7CF10F0000110249F6F000E02
:101FA0001120A06F4ED080900001948D5F0EE66EE0
:101FB000E66A3EEC22F0E552E552106E116A10C05E
:101FC00011F0106A10C0E6FF11C0E6FF600EE66E69
:101FD000E66A3EEC22F0E552E552E552E7CF11F019
:101FE000E552E7CF10F000011024A16F000E112080
:101FF000A26F27D0829A0001948F610EE66EE66A86
:102000003EEC22F0E552E552106E116A10C011F05C
:10201000106A10C0E6FF11C0E6FF620EE66EE66AC7
:102020003EEC22F0E552E552E552E7CF11F0E552E1
:10203000E7CF10F000011024A36F000E1120A46F51
:1020400000D0DF2A7ED6020EE15C02E2E16AE552B0
:10205000E16EE552E7CFD9FF1200D9CFE6FFE1CF1D
:10206000D9FF030EE126020EDB6ADF6A080EDF5C91
:1020700001E3C1D0FD0EDBCFE6FF010EDF5206E02B
:10208000DFCFF3FFE846FE0BF306FCE1E552E71471
:1020900001E1AFD0FE0EDBA60CD0730EDF24E66E9E
:1020A000E66A3EEC22F0E552E55200016E5D01E089
:1020B000A0D04B0EDF24E66EE66A3EEC22F0E5523D
:1020C000E552E76E010EE7CFDBFFDF50070A4CE079
:1020D000010A43E0030A38E0010A2DE0070A22E082
:1020E000010A17E0030A0CE0010A01E046D0825021
:1020F000800B01E0010EE76E020EE7CFDBFF3DD063
:102100008050200B01E0010EE76E020EE7CFDBFFEF
:1021100034D08050100B01E0010EE76E020EE7CFC5
:10212000DBFF2BD08050080B01E0010EE76E020EA2
:10213000E7CFDBFF22D08050040B01E0010EE76EF9
:10214000020EE7CFDBFF19D08050020B01E0010E39
:10215000E76E020EE7CFDBFF10D08050010BE76E79
:10216000020EE7CFDBFF09D08250200B01E0010E09
:10217000E76E020EE7CFDBFF00D0020EDB501DE062
:10218000010EDBA80BD0040EE66E140EE66EDFCF58
:10219000E6FF71EC0AF0E552E552E552010EDBACC8
:1021A0000BD0180EE66E140EE66EDFCFE6FF71EC74
:1021B0000AF0E552E552E5521CD0010EDBA80BD027
:1021C000040EE66E140EE66EDFCFE6FF71EC0AF049
:1021D000E552E552E552010EDBAC0BD0180EE66E6F
:1021E000140EE66EDFCFE6FF71EC0AF0E552E55221
:1021F000E552DF2A3BD7030EE15C02E2E16AE552D9
:10220000E16EE552E7CFD9FF1200D9CFE6FFE1CF6B
:10221000D9FF030EE126020EDB6ADF6A080EDF5CDF
:1022200039E2FD0EDBCFE6FF010EDF5206E0DFCF25
:10223000F3FFE846FE0BF306FCE1E552E71401E18B
:1022400027D0FE0EDBA60CD0730EDF24E66EE66A06
:102250003EEC22F0E552E55200016E5D01E018D03F
:102260004B0EDF24E66EE66A3EEC22F0E552E552C4
:10227000E76E010EE7CFDBFFDB507F0BE66E4B0E08
:10228000DF24E66EE66A18EC22F0E552E552E552EC
:10229000DF2AC4D7030EE15C02E2E16AE552E16E97
:1022A000E552E7CFD9FF1200D9CFE6FFE1CFD9FF42
:1022B000030EE126020EDB6ADF6A080EDF5C01E333
:1022C000E3D0FD0EDBCFE6FF010EDF5206E0DFCFED
:1022D000F3FFE846FE0BF306FCE1E552E71401E1EB
:1022E000D1D0FE0EDBA60CD0730EDF24E66EE66ABC
:1022F0003EEC22F0E552E55200016E5D01E0C2D0F5
:102300004B0EDF24E66EE66A3EEC22F0E552E55223
:10231000E76E010EE7CFDBFFDF50070A6AE0010A34
:102320005BE0030A4CE0010A3DE0070A2EE0010AE7
:102330001FE0030A10E0010A01E068D082AE04D079
:10234000829E020EDB6A06D0828E010EF36E020EB2
:10235000F3CFDBFF5BD080AA04D0809A020EDB6A49
:1023600006D0808A010EF36E020EF3CFDBFF4ED053
:1023700080A804D08098020EDB6A06D08088010E07
:10238000F36E020EF3CFDBFF41D080A604D080961F
:10239000020EDB6A06D08086010EF36E020EF3CFCA
:1023A000DBFF34D080A404D08094020EDB6A06D018
:1023B0008084010EF36E020EF3CFDBFF27D080A2E4
:1023C00004D08092020EDB6A06D08082010EF36E8A
:1023D000020EF3CFDBFF1AD080A004D08090020E53
:1023E000DB6A06D08080010EF36E020EF3CFDBFFB6
:1023F0000DD082AA04D0829A020EDB6A06D0828AAD
:10240000010EF36E020EF3CFDBFF00D0020EDB50A5
:102410001DE0010EDBA60BD0030EE66E140EE66E79
:10242000DFCFE6FF71EC0AF0E552E552E552010E0E
:10243000DBAA0BD0190EE66E140EE66EDFCFE6FFB8
:1024400071EC0AF0E552E552E5521CD0010EDBA812
:102450000BD0040EE66E140EE66EDFCFE6FF71ECD5
:102460000AF0E552E552E552010EDBAC0BD0180E36
:10247000E66E140EE66EDFCFE6FF71EC0AF0E55271
:10248000E552E552DF2A19D7030EE15C02E2E16A68
:10249000E552E16EE552E7CFD9FF1200000E00D001
:1024A0001200010E00D01200060E00D01200D9CF8B
:1024B000E6FFE1CFD9FFFE0EDB50110FE66EE66AB4
:1024C0003EEC22F0E552E55200D0E552E7CFD9FFCD
:1024D0001200D9CFE6FFE1CFD9FFFE0EDB50EA6A4A
:1024E000B50FE96E000EEA22EF5000D0E552E7CFBB
:1024F000D9FF1200D9CFE6FFE1CFD9FFFE0EDB50A6
:10250000040FE66EE66A3EEC22F0E552E55200D09A
:10251000E552E7CFD9FF1200D9CFE6FFE1CFD9FFCF
:10252000FD0EDBCFE6FFFE0EDB50040FE66EE66A23
:1025300018EC22F0E552E552E552E552E7CFD9FF1B
:102540001200D9CFE6FFE1CFD9FFFE0EDB50090F15
:10255000E66EE66A3EEC22F0E552E55200D0E55226
:10256000E7CFD9FF1200D9CFE6FFE1CFD9FFFD0EAB
:10257000DBCFE6FFFE0EDB50090FE66EE66A18ECD5
:1025800022F0E552E552E552E552E7CFD9FF1200BD
:10259000010E00D01200080E00D01200010EE66EEF
:1025A000E66A3EEC22F0E552E55200D01200D9CFA7
:1025B000E6FFE1CFD9FFFE0EDBCFE6FF010EE66EB0
:1025C000E66A18EC22F0E552E552E552E552E7CF13
:1025D000D9FF1200020EE66EE66A3EEC22F0E552EA
:1025E000E55200D01200D9CFE6FFE1CFD9FFFE0EB1
:1025F000DBCFE6FF020EE66EE66A18EC22F0E5524B
:10260000E552E552E552E7CFD9FF1200D9CFE6FFF8
:10261000E1CFD9FFFE0EDBCFE6FF030EE66EE66AE2
:1026200018EC22F0E552E552E552E552E7CFD9FF2A
:102630001200030EE66EE66A3EEC22F0E552E55229
:1026400000D012000001030E756F830E746F766B5D
:10265000776B0A0E786F796B7A6B7B6BA7EF1BF049
:10266000E668000EE66EE66A18EC22F0E552E552E6
:10267000E552FF001200D9CFE6FFE1CFD9FFE652C5
:102680000001070E796F480E7A6F020EDF6E080E9A
:10269000DF5C09E2DF50EA6A790FE96E000EEA2298
:1026A000EF6ADF2AF4D7E552E552E7CFD9FF1200EF
:1026B000010E00D01200D9CFE6FFE1CFD9FF040E02
:1026C000E126FA0EDBCF10F0116A126A136A1A0EB5
:1026D0001F0B07E0D8901036113612361336E80675
:1026E000F9E1FD0EDBCF14F0FE0EDBCF15F0166A1C
:1026F000176A100E1F0B07E0D890143615361636E1
:102700001736E806F9E11450101215501112165040
:10271000121217501312FC0EDBCF18F0196A1A6A46
:102720001B6A080E1F0B07E0D890183619361A36A8
:102730001B36E806F9E118501012195011121A5000
:1027400012121B501312FB0EDBCF1CF01D6A1E6A07
:102750001F6A1C5010121D5011121E5012121F50D1
:10276000131210C0DFFF010E11C0DBFF020E12C0FA
:10277000DBFF030E13C0DBFFF70EDBCFE6FFF80E27
:10278000DBCFE6FFF90EDBCFE6FFD9CFE9FFDACFEB
:10279000EAFFEECFE6FFEECFE6FFEECFE6FFEFCFAC
:1027A000E6FFC1D8106E070EE15E1050000904E18B
:1027B0000001612B000E02D0010E00D0106E040E3D
:1027C000E15C02E2E16AE552E16E1050E552E7CFCA
:1027D000D9FF1200D9CFE6FFE1CFD9FF040EE126E1
:1027E000F30EDBCFE6FFF40EDBCFE6FFF50EDBCF1B
:1027F000E6FFF60EDBCFE6FFD9CFE6FFDACFE6FF46
:10280000C1D8106E060EE15E1050000902E1000E04
:102810007ED0D9CFE9FFDACFEAFFEECF10F0EECFCE
:1028200011F0EECF12F0EFCF13F01050E66EF90E6C
:10283000DBCFE9FFFA0EDBCFEAFFE552E750EF6EA0
:10284000D9CFE9FFDACFEAFFEECF10F0EECF11F0EB
:10285000EECF12F0EFCF13F0080ED89013321232F1
:1028600011321032E806F9E11050E66EFB0EDBCFB4
:10287000E9FFFC0EDBCFEAFFE552E750EF6ED9CF60
:10288000E9FFDACFEAFFEECF14F0EECF15F0EECF8E
:1028900016F0EFCF17F016C010F017C011F00001BE
:1028A000126A136A010E1116126A136AFD0EDBCF4B
:1028B000E9FFFE0EDBCFEAFF10C0EEFF11C0EDFF17
:1028C0001A0E146ED9CFE9FFDACFEAFF14501F0BAE
:1028D000EECF10F0EECF11F0EECF12F0EECF13F0FE
:1028E00007E0D8901332123211321032E806F9E1C3
:1028F000070E1016116A126A136AF70EDBCFE9FF92
:10290000F80EDBCFEAFF10C0EFFF010E00D0106E13
:10291000040EE15C02E2E16AE552E16E1050E5521C
:10292000E7CFD9FF1200D9CFE6FFE1CFD9FF200EC4
:10293000E66EFA0EDBCFE6FFF80EDBCFE6FFF90E10
:10294000DBCFE6FFD950FB0FE96EFF0EDA20EA6E0F
:10295000EECFE6FFEECFE6FFEECFE6FFEFCFE6FFEE
:1029600051EC1CF0106E080EE15E1050000902E1FF
:10297000000E04D00001746B010E00D0E552E7CFC9
:10298000D9FF1200D9CFE6FFE1CFD9FFE65200010F
:1029900066AF02D0000E2AD0D9CFE6FFDACFE6FF2D
:1029A000FB0EDBCFE6FFFC0EDBCFE6FFF90EDBCF45
:1029B000E6FFFA0EDBCFE6FFFD0EDBCFE6FFFE0EF5
:1029C000DBCFE6FFBCEC1DF0106E080EE15E105090
:1029D00000090AE0DFAC02D0000E08D0DFBA02D056
:1029E000000E04D0010E02D0000E00D0E552E552D8
:0629F000E7CFD9FF120041
:0A29F6000001020E826FF3EC04F002
:102A00000001606F605101E16069666B676B686B24
:102A1000696B6A6B746B756B766B776B786B616BDC
:102A2000626B816B636B646B656B876B886B836BAD
:102A3000846B8A6B8B6B8C6B1200EAEC12F0C00B10
:102A4000400802E1010E0FD0E668FCEC04F0E5520C
:102A5000E66AF3EC12F0E552900EE66E06EC13F027
:102A6000E552000E00D012000001826B120000013E
:102A70006451020A61E0030A26E0010A02E0646B85
:102A80005CD0FF0E815D11E0810E746F756B766B0B
:102A9000776B020E786F81C079F0A7EC1BF0000114
:102AA000010E646F836B846B0DD0040E636F810E17
:102AB000746F7969070E756F766B776B030E786F9D
:102AC000A7EC1BF03AD066AF11D0685169110DE147
:102AD000030E6A5D0AE1815105E1020E636F836BAB
:102AE000846B03D0812B646B656B25D0E80ED88096
:102AF0008355030E84551FE2652B655103081AE2C6
:102B0000815105E1812B646B836B846B12D081C092
:102B100060F0030E636F646B60C0E6FFFCEC04F0D2
:102B2000E552400EE66EF3EC12F0E5520001656BE3
:102B300030D801D0646B01D000D00001666B120068
:102B4000000166AF19D06851691115E1060E6A5D82
:102B500012E1FF0E6C5D0FE16DC060F060C0E6FF3A
:102B6000FCEC04F0E552400EE66EF3EC12F0E55298
:102B70000001030E636F0CD0E80ED8808355030E5E
:102B8000845506E26069E668FCEC04F0E55233DF48
:102B900012000001810E746F756B766B776B020EFD
:102BA000786F60C079F0A7EC1BF00001010E826F16
:102BB0001200D9CFE6FFE1CFD9FF0001830E746F79
:102BC000070E756F140E766F776B090E786F796B41
:102BD000FE0EDBCF7AF0FD0EDBCF7BF0A7EC1BF017
:102BE000E552E7CFD9FF1200050E106E0F0E00015F
:102BF0006615105C13E1EAEC12F000016C5D0EE06A
:102C00006CC0E6FFF3EC12F0E55200016069E66883
:102C1000FCEC04F0E5520001010E636F1200020E9D
:102C2000106E0F0E00016615105C0FE16C51605DB7
:102C30000CE16DC060F060C0E6FFFCEC04F0E55212
:102C4000400EE66EF3EC12F0E5521200010E106E2B
:102C50000F0E00016615105C09E16C51605D06E124
:102C60006069E668FCEC04F0E552C5DE1200010E76
:102C7000106E0F0E00016615105C0CE16C51605D6A
:102C800009E1800E746F756B766B776B030E786F4E
:102C9000A7EC1BF0120000018A2B8A513B080EE2C0
:102CA0008A6B8B2B030E635D09E118EC05F0E66E71
:102CB0000FEC05F0E66E7DDFE552E55200018B5129
:102CC0003B0802E28B6B8C2B8C51170801E28C6B5A
:102CD000030E635D08E1892B0F0E8915106E020E3D
:102CE000105C01E3896B1200D9CFE6FFE1CFD9FF79
:102CF000800EF36EFE0EDBCFF4FFF350F45C07E3BF
:102D0000FE0EDBCFE6FF0ED8E55208D007D0FE0E50
:102D1000DBCFE6FF2FEC05F0E55200D0E552E7CF20
:102D2000D9FF1200D9CFE6FFE1CFD9FFE652DF6A23
:102D3000800E00016D5D04E162C0DFFF626B7ED03A
:102D4000810E6D5D03E1010EDF6E78D0820E6D5D48
:102D500003E1050EDF6E72D0830E6D5D02E1DF6A66
:102D60006DD0940E6D5D04E14EEC12F0DF6E66D016
:102D7000950E6D5D04E151EC12F0DF6E5FD0960EA2
:102D80006D5D04E154EC12F0DF6E58D0890E6D5D7C
:102D900008E2840E6D5DE66E7AEC12F0E552DF6EAD
:102DA0004DD06D5188080BE2910E6D5D08E2890EE1
:102DB0006D5DE66EA1EC12F0E552DF6E3FD0910E34
:102DC0006D5D03E160C0DFFF39D0930E6D5D03E1FF
:102DD0008751DF6E33D0920E6D5D06E188C010F032
:102DE000116A1050DF6E2AD0970E6D5D04E1C8ECB9
:102DF00012F0DF6E23D0980E6D5D04E1CBEC12F083
:102E0000DF6E1CD0990E6D5D04E158EC13F0DF6E9F
:102E100015D06D51CF080BE2E00E6D5D08E2D00ECB
:102E20006D5DE66E57EC12F0E552DF6E07D0E00EF6
:102E30006D5DE66E69EC12F0E552DF6EDF5000D09A
:102E4000E552E552E7CFD9FF1200D9CFE6FFE1CF37
:102E5000D9FF800EF36EFE0EDBCFF4FFF350F45C6F
:102E60000BE3FD0EDBCFE6FFFE0EDBCFE6FF13D854
:102E7000E552E5520CD00BD0FD0EDBCFE6FFFE0E87
:102E8000DBCFE6FFB7EC05F0E552E55200D0E552A6
:102E9000E7CFD9FF1200D9CFE6FFE1CFD9FFE65245
:102EA000FD0EDB1CDF6E00016D51830815E2890EFB
:102EB0006D5D12E26EC0E6FF840E6D5DE66E8CEC19
:102EC00012F0E552E552840E00016D5DE66E7AEC7B
:102ED00012F0E552DF6E2CD0920E6D5D17E1000E00
:102EE0008715106EFF0E8815116E6EC012F012C09D
:102EF00013F0126A10501210876F11501310886F60
:102F000088C010F0116A1050DF6E12D0930E6D5D04
:102F10000CE1FF0E8715106E116A6E511010876F4D
:102F200011C088F08751DF6E03D0FD0EDB1CDF6E11
:102F3000DF5000D0E552E552E7CFD9FF1200D9CFDC
:102F4000E6FFE1CFD9FF150EE126000168516911B6
:102F500001E0F3D36A51260A01E19ED3030A01E19D
:102F600052D3060A01E14CD3020A01E134D33E0AEE
:102F700001E16ED2010A01E14DD2030A01E12CD236
:102F8000040A01E1D5D1010A01E169D10F0A01E189
:102F9000CBD01B0A01E17FD0070A44E0020A11E00E
:102FA000010A0DE00E0A09E0040A05E0030A01E047
:102FB000C4D31ADEC2D35BDEC0D331DEBED346DE5D
:102FC000BCD3020E106E0F0E6615105C2AE16C5118
:102FD000605D27E1800E6D5D13E2030E756F820E5A
:102FE000746F766B776B0A0E786F6DC079F06DC079
:102FF000E6FF2FEC05F0E55200017A6FA8DB11D057
:10300000030E756F820E746F766B776B0A0E786F96
:103010006DC079F06DC0E6FF85DEE55200017A6F84
:1030200096DB8BD3030E106E0F0E6615105C32E12B
:103030006C51605D2FE1800E6D5D16E2030E756FC1
:10304000820E746F766B776B0A0E786F6DC079F0B5
:103050006EC0E6FF6DC0E6FFB7EC05F0E552E55245
:1030600000017A6F74DB16D0030E756F820E746FD9
:10307000766B776B0A0E786F60C079F06DC079F06F
:103080006EC0E6FF6DC0E6FF06DFE552E5520001C7
:103090007A6F5DDB52D36C51605D05E1090E6D5DA9
:1030A00002E130EC13F000016C51605D3CE16D0514
:1030B0003AE1E66A57EC12F0E55200016E5D33E149
:1030C000030EE66E57EC12F0E55200016F5D2BE146
:1030D000050EE66E57EC12F0E5520001705D23E13B
:1030E000070EE66E57EC12F0E5520001715D1BE130
:1030F00088C010F0116A7251126E136A12501018C3
:1031000002E1135011180FE1FF0E8715146E156AB6
:103110007351166E176A1650141802E117501518DD
:1031200002E130EC13F009D36C390F0B030A6DE0A8
:10313000010A49E0030A25E0010A02E0896B87D011
:10314000E66A57EC12F0E55200016D5D19E1010EDF
:10315000E66E57EC12F0E55200016E5D11E1020ED1
:10316000E66E57EC12F0E55200016F5D09E1030EC7
:10317000E66E57EC12F0E5520001705D01E18989BD
:1031800066D0040EE66E57EC12F0E55200016D5D5C
:1031900019E1050EE66E57EC12F0E55200016E5D86
:1031A00011E1060EE66E57EC12F0E55200016F5D7C
:1031B00009E1070EE66E57EC12F0E5520001705D72
:1031C00001E1898B44D0080EE66E57EC12F0E5520F
:1031D00000016D5D19E1090EE66E57EC12F0E55243
:1031E00000016E5D11E10A0EE66E57EC12F0E55239
:1031F00000016F5D09E10B0EE66E57EC12F0E5522F
:103200000001705D01E1898D22D00C0EE66E57EC55
:1032100012F0E55200016D5D19E10D0EE66E57ECFE
:1032200012F0E55200016E5D11E10E0EE66E57ECF4
:1032300012F0E55200016F5D09E10F0EE66E57ECEA
:1032400012F0E5520001705D01E1898F00D0F00EAF
:10325000106E8915105C02E1FBEC14F06ED26C511B
:10326000605D65E1010EDB6A020E6DC0DBFF030EDF
:103270006EC0DBFFDF6A030EDB50DF5C58E2020E3C
:10328000DB50DF24E66E30DDE552E66E070E106E91
:1032900010C00CF0DFCF07F0D2EC22F00328EA6A6E
:1032A000790FE96E000EEA22E552E750EF6E070E45
:1032B000106E10C00CF0DFCF07F0D2EC22F00350FC
:1032C000060804E0030EDB04DF5C2FE1070E106E3E
:1032D00010C00CF0DFCF07F0D2EC22F0035006084C
:1032E00006E1070EF36E040EF3CFDBFF0DD0070EE1
:1032F000106E10C00CF0DFCF07F0D2EC22F00328E4
:10330000E76E040EE7CFDBFFDB50800F010F0001FB
:10331000746F030E756F766B776B1A0E786F010EF4
:10332000DBCF79F014DA010EDB2ADF2AA4D705D22D
:103330006C51605D50E1060E6DC0DBFF020E665DF4
:10334000070BE76E070EE7CFDBFF050EDB6A070E04
:10335000DB50F36E050EDBCFF4FFF350F45C2DE28F
:10336000050EDB50020FEA6A6C0FE96E000EEA22CE
:10337000EF50E66E050EDBCFE6FF060EDB50E552A2
:10338000E724E66E62DDE552E552050EDBCFE6FF8F
:10339000060EDB50E552E724E66EA6DCE552E66E4B
:1033A000050EDB28EA6A790FE96E000EEA22E55283
:1033B000E750EF6E050EDB2ACAD70001030E756FCA
:1033C000766B776B1A0E786F796B070EDB50800F78
:1033D000010F746FBCD9B1D16C51605D1AE1030E5D
:1033E000756F820E746F766B776B0A0E786F6DC097
:1033F00079F06DC0E6FF2FEC05F0E552010FE66EA7
:103400006DC0E6FFB7EC05F0E552E55200017A6FBA
:103410009ED993D16C51605D1AE1030E756F820ED7
:10342000746F766B776B0A0E786F6DC079F06DC034
:10343000E6FF2FEC05F0E552FF0FE66E6DC0E6FFEC
:10344000B7EC05F0E552E55200017A6F80D975D1ED
:103450006C51605D04E0FF0E6C5D01E0BBD00A0EB4
:10346000DB6A030E756F880E746F766B776B200EB8
:10347000786F080EDB6A030EF36E080EDBCFF4FFE5
:10348000F350F45C38E2080EDBCF79F0010EF36EF6
:10349000090EF3CFDBFF080EF36E090EDBCFF4FF4E
:1034A000F350F45C1FE20F0E106E0A0EDBCFF3FF39
:1034B000DB2AF350105CE66E57EC12F0E552E66E34
:1034C000090EDB50EA6A790FE96E000EEA22E55236
:1034D000E750EF6E0A0EDB50100801E203D0090E30
:1034E000DB2AD9D70A0EDB50100801E204D02FD90D
:1034F000080EDB2AC0D7090EDB6A050EF36E090E33
:10350000DBCFF4FFF350F45C27E2090EDBCFE6FFDC
:1035100069EC12F0E552000813E2090EDBCFE6FF7A
:1035200069EC12F0E552E66E090EDB50030FEA6A11
:10353000790FE96E000EEA22E552E750EF6E09D0EE
:10354000090EDB50030FEA6A790FE96E000EEA22DA
:10355000EF6A090EDB2AD1D7FAD8050EF36E0A0EF0
:10356000F3CFDBFF030EF36E080EF3CFDBFF070E86
:10357000F36E080EDBCFF4FFF350F45C2BE2080E81
:10358000DBCF79F0010EF36E090EF3CFDBFF080EEF
:10359000F36E090EDBCFF4FFF350F45C17E20A0E72
:1035A000DBCFF3FFDB2AF350E66E69EC12F0E55255
:1035B000E66E090EDB50EA6A790FE96E000EEA2228
:1035C000E552E750EF6E090EDB2AE1D7C0D8080EAE
:1035D000DB2ACDD7B2D06C51605D11E1030E756F5F
:1035E000870E746F766B776B220E786F790EE66EAE
:1035F000000EE66E3BEC13F0E552E552A8D89DD0E4
:1036000022EC13F09AD06C51605D45E10E0E6DC056
:10361000DBFF0F0E6EC0DBFF0C0E87C0DBFF0D0E55
:1036200088C0DBFF6F51060802E2060E6F6F030EC3
:10363000756F830E6F25746F766B776B270E786FBF
:103640000B0E6EC0DBFF6E516F25F36E0B0EDBCFE2
:10365000F4FFF350F45C18E20B0EDBCFE6FF74ECE2
:1036600016F0E552E66E0B0EDB500001D8806E5569
:10367000030FEA6A790FE96E000EEA22E552E7507D
:10368000EF6E0B0EDB2ADFD70C0EDBCF87F00D0EB3
:10369000DBCF88F05CD851D06C51605D4DE1130EEA
:1036A0006DC0DBFF140E6EC0DBFF110E87C0DBFFA9
:1036B000120E88C0DBFF030E756F830E6F25746FCB
:1036C000766B776B270E786F100E6EC0DBFF6E5136
:1036D0006F25F36E100EDBCFF4FFF350F45C25E2A0
:1036E000100EDB50D8806E55040FEA6A6C0FE96E3D
:1036F000000EEA22EF50E66E100EDBCFE6FF25EC5F
:1037000017F0E552E552E66E100EDB500001D8804E
:103710006E55030FEA6A790FE96E000EEA22E55250
:10372000E750EF6E100EDB2AD2D7110EDBCF87F0F9
:10373000120EDBCF88F00BD800D0150EE15C02E250
:10374000E16AE552E16EE552E7CFD9FF1200D9CF29
:10375000E6FFE1CFD9FFE652790EE66E000EE66E87
:103760000F0E00017415E66E75C0E6FF60C0E6FF3F
:1037700078C0E6FF76C0E6FF77C0E6FF5BEC13F0AB
:10378000106E080EE15E1050DF6EDF5002E10001A6
:10379000612BDF5000D0E552E552E7CFD9FF120090
:1037A000D9CFE6FFE1CFD9FFE652000166AF02D0E4
:1037B000010E25D06C0EE66E000EE66E660EE66E0D
:1037C000000EE66E670EE66E000EE66E6B0EE66E9F
:1037D000000EE66E6A0EE66E000EE66E680EE66E8F
:1037E000000EE66EEAEC13F0106E0C0EE15E105067
:1037F000DF6EDF5002E00001668FDF5000D0E5523F
:08380000E552E7CFD9FF1200E9
:08380800800EE66E93DBE55231
:10381000090E706EFC0E716E010E726E200E736ECC
:10382000778E779C606A0F01506B0E01206B306BB6
:10383000406B506B606B706B0D01E00EF86F0F0109
:10384000006B080E016F026B036B046BE80E056FD3
:103850001A0E066F076B0D01030ED46FD56BE06B6C
:10386000110EE16FE26FE36BE46BE56BE66BE76B08
:10387000540EF06F050EF16FF26BF26B0F010F0E2D
:10388000186FE00E196F1A6B1B6B19870F0E1C6FE8
:10389000E00E1D6F1E691F6B1D87E66A4BDBE5524C
:1038A0001200D9CFE6FFE1CFD9FF1C0EE126D95097
:1038B000080FE96EDACFEAFF400EEE6E0F0EED6EE6
:1038C000D9500A0FE96EDACFEAFF300EEE6E0F0E16
:1038D000ED6ED9500C0FE96EDACFEAFF200EEE6ED6
:1038E0000F0EED6ED9500E0FE96EDACFEAFF200E03
:1038F000EE6E0E0EED6ED950100FE96EDACFEAFFC4
:10390000300EEE6E0E0EED6ED950120FE96EDACF5C
:10391000EAFF400EEE6E0E0EED6ED950140FE96EFA
:10392000DACFEAFF500EEE6E0E0EED6ED950160F86
:10393000E96EDACFEAFF600EEE6E0E0EED6ED95034
:10394000180FE96EDACFEAFF700EEE6E0E0EED6E16
:10395000C00E7714DF6EDF5004E1DE52020EDD6E22
:1039600003D0DE52080EDD6E0D01F8417F0BE76ECD
:103970001B0EE7CFDBFF020EDB6A010EDB50F36E9E
:10398000020EDBCFF4FFF350F45C01E3E7D0D95033
:10399000080F106EDACF11F0020EDB50020D10503E
:1039A000F324E96E1150F420EA6E040EEECFDBFF33
:1039B000050EEDCFDBFF040EDBCF06F0050EDBCFEF
:1039C00007F0060E06C0DBFF070E07C0DBFF020E86
:1039D000DB50020810E21B0EDBCFF3FFF390F34243
:1039E000F3CFDBFFD9501B0FE96EDACFEAFFEF50C0
:1039F000010B01E1B0D0040EDBCFE9FF050EDBCFF8
:103A0000EAFFEF50080B01E0A6D0FC0E106E040E8A
:103A1000DBCFE9FF050EDBCFEAFF1050EF16F70E04
:103A2000DB50030B106E040EDBCFE9FF050EDBCF7E
:103A3000EAFF1050EF12F70EDBAC08D0F80EDB50A7
:103A40004009E76E1A0EE7CFDBFF06D0F80EDB5019
:103A5000E76E1A0EE7CFDBFF050EE76E040EDBCF35
:103A6000E9FF050EDBCFEAFFE750E926000EEA2268
:103A70001A0EDBCFEFFFF70EDBAA06D0010EF36EB6
:103A80001A0EF3CFDBFF02D01A0EDB6ADBCFE6FFA4
:103A9000D950FB0FE96EFF0EDA20EA6EEECFE6FF9B
:103AA000EECFE6FFEECFE6FFEFCFE6FF010EE76ECB
:103AB000040EDBCF10F0050EDBCF11F0E75010261F
:103AC000000E112210C0E6FF11C0E6FF48DA126EA8
:103AD000070EE15E1250D950040FE96EDACFEAFF0B
:103AE000060EEE26000EED22030EDB6AF80EDB500A
:103AF000F36E030EDBCFF4FFF350F45C1AE2F90E21
:103B0000DBCFE9FFDB2AFA0EDBCFEAFF01E3DB2A9A
:103B1000EF50E66E040EDBCFE9FFDB2A050EDBCFAC
:103B2000EAFF01E3DB2AE552E750EF6E030EDB2AE2
:103B3000DDD7060EDBCFE9FF070EDBCFEAFFEF5044
:103B4000040B07E1060EDBCFE9FF070EDBCFEAFF30
:103B5000EF86010E05D0020EDB2A0FD7000E00D033
:103B6000106E1C0EE15C02E2E16AE552E16E10505B
:103B7000E552E7CFD9FF1200D9CFE6FFE1CFD9FF59
:103B8000070EE1260001DF6BC00E7714DF6EDF50F9
:103B900046E160AE1AD0A49074AE08D0F70EDBCF29
:103BA000E9FFF80EDBCFEAFFEF86749EDF916050ED
:103BB000010B01E0DF81D950010FE96EDACFEAFF96
:103BC000600EEE6E0F0EED6E28D00F0150AF23D0B9
:103BD000A49274AC08D0F70EDBCFE9FFF80EDBCF70
:103BE000EAFFEF86749C070E50150001DF6F020E8E
:103BF000DF5D07E2F70EDBCFE9FFF80EDBCFEAFF70
:103C0000EF8ED950010FE96EDACFEAFF500EEE6E5B
:103C10000F0EED6E02D0000E81D1B3D09DD0400EBC
:103C2000DF5C01E089D060AE0AD0D950010FE96EA7
:103C3000DACFEAFF600EEE6E0F0EED6E7BD00F0155
:103C400050AF0AD0D950010FE96EDACFEAFF500E1B
:103C5000EE6E0F0EED6E6ED00D01F851040B0EE1FD
:103C60000E012051800B0AE0D950010FE96EDACF26
:103C7000EAFF200EEE6E0E0EED6E5CD00D01F851D7
:103C8000080B0EE10E013051800B0AE0D950010FF4
:103C9000E96EDACFEAFF300EEE6E0E0EED6E4AD010
:103CA0000D01F851100B0EE10E014051800B0AE09E
:103CB000D950010FE96EDACFEAFF400EEE6E0E0E1C
:103CC000ED6E38D00D01F851200B0EE10E01505170
:103CD000800B0AE0D950010FE96EDACFEAFF500EEF
:103CE000EE6E0E0EED6E26D00D01F851400B0EE17A
:103CF0000E016051800B0AE0D950010FE96EDACF56
:103D0000EAFF600EEE6E0E0EED6E14D00D01F8514E
:103D1000800B0EE10E017051800B0AE0D950010FAB
:103D2000E96EDACFEAFF700EEE6E0E0EED6E02D087
:103D3000000EF4D011D010D074AE0CD0070E6F145A
:103D4000E66ED6DAE552DE52F3CFDEFFF4CFDDFFCA
:103D5000DD5202D0000EE2D0010EDBCFE9FF020EF1
:103D6000DBCFEAFFEF501F0B0001DF6FA49274ACB2
:103D700008D0F70EDBCFE9FFF80EDBCFEAFFEF86C6
:103D8000749C010EDBCF06F0020EDBCF07F0030EB2
:103D900006C0DBFF040E07C0DBFFF70EDBCFE9FF39
:103DA000F80EDBCFEAFFEF6A050EE76E010EDBCF00
:103DB000E9FF020EDBCFEAFFE750E926000EEA2218
:103DC000060EEFCFDBFFDB500F0BE66EF90EDBCFFD
:103DD000E9FFFA0EDBCFEAFFE552E750EF6ED9506C
:103DE000060FE96EDACFEAFFEF50400B07E0F70E5F
:103DF000DBCFE9FFF80EDBCFEAFFEF8C020EE76EB8
:103E0000010EDBCFE9FF020EDBCFEAFFE750E92628
:103E1000000EEA22060EEFCFDBFFD950060FE96E47
:103E2000DACFEAFFEF50080B0DE0F70EDBCFE9FF2A
:103E3000F80EDBCFEAFFEF8A010EF36E060EF3CF2A
:103E4000DBFF02D0060EDB6ADBCFE6FFFD0EDBCF29
:103E5000E6FFFE0EDBCFE6FF010EE76EDBCF10F0D4
:103E6000020EDBCF11F0E7501026000E112210C019
:103E7000E6FF11C0E6FF53D9126E050EE15E125047
:103E8000D950010FE96EDACFEAFF060EEE26000EDA
:103E9000ED22F90EDBCFE9FFFA0EDBCFEAFF060ECB
:103EA000EFCFDBFF050EDB6A060EDB50F36E050E6F
:103EB000DBCFF4FFF350F45C1AE2010EDBCFE9FF35
:103EC000DB2A020EDBCFEAFF01E3DB2AEF50E66ECE
:103ED000FB0EDBCFE9FFDB2AFC0EDBCFEAFF01E3C1
:103EE000DB2AE552E750EF6E050EDB2ADDD7A4AEE4
:103EF00008D0F70EDBCFE9FFF80EDBCFEAFFEF8843
:103F0000A49E030EDBCFE9FF040EDBCFEAFFEF9E9A
:103F1000800EDF5C01E1749E010E00D0106E070E72
:103F2000E15C02E2E16AE552E16E1050E552E7CF52
:103F3000D9FF1200D9CFE6FFE1CFD9FF1F0E6F16D0
:103F4000FE0EDB506F12E00E6F14106EFE0EDB5093
:103F5000105C01E0F8D7E552E7CFD9FF1200D9CFC6
:103F6000E6FFE1CFD9FF020EE126D950F90F106E1E
:103F7000FF0EDA20116E10C0DEFF11C0DDFFF80E5B
:103F8000DB503BE1DECFE9FFDDCFEAFFEF50E84059
:103F9000E840E8401F0BE66EFD0EDBCFE9FFFE0EAA
:103FA000DBCFEAFFE552E750EF6EDECFE9FFDDCF72
:103FB000EAFFEE52EF50200DF3CF10F0FD0EDBCFF5
:103FC000E9FFFE0EDBCFEAFF1050EF12FD0EDB2AF9
:103FD000FE0E01E3DB2ADECFE9FFDDCFEAFFEF5083
:103FE000200DF350E66EFD0EDBCFE9FFFE0EDBCFBA
:103FF000EAFFE552E750EF6E88D0DECFE9FFDDCF74
:10400000EAFF020EE926000EEA22EF50E00BE83844
:10401000E840E66EFD0EDBCFE9FFFE0EDBCFEAFFE8
:10402000E552E750EF6EDECFE9FFDDCFEAFF030E8A
:10403000E926000EEA22EF50080DF3CF10F0FD0E36
:10404000DBCFE9FFFE0EDBCFEAFF1050EF12FD0ED3
:10405000DB2AFE0E01E3DB2ADECFE9FFDDCFEAFF3C
:10406000020EE926000EEA22EF50080DF350E00B95
:10407000E66EFD0EDBCFE9FFFE0EDBCFEAFFE55279
:10408000E750EF6EFD0EDBCFE9FFFE0EDBCFEAFF60
:10409000EF86DECFE9FFDDCFEAFF020EE926000E54
:1040A000EA22EF50030B106EFD0EDBCFE9FFFE0E90
:1040B000DBCFEAFF1050EF12FD0EDB2AFE0E01E30C
:1040C000DB2ADECFE9FFDDCFEAFFEE52EF50E66EEE
:1040D000FD0EDBCFE9FFFE0EDBCFEAFFE552E75036
:1040E000EF6EFD0EDB2AFE0E01E3DB2ADECFE9FFD9
:1040F000DDCFEAFFEF50E66EFD0EDBCFE9FFFE0EEF
:10410000DBCFEAFFE552E750EF6E020EE15C02E220
:10411000E16AE552E16EE552E7CFD9FF1200D9CF4F
:10412000E6FFE1CFD9FF020EE126FB0EDBCFDEFF7B
:10413000DBCFDDFFFA0EDB504DE1FD0EDBCFE9FFFB
:10414000FE0EDBCFEAFFEF50080DF350E66EDECF38
:10415000E9FFDDCFEAFFE552E750EF6EFD0EDBCF62
:10416000E9FFFE0EDBCFEAFFEF50E00BE838E84056
:10417000E66EDECFE9FFDDCFEAFFEE52E552E75013
:10418000EF6EFD0EDB2AFE0E01E3DB2AFD0EDBCF18
:10419000E9FFFE0EDBCFEAFFEF50E00BE838E84026
:1041A000106EDECFE9FFDDCFEAFF1050EF12DECF59
:1041B000E9FFDDCFEAFF020EE926000EEA22EF6AF0
:1041C000DECFE9FFDDCFEAFF030EE926000EEA228B
:1041D000EF6A84D0FD0EDBCFE9FFFE0EDBCFEAFFF6
:1041E000EF50200DF350E66EDECFE9FFDDCFEAFFA2
:1041F000020EE926000EEA22E552E750EF6EFD0EB0
:10420000DBCFE9FFFE0EDBCFEAFFEF50E840E840EE
:10421000E8401F0BE66EDECFE9FFDDCFEAFF030EBD
:10422000E926000EEA22E552E750EF6EFD0EDB2A8A
:10423000FE0E01E3DB2AFD0EDBCFE9FFFE0EDBCF36
:10424000EAFFEF50030B106EDECFE9FFDDCFEAFF90
:10425000020EE926000EEA221050EF12FD0EDBCF0F
:10426000E9FFFE0EDBCFEAFFEF50E00BE840E8404D
:10427000E8401F0B106EDECFE9FFDDCFEAFF020E34
:10428000E926000EEA221050EF12FD0EDB2AFE0E88
:1042900001E3DB2AFD0EDBCFE9FFFE0EDBCFEAFFF9
:1042A000EF50E66EDECFE9FFDDCFEAFFEE52E552DA
:1042B000E750EF6EFD0EDB2AFE0E01E3DB2AFD0E5A
:1042C000DBCFE9FFFE0EDBCFEAFFEF50E66EDECF7D
:1042D000E9FFDDCFEAFFE552E750EF6E020EE15C49
:1042E00002E2E16AE552E16EE552E7CFD9FF120042
:1042F000D9CFE6FFE1CFD9FF020EE126FE0EDB505B
:10430000060A2FE0030A28E0010A21E0070A1AE062
:10431000010A13E0030A0CE0010A05E0700EDE6EEC
:104320000E0EDD6E23D0600EDE6E0F0EDD6E1ED023
:10433000500EDE6E0F0EDD6E19D0200EDE6E0E0EEC
:10434000DD6E14D0300EDE6E0E0EDD6E0FD0400E20
:10435000DE6E0E0EDD6E0AD0500EDE6E0E0EDD6EBF
:1043600005D0600EDE6E0E0EDD6E00D0DECF10F0DA
:10437000DDCF11F010C0F3FF11C0F4FF020EE15CBD
:1043800003E200D0E16AE552E16EE552E7CFD9FFE2
:02439000120019
:0E4392000E0EF66E000EF76E000EF86E0001B5
:1043A0000900F550DA6F0900F550DB6F03E1DA67B9
:1043B00001D03DD00900F550D56F0900F550D66FFA
:1043C0000900F550D76F09000900F550E96E0900A2
:1043D000F550EA6E090009000900F550D86F090090
:1043E000F550D96F09000900F6CFDCF0F7CFDDF00A
:1043F000F8CFDEF0D5C0F6FFD6C0F7FFD7C0F8FF84
:104400000001D85302E1D95307E00900F550EE6EE0
:10441000D807F8E2D907F9D7DCC0F6FFDDC0F7FF0F
:10442000DEC0F8FF0001DA07000EDB5BBFD7120029
:10443000D9CFE6FFE1CFD9FFFF0EE76EFD0EDBCF50
:1044400010F0FE0EDBCF11F0E7501016116A10507D
:10445000A96EFC0EDB50A86EA69EA69CA684F29EBA
:10446000550EA76EAA0EA76EA682F28EA1A8FED741
:10447000A198A694E552E7CFD9FF1200D9CFE6FF65
:10448000E1CFD9FFE652FF0EE76EFD0EDBCF10F055
:10449000FE0EDBCF11F0E7501016116A1050A96E16
:1044A000A69EA69CA680A850DF6EDF5000D0E552E5
:0844B000E552E7CFD9FF12002D
:0844B800D9CFE6FFDACFE6FFE1
:1044C000E1CFD9FFE2CFDAFFFD0EDB507E0BCD6EE0
:1044D000FD0EDBAC02D0CD8E01D0CD9ECF6ACE6A70
:1044E0009E90DBAE02D09D8001D09D90CD80E552A4
:0A44F000E5CFDAFFE7CFD9FF120095
:0644FA00D9CFE6FFDACF86
:10450000E6FFE1CFD9FFE2CFDAFFFD0EDB507F0BF4
:10451000D56ED76AD66AF294FD0EDBAE02D0F28A6F
:1045200001D0F29AD58EE552E5CFDAFFE7CFD9FF79
:02453000120077
:0E453200D9CFE6FFDACFE6FFE1CFD9FFE2CF27
:10454000DAFFFD0EDB50FB0BCA6ECC6A9E92FD0EAD
:10455000DBAE02D09D8201D09D92CA84E552E5CFA8
:08456000DAFFE7CFD9FF1200DA
:08456800000EF36E00EE00F0FE
:10457000060E01D81200EA6002D0EE6AFCD7F350B2
:08458000E9601200EE6AFCD7AD
:0845880015EE00F025EE00F035
:10459000F86A0F9CC9EC21F003EC00F066EC00F027
:0445A000FBD7120033
:0C45A400036A080EE76ED8900736033655
:1045B0000C50035C02E3036E072AE72EF7D71200C4
:1045C0007777772E6575726F736F757263652E736B
:1045D000652F70617269735F3030322E786D6C00B8
:020000040030CA
:0100010006F8
:010002001CE1
:010003001EDE
:010006008178
:01000900C036
:00000001FF
