:040800005DEF04F0B4
:04080800CCED24F01F
:10081800D8CF05F0E8CF06F0E0CF07F0F2A401D07A
:1008280001D040D0FB0E026E1D0E016E05EC2AF0C1
:1008380000016C4B6D2B6A4B6B2B010E6427000E6D
:100848006523000E6623000E6723684B692B82A080
:1008580001D001D002D0746B01D0742B582A5650A5
:10086800020AD8A401D001D00ED0640E586401D079
:1008780001D009D082A201D001D002D0829201D049
:100888008282586A0ED05604D8A401D001D003D071
:100898008282586A06D0566601D001D002D0829270
:1008A800586AF29407C0E0FF06C0E8FF05C0D8FF09
:0608B80010001AEF28F009
:10090000434445464748494A4B4C4D4E4F50FFFFE4
:10091000FFFFFFFFFFFFFFFFFFFFFFFFFFFFFFFFE7
:10092000FFFF5152535455565758595A5B5C5D5E00
:100930005F606162636465666768696A6B6C6D6E4F
:100940006F707172737475767778797A7B7C7D7E3F
:100950007F808182838485868788898A8B8C8D8E2F
:100960008F90FFFFFFFFFFFFFFFFFFFFFFFFFFFF76
:10097000FFFF9192939495969798999A9B9C9D9E30
:100980009FA0A1A2A3A4A5A6A7A8A9AAABACADAEFF
:10099000AFB0B1B2B3B4B5B6B7B8B9BABBBCBDBEEF
:1009A000BFC0C1C2C3C4C5C6C7C8C9CACBCCCDCEDF
:1009B000CFD0D1D2D3D4D5D6D7D87777772E657587
:1009C000726F736F757263652E73652F61636372E7
:1009D000615F312E786D6C00000001015D6B5E6B14
:1009E0005DC1BEF05EC1BFF00001D890BE37BF3719
:1009F000D890BE37BF37000EBE25D96E010EBF217D
:100A0000DA6EDECFC0F0DECFC1F0DECFC2F0DECFD7
:100A1000C3F001015D51040DF35000017B0FD96E4D
:100A2000DA6ADECFC4F0DECFC5F0DECFC6F0DECFAF
:100A3000C7F0C051C45DC86FC151C559C96FC2511B
:100A4000C659CA6FC351C759CB6F5DC1CCF05EC1E7
:100A5000CDF0D890CC37CD37D890CC37CD37100EDD
:100A6000CC25D96E010ECD21DA6EC8C0DEFFC9C01B
:100A7000DEFFCAC0DEFFCBC0DDFFD906D90601010B
:100A80005D51040DF3507B0FD96EDA6A5DC1BEF083
:100A90005EC1BFF00001D890BE37BF37D890BE37D7
:100AA000BF37000EBE25E16E010EBF21E26EDECF24
:100AB000E6FFDECFE6FFDECFE6FFDDCFE5FFE55266
:100AC000E55201015D4B5E2B5E51800A800F040EE2
:100AD000D8B45D5D85E35D6B5E6B5D510001600FB9
:100AE000D96EDA6ADF50BE6FBEAF62D101015D51CF
:100AF0000001600FD96EDA6ADF50BE6FBEA311D15C
:100B000001015D51040DF3CFBEF0240E0001BE279C
:100B1000BE51000FBF6FBFC0F6FF090EF76E080091
:100B2000F550086E096AFCEC29F00001C06FC0C0E6
:100B3000C1F0C26BC36BC46BC3C0C4F0C2C0C3F00E
:100B4000C1C0C2F0C16B01015D51040DF3CFC5F00E
:100B5000230E0001C527C551000FC66FC6C0F6FFA2
:100B6000090EF76E0800F550086E096AFCEC29F0D2
:100B70000001C76FC7C0C8F0C96BCA6BCB6BC9C0D7
:100B8000CBF0C8C0CAF0C96BC86B01015D51040D40
:100B9000F3CFCCF0220E0001CC27CC51000FCD6F4B
:100BA000CDC0F6FF090EF76E0800F550086E096A11
:100BB000FCEC29F00001CE6FCEC0CFF0D06BD16B32
:100BC000D26BCFC0D2F0D16BD06BCF6BC851CF25D9
:100BD000D36FC951D021D46FCA51D121D56FCB5118
:100BE000D221D66FC151D325D76FC251D421D86F2E
:100BF000C351D521D96FC451D621DA6F01015D519E
:100C0000040DF3CFDBF0250E0001DB27DB51000FD5
:100C1000DC6FDCC0F6FF090EF76E0800F550086EB9
:100C2000096AFCEC29F00001D7250101596F000E7B
:100C30000001D82101015A6F000E0001D9210101E4
:100C40005B6F000E0001DA2101015C6F5D51040D44
:100C5000F3CFBEF0430E0001BE27BE51000FBF6FA1
:100C6000BFC0F6FF090EF76E0800F550086E096A5E
:100C7000FCEC29F00001C06F01015D51040DF3CFC0
:100C8000C1F0420E0001C127C151000FC26FC2C0A6
:100C9000F6FF090EF76E0800F550086E096AFCECC5
:100CA00029F00001C46FC36BC051C3250101556F0A
:100CB0000001000EC4210101566F5D51040DF35077
:100CC00000017B0FD96EDA6ADECFBEF0DECFBFF057
:100CD000DECFC0F0DECFC1F0BE510101595D000191
:100CE000BF5101015A590001C05101015B59000176
:100CF000C15101015C5915E2200E5D25D96E010E2E
:100D00005E21DA6EDF500DE15D295412200E5D2563
:100D1000D96E010E5E21DA6E010EDF6E5D5108ECB8
:100D200027F00101200E5D25D96E010E5E21DA6EDD
:100D3000DF503EE055510001BE6F010156510001E8
:100D4000BF6FC06BC16BBE510101595D0001C26F25
:100D5000BF5101015A590001C36FC05101015B59D4
:100D60000001C46FC15101015C590001C56F01014F
:100D70005D51040DF35000017B0FD96EDA6ADECFAE
:100D8000C6F0DECFC7F0DECFC8F0DECFC9F0C2516B
:100D9000C65DC351C759C451C859C551C95908E2A4
:100DA0000101200E5D25D96E010E5E21DA6EDF6A2B
:100DB00001015D4B5E2B5E51800A800F040ED8B49A
:100DC0005D5D01E28AD65D6B5E6B5DC1BEF00A0EB1
:100DD0000001BE27BE51000FBF6FBFC0F6FF090E56
:100DE000F76E0800F550086E096AFCEC29F0000166
:100DF000C06FC0AF7DD10101280E5D25D96E010EF7
:100E00005E21DA6EDF5001E02CD15DC1BEF00A0E2A
:100E10000001BE27BE51000FBF6FBFC0F6FF090E15
:100E2000F76E0800F550086E096AFCEC29F0000125
:100E3000C06FC0A116D101015D51040DF3CFBEF00A
:100E4000120E0001BE27BE51620FBF6FBFC0F6FF7A
:100E5000090EF76E0800F550086E096AFCEC29F0DF
:100E60000001C06FC0C0C1F0C26BC36BC46BC3C014
:100E7000C4F0C2C0C3F0C1C0C2F0C16B01015D517A
:100E8000040DF3CFC5F0110E0001C527C551620F47
:100E9000C66FC6C0F6FF090EF76E0800F550086E63
:100EA000096AFCEC29F00001C76FC7C0C8F0C96B24
:100EB000CA6BCB6BC9C0CBF0C8C0CAF0C96BC86BDA
:100EC00001015D51040DF3CFCCF0100E0001CC27D1
:100ED000CC51620FCD6FCDC0F6FF090EF76E080042
:100EE000F550086E096AFCEC29F00001CE6FCEC007
:100EF000CFF0D06BD16BD26BCFC0D2F0D16BD06BB7
:100F0000CF6BC851CF25D36FC951D021D46FCA51EF
:100F1000D121D56FCB51D221D66FC151D325D76FF7
:100F2000C251D421D86FC351D521D96FC451D62114
:100F3000DA6F01015D51040DF3CFDBF0130E0001F8
:100F4000DB27DB51620FDC6FDCC0F6FF090EF76EAA
:100F50000800F550086E096AFCEC29F00001D7255D
:100F60000101596F000E0001D82101015A6F000ED6
:100F70000001D92101015B6F000E0001DA2101019E
:100F80005C6F5D51040DF3CFBEF0310E0001BE2742
:100F9000BE51620FBF6FBFC0F6FF090EF76E0800AB
:100FA000F550086E096AFCEC29F00001C06F0101E0
:100FB0005D51040DF3CFC1F0300E0001C127C151C6
:100FC000620FC26FC2C0F6FF090EF76E0800F5503F
:100FD000086E096AFCEC29F00001C46FC36BC051B4
:100FE000C3250101556F0001000EC4210101566F98
:100FF0005DC1BEF05EC1BFF00001D890BE37BF3703
:10100000D890BE37BF37100EBE25D96E010EBF2156
:10101000DA6EDECFC0F0DECFC1F0DECFC2F0DECFC1
:10102000C3F0010159510001C05D01015A51000195
:10103000C15901015B510001C25901015C5100011C
:10104000C3590FE201015D295412280E5D25D96EA6
:10105000010E5E21DA6E010EDF6E5D51030F08ECAA
:1010600027F00101280E5D25D96E010E5E21DA6E92
:10107000DF503EE05DC1BEF05EC1BFF00001D89020
:10108000BE37BF37D890BE37BF37100EBE25D96EDA
:10109000010EBF21DA6EDECFC0F0DECFC1F0DECFB1
:1010A000C2F0DECFC3F00101555159250001C46FD4
:1010B000010156515A210001C56F000E01015B214B
:1010C0000001C66F000E01015C210001C76FC05115
:1010D000C45DC151C559C251C659C351C75908E26F
:1010E0000101280E5D25D96E010E5E21DA6EDF6AE0
:1010F00001015D4B5E2B5E51800A800F040ED8B457
:101100005D5D01E262D65D6B5E6B5DC1BEF00A0E95
:101110000001BE27BE51000FBF6FBFC0F6FF090E12
:10112000F76E0800F550086E096AFCEC29F0000122
:10113000C06FC0AF84D10101240E5D25D96E010EB0
:101140005E21DA6EDF5001E02BD15DC1BEF00A0EE8
:101150000001BE27BE51000FBF6FBFC0F6FF090ED2
:10116000F76E0800F550086E096AFCEC29F00001E2
:10117000C06FC0A315D101015D51040DF3CFBEF0C6
:10118000220E0001BE27BE51620FBF6FBFC0F6FF27
:10119000090EF76E0800F550086E096AFCEC29F09C
:1011A0000001C06FC0C0C1F0C26BC36BC46BC3C0D1
:1011B000C4F0C2C0C3F0C1C0C2F0C16B01015D5137
:1011C000040DF3CFC5F0210E0001C527C551620FF4
:1011D000C66FC6C0F6FF090EF76E0800F550086E20
:1011E000096AFCEC29F00001C76FC7C0C8F0C96BE1
:1011F000CA6BCB6BC9C0CBF0C8C0CAF0C96BC86B97
:1012000001015D51040DF3CFCCF0200E0001CC277D
:10121000CC51620FCD6FCDC0F6FF090EF76E0800FE
:10122000F550086E096AFCEC29F00001CE6FCEC0C3
:10123000CFF0D06BD16BD26BCFC0D2F0D16BD06B73
:10124000CF6BC851CF25D36FC951D021D46FCA51AC
:10125000D121D56FCB51D221D66FC151D325D76FB4
:10126000C251D421D86FC351D521D96FC451D621D1
:10127000DA6F01015D51040DF3CFDBF0230E0001A5
:10128000DB27DB51620FDC6FDCC0F6FF090EF76E67
:101290000800F550086E096AFCEC29F00001D7251A
:1012A0000101596F000E0001D82101015A6F000E93
:1012B0000001D92101015B6F000E0001DA2101015B
:1012C0005C6F5D51040DF3CFBEF0310E0001BE27FF
:1012D000BE51620FBF6FBFC0F6FF090EF76E080068
:1012E000F550086E096AFCEC29F00001C06F01019D
:1012F0005D51040DF3CFC1F0300E0001C127C15183
:10130000620FC26FC2C0F6FF090EF76E0800F550FB
:10131000086E096AFCEC29F00001C46FC36BC05170
:10132000C3250101556F0001000EC4210101566F54
:101330005DC1BEF05EC1BFF00001D890BE37BF37BF
:10134000D890BE37BF37100EBE25D96E010EBF2113
:10135000DA6EDECFC0F0DECFC1F0DECFC2F0DECF7E
:10136000C3F0C0510101595D0001C15101015A5939
:101370000001C25101015B590001C35101015C59D7
:101380000FE25D51100F5412240E5D25D96E010E2F
:101390005E21DA6E010EDF6E5D51060F08EC27F05C
:1013A0000101240E5D25D96E010E5E21DA6EDF503B
:1013B00046E055510001BE6F010156510001BF6F5B
:1013C000C06BC16BBE510101595D0001C26FBF51BD
:1013D00001015A590001C36FC05101015B5900015D
:1013E000C46FC15101015C590001C56F5DC1C6F0F8
:1013F0005EC1C7F0D890C637C737D890C637C73751
:10140000100EC625D96E010EC721DA6EDECFC8F0E8
:10141000DECFC9F0DECFCAF0DECFCBF0C251C85D5F
:10142000C351C959C451CA59C551CB5908E2010128
:10143000240E5D25D96E010E5E21DA6EDF6A010190
:101440005D4B5E2B5E51800A800F040ED8B45D5D4B
:1014500001E25BD65D6B5E6B5D510001600FD96E82
:10146000DA6ADF50BE6FBEAFAED05DC1BEF04A0ECD
:10147000BE27BE51000FBF6FBFC0F6FF090EF76E4B
:101480000800F550086E096AFCEC29F0000901E13A
:101490009AD001012C0E5D25D96E010E5E21DA6E07
:1014A000DF2A5DC1BEF04A0E0001BE27BE51000F0B
:1014B000BF6FBFC0F6FF090EF76E0800F550086E4B
:1014C000096AFCEC29F00001C06F01012C0E5D25BA
:1014D000D96E010E5E21DA6EDF500001C05D73E24D
:1014E00001012C0E5D25D96E010E5E21DA6EDF6AD8
:1014F0005D51600F496F5D51040DF3507B0FD96E44
:10150000DA6ADF504D6F5D51040DF35000017B0F1F
:10151000D96EDA6ADECFBEF0DECFBFF0DECFC0F02C
:10152000DECFC1F0BFC0BEF0C0C0BFF0C1C0C0F0D0
:10153000C16BBE5101014C6F5D51040DF3500001B0
:101540007B0FD96EDA6ADECFBEF0DECFBFF0DECF22
:10155000C0F0DECFC1F0110E05D0D890C133C0333A
:10156000BF33BE33E82EF9D7BE5101014B6F5D5139
:10157000040DF35000017B0FD96EDA6ADECFBEF0A6
:10158000DECFBFF0DECFC0F0DECFC1F0190E05D048
:10159000D890C133C033BF33BE33E82EF9D7BE5124
:1015A00001014A6F406A0F0E3F6E070E416E76C012
:1015B00042F0030E436E050E446E010E466E490E58
:1015C000456EEAEC25F001015D4B5E2B5E51800A11
:1015D000800F040ED8B45D5D01E23ED75D6B5E6B9B
:1015E0005DC1BEF00A0E0001BE27BE51000FBF6FE5
:1015F000BFC0F6FF090EF76E0800F550086E096AC5
:10160000FCEC29F00001C06FC0AFD9D05DC1BEF0C5
:101610004E0EBE27BE51000FBF6FBFC0F6FF090EB2
:10162000F76E0800F550086E096AFCEC29F0000915
:1016300001E1C5D00101300E5D25D96E010E5E219C
:10164000DA6EDF2A5DC1BEF04E0E0001BE27BE512C
:10165000000FBF6FBFC0F6FF090EF76E0800F55010
:10166000086E096AFCEC29F00001C06F0101300E20
:101670005D25D96E010E5E21DA6EDF500001C05D7E
:1016800001E39DD00101300E5D25D96E010E5E2172
:10169000DA6EDF6A5D51600F496F5DC1BEF05EC1F9
:1016A000BFF00001D890BE37BF37D890BE37BF37E4
:1016B000100EBE25D96E010EBF21DA6EDF5001017A
:1016C0004D6F5DC1BEF05EC1BFF00001D890BE3766
:1016D000BF37D890BE37BF37100EBE25D96E010E6A
:1016E000BF21DA6EDECFC0F0DECFC1F0DECFC2F0B8
:1016F000DECFC3F0C1C0C0F0C2C0C1F0C3C0C2F0F1
:10170000C36BC05101014C6F5DC1BEF05EC1BFF043
:101710000001D890BE37BF37D890BE37BF37100E04
:10172000BE25D96E010EBF21DA6EDECFC0F0DECF4E
:10173000C1F0DECFC2F0DECFC3F0110E05D0D890DD
:10174000C333C233C133C033E82EF9D7C0510101CE
:101750004B6F5DC1BEF05EC1BFF00001D890BE37D7
:10176000BF37D890BE37BF37100EBE25D96E010ED9
:10177000BF21DA6EDECFC0F0DECFC1F0DECFC2F027
:10178000DECFC3F0190E05D0D890C333C233C133B6
:10179000C033E82EF9D7C05101014A6F406A0A0EE2
:1017A0003F6E090E416E76C042F0030E436E050E89
:1017B000446E010E466E490E456EEAEC25F00101BD
:1017C0005D4B5E2B5E51800A800F040ED8B45D5DC8
:1017D00001E206D75D6B5E6B5D51030DF3CFBEF08A
:1017E000560E0001BE27BE51000FBF6FBFC0F6FFEF
:1017F000090EF76E0800F550086E096AFCEC29F036
:101800000001C06FC0AF4DD25DC1BEF0520EBE2709
:10181000BE51000FBF6FBFC0F6FF090EF76E080084
:10182000F550086E096AFCEC29F0000901E139D293
:101830000101340E5D25D96E010E5E21DA6EDF2ABC
:101840005DC1BEF0520E0001BE27BE51000FBF6F3A
:10185000BFC0F6FF090EF76E0800F550086E096A62
:10186000FCEC29F00001C06F0101340E5D25D96E3A
:10187000010E5E21DA6EDF500001C05D01E311D27E
:101880000101340E5D25D96E010E5E21DA6EDF6A2C
:101890005D51040DF3CFBEF0030E0001BE27BE5113
:1018A0009A0FBF6FBFC0F6FF090EF76E0800F55024
:1018B000086E096AFCEC29F00101516F5D51040DBD
:1018C000F3CFBEF0020E0001BE27BE519A0FBF6FCC
:1018D000BFC0F6FF090EF76E0800F550086E096AE2
:1018E000FCEC29F00101526F5D51040DF3CFBEF005
:1018F0000001BE2BBE519A0FBF6FBFC0F6FF090E8D
:10190000F76E0800F550086E096AFCEC29F0010139
:10191000536F5D51040DF3509A0F0001BE6FBEC0AE
:10192000F6FF090EF76E0800F550086E096AFCEC28
:1019300029F00101546F51C13DF152C13EF153C133
:101940003FF154C140F15D51040DF3CFBEF0130ED1
:101950000001BE27BE519A0FBF6FBFC0F6FF090E30
:10196000F76E0800F550086E096AFCEC29F00101D9
:10197000516F5D51040DF3CFBEF0120E0001BE2772
:10198000BE519A0FBF6FBFC0F6FF090EF76E080079
:10199000F550086E096AFCEC29F00101526F5D51A7
:1019A000040DF3CFBEF0110E0001BE27BE519A0FF9
:1019B000BF6FBFC0F6FF090EF76E0800F550086E46
:1019C000096AFCEC29F00101536F5D51040DF3CF5E
:1019D000BEF0100E0001BE27BE519A0FBF6FBFC0F0
:1019E000F6FF090EF76E0800F550086E096AFCEC68
:1019F00029F00101546F51C141F152C142F153C16B
:101A000043F154C144F15D51030DF3CFBEF0560EC6
:101A10000001BE27BE51000FBF6FBFC0F6FF090E09
:101A2000F76E0800F550086E096AFCEC29F0000119
:101A3000C06FC0A15AD001015D51030DF3CFBEF0BC
:101A4000560E0001BE27BE51000FBF6FBFC0F6FF8C
:101A5000090EF76E0800F550086E096AFCEC29F0D3
:101A6000180BA00901015D25496F3DC11AF03EC167
:101A70001BF03FC11CF040C11DF05DC1BEF05EC156
:101A8000BFF00001D890BE37BF37D890BE37BF3700
:101A9000100EBE25D96E010EBF21DA6EDECF12F018
:101AA000DECF13F0DECF14F0DECF15F031EC28F0EE
:101AB00015C019F014C018F013C017F012C016F0BA
:101AC00064EC24F019C028F018C027F017C026F0E5
:101AD00016C025F041C129F042C12AF043C12BF0C4
:101AE00044C12CF012EC22F04FD001015D51030DE6
:101AF000F3CFBEF0560E0001BE27BE51000FBF6FE0
:101B0000BFC0F6FF090EF76E0800F550086E096AAF
:101B1000FCEC29F0180BA00901015D25496F3DC1BE
:101B20001AF03EC11BF03FC11CF040C11DF05D51D9
:101B3000040DF35000017B0FD96EDA6ADECF12F08C
:101B4000DECF13F0DECF14F0DECF15F031EC28F04D
:101B500015C019F014C018F013C017F012C016F019
:101B600064EC24F019C028F018C027F017C026F044
:101B700016C025F041C129F042C12AF043C12BF023
:101B800044C12CF012EC22F028C048F127C047F1E4
:101B900026C046F125C045F10101010E586F450EE2
:101BA000576F20EE03F05751D9265851DA22DF50F3
:101BB0004D6F20EE02F05751D9265851DA22DF50EE
:101BC0004C6F20EE01F05751D9265851DA22DF50E0
:101BD0004B6F57C1D9FF58C1DAFFDF504A6F5D51D3
:101BE000030DF3CFBEF0560E0001BE27BE51000F0D
:101BF000BF6FBFC0F6FF090EF76E0800F550086E04
:101C0000096AFCEC29F00001C06FC0BD04D00101DD
:101C10003B6B3C6B04D0020E01013C6F3B6B5D5192
:101C2000030DF3CFBEF0570E0001BE27BE51000FCB
:101C3000BF6FBFC0F6FF090EF76E0800F550086EC3
:101C4000096AFCEC29F001013B25386F000E3C21AC
:101C5000396F5D51030DF3CFBEF0580E0001BE2762
:101C6000BE51000FBF6FBFC0F6FF090EF76E080030
:101C7000F550086E096AFCEC29F001013A6F38C191
:101C80003FF039C140F03AC141F076C042F0030E56
:101C9000436E050E446E010E466E490E456EEAEC2B
:101CA00025F001015D4B5E2B5E51800A800F040E12
:101CB000D8B45D5DD8B012008FD526EC2AF0000EA6
:101CC000F66E090EF76E0800F550086E096A000EF0
:101CD0000A6AE8EC27F026EC2AF0000E446E442A4B
:101CE00044C0F6FF090EF76E0800F550086E096A49
:101CF000000E0A6AE8EC27F0496A26EC2AF049C08F
:101D000044F0020E44264450000F456E45C0F6FFD5
:101D1000090EF76E0800F550086E096A49C00AF00E
:101D2000E8EC27F026EC2AF049C044F0060E4426E1
:101D30004450000F456E45C0F6FF090EF76E0800CF
:101D4000F550086E096A800E0A6EE8EC27F026EC62
:101D50002AF049C044F00A0E44264450000F456E54
:101D600045C0F6FF090EF76E0800F550086E096AC7
:101D7000800E0A6EE8EC27F026EC2AF049C044F009
:101D8000220E44264450000F456E45C0F6FF090E52
:101D9000F76E0800F550086E096A000E0A6AE8EC52
:101DA00027F026EC2AF049C044F0260E4426445081
:101DB000000F456E45C0F6FF090EF76E0800F5509E
:101DC000086E096A000E0A6AE8EC27F026EC2AF091
:101DD00049C044F02A0E44264450000F456E45C0C9
:101DE000F6FF090EF76E0800F550086E096A000E3E
:101DF0000A6AE8EC27F026EC2AF049C044F02E0EDF
:101E000044264450000F456E45C0F6FF090EF76E9C
:101E10000800F550086E096A000E0A6AE8EC27F01F
:101E200026EC2AF049C044F0320E44264450000FFC
:101E3000456E45C0F6FF090EF76E0800F550086EB6
:101E4000096A000E0A6AE8EC27F026EC2AF049C07D
:101E500044F0360E44264450000F456E45C0F6FF50
:101E6000090EF76E0800F550086E096A000E0A6A3E
:101E7000E8EC27F026EC2AF049C044F03A0E44265C
:101E80004450000F456E45C0F6FF090EF76E08007E
:101E9000F550086E096A000E0A6AE8EC27F026EC95
:101EA0002AF049C044F03E0E44264450000F456ECF
:101EB00045C0F6FF090EF76E0800F550086E096A76
:101EC000000E0A6AE8EC27F026EC2AF049C044F03C
:101ED0004A0E44264450000F456E45C0F6FF090ED9
:101EE000F76E0800F550086E096A000E0A6AE8EC01
:101EF00027F026EC2AF049C044F04E0E4426445008
:101F0000000F456E45C0F6FF090EF76E0800F5504C
:101F1000086E096A000E0A6AE8EC27F026EC2AF03F
:101F200049C044F0520E44264450000F456E45C04F
:101F3000F6FF090EF76E0800F550086E096A000EEC
:101F40000A6AE8EC27F0492A030E4964D6D626EC43
:101F50002AF0000E446E420E442644C0F6FF090EDD
:101F6000F76E0800F550086E096A000E0A6AE8EC80
:101F700027F026EC2AF0000E446E430E442644C09F
:101F8000F6FF090EF76E0800F550086E096AC80ED4
:101F90000A6EE8EC27F026EC2AF0000E446E440EA0
:101FA000442644C0F6FF090EF76E0800F550086E8F
:101FB000096A000E0A6AE8EC27F026EC2AF0000E07
:101FC000446E450E442644C0F6FF090EF76E080025
:101FD000F550086E096AC80E0A6EE8EC27F026EC88
:101FE0002AF0000E446E460E442644C0F6FF090E49
:101FF000F76E0800F550086E096A000E0A6AE8ECF0
:1020000027F026EC2AF0000E446E470E442644C00A
:10201000F6FF090EF76E0800F550086E096AC80E43
:102020000A6EE8EC27F026EC2AF0000E446E480E0B
:10203000442644C0F6FF090EF76E0800F550086EFE
:10204000096A000E0A6AE8EC27F026EC2AF0000E76
:10205000446E490E442644C0F6FF090EF76E080090
:10206000F550086E096AC80E0A6EE8EC27F026ECF7
:102070002AF0000E446E560E442644C0F6FF090EA8
:10208000F76E0800F550086E096A000E0A6AE8EC5F
:1020900027F026EC2AF0000E446E570E442644C06A
:1020A000F6FF090EF76E0800F550086E096A000E7B
:1020B0000A6AE8EC27F026EC2AF0000E446E580E6F
:1020C000442644C0F6FF090EF76E0800F550086E6E
:1020D000096A000E0A6AE8EC27F026EC2AF0000EE6
:1020E000446E590E442644C0F6FF090EF76E0800F0
:1020F000F550086E096A000E0A6AE8EC27F026EC33
:102100002AF0000E446E5A0E442644C0F6FF090E13
:10211000F76E0800F550086E096A000E0A6AE8ECCE
:1021200027F026EC2AF0000E446E5B0E442644C0D5
:10213000F6FF090EF76E0800F550086E096A000EEA
:102140000A6AE8EC27F026EC2AF0000E446E5C0EDA
:10215000442644C0F6FF090EF76E0800F550086EDD
:10216000096A000E0A6AE8EC27F026EC2AF0000E55
:10217000446E5D0E442644C0F6FF090EF76E08005B
:10218000F550086E096A000E0A6AE8EC27F026ECA2
:102190002AF0000E446E5E0E442644C0F6FF090E7F
:1021A000F76E0800F550086E096A000E0A6AE8EC3E
:1021B00027F026EC2AF0000E446E5F0E442644C041
:1021C000F6FF090EF76E0800F550086E096A000E5A
:1021D0000A6AE8EC27F026EC2AF0000E446E600E46
:1021E000442644C0F6FF090EF76E0800F550086E4D
:1021F000096A000E0A6AE8EC27F026EC2AF0000EC5
:10220000446E610E442644C0F6FF090EF76E0800C6
:10221000F550086E096A000E0A6AE8EC27F0466A73
:10222000476A26EC2AF0620E446E100E442644C023
:10223000F6FF090EF76E0800F5504624086E000EF2
:102240004720096E000E0A6AE8EC27F0464A472A42
:102250004750800A800F200ED8B4465CE2E326EC9B
:102260002AF0620E446E300E442644C0F6FF090E7A
:10227000F76E0800F550086E096A000E0A6AE8EC6D
:1022800027F026EC2AF0620E446E310E442644C03C
:10229000F6FF090EF76E0800F550086E096A320E57
:1022A0000A6EE8EC27F026EC2AF0620E446E320E3D
:1022B000442644C0F6FF090EF76E0800F550086E7C
:1022C000096A000E0A6AE8EC27F026EC2AF0620E92
:1022D000446E330E442644C0F6FF090EF76E080024
:1022E000F550086E096A320E0A6EE8EC27F026EC0B
:1022F0002AF0620E446E340E442644C0F6FF090EE6
:10230000F76E0800F550086E096A000E0A6AE8ECDC
:1023100027F026EC2AF0620E446E350E442644C0A7
:10232000F6FF090EF76E0800F550086E096A320EC6
:102330000A6EE8EC27F026EC2AF0620E446E360EA8
:10234000442644C0F6FF090EF76E0800F550086EEB
:10235000096A000E0A6AE8EC27F026EC2AF0620E01
:10236000446E370E442644C0F6FF090EF76E08008F
:10237000F550086E096A320E0A6EE8EC27F0496AD9
:1023800026EC2AF049509A0F446E44C0F6FF090E1D
:10239000F76E0800F550086E096A000E0A6AE8EC4C
:1023A00027F0492A1F0E4964EBD7496A486A26EC90
:1023B0002AF0485049C044F0456AD8904436453622
:1023C000D89044364536D890443645364426000EDB
:1023D0004522D90E4424086E000E4520096E000ED9
:1023E0000A6AE8EC27F0482A070E4864E0D7492A31
:1023F000030E4964DBD717EF18F08E518D1101E100
:10240000EFD21FD3AAEC27F01CD374EC28F019D319
:10241000FEEC28F016D302EC28F013D38B510F0BEF
:10242000020A01E00ED3765120EE91F0DF6209D36B
:10243000800E926112D0925121EC1CF000019F6F2E
:1024400092C09EF0030E9A6F820E996F9B6B9C6BED
:102450000A0E9D6FEBEC28F0F4D292511EEC1FF0A7
:10246000EDD78B510F0B030A01E0EBD2765120EE32
:1024700091F0DF62E6D2800E926106D093C044F004
:10248000925122EC15F0DAD793C04AF092516AECDF
:1024900023F0D5D7765120EE91F0DF62D2D2000E34
:1024A000E9EC29F00001931901E0CBD2030EE9EC2D
:1024B00029F00001941901E0C4D2050EE9EC29F0DD
:1024C0000001951901E0BDD2070EE9EC29F00001E9
:1024D000961901E0B6D25050971901E0B2D24F5090
:1024E00020EE98F0DF62ADD292515FEC29F0A9D2D4
:1024F000000EE9EC29F00001921973E1010EE9ECFC
:1025000029F0000193196DE1020EE9EC29F00001B8
:10251000941967E1030EE9EC29F00001951961E1D6
:1025200055885FD0040EE9EC29F00001921959E1B9
:10253000050EE9EC29F00001931953E1060EE9ECD0
:1025400029F0000194194DE1070EE9EC29F0000192
:10255000951947E1558A45D0080EE9EC29F00001AC
:1025600092193FE1090EE9EC29F00001931939E1D4
:102570000A0EE9EC29F00001941933E10B0EE9ECA5
:1025800029F0000195192DE1558C2BD00C0EE9ECAA
:1025900029F00001921925E10D0EE9EC29F0000166
:1025A00093191FE10E0EE9EC29F00001941919E1CD
:1025B0000F0EE9EC29F00001951913E1558E11D0A9
:1025C000556A0FD091390F0BBA6FBB6BBB51F8E155
:1025D000BA518EE0010AA6E0030ABEE0010AD6E085
:1025E000EFD75550F00BF00A01E02BD288EC27F022
:1025F00028D2765120EE91F0DF6223D2C66B92C0D2
:10260000C5F093C0C8F0D46B49D0C551D4257AEC3D
:1026100029F00001BA6F070E086ED4519EEC28F025
:102620000001BB6FBB519F0FD96EDA6ABAC0DFFFE2
:10263000070E086ED4519EEC28F0060A0BE0FF0E40
:102640000001C825BA6FBB6BFF0EBB23D451BA196A
:10265000BB1123E1070E086E0001D4519EEC28F057
:10266000060A03E1070E000109D0070E086E0001FB
:10267000D4519EEC28F00001BA6FBA29C76FC75138
:10268000810F996F070E9A6F9B6B9C6B1A0E9D6F53
:10269000C6C09EF0EBEC28F0C62BD42BC851D45DFD
:1026A00001E3CFD1B2D7765120EE91F0DF62C9D1EC
:1026B00092C0C9F08B51FE0F070BCA6FCF6B18D0B9
:1026C000CF51930FD96EDA6ADF50B26FC951CF255F
:1026D00022EC29F00001C951CF257AEC29F0000144
:1026E000BA6FCF519F0FD96EDA6ABAC0DFFFCF2B16
:1026F000CA51CF5DE5E3070E9A6F9B6B9C6B1A0E78
:102700009D6F9E6BCA51810F996FA4D6765120EEB2
:1027100091F0DF6296D1925121EC1CF00001BA6F6A
:10272000BA29446E925122EC15F088D6765120EEEB
:1027300091F0DF6286D1925121EC1CF00001BA6F5A
:10274000BA05446E925122EC15F078D69151761963
:1027500003E0912901E075D1CE6B030E9A6F880ECC
:10276000996F9B6B9C6B200E9D6FD36BD3C09EF0BB
:10277000010ED56FD5519E0FD96EDA6ACE510F0872
:10278000E9EC29F0DF6E0001CE2B100ECE6501D0F2
:1027900004D0D52B070ED565EDD7100ECE6501D030
:1027A00006D0EBEC28F0D32B020ED365DFD7D56B28
:1027B000D55187EC29F0000908E0D551A10FD96E59
:1027C000DA6AD55187EC29F005D0D551A10FD96E21
:1027D000DA6A000EDF6ED52B040ED565E9D7EBEC77
:1027E00028F0050ECE6F030ED36FD3C09EF0010EFE
:1027F000D56FD5519E0FD96EDA6ACE5187EC29F08C
:10280000DF6ECE2BD52B070ED565F3D7EBEC28F07A
:10281000D32B060ED365E9D714D1765120EE91F073
:10282000DF620FD1030E9A6F870E996F9B6B9C6BC3
:10283000220E9D6F9E0E9FEC29F00CD6765120EE55
:1028400091F0DF62FED0D06B8BC0BAF00F0EBA17DA
:10285000040EBA5D12E395C0D1F0D26BD251D11102
:1028600003E1010ED26FD16B010ED15D010ED25981
:1028700007E3010ED26F000E02D0D26B010ED16FB2
:102880004FC0C1F050C0C2F0935192C0BAF0BB6BC0
:10289000BAC0BBF0BA6BBA114F6EBB51506E070E87
:1028A0009A6F9B6B9C6B270E9D6F9E6B92C09FF0E7
:1028B00093C0A0F0D051D15DBA6F000ED259BB6F5A
:1028C000040EBA5D000EBB5902E3040E02D0D051D3
:1028D000D15DCB6FCB51840F996F9451D025A16FEF
:1028E000CC6B0ED09451D025CC257AEC29F0000188
:1028F000BA6FCC51A20FD96EDA6ABAC0DFFFCC2B07
:10290000CB51CC5DEFE3EBEC28F0CB51D0279E2BE5
:10291000D051BA6FBB6BD151BA5DD251BB59CAE32A
:10292000C1C04FF0C2C050F08CD0765120EE91F073
:10293000DF6287D04FC0C3F050C0C4F0935192C043
:10294000BAF0BB6BBAC0BBF0BA6BBA114F6EBB51D9
:10295000506E94C0CDF014D094519508CD25D96E09
:10296000DA6ADF50B26FCD5122EC29F00001BA6F64
:102970009451A208CD25D96EDA6ABAC0DFFFCD2BFB
:102980008B510F0BBA6FBB6B9451BA27000EBB2350
:10299000FC0EBA25BC6FFF0EBB21BD6FCD51BE6FC3
:1029A000BF6BBF51800AC06FBC51BE5DBD51800A74
:1029B000C059D2E3C3C04FF0C4C050F0070E9A6FA5
:1029C0008B510F0B800F996F9B6B9C6B270E9D6F2C
:1029D0009E6B92C09FF093C0A0F094C0A1F03AD536
:1029E0008F51010A01E10ED5030A01E10ED5040A57
:1029F00001E10ED50E0A01E10ED5010A01E10ED565
:102A0000020A01E12ED5070A01E144D51B0A01E1C2
:102A1000D9D50F0A01E1EDD5010A01E144D6040A36
:102A200001E174D6030A01E181D6010A01E18ED6E3
:102A30003E0A01E1F2D6040A01E100D7030A01E1EE
:102A400074D71200E8CF46F0441C456E50504F102A
:102A500001E07BD2466619D026EC2AF0000EF66E15
:102A6000090EF76E0800F550086E096A44C00AF0B6
:102A7000E8EC27F0000EF66E090EF76E0800F55030
:102A8000086E096AFCEC29F0CFD2460421E126EC5D
:102A90002AF0000E0001A66FA62BA6C0F6FF090EB5
:102AA000F76E0800F550086E096A44C00AF0E8ECB9
:102AB00027F0000E0001A66FA62BA6C0F6FF090E98
:102AC000F76E0800F550086E096AFCEC29F0ACD2EC
:102AD000010E466424D0060E466021D026EC2AF072
:102AE0004650000F0001A66FA6C0F6FF090EF76E54
:102AF0000800F550086E096A44C00AF0E8EC27F0B7
:102B00004650000F0001A66FA6C0F6FF090EF76E33
:102B10000800F550086E096AFCEC29F085D2050E14
:102B200046642CD00A0E466029D026EC2AF0465086
:102B3000000F0001A66FA6C0F6FF090EF76E080091
:102B4000F550086E096A44C00AF0E8EC27F04650D8
:102B5000000F0001A66FA6C0F6FF090EF76E080071
:102B6000F550086E096AFCEC29F0456E46500001EC
:102B70005A0FD96EDA6A44C0DFFF57D2090E466495
:102B800004D00E0E466001D0A9D746500E0A73E15C
:102B90004450550A6EE160A566D0000EA66F350E52
:102BA000A627A6C0F6FF090EF76E0800F550086EBE
:102BB000096AFCEC29F00001A76F080EA727000E98
:102BC000A86F340EA827A8C0F6FF090EF76E0800FC
:102BD000F550086E096AFCEC29F00001A96F100E8F
:102BE000A927000EAA6F330EAA27AAC0F6FF090E66
:102BF000F76E0800F550086E096AFCEC29F0000138
:102C0000AB6F180EAB27000EAC6F320EAC27ACC00A
:102C1000F6FF090EF76E0800F550086E096AFCEC25
:102C200029F00001AD6FAE6BAB2B03D0D890AD3760
:102C3000AE37AB2FFBD7A92B03D0D890AD37AE372B
:102C4000A92FFBD7A72B03D0D890AD37AE37A72F2E
:102C5000FBD7ADC07BF0AEC07CF0000E7CBFFF0E9A
:102C60007D6F7E6F04D07B6B7C6B7D6B7E6B550EB6
:102C7000DBD1456ADAD146500F0A70E14450550A5B
:102C8000F8E161A566D0000EA66F390EA627A6C092
:102C9000F6FF090EF76E0800F550086E096AFCECA5
:102CA00029F00001A76F080EA727000EA86F380EA5
:102CB000A827A8C0F6FF090EF76E0800F550086EA9
:102CC000096AFCEC29F00001A96F100EA927000E7B
:102CD000AA6F370EAA27AAC0F6FF090EF76E0800E2
:102CE000F550086E096AFCEC29F00001AB6F180E74
:102CF000AB27000EAC6F360EAC27ACC0F6FF090E4A
:102D0000F76E0800F550086E096AFCEC29F0000126
:102D1000AD6FAE6BAB2B03D0D890AD37AE37AB2FCA
:102D2000FBD7A92B03D0D890AD37AE37A92FFBD74F
:102D3000A72B03D0D890AD37AE37A72FFBD7ADC0A8
:102D40007FF0AEC080F0000E80BFFF0E816F826FFB
:102D50008ED77F6B806B816B826B89D74650100A50
:102D600070E14450550A85E162A566D0000EA66F59
:102D70003D0EA627A6C0F6FF090EF76E0800F55017
:102D8000086E096AFCEC29F00001A76F080EA7275E
:102D9000000EA86F3C0EA827A8C0F6FF090EF76E1C
:102DA0000800F550086E096AFCEC29F00001A96FD3
:102DB000100EA927000EAA6F3B0EAA27AAC0F6FF85
:102DC000090EF76E0800F550086E096AFCEC29F050
:102DD0000001AB6F180EAB27000EAC6F3A0EAC279C
:102DE000ACC0F6FF090EF76E0800F550086E096AD0
:102DF000FCEC29F00001AD6FAE6BAB2B03D0D8908B
:102E0000AD37AE37AB2FFBD7A92B03D0D890AD375A
:102E1000AE37A92FFBD7A72B03D0D890AD37AE374D
:102E2000A72FFBD7ADC083F0AEC084F0000E84BFE7
:102E3000FF0E856F866F1BD7836B846B856B866BEC
:102E400016D74650110A7AE14450550A01E011D7CD
:102E500063A56FD0000EA66F410EA627A6C0F6FF91
:102E6000090EF76E0800F550086E096AFCEC29F0AF
:102E70000001A76F080EA727000EA86F400EA82715
:102E8000A8C0F6FF090EF76E0800F550086E096A33
:102E9000FCEC29F00001A96F100EA927000EAA6F03
:102EA0003F0EAA27AAC0F6FF090EF76E0800F550DC
:102EB000086E096AFCEC29F00001AB6F180EAB2715
:102EC000000EAC6F3E0EAC27ACC0F6FF090EF76EDD
:102ED0000800F550086E096AFCEC29F00001AD6F9E
:102EE000ADC0AEF0AF6BB06BB16BAB2B05D0D89073
:102EF000AE37AF37B037B137AB2FF9D7A92B05D0E5
:102F0000D890AE37AF37B037B137A92FF9D7A72B45
:102F100005D0D890AE37AF37B037B137A72FF9D734
:102F2000B1C08AF0B0C089F0AFC088F0AEC087F001
:102F30009ED6876B886B896B8A6B99D6210E466407
:102F400074D0620E466071D0C9D54F04501027E18D
:102F50000F0E46646AD0380E466067D026EC2AF021
:102F60004650620F0001A66FA6C0F6FF090EF76E6D
:102F70000800F550086E096A44C00AF0E8EC27F032
:102F80004650620F0001A66FA6C0F6FF090EF76E4D
:102F90000800F550086E096AFCEC29F045D04F5046
:102FA000020A501024E1200E46603FD026EC2AF0A1
:102FB00046509A0F0001A66FA6C0F6FF090EF76EE5
:102FC0000800F550086E096A44C00AF0E8EC27F0E2
:102FD00046509A0F0001A66FA6C0F6FF090EF76EC5
:102FE0000800F550086E096AFCEC29F01DD04F501E
:102FF000030A50101AE1200E466017D026EC2AF082
:10300000D90E4624086E096A000E092244C00AF04F
:10301000E8EC27F017EC18F0D90E4624086E096A80
:10302000000E0922FCEC29F0456E4550120036686E
:103030003768386839683A6A3B6A3C6A3D6A436A6D
:103040004350126E136AD89012361336D890123647
:103050001336D89012361336440E1224086E000E22
:103060001320096EFCEC29F0146E14AEE8D1435025
:10307000126E136AD89012361336D8901236133661
:10308000D89012361336470E1224086E000E132005
:10309000096EFCEC29F0146E14C015F0166A176A5C
:1030A000186A17C018F016C017F015C016F0156A88
:1030B0004350196E1A6AD89019361A36D8901936B4
:1030C0001A36D89019361A36450E1924086E000E95
:1030D0001A20096EFCEC29F01B6E1BC01CF01D6A47
:1030E0001E6A1F6A1DC01FF01CC01EF01D6A1C6AEC
:1030F0004350206E216AD89020362136D890203651
:103100002136D89020362136440E2024086E000E39
:103110002120096EFCEC29F0226E020E221622C03C
:1031200023F0246A256A266A170ED890233624369F
:1031300025362636E82EF9D71C502310276E1D5051
:103140002410286E1E502510296E1F5026102A6E3E
:10315000155027102B6E165028102C6E1750291062
:103160002D6E18502A102E6EFF0E2B10316E2C5023
:10317000326E2D50336E2E50346E4350126E136AE1
:10318000D89012361336D89012361336D89012369D
:103190001336480E1224086E000E1320096EFCEC44
:1031A00029F0146E14C015F0166A176A186A17C051
:1031B00018F016C017F015C016F0156A4350196EB6
:1031C0001A6AD89019361A36D89019361A36D89005
:1031D00019361A36460E1924086E000E1A20096E8A
:1031E000FCEC29F01B6E1BC01CF01D6A1E6A1F6AD6
:1031F0001DC01FF01CC01EF01D6A1C6A4350206ECB
:10320000216AD89020362136D89020362136D890A1
:1032100020362136440E2024086E000E2120096E2F
:10322000FCEC29F0226E010E221622C023F0246A43
:10323000256A266A23C026F0256A246A236A1C5060
:103240002310276E1D502410286E1E502510296E45
:103250001F5026102A6E155027102B6E165028105E
:103260002C6E175029102D6E18502A102E6E4350B8
:103270002F6E306AD8902F363036D8902F363036B1
:10328000D8902F363036430E2F24086E000E302093
:10329000096EFCEC29F02B103E6E2C503F6E2D5029
:1032A000406E2E50416E436608D03EC03AF03FC09B
:1032B0003BF040C03CF041C03DF03150361632503A
:1032C00037163350381634503916426A42503EC0D1
:1032D00012F03FC013F040C014F041C015F0E82ACE
:1032E00005D0D8901532143213321232E82EF9D7A5
:1032F000010E121642503AC016F03BC017F03CC007
:1033000018F03DC019F0E82A05D0D89019321832CB
:1033100017321632E82EF9D71650010B12181DE09D
:1033200042C012F0010E136E146A122A03D0D89014
:1033300013361436122EFBD7131C156E141C166E82
:10334000176A16BE17061750186E15503616165007
:1033500037161750381618503916422A1F0E426475
:10336000B5D73E503A163F503B1640503C164150A0
:103370003D1643504FE0426A43C012F04350136E73
:10338000146AD89013361436D89013361436D89061
:1033900013361436430E1324086E000E1420096EE3
:1033A000FCEC29F0156E122A02D0D8901532122E9C
:1033B000FCD7010E151643C016F035C017F0162ABB
:1033C00002D0D8901732162EFCD71750010B1518C3
:1033D0001DE043C012F0010E136E146A122A03D0CE
:1033E000D89013361436122EFBD713C015F014C024
:1033F00016F0000E16BEFF0E176E186E155036161C
:10340000165037161750381618503916422A070E1C
:103410004264B2D74350126E136AD89012361336F4
:10342000D89012361336D89012361336430E122423
:10343000086E000E1320096EFCEC29F0356E432A4D
:10344000030E4364FDD5800E93EC29F00F010F0E9F
:10345000096E1C0E086E36C00AF037C00BF038C07B
:103460000CF039C00DF0010E0E6EC2EC22F00D0111
:10347000D4830F010F0E096E040E086E3AC00AF0D5
:103480003BC00BF03CC00CF03DC00DF0010E0E6EC9
:10349000C2EC22F0000E93EF29F06E51D8A460A583
:1034A00063D0000E0A6E350E0A260AC0F6FF090E1A
:1034B000F76E0800F550086E096AFCEC29F00B6EF7
:1034C000080E0B26000E0C6E340E0C260CC0F6FFF8
:1034D000090EF76E0800F550086E096AFCEC29F039
:1034E0000D6E100E0D26000E0E6E330E0E260EC043
:1034F000F6FF090EF76E0800F550086E096AFCEC3D
:1035000029F00F6E180E0F26000E106E320E1026C8
:1035100010C0F6FF090EF76E0800F550086E096A34
:10352000FCEC29F0116E126A0F2A03D0D8901136E4
:1035300012360F2EFBD70D2A03D0D8901136123633
:103540000D2EFBD70B2A03D0D890113612360B2E36
:10355000FBD7000111C07BF012C07CF0000E7CBFD5
:10356000FF0E7D6F7E6F6E6B6F51D8A461A563D027
:10357000000E0A6E390E0A260AC0F6FF090EF76E13
:103580000800F550086E096AFCEC29F00B6E080E75
:103590000B26000E0C6E380E0C260CC0F6FF090E22
:1035A000F76E0800F550086E096AFCEC29F00D6E04
:1035B000100E0D26000E0E6E370E0E260EC0F6FFF4
:1035C000090EF76E0800F550086E096AFCEC29F048
:1035D0000F6E180E0F26000E106E360E102610C03D
:1035E000F6FF090EF76E0800F550086E096AFCEC4C
:1035F00029F0116E126A0F2A03D0D89011361236B4
:103600000F2EFBD70D2A03D0D890113612360D2E6F
:10361000FBD70B2A03D0D890113612360B2EFBD7CE
:10362000000111C07FF012C080F0000E80BFFF0EBD
:10363000816F826F6F6B8230E832010B52187DE030
:10364000000E82B4010E526E82B462AF76D062B1C7
:1036500006D0832B000E84238523862305D0830781
:10366000000E845B855B865B865183118411851116
:10367000D8B462A562D0000E0A6E3D0E0A260AC0BA
:10368000F6FF090EF76E0800F550086E096AFCECAB
:1036900029F00B6E080E0B26000E0C6E3C0E0C264D
:1036A0000CC0F6FF090EF76E0800F550086E096AA7
:1036B000FCEC29F00D6E100E0D26000E0E6E3B0E6A
:1036C0000E260EC0F6FF090EF76E0800F550086EC4
:1036D000096AFCEC29F00F6E180E0F26000E106E12
:1036E0003A0E102610C0F6FF090EF76E0800F550CE
:1036F000086E096AFCEC29F0116E126A0F2A03D0D9
:10370000D890113612360F2EFBD70D2A03D0D89041
:10371000113612360D2EFBD70B2A03D0D890113656
:1037200012360B2EFBD7000111C083F012C084F0BB
:10373000000E84BFFF0E856F866F8230E832E8325C
:10374000010B53187DE0000E82B6010E536E82B657
:1037500063AF76D063B106D0872B000E8823892310
:103760008A2305D08707000E885B895B8A5B8A51B4
:10377000871188118911D8B463A562D0000E0A6E32
:10378000410E0A260AC0F6FF090EF76E0800F55032
:10379000086E096AFCEC29F00B6E080E0B26000E71
:1037A0000C6E400E0C260CC0F6FF090EF76E0800DA
:1037B000F550086E096AFCEC29F00D6E100E0D260E
:1037C000000E0E6E3F0E0E260EC0F6FF090EF76EAF
:1037D0000800F550086E096AFCEC29F00F6E180E0F
:1037E0000F26000E106E3E0E102610C0F6FF090EBA
:1037F000F76E0800F550086E096AFCEC29F0116EAE
:10380000126A0F2A03D0D890113612360F2EFBD72A
:103810000D2A03D0D890113612360D2EFBD70B2A65
:1038200003D0D890113612360B2EFBD7000111C0F1
:1038300087F012C088F0000E88BFFF0E896F8A6F74
:103840001200E8CF19F0186A50504F107AE119664B
:103850000BD0000EF66E090EF76E0800F550086EDC
:10386000096AFCEC29F0F8D019040EE1000E0A6E8A
:103870000A2A0AC0F6FF090EF76E0800F550086E16
:10388000096AFCEC29F0E8D0010E196411D00E0E83
:1038900019600ED01950000F0A6E0AC0F6FF090E0B
:1038A000F76E0800F550086E096AFCEC29F0D4D0D8
:1038B0000D0E196405D0120E196002D0186ACDD011
:1038C000110E19640BD0160E196008D07B0E146E01
:1038D0001950145CD96EDA6A150E29D0150E1964C8
:1038E0000BD01A0E196008D07F0E156E1950155C9A
:1038F000D96EDA6A190E1BD0190E19640BD01E0E80
:10390000196008D0830E166E1950165CD96EDA6AEB
:103910001D0E0DD01D0E19640DD0220E19600AD097
:10392000870E176E1950175CD96EDA6A210ED926E8
:10393000DA6A1AD0210E196490D0620E19608DD007
:10394000A9D74F04501064E1040E19600FD0010193
:10395000010E0D6E100E0C6E19500C5C0A6E000EEE
:103960000D580B6E030E3AD0DF5076D0030E19645B
:1039700010D0080E19600DD00101010E0F6E140E4B
:103980000E6E19500E5C0A6E000E0F580B6E070E6D
:1039900025D0070E196410D00C0E19600DD001014E
:1039A000010E116E180E106E1950105C0A6E000E8A
:1039B00011580B6E0B0E12D00B0E196415D0100E91
:1039C000196012D00101010E136E1C0E126E1950F7
:1039D000125C0A6E000E13580B6E0F0E0A24D96E7D
:1039E000000E0B20DA6EC0D70F0E196436D0380ED9
:1039F000196033D01950620F0A6E0AC0F6FF090E23
:103A0000F76E0800F550086E096AFCEC29F024D026
:103A10004F50020A501011E1200E19601ED01950AB
:103A20009A0F0A6E0AC0F6FF090EF76E0800F550ED
:103A3000086E096AFCEC29F00FD04F50030A5010B1
:103A40000CE1200E196009D0D90E1924086E096AFC
:103A5000000E0922FCEC29F0186E18501200E8CF75
:103A600014F0516A7750C00B166E166632D060AEF5
:103A700012D0A49074AE06D01150D96EDA6A000E3E
:103A8000DB86749E60A002D0518001D051900F0E51
:103A9000196E600E1AD00F0150AF19D0A49274ACF9
:103AA00006D01150D96EDA6A000EDB86749C505134
:103AB000070B516E020E516005D01150D96EDA6AB3
:103AC000000EDB8E0F0E196E500E186E65D0000EB4
:103AD000CCD01650400A46E160AE04D00F0E196EED
:103AE000600E3ED00F0150AF04D00F0E196E500E75
:103AF00037D00D01F8B507D00E0120AF04D00E0E5F
:103B0000196E200E2DD00D01F8B707D00E0130AF81
:103B100004D00E0E196E300E23D00D01F8B907D067
:103B20000E0140AF04D00E0E196E400E19D00D01DB
:103B3000F8BB05D00E0150AF02D00E0ED7D70D0145
:103B4000F8BD05D00E0160AF02D00E0EC8D70D0132
:103B5000F8BFBDD70E0170AFBAD70E0E196E700E3A
:103B6000186E0AD074AEB3D76F50070BCDEC26F0A9
:103B700008C018F009C019F018C0D9FF19C0DAFF41
:103B8000DF501F0B516EA49274AC06D01150D96E49
:103B9000DA6A000EDB86749C18C012F019C013F0AC
:103BA0001150D96EDA6ADF6A20EE05F01850D92676
:103BB0001950DA22DF50176E1050D96EDA6A17509A
:103BC0000F0BDF6E17AC05D01150D96EDA6A000EFC
:103BD000DB8C20EE02F01850D9261950DA22DF5083
:103BE000176E17A608D01150D96EDA6A000EDB8A5C
:103BF000010E176E01D0176A1828086E000E1920E2
:103C0000096E14C00AF017C00BF060EC21F0060E2C
:103C10001826000E19221050D96EDA6ADF50176E7E
:103C2000156A0DD018C0D9FF19C0DAFF0F50E16E28
:103C3000E26ADFCFE7FF184A192A0F2A152A175020
:103C4000155CF0E3A4AE06D01150D96EDA6A000E0E
:103C5000DB88A49E12C0D9FF13C0DAFF7F0EDF16E7
:103C60001650800AD8B4749E010E12008E518D1128
:103C700001E1E3D0146A14500A6E0B6AD8900A3638
:103C80000B36D8900A360B36D8900A360B36D90E3A
:103C90000A24086E000E0B20096EFCEC29F0136E4E
:103CA00013AEC7D013AC18D014500A6E0B6AD8905C
:103CB0000A360B36D8900A360B36D8900A360B36B1
:103CC000D90E0A24086E000E0B20096EFCEC29F0B8
:103CD0000001901901E0ADD013A811D00001922984
:103CE0000EE0000EF66E090EF76E0800F550086E35
:103CF000096AFCEC29F00001921901E09AD013A6A0
:103D000014D00001932911E0000E0A6E0A2A0AC09D
:103D1000F6FF090EF76E0800F550086E096AFCEC14
:103D200029F00001931901E084D01450080DDC0E35
:103D3000F324086E000EF420096EFCEC29F00A6EE4
:103D40001350010B0C6E0B6A0A500B240D6E000E03
:103D50000C200E6E1450080DDB0EF324086E000EBE
:103D6000F420096EFCEC29F00A6E1350020B0B6E66
:103D70000C6A070ED8900B360C36E82EFBD70A508B
:103D80000B240F6E000E0C20106E14500A6E0B6A7E
:103D9000D8900A360B36D8900A360B36D8900A36A9
:103DA0000B36DE0E0A24086E000E0B20096EFCECAA
:103DB00029F0116E14500A6E0B6AD8900A360B3631
:103DC000D8900A360B36D8900A360B36DD0E0A2408
:103DD000086E000E0B20096EFCEC29F0126E00013B
:103DE00020EE8DF0DECF0AF0DDCF0BF00D500A1A79
:103DF0000E500B1A0F500A1610500B160B500A10CB
:103E000018E18F511118121414E114500A6E0B6A44
:103E1000D8900A360B36D8900A360B36D8900A3628
:103E20000B36DF0E0A24086E000E0B20096EFCEC28
:103E300029F0142A030E14641ED71200E8CF1CF0D8
:103E40001B6A1C50800A04E154C01BF0546ACBD09A
:103E50001C50810A02E1010E81D01C50820A02E14D
:103E6000050E7CD01C50830A02E11B6ABCD01C509A
:103E7000940A03E130EC2AF071D01C50950A03E15A
:103E80002FEC2AF06BD01C50960A03E12EEC2AF09E
:103E900065D0890E1C6005D01C507C0FDFEC29F02A
:103EA0005DD0880E1C6408D0910E1C6005D01C509B
:103EB000770FD5EC29F052D01C50910A03E176C05F
:103EC0001BF091D01C50930A03E14FC01BF08BD024
:103ED0001C50920A02E1505041D01C50970A03E155
:103EE0002DEC2AF03BD01C50980A03E12CEC2AF070
:103EF00035D01C50990A03E12BEC2AF02FD0990EF3
:103F00001C642ED09E0E1C602BD013EC2AF00BC02C
:103F100014F00AC013F009C012F008C011F01C50D0
:103F2000660F196E195003080C6ED8900C36D89095
:103F30000C36D8900C360C5011C00DF012C00EF09B
:103F400013C00FF014C010F0E82A05D0D89010323A
:103F50000F320E320D32E82EF9D730D01B6E43D01F
:103F60009D0E1C642DD0A20E1C602AD00EEC2AF0EF
:103F70000BC018F00AC017F009C016F008C015F001
:103F80001C50620F1A6E1A5003080C6ED8900C3633
:103F9000D8900C36D8900C360C5015C00DF016C0C9
:103FA0000EF017C00FF018C010F0E82A05D0D89016
:103FB00010320F320E320D32E82EF9D70D50CED717
:103FC000CF0E1C6408D0E00E1C6005D01C50300FD2
:103FD000E9EC29F0C3D7DF0E1C6405D01C50200F7C
:103FE00087EC29F0BBD71B501200C9EC27F010EC6E
:103FF00029F00009D8B45DEC0EF0F2EC23F0000ECD
:104000000001DD6F060EDD27DDC0F6FF090EF76E3D
:104010000800F550086E096AFCEC29F00001606F99
:10402000000EDD6F070EDD27DDC0F6FF090EF76E0F
:104030000800F550086E096AFCEC29F00001616F78
:10404000000EDD6F080EDD27DDC0F6FF090EF76EEE
:104050000800F550086E096AFCEC29F00001626F57
:10406000000EDD6F090EDD27DDC0F6FF090EF76ECD
:104070000800F550086E096AFCEC29F00001636F36
:1040800088EC27F017EC18F00400FA0E00017465B4
:104090000ED077050CE0766926EC2AF0096A010E4D
:1040A000086EFF0E0A68E8EC27F088EC27F08B6BAF
:1040B00089EC28F01DD0762903E1010E776F24D01A
:1040C000030E776F33EC29F01FD08DEC25F01CD058
:1040D0008BAF1AD08E518D1103E1FDEC11F014D08D
:1040E00036EC1EF011D029EC2AF00ED0776B0CD0F4
:1040F00000017751E0E0010AE8E0030AE3E0010A89
:10410000E7E0070AF0E0F2D7E90E0001645D030E74
:104110006559000E6659000E67590BE3646B656BB9
:10412000666B676B3DEC27F07751030AD8B4EDEC72
:1041300004F03B0E000172650BD0726B712B3B0ECD
:10414000716502D0716B702B170E706501D0706BAA
:104150004DEC1AF099D70F0E1C6E400E1B6E0F0E11
:104160001E6E300E1D6E0F0E206E200E1F6E0E0E78
:10417000226E200E216E0E0E246E300E236E0E0E59
:10418000266E400E256E0E0E286E500E276E0E0EF9
:104190002A6E600E296E0E0E2C6E700E2B6E7750EE
:1041A000C00B2D6E2D6602D0020E01D0080E2E6EB1
:1041B0000D01D890F831306E346A7DD03450020D44
:1041C000F3501B0FD96EDA6ADECF35F0DDCF36F053
:1041D00035C031F036C032F0020E346404D0D890CD
:1041E000303230A067D035C0D9FF36C0DAFFDF509B
:1041F0001A6E1AB65FD035C0D9FF36C0DAFFFC0E92
:10420000DF1619C01AF0030E1A1635C0D9FF36C0D2
:10421000DAFF1A50DF1219AC04D018504009336E7F
:1042200002D018C033F020EE05F03550D9263650B4
:10423000DA2233C0DFFF19AA03D0010E336E01D09A
:10424000336A3528086E000E3620096E12C00AF057
:1042500013C00BF014C00CF015C00DF033C00EF0FD
:10426000C2EC22F0060E3526000E36222F6A0FD041
:1042700016C0D9FF17C0DAFF35C0E1FF36C0E2FF34
:10428000DFCFE7FF164A172A354A362A2F2A185059
:104290002F5CEEE331C0D9FF32C0DAFFDF501A6E77
:1042A0001AB406D031C0D9FF32C0DAFF000EDB8667
:1042B000010E05D0342A2E50345C80E3000E12002B
:1042C0000AC00EF00B6646D00E50D96EDA6A08C0EE
:1042D000E1FF09C0E2FFE7500C6ED8900C36D89091
:1042E0000C36D8900C34DF6E0E50D96EDA6AD92AAB
:1042F000DA6A08C0E1FF09C0E2FFE7500C6E050E64
:104300000D6ED8900C320D2EFCD70C50DF6E084A83
:10431000092A08C0D9FF09C0DAFFDF500C6E050E6C
:104320000D6ED8900C320D2EFCD70E50D96EDA6A75
:104330000C50DF120E50D96EDA6A020ED926DA6AF4
:10434000DF6A0E50D96EDA6A030ED926DA6A000ED9
:10435000DF6E67D00E50D96EDA6A020ED926DA6A9D
:1043600008C0E1FF09C0E2FFE7500C6E050E0D6EBC
:10437000D8900C360D2EFCD70C50DF6E0E50D96E37
:10438000DA6A030ED926DA6A08C0E1FF09C0E2FF43
:10439000E7500C6ED8900C32D8900C32D8900C307C
:1043A000DF6E084A092A08C0D9FF09C0DAFFDF50CA
:1043B0000C6E030E0C160E50D96EDA6A020ED92658
:1043C000DA6A0C50DF1208C0D9FF09C0DAFFDF50EB
:1043D0000C6ED8900C32D8900C32D8900C321C0E47
:1043E0000C160E50D96EDA6A020ED926DA6A0C5013
:1043F000DF12084A092A08C0D9FF09C0DAFF0E50A7
:10440000E16EE26AE12AE26ADFCFE7FF084A092AA1
:1044100008C0D9FF09C0DAFF0E50E16EE26ADFCFB3
:10442000E7FF120027342834306E2B342C342F6EE3
:10443000305009E02F5030600FD030502F5C2D6E7F
:10444000210E2D5C09E329C025F02AC026F02BC0DF
:1044500027F02CC028F095D02F5009E030502F6065
:104460000FD02F50305C2D6E210E2D5C09E325C03E
:1044700025F026C026F027C027F028C028F081D0DC
:10448000060E2E6E28BE2E8E2CBE2E8C278E286AEF
:104490002B8E2C6A2F50306018D0D89029362A36AF
:1044A0002B362C362F062F5030180BE02E062E50B0
:1044B000070B07E0F2D7D890283227322632253270
:1044C000302A2F503062F7D71AD030502F6017D0D3
:1044D000D890253626362736283630062F50301805
:1044E0000BE02E062E50070B07E0F2D7D8902C32A7
:1044F0002B322A3229322F2A2F503062F7D72EAE94
:1045000009D0251E261E271E281E252A000E26221B
:10451000272228222EAC09D0291E2A1E2B1E2C1E33
:10452000292A000E2A222B222C222E6A25502926E7
:1045300026502A2227502B2228502C222CAE0BD07A
:10454000291E2A1E2B1E2C1E292A000E2A222B224F
:104550002C22010E2E6E29C008F02AC009F02BC0B3
:104560000AF02CC00BF030C00CF02EC00DF02DEC7A
:1045700025F00BC028F00AC027F009C026F008C0BB
:1045800025F012000A0E116E0E6637D01150D96E4A
:10459000DA6ADF500F6ED8900F32D8900F32D89071
:1045A0000F3008C0D9FF09C0DAFFDF6E1150D96E95
:1045B000DA6AD92ADA6ADF500F6E050E106ED890CB
:1045C0000F36102EFCD708C0D9FF09C0DAFF0F50F4
:1045D000DF12084A092A1150D96EDA6ADF500F6ECD
:1045E000050E106ED8900F36102EFCD70F5008C055
:1045F000D9FF09C0DAFFDF6E6CD01150D96EDA6ACC
:10460000020ED926DA6ADF500F6E050E106ED890B2
:104610000F32102EFCD70F5008C0D9FF09C0DAFFA7
:10462000DF6E1150D96EDA6A030ED926DA6ADF50CE
:104630000F6ED8900F36D8900F36D8900F3608C02E
:10464000D9FF09C0DAFF0F50DF12084A092A1150BA
:10465000D96EDA6A020ED926DA6ADF500F6ED89068
:104660000F36D8900F36D8900F34E00B08C0D9FF22
:1046700009C0DAFFDF6E08C0D9FF09C0DAFF000EFB
:10468000DB861150D96EDA6A020ED926DA6ADF505B
:104690000F6E030E0F1608C0D9FF09C0DAFF0F50C6
:1046A000DF12084A092A1150D96EDA6AD92ADA6A61
:1046B00008C0E1FF09C0E2FFDFCFE7FF084A092A8F
:1046C0001150D96EDA6A08C0E1FF09C0E2FFDFCFFE
:1046D000E7FF1200E8CFA7F04A1CA66F830EA7657C
:1046E00010D0890EA7610DD04AC00CF0A7517C0FE5
:1046F00051EC29F00001A7517C0FDFEC29F00001FB
:104700003BD0A751920A0DE14A504C6E4B6A4F5074
:104710004D6E4E6A4B104F6E4C504E10506E5050B6
:104720002BD0A751930A0BE14B6A50504C6E4A5064
:104730004B104F6E4C50506E4FC0A6F051D0880EAB
:10474000A7651CD0910EA76119D050C04BF04BC08B
:104750004CF04D6A4C2802E14F2802E04A1C0CD074
:104760004AC00CF0A751770FC5EC28F00001A75103
:10477000770FD5EC29F0C3D7A66F32D0CF0EA7653F
:1047800018D0E00EA76115D050C04BF04BC04CF0D4
:104790004D6A4C28E3E14F28E1E14AC00CF0A751F3
:1047A000300FD8EC28F00001A751300FE9EC29F0C8
:1047B000A6D7A751A20AD2E14A50550A04E16A6B72
:1047C0006B6B550ED9D74A50AA0A0AE1E80E6A5D0A
:1047D000030E6B5904E222EC2AF0AA0E90D7A66BC6
:1047E000A65112000001646B656B666B676B726BA0
:1047F000716B706B526A536A106A1050040DF3505B
:104800007B0FD96EDA6ADE6ADE6ADE6ADD6A105014
:10481000040D100EF324D96E010EF420DA6EDE6A58
:10482000DE6ADE6ADD6ADD52DD52102A030E106494
:10483000E4D700016E6B6F6B0101010E096E200E53
:10484000086E0B6A0A6A0D6A040E0C6E48EC28F0BA
:104850000101010E096E280E086E0B6A0A6A0D6AC4
:10486000040E0C6E48EC28F00101010E096E240EB6
:10487000086E0B6A0A6A0D6A040E0C6E48EC28F08A
:104880000101010E096E2C0E086E0B6A0A6A0D6A90
:10489000040E0C6E48EC28F00101010E096E300E7A
:1048A000086E0B6A0A6A0D6A040E0C6E48EC28F05A
:1048B0000101010E096E340E086E0B6A0A6A0D6A58
:1048C000040E0C6E48EF28F0183419341E6E1E6664
:1048D00001D005D01C341D34246E246605D0166A20
:1048E000176A186A196A57D024507B0F1E2619C000
:1048F00024F01D50241A800E2416188E1C8E000ED3
:104900001D161F6A206A216A226A070E236E16A0EE
:1049100008D01A501F261B5020221C5021221D5047
:104920002222D8901932183217321632D8901A36FD
:104930001B361C361D36232EEAD7110E236E16A009
:1049400008D01A501F261B5020221C5021221D5017
:104950002222D8901932183217321632D8902232C9
:10496000213220321F32232EEAD71FC008F020C088
:1049700009F021C00AF022C00BF01EC00CF024C0C8
:104980000DF02DEC25F00BC019F00AC018F009C08D
:1049900017F008C016F012000600F2A201D001D0F4
:1049A0002CD0000160AF01D001D025D060B101D082
:1049B00001D013D0010E7B27000E7C23000E7D2337
:1049C000000E7E237E517B117C117D11D8A401D075
:1049D00001D011D0010E6E6F0ED07B07000E7C5BF4
:1049E0007D5B7E5B7E517B117C117D11D8A401D053
:1049F00001D001D0EFD7F2922FD0F0A001D001D09A
:104A00002BD0000161AF01D001D025D061B101D020
:104A100001D013D0010E7F27000E8023000E8123CA
:104A2000000E822382517F1180118111D8A401D000
:104A300001D011D0010E6F6F0ED07F07000E805B8A
:104A4000815B825B82517F1180118111D8A401D0DA
:104A500001D001D0EFD7F09011000C5005E00B50C1
:104A6000081009100A100BE1086A096A0A6A0B6A41
:104A700053D00C2AD8900B320A32093208320E6A0F
:104A80000F6A106AFE0E0B14116E11500E100F10EB
:104A900010100CE0EED70C2A082A000E09220A2278
:104AA0000B22D8900B320A32093208320E6A0F6A92
:104AB000106A0B50116E11500E100F10101007E0FD
:104AC000EAD70C06D890083609360A360B360AAEF5
:104AD000F8D70CB002D07F0E0A16D8900C320CC05A
:104AE0000EF00F6A106A116A0EC011F0106A0F6A98
:104AF0000E6A0E5008120F50091210500A1211506F
:104B00000B120D50D8A40B8E08C008F009C009F094
:104B10000AC00AF00BC00BF0120053D0572810E067
:104B2000810E996F9A6B9B6B9C6B020E9D6F57C0A9
:104B30009EF0EBEC28F0010E786F6C6B6D6B48D03B
:104B4000040E776F810E996F9E69070E9A6F9B6BAB
:104B50009C6B030E9D6FEBEC28F03AD08BAF0FD01F
:104B60008E518D1135E18F51030A32E1576603D022
:104B7000020E776FE2D7572A786B796B29D0E90E4E
:104B80006C5D030E6D5924E3792B020E796517D005
:104B9000576605D0572A786B6C6B6D6BEED757C094
:104BA00076F0030E776F786B7651C0EC29F0400EEB
:104BB000B5EC29F00001796B33EC29F009D0786B62
:104BC00007D000017851AAE0010AC8E0030AF7E122
:104BD0008B6B120041C0A6F00001A76BA86BA96BFC
:104BE000A8C0A9F0A7C0A8F0A6C0A7F0A66B3F5028
:104BF000AA6F4050AB6FAC6BAD6BABC0ADF0AAC051
:104C0000ACF0AB6BAA6B43C0AEF0AF6BB06BB16BEB
:104C10001A0ED890AE37AF37B037B137E82EF9D784
:104C2000AA51AE11B26FAB51AF11B36FAC51B0110D
:104C3000B46FAD51B111B56FA651B211B66FA75196
:104C4000B311B76FA851B411B86FA951B511B96FAD
:104C50004250B611476EB751486EB851496EB951BE
:104C60004A6E47C037F048C038F049C039F04AC0F2
:104C70003AF044C03BF045C03CF046C03DF063EC28
:104C800027F00009000ED8A4010E1200800E93EC4C
:104C900029F0090E706EFC0E716E010E726E200E00
:104CA000736E778E779C606A0F01506B0E01206BDC
:104CB000306B406B506B606B706BE00E0D01F86FEA
:104CC0000F01006B080E016F026B036B046BE80EA3
:104CD000056F1A0E066F076B030E0D01D46FD56BAF
:104CE000E06B110EE16FE26FE36BE46BE56BE66B7B
:104CF000E76B540EF06F050EF16FF26BF26B0F0E57
:104D00000F01186FE00E196F1A6B1B6B19870F0ECE
:104D10001C6FE00E1D6F1E691F6B1D87000E93EF49
:104D200029F0E8CF27F021C01AF022C01BF0280E8E
:104D30005EEC28F0000902E1000E2ED01F50D96E63
:104D4000DA6A28C0DFFF1E50D96EDA6A29C0DFFF99
:104D50002A50236E010E2B14246E2750D96EDA6A66
:104D600023C0DEFF24C0DDFF2050D96EDA6A28C0E0
:104D700023F029C024F02AC025F02BC026F01B0EFA
:104D800005D0D8902632253224322332E82EF9D7A6
:104D90002350070BDF6E010E1200E8CF0BF024D07A
:104DA0000F0E0D6E600E1ED00F010F0E0D6E500E09
:104DB00019D00E010E0E0D6E200E14D00E010E0E27
:104DC0000D6E300E0FD00E010E0E0D6E400E0AD07D
:104DD0000E010E0EEBD70E010E0EE3D70E010E0ED6
:104DE0000D6E700E0C6E0FD00B50DAE0010ADCE095
:104DF000030ADFE0010AE2E0070AE5E0010AE8E071
:104E0000030AE9E0EBD70CC008F00DC009F012006E
:104E1000E8CFBDF0BDC0BAF0000EF66E090EF76E19
:104E20000800F550086E096AFCEC29F00001BB6F20
:104E3000BDC04BF0030E4B16020E4B264B50000F1D
:104E40004C6E4CC0F6FF090EF76E0800F550086E68
:104E5000096AFCEC29F00001BC6F406A010E3F6E4C
:104E6000020E416E76C042F0436A030E446E000E9D
:104E7000466EBA0E456EEAEF25F07A2B3B0E7A6548
:104E80000CD07A6B752B7751030A07E16DEC29F092
:104E90004C6ECBEC29F0B2EC28F03B0E756502D0DD
:104EA000756B732B170E736501D0736B7751030A03
:104EB00009E1552A55C04EF00F0E4E16020E4E5CFB
:104EC000D8B0556A12003E6A686B696B17D037C05C
:104ED00012F038C013F039C014F03AC015F03CC0DD
:104EE00016F03DC017F03BC018F0200E196EABEC69
:104EF00020F0000903E0010E3E6E06D0E80E00012E
:104F0000685D030E6959E3E30001996B3E5012009E
:104F1000020E566E18EC2AF00001766F766701D00B
:104F200076698B6B8C6B8D6B8E6B8F6B996B9A6BC1
:104F30009B6B9C6B9D6B546A576A776B786B796B34
:104F40004F6A506A6C6B6D6B6A6B6B6B7A6B756BCF
:104F5000736B12001DEC2AF0000916E100018B5161
:104F60000F0B050A15E11DEC2AF00001911910E064
:104F70009151B5EC29F000017669FF0EC0EC29F0E3
:104F8000010E0001776F04D000019151B5EC29F0BA
:104F900012000F0EC16E926A806A0B0E936E816AC8
:104FA0000D0E946E826A920E42EC29F0FB0E096E91
:104FB0001D0E086EF3EC29F046EC26F0F194D08E2D
:104FC000F18CF288F18AF086F28CF28EF28C12006B
:104FD00008C0A9FF0AC0A8FFA69EA69CA684000E32
:104FE000F2BE010E0B6EF29E550EA76EAA0EA76EB4
:104FF000A682A6B2FED70BB002D0F29E01D0F28EEE
:10500000A69412008B510F0B0D6E0D5012E07651CD
:1050100020EE91F0DF620DD00D0405E0010E0D646D
:1050200008D0926706D07669FF0EC0EC29F088ECB4
:1050300027F0120001EE00F0380EEE6AE806FDE1FE
:1050400000EE60F0460EEE6AE806FDE100EE4FF07D
:105050000A0EEE6AE806FDE1000EF86E0001F5EFBB
:105060001FF012C008F013C009F014C00AF015C0F8
:105070000BF0960E0C6E000E0D6A2DEC25F00BC099
:1050800015F00AC014F009C013F008C012F01200A5
:1050900008C00EF009C00FF008D00EC0D9FF0FC035
:1050A000DAFF0AC0DFFF0E4A0F2A0C06D8A00D0651
:1050B0000C28D8B40D28D8B41200EFD7E8CF1CF0D4
:1050C0008BAF02D0000E0FD01BC00FF01AC010F033
:1050D0001D0E116E1C502FEC1DF00009F3E01DACED
:1050E0001DAAF0D7010E12008BC04CF00F0E4C160B
:1050F0004C040EE1765120EE91F0DF6209D0800E73
:10510000996F9A6B9B6B9C6B030E9D6FEBEC28F079
:1051100012008BBF12D08F0E1E6E900E1F6E8C0E63
:10512000206E8B0E216E910E226E8D0E91EC26F06C
:105130002C6E2C5002E000018B8F1200E8CF09F09A
:10514000080E0A6E0B6AD89009340B340B6ED89097
:10515000093608500B5C02E308500B5E0A2EF3D7A9
:105160000B501200E8CF4DF0830E0001996F070E2F
:105170009A6F9C6B140E9B6F090E9D6F9E6B4DC0BA
:105180009FF04CC0A0F0EBEF28F0E8CF0DF0070E39
:105190000D6401D00CD026EC2AF00B0E0D24086E05
:1051A000096A000E09220CC00AF0E8EC27F0120090
:1051B000E8CF0DF00F0E0D6401D00CD026EC2AF0D4
:1051C000130E0D24086E096A000E09220CC00AF0A5
:1051D000E8EC27F012009BC03FF09CC040F09DC05F
:1051E00041F076C042F09AC043F099510F0B446EE3
:1051F000000E466E9E0E456EEAEF25F08B510F0BAA
:10520000020A0DE1765120EE91F0DF6208D092C0E3
:1052100076F07651C0EC29F0400EB5EC29F0120082
:105220001DEC2AF0C00B400A02E1010E0AD0FF0E6D
:10523000C0EC29F0000EB5EC29F0A00EAAEC29F084
:10524000000E1200E8CFB3F07F0EB36506D0B2C0F7
:105250004AF0B3516AEC23F005D0B2C044F0B35128
:1052600022EC15F01200810E0001996F9A6B9B6B76
:105270009C6B020E9D6F76C09EF0EBEC28F0010E49
:10528000566E010CE8CF08F008507F0BD56ED76A38
:10529000D66AF29408AE02D0F28A01D0F29AD58E84
:1052A0001200E8CF0DF026EC2AF0060E0D24086E51
:1052B000096A000E09220CC00AF0E8EF27F0E8CFD7
:1052C0000CF00C0409E126EC2AF0096A086AFF0ECA
:1052D0000A68E8EC27F0FF001200000E0A6E0A2AA6
:1052E0000AC0F6FF090EF76E0800F550086E096A4D
:1052F000FCEF29F0E8CF1DF07F0E1D6404D01D5097
:105300001EEC1FF003D01D5021EC1CF01200E8CF62
:1053100009F00950BA0F086E08C0F6FF090EF76EC3
:105320000800F5501200E8CF08F01F0E6F16085065
:105330006F126F50E00B0818D8B41200FAD7040EA1
:105340009E6F9F6BA06B030EA16FA26B030EA36FEA
:10535000A46B1200E8CF0CF026EC2AF0096A030EC9
:10536000086E0CC00AF0E8EF27F0E8CF0CF026EC4E
:105370002AF0096A020E086E0CC00AF0E8EF27F066
:10538000E8CF0CF026EC2AF0096A010E086E0CC07A
:105390000AF0E8EF27F0000EF66E090EF76E08002F
:1053A000F550086E096AFCEF29F0E8CF0AF00B0E01
:1053B0000A24086E096A000E0922FCEF29F0E8CFE2
:1053C0000AF0060E0A24086E096A000E0922FCEF94
:1053D00029F0E8CF0AF0130E0A24086E096A000EBD
:1053E0000922FCEF29F008C00AF009C00BF00BC03D
:1053F000D7FF0AC0D6FF120008C0A9FFA69CA69E30
:10540000A68000F000F0A850120001C003F002C016
:1054100004F004C0D7FF03C0D6FF1200086A096A6F
:105420000A6A0B6A1200086A096A0A6A0B6A1200A1
:10543000096A010E086EFCEF29F0096A020E086E77
:10544000FCEF29F05DEC0EF0F2EF23F0A6A21200C3
:10545000FDD7566A1200050C080C010C000C000C5C
:02546000010C3D
:020000040020DA
:08000000FFFFFFFFFFFFFFFF00
:020000040030CA
:0E000000FF061C1EFF8281FF0FC00FE00F40A5
:00000001FF
