:040800005FEF04F0B2
:04080800D8ED24F013
:10081800D8CF05F0E8CF06F0E0CF07F0F2A401D07A
:1008280001D042D0FB0E026E1D0E016E16EC2AF0AE
:100838000001684B692B664B672B010E01011027DD
:10084800000E1123000E1223000E13230001644B27
:10085800652B82A001D001D002D0716B01D0712B21
:10086800582A5650020AD8A401D001D00ED0640EDE
:10087800586401D001D009D082A201D001D002D0A1
:10088800829201D08282586A0ED05604D8A401D030
:1008980001D003D08282586A06D0566601D001D0B2
:1008A80002D08292586AF29407C0E0FF06C0E8FFBF
:0A08B80005C0D8FF100046EF28F03D
:100900004445464748494A4B4C4D4E4F5051FFFFD6
:10091000FFFFFFFFFFFFFFFFFFFFFFFFFFFFFFFFE7
:10092000FFFF52535455565758595A5B5C5D5E5FF2
:10093000606162636465666768696A6B6C6D6E6F3F
:10094000707172737475767778797A7B7C7D7E7F2F
:10095000808182838485868788898A8B8C8D8E8F1F
:100960009091FFFFFFFFFFFFFFFFFFFFFFFFFFFF74
:10097000FFFF92939495969798999A9B9C9D9E9F22
:10098000A0A1A2A3A4A5A6A7A8A9AAABACADAEAFEF
:10099000B0B1B2B3B4B5B6B7B8B9BABBBCBDBEBFDF
:1009A000C0C1C2C3C4C5C6C7C8C9CACBCCCDCECFCF
:1009B000D0D1D2D3D4D5D6D7D8D97777772E65757D
:1009C000726F736F757263652E73652F61636372E7
:1009D000615F312E786D6C0000000101616B626B0C
:1009E00061C1BCF062C1BDF00001D890BC37BD3719
:1009F000D890BC37BD37000EBC25D96E010EBD2185
:100A0000DA6EDECFBEF0DECFBFF0DECFC0F0DECFDD
:100A1000C1F001016151040DF3500001780FD96E4E
:100A2000DA6ADECFC2F0DECFC3F0DECFC4F0DECFB5
:100A3000C5F0BE51C25DC66FBF51C359C76FC0512B
:100A4000C459C86FC151C559C96F61C1CAF062C1EB
:100A5000CBF0D890CA37CB37D890CA37CB37140EE3
:100A6000CA25D96E010ECB21DA6EC6C0DEFFC7C023
:100A7000DEFFC8C0DEFFC9C0DDFFD906D90601010F
:100A80006151040DF350780FD96EDA6A61C1BCF080
:100A900062C1BDF00001D890BC37BD37D890BC37DB
:100AA000BD37000EBC25E16E010EBD21E26EDECF2A
:100AB000E6FFDECFE6FFDECFE6FFDDCFE5FFE55266
:100AC000E5520101614B622B6251800A800F040ED6
:100AD000D8B4615D85E3616B626B61510001600FA9
:100AE000D96EDA6ADF50BC6FBCAF62D101016151CF
:100AF0000001600FD96EDA6ADF50BC6FBCA311D160
:100B000001016151040DF3CFBCF0240E0001BC279C
:100B1000BC51000FBD6FBDC0F6FF090EF76E080097
:100B2000F550086E096A0DEC2AF00001BE6FBEC0D8
:100B3000BFF0C06BC16BC26BC1C0C2F0C0C0C1F01E
:100B4000BFC0C0F0BF6B01016151040DF3CFC3F012
:100B5000230E0001C327C351000FC46FC4C0F6FFAA
:100B6000090EF76E0800F550086E096A0DEC2AF0C0
:100B70000001C56FC5C0C6F0C76BC86BC96BC7C0E5
:100B8000C9F0C6C0C8F0C76BC66B01016151040D46
:100B9000F3CFCAF0220E0001CA27CA51000FCB6F53
:100BA000CBC0F6FF090EF76E0800F550086E096A13
:100BB0000DEC2AF00001CC6FCCC0CDF0CE6BCF6B2A
:100BC000D06BCDC0D0F0CF6BCE6BCD6BC651CD25E9
:100BD000D16FC751CE21D26FC851CF21D36FC95128
:100BE000D021D46FBF51D125D56FC051D221D66F3E
:100BF000C151D321D76FC251D421D86F01016151A6
:100C0000040DF3CFD9F0250E0001D927D951000FDB
:100C1000DA6FDAC0F6FF090EF76E0800F550086EBD
:100C2000096A0DEC2AF00001D52501015D6F000E67
:100C30000001D62101015E6F000E0001D7210101E4
:100C40005F6F000E0001D8210101606F6151040D3A
:100C5000F3CFBCF0430E0001BC27BC51000FBD6FA9
:100C6000BDC0F6FF090EF76E0800F550086E096A60
:100C70000DEC2AF00001BE6F01016151040DF3CFAC
:100C8000BFF0420E0001BF27BF51000FC06FC0C0B0
:100C9000F6FF090EF76E0800F550086E096A0DECB4
:100CA0002AF00001C26FC16BBE51C1250101596F0D
:100CB0000001000EC22101015A6F6151040DF35071
:100CC0000001780FD96EDA6ADECFBCF0DECFBDF05E
:100CD000DECFBEF0DECFBFF0BC5101015D5D000193
:100CE000BD5101015E590001BE5101015F59000172
:100CF000BF510101605915E2240E6125D96E010E24
:100D00006221DA6EDF500DE161295412240E612553
:100D1000D96E010E6221DA6E010EDF6E615113ECA5
:100D200027F00101240E6125D96E010E6221DA6ED1
:100D3000DF503EE059510001BC6F01015A510001E2
:100D4000BD6FBE6BBF6BBC5101015D5D0001C06F2B
:100D5000BD5101015E590001C16FBE5101015F59D2
:100D60000001C26FBF51010160590001C36F010151
:100D70006151040DF3500001780FD96EDA6ADECFAD
:100D8000C4F0DECFC5F0DECFC6F0DECFC7F0C05175
:100D9000C45DC151C559C251C659C351C75908E2B2
:100DA0000101240E6125D96E010E6221DA6EDF6A1F
:100DB0000101614B622B6251800A800F040ED8B48E
:100DC000615D01E28AD6616B626B61C1BCF00A0EA3
:100DD0000001BC27BC51000FBD6FBDC0F6FF090E5E
:100DE000F76E0800F550086E096A0DEC2AF0000154
:100DF000BE6FBEAF7DD101012C0E6125D96E010EF3
:100E00006221DA6EDF5001E02CD161C1BCF00A0E24
:100E10000001BC27BC51000FBD6FBDC0F6FF090E1D
:100E2000F76E0800F550086E096A0DEC2AF0000113
:100E3000BE6FBEA116D101016151040DF3CFBCF00C
:100E4000120E0001BC27BC51620FBD6FBDC0F6FF82
:100E5000090EF76E0800F550086E096A0DEC2AF0CD
:100E60000001BE6FBEC0BFF0C06BC16BC26BC1C022
:100E7000C2F0C0C0C1F0BFC0C0F0BF6B0101615182
:100E8000040DF3CFC3F0110E0001C327C351620F4D
:100E9000C46FC4C0F6FF090EF76E0800F550086E67
:100EA000096A0DEC2AF00001C56FC5C0C6F0C76B1A
:100EB000C86BC96BC7C0C9F0C6C0C8F0C76BC66BEA
:100EC00001016151040DF3CFCAF0100E0001CA27D1
:100ED000CA51620FCB6FCBC0F6FF090EF76E080048
:100EE000F550086E096A0DEC2AF00001CC6FCCC0F9
:100EF000CDF0CE6BCF6BD06BCDC0D0F0CF6BCE6BC7
:100F0000CD6BC651CD25D16FC751CE21D26FC851FF
:100F1000CF21D36FC951D021D46FBF51D125D56F07
:100F2000C051D221D66FC151D321D76FC251D42124
:100F3000D86F01016151040DF3CFD9F0130E0001F8
:100F4000D927D951620FDA6FDAC0F6FF090EF76EB2
:100F50000800F550086E096A0DEC2AF00001D5254D
:100F600001015D6F000E0001D62101015E6F000ED0
:100F70000001D72101015F6F000E0001D82101019E
:100F8000606F6151040DF3CFBCF0310E0001BC273E
:100F9000BC51620FBD6FBDC0F6FF090EF76E0800B1
:100FA000F550086E096A0DEC2AF00001BE6F0101D0
:100FB0006151040DF3CFBFF0300E0001BF27BF51C8
:100FC000620FC06FC0C0F6FF090EF76E0800F55043
:100FD000086E096A0DEC2AF00001C26FC16BBE51A8
:100FE000C1250101596F0001000EC22101015A6F94
:100FF00061C1BCF062C1BDF00001D890BC37BD3703
:10100000D890BC37BD37140EBC25D96E010EBD215A
:10101000DA6EDECFBEF0DECFBFF0DECFC0F0DECFC7
:10102000C1F001015D510001BE5D01015E51000191
:10103000BF5901015F510001C05901016051000118
:10104000C1590FE20101612954122C0E6125D96E9C
:10105000010E6221DA6E010EDF6E6151030F13EC97
:1010600027F001012C0E6125D96E010E6221DA6E86
:10107000DF503EE061C1BCF062C1BDF00001D8901C
:10108000BC37BD37D890BC37BD37140EBC25D96EE0
:10109000010EBD21DA6EDECFBEF0DECFBFF0DECFB7
:1010A000C0F0DECFC1F0010159515D250001C26FD2
:1010B00001015A515E210001C36F000E01015F2141
:1010C0000001C46F000E010160210001C56FBE5117
:1010D000C25DBF51C359C051C459C151C55908E27D
:1010E00001012C0E6125D96E010E6221DA6EDF6AD4
:1010F0000101614B622B6251800A800F040ED8B44B
:10110000615D01E262D6616B626B61C1BCF00A0E87
:101110000001BC27BC51000FBD6FBDC0F6FF090E1A
:10112000F76E0800F550086E096A0DEC2AF0000110
:10113000BE6FBEAF84D10101280E6125D96E010EAC
:101140006221DA6EDF5001E02BD161C1BCF00A0EE2
:101150000001BC27BC51000FBD6FBDC0F6FF090EDA
:10116000F76E0800F550086E096A0DEC2AF00001D0
:10117000BE6FBEA315D101016151040DF3CFBCF0C8
:10118000220E0001BC27BC51620FBD6FBDC0F6FF2F
:10119000090EF76E0800F550086E096A0DEC2AF08A
:1011A0000001BE6FBEC0BFF0C06BC16BC26BC1C0DF
:1011B000C2F0C0C0C1F0BFC0C0F0BF6B010161513F
:1011C000040DF3CFC3F0210E0001C327C351620FFA
:1011D000C46FC4C0F6FF090EF76E0800F550086E24
:1011E000096A0DEC2AF00001C56FC5C0C6F0C76BD7
:1011F000C86BC96BC7C0C9F0C6C0C8F0C76BC66BA7
:1012000001016151040DF3CFCAF0200E0001CA277D
:10121000CA51620FCB6FCBC0F6FF090EF76E080004
:10122000F550086E096A0DEC2AF00001CC6FCCC0B5
:10123000CDF0CE6BCF6BD06BCDC0D0F0CF6BCE6B83
:10124000CD6BC651CD25D16FC751CE21D26FC851BC
:10125000CF21D36FC951D021D46FBF51D125D56FC4
:10126000C051D221D66FC151D321D76FC251D421E1
:10127000D86F01016151040DF3CFD9F0230E0001A5
:10128000D927D951620FDA6FDAC0F6FF090EF76E6F
:101290000800F550086E096A0DEC2AF00001D5250A
:1012A00001015D6F000E0001D62101015E6F000E8D
:1012B0000001D72101015F6F000E0001D82101015B
:1012C000606F6151040DF3CFBCF0310E0001BC27FB
:1012D000BC51620FBD6FBDC0F6FF090EF76E08006E
:1012E000F550086E096A0DEC2AF00001BE6F01018D
:1012F0006151040DF3CFBFF0300E0001BF27BF5185
:10130000620FC06FC0C0F6FF090EF76E0800F550FF
:10131000086E096A0DEC2AF00001C26FC16BBE5164
:10132000C1250101596F0001000EC22101015A6F50
:1013300061C1BCF062C1BDF00001D890BC37BD37BF
:10134000D890BC37BD37140EBC25D96E010EBD2117
:10135000DA6EDECFBEF0DECFBFF0DECFC0F0DECF84
:10136000C1F0BE5101015D5D0001BF5101015E5937
:101370000001C05101015F590001C15101016059D3
:101380000FE26151100F5412280E6125D96E010E23
:101390006221DA6E010EDF6E6151060F13EC27F049
:1013A0000101280E6125D96E010E6221DA6EDF502F
:1013B00046E059510001BC6F01015A510001BD6F57
:1013C000BE6BBF6BBC5101015D5D0001C06FBD51C3
:1013D00001015E590001C16FBE5101015F59000159
:1013E000C26FBF51010160590001C36F61C1C4F0F8
:1013F00062C1C5F0D890C437C537D890C437C53757
:10140000140EC425D96E010EC521DA6EDECFC6F0EA
:10141000DECFC7F0DECFC8F0DECFC9F0C051C65D69
:10142000C151C759C251C859C351C95908E2010134
:10143000280E6125D96E010E6221DA6EDF6A010184
:10144000614B622B6251800A800F040ED8B4615D3B
:1014500001E25BD6616B626B61510001600FD96E76
:10146000DA6ADF50BC6FBCAFAED061C1BCF04A0ECF
:10147000BC27BC51000FBD6FBDC0F6FF090EF76E53
:101480000800F550086E096A0DEC2AF0000901E128
:101490009AD00101300E6125D96E010E6221DA6EFB
:1014A000DF2A61C1BCF04A0E0001BC27BC51000F0D
:1014B000BD6FBDC0F6FF090EF76E0800F550086E4F
:1014C000096A0DEC2AF00001BE6F0101300E6125A2
:1014D000D96E010E6221DA6EDF500001BE5D73E24B
:1014E0000101300E6125D96E010E6221DA6EDF6ACC
:1014F0006151600F4D6F6151040DF350780FD96E3B
:10150000DA6ADF50516F6151040DF3500001780F1A
:10151000D96EDA6ADECFBCF0DECFBDF0DECFBEF032
:10152000DECFBFF0BDC0BCF0BEC0BDF0BFC0BEF0DE
:10153000BF6BBC510101506F6151040DF3500001AC
:10154000780FD96EDA6ADECFBCF0DECFBDF0DECF29
:10155000BEF0DECFBFF0110E05D0D890BF33BE3342
:10156000BD33BC33E82EF9D7BC5101014F6F615137
:10157000040DF3500001780FD96EDA6ADECFBCF0AB
:10158000DECFBDF0DECFBEF0DECFBFF0190E05D04E
:10159000D890BF33BE33BD33BC33E82EF9D7BC512E
:1015A00001014E6F406A0F0E3F6E070E416E73C011
:1015B00042F0030E436E050E446E010E466E4D0E54
:1015C000456EF5EC25F00101614B622B6251800AFA
:1015D000800F040ED8B4615D01E23ED7616B626B8F
:1015E00061C1BCF00A0E0001BC27BC51000FBD6FE9
:1015F000BDC0F6FF090EF76E0800F550086E096AC7
:101600000DEC2AF00001BE6FBEAFD9D061C1BCF0B5
:101610004E0EBC27BC51000FBD6FBDC0F6FF090EBA
:10162000F76E0800F550086E096A0DEC2AF0000903
:1016300001E1C5D00101340E6125D96E010E622190
:10164000DA6EDF2A61C1BCF04E0E0001BC27BC512E
:10165000000FBD6FBDC0F6FF090EF76E0800F55014
:10166000086E096A0DEC2AF00001BE6F0101340E0C
:101670006125D96E010E6221DA6EDF500001BE5D78
:1016800001E39DD00101340E6125D96E010E622166
:10169000DA6EDF6A6151600F4D6F61C1BCF062C1EB
:1016A000BDF00001D890BC37BD37D890BC37BD37EE
:1016B000140EBC25D96E010EBD21DA6EDF5001017A
:1016C000516F61C1BCF062C1BDF00001D890BC3760
:1016D000BD37D890BC37BD37140EBC25D96E010E6E
:1016E000BD21DA6EDECFBEF0DECFBFF0DECFC0F0C0
:1016F000DECFC1F0BFC0BEF0C0C0BFF0C1C0C0F0FF
:10170000C16BBE510101506F61C1BCF062C1BDF03F
:101710000001D890BC37BD37D890BC37BD37140E08
:10172000BC25D96E010EBD21DA6EDECFBEF0DECF54
:10173000BFF0DECFC0F0DECFC1F0110E05D0D890E3
:10174000C133C033BF33BE33E82EF9D7BE510101D8
:101750004F6F61C1BCF062C1BDF00001D890BC37D1
:10176000BD37D890BC37BD37140EBC25D96E010EDD
:10177000BD21DA6EDECFBEF0DECFBFF0DECFC0F02F
:10178000DECFC1F0190E05D0D890C133C033BF33BE
:10179000BE33E82EF9D7BE5101014E6F406A0A0EE2
:1017A0003F6E090E416E73C042F0030E436E050E8C
:1017B000446E010E466E4D0E456EF5EC25F00101AE
:1017C000614B622B6251800A800F040ED8B4615DB8
:1017D00001E206D7616B626B6151030DF3CFBCF080
:1017E000560E0001BC27BC51000FBD6FBDC0F6FFF7
:1017F000090EF76E0800F550086E096A0DEC2AF024
:101800000001BE6FBEAF4DD261C1BCF0520EBC270D
:10181000BC51000FBD6FBDC0F6FF090EF76E08008A
:10182000F550086E096A0DEC2AF0000901E139D281
:101830000101380E6125D96E010E6221DA6EDF2AB0
:1018400061C1BCF0520E0001BC27BC51000FBD6F3E
:10185000BDC0F6FF090EF76E0800F550086E096A64
:101860000DEC2AF00001BE6F0101380E6125D96E22
:10187000010E6221DA6EDF500001BE5D01E311D27C
:101880000101380E6125D96E010E6221DA6EDF6A20
:101890006151040DF3CFBCF0030E0001BC27BC5115
:1018A0009A0FBD6FBDC0F6FF090EF76E0800F55028
:1018B000086E096A0DEC2AF00101556F6151040DA3
:1018C000F3CFBCF0020E0001BC27BC519A0FBD6FD4
:1018D000BDC0F6FF090EF76E0800F550086E096AE4
:1018E0000DEC2AF00101566F6151040DF3CFBCF0ED
:1018F0000001BC2BBC519A0FBD6FBDC0F6FF090E95
:10190000F76E0800F550086E096A0DEC2AF0010127
:10191000576F6151040DF3509A0F0001BC6FBCC0AA
:10192000F6FF090EF76E0800F550086E096A0DEC17
:101930002AF00101586F55C141F156C142F157C11A
:1019400043F158C144F16151040DF3CFBCF0130EC3
:101950000001BC27BC519A0FBD6FBDC0F6FF090E38
:10196000F76E0800F550086E096A0DEC2AF00101C7
:10197000556F6151040DF3CFBCF0120E0001BC276E
:10198000BC519A0FBD6FBDC0F6FF090EF76E08007F
:10199000F550086E096A0DEC2AF00101566F61518D
:1019A000040DF3CFBCF0110E0001BC27BC519A0FFF
:1019B000BD6FBDC0F6FF090EF76E0800F550086E4A
:1019C000096A0DEC2AF00101576F6151040DF3CF44
:1019D000BCF0100E0001BC27BC519A0FBD6FBDC0FA
:1019E000F6FF090EF76E0800F550086E096A0DEC57
:1019F0002AF00101586F55C145F156C146F157C152
:101A000047F158C148F16151030DF3CFBCF0560EB8
:101A10000001BC27BC51000FBD6FBDC0F6FF090E11
:101A2000F76E0800F550086E096A0DEC2AF0000107
:101A3000BE6FBEA15AD001016151030DF3CFBCF0BE
:101A4000560E0001BC27BC51000FBD6FBDC0F6FF94
:101A5000090EF76E0800F550086E096A0DEC2AF0C1
:101A6000180BA009010161254D6F41C11AF042C157
:101A70001BF043C11CF044C11DF061C1BCF062C148
:101A8000BDF00001D890BC37BD37D890BC37BD370A
:101A9000140EBC25D96E010EBD21DA6EDECF12F018
:101AA000DECF13F0DECF14F0DECF15F05DEC28F0C2
:101AB00015C019F014C018F013C017F012C016F0BA
:101AC00070EC24F019C028F018C027F017C026F0D9
:101AD00016C025F045C129F046C12AF047C12BF0B8
:101AE00048C12CF018EC22F04FD001016151030DD8
:101AF000F3CFBCF0560E0001BC27BC51000FBD6FE8
:101B0000BDC0F6FF090EF76E0800F550086E096AB1
:101B10000DEC2AF0180BA009010161254D6F41C1A0
:101B20001AF042C11BF043C11CF044C11DF06151C9
:101B3000040DF3500001780FD96EDA6ADECF12F08F
:101B4000DECF13F0DECF14F0DECF15F05DEC28F021
:101B500015C019F014C018F013C017F012C016F019
:101B600070EC24F019C028F018C027F017C026F038
:101B700016C025F045C129F046C12AF047C12BF017
:101B800048C12CF018EC22F028C04CF127C04BF1D2
:101B900026C04AF125C049F10101010E5C6F490ED2
:101BA0005B6F20EE03F05B51D9265C51DA22DF50E7
:101BB000516F20EE02F05B51D9265C51DA22DF50E2
:101BC000506F20EE01F05B51D9265C51DA22DF50D4
:101BD0004F6F5BC1D9FF5CC1DAFFDF504E6F6151BF
:101BE000030DF3CFBCF0560E0001BC27BC51000F13
:101BF000BD6FBDC0F6FF090EF76E0800F550086E08
:101C0000096A0DEC2AF00001BE6FBEBD04D00101CF
:101C10003F6B406B04D0020E0101406F3F6B61517E
:101C2000030DF3CFBCF0570E0001BC27BC51000FD1
:101C3000BD6FBDC0F6FF090EF76E0800F550086EC7
:101C4000096A0DEC2AF001013F253C6F000E40218E
:101C50003D6F6151030DF3CFBCF0580E0001BC275E
:101C6000BC51000FBD6FBDC0F6FF090EF76E080036
:101C7000F550086E096A0DEC2AF001013E6F3CC177
:101C80003FF03DC140F03EC141F073C042F0030E51
:101C9000436E050E446E010E466E4D0E456EF5EC1C
:101CA00025F00101614B622B6251800A800F040E06
:101CB000D8B4615DD8B012008FD532EC2AF0000E96
:101CC000F66E090EF76E0800F550086E096A000EF0
:101CD0000A6A14EC28F032EC2AF0000E446E442A12
:101CE00044C0F6FF090EF76E0800F550086E096A49
:101CF000000E0A6A14EC28F0496A32EC2AF049C056
:101D000044F0020E44264450000F456E45C0F6FFD5
:101D1000090EF76E0800F550086E096A49C00AF00E
:101D200014EC28F032EC2AF049C044F0060E4426A8
:101D30004450000F456E45C0F6FF090EF76E0800CF
:101D4000F550086E096A800E0A6E14EC28F032EC29
:101D50002AF049C044F00A0E44264450000F456E54
:101D600045C0F6FF090EF76E0800F550086E096AC7
:101D7000800E0A6E14EC28F032EC2AF049C044F0D0
:101D8000220E44264450000F456E45C0F6FF090E52
:101D9000F76E0800F550086E096A000E0A6A14EC26
:101DA00028F032EC2AF049C044F0260E4426445074
:101DB000000F456E45C0F6FF090EF76E0800F5509E
:101DC000086E096A000E0A6A14EC28F032EC2AF058
:101DD00049C044F02A0E44264450000F456E45C0C9
:101DE000F6FF090EF76E0800F550086E096A000E3E
:101DF0000A6A14EC28F032EC2AF049C044F02E0EA6
:101E000044264450000F456E45C0F6FF090EF76E9C
:101E10000800F550086E096A000E0A6A14EC28F0F2
:101E200032EC2AF049C044F0320E44264450000FF0
:101E3000456E45C0F6FF090EF76E0800F550086EB6
:101E4000096A000E0A6A14EC28F032EC2AF049C044
:101E500044F0360E44264450000F456E45C0F6FF50
:101E6000090EF76E0800F550086E096A000E0A6A3E
:101E700014EC28F032EC2AF049C044F03A0E442623
:101E80004450000F456E45C0F6FF090EF76E08007E
:101E9000F550086E096A000E0A6A14EC28F032EC5C
:101EA0002AF049C044F03E0E44264450000F456ECF
:101EB00045C0F6FF090EF76E0800F550086E096A76
:101EC000000E0A6A14EC28F032EC2AF049C044F003
:101ED0004A0E44264450000F456E45C0F6FF090ED9
:101EE000F76E0800F550086E096A000E0A6A14ECD5
:101EF00028F032EC2AF049C044F04E0E44264450FB
:101F0000000F456E45C0F6FF090EF76E0800F5504C
:101F1000086E096A000E0A6A14EC28F032EC2AF006
:101F200049C044F0520E44264450000F456E45C04F
:101F3000F6FF090EF76E0800F550086E096A000EEC
:101F40000A6A14EC28F0492A030E4964D6D632EC0A
:101F50002AF0000E446E420E442644C0F6FF090EDD
:101F6000F76E0800F550086E096A000E0A6A14EC54
:101F700028F032EC2AF0000E446E430E442644C092
:101F8000F6FF090EF76E0800F550086E096AC80ED4
:101F90000A6E14EC28F032EC2AF0000E446E440E67
:101FA000442644C0F6FF090EF76E0800F550086E8F
:101FB000096A000E0A6A14EC28F032EC2AF0000ECE
:101FC000446E450E442644C0F6FF090EF76E080025
:101FD000F550086E096AC80E0A6E14EC28F032EC4F
:101FE0002AF0000E446E460E442644C0F6FF090E49
:101FF000F76E0800F550086E096A000E0A6A14ECC4
:1020000028F032EC2AF0000E446E470E442644C0FD
:10201000F6FF090EF76E0800F550086E096AC80E43
:102020000A6E14EC28F032EC2AF0000E446E480ED2
:10203000442644C0F6FF090EF76E0800F550086EFE
:10204000096A000E0A6A14EC28F032EC2AF0000E3D
:10205000446E490E442644C0F6FF090EF76E080090
:10206000F550086E096AC80E0A6E14EC28F032ECBE
:102070002AF0000E446E560E442644C0F6FF090EA8
:10208000F76E0800F550086E096A000E0A6A14EC33
:1020900028F032EC2AF0000E446E570E442644C05D
:1020A000F6FF090EF76E0800F550086E096A000E7B
:1020B0000A6A14EC28F032EC2AF0000E446E580E36
:1020C000442644C0F6FF090EF76E0800F550086E6E
:1020D000096A000E0A6A14EC28F032EC2AF0000EAD
:1020E000446E590E442644C0F6FF090EF76E0800F0
:1020F000F550086E096A000E0A6A14EC28F032ECFA
:102100002AF0000E446E5A0E442644C0F6FF090E13
:10211000F76E0800F550086E096A000E0A6A14ECA2
:1021200028F032EC2AF0000E446E5B0E442644C0C8
:10213000F6FF090EF76E0800F550086E096A000EEA
:102140000A6A14EC28F032EC2AF0000E446E5C0EA1
:10215000442644C0F6FF090EF76E0800F550086EDD
:10216000096A000E0A6A14EC28F032EC2AF0000E1C
:10217000446E5D0E442644C0F6FF090EF76E08005B
:10218000F550086E096A000E0A6A14EC28F032EC69
:102190002AF0000E446E5E0E442644C0F6FF090E7F
:1021A000F76E0800F550086E096A000E0A6A14EC12
:1021B00028F032EC2AF0000E446E5F0E442644C034
:1021C000F6FF090EF76E0800F550086E096A000E5A
:1021D0000A6A14EC28F032EC2AF0000E446E600E0D
:1021E000442644C0F6FF090EF76E0800F550086E4D
:1021F000096A000E0A6A14EC28F032EC2AF0000E8C
:10220000446E610E442644C0F6FF090EF76E0800C6
:10221000F550086E096A000E0A6A14EC28F0466A46
:10222000476A32EC2AF0620E446E100E442644C017
:10223000F6FF090EF76E0800F5504624086E000EF2
:102240004720096E000E0A6A14EC28F0464A472A15
:102250004750800A800F200ED8B4465CE2E332EC8F
:102260002AF0620E446E300E442644C0F6FF090E7A
:10227000F76E0800F550086E096A000E0A6A14EC41
:1022800028F032EC2AF0620E446E310E442644C02F
:10229000F6FF090EF76E0800F550086E096A320E57
:1022A0000A6E14EC28F032EC2AF0620E446E320E04
:1022B000442644C0F6FF090EF76E0800F550086E7C
:1022C000096A000E0A6A14EC28F032EC2AF0620E59
:1022D000446E330E442644C0F6FF090EF76E080024
:1022E000F550086E096A320E0A6E14EC28F032ECD2
:1022F0002AF0620E446E340E442644C0F6FF090EE6
:10230000F76E0800F550086E096A000E0A6A14ECB0
:1023100028F032EC2AF0620E446E350E442644C09A
:10232000F6FF090EF76E0800F550086E096A320EC6
:102330000A6E14EC28F032EC2AF0620E446E360E6F
:10234000442644C0F6FF090EF76E0800F550086EEB
:10235000096A000E0A6A14EC28F032EC2AF0620EC8
:10236000446E370E442644C0F6FF090EF76E08008F
:10237000F550086E096A320E0A6E14EC28F0496AAC
:1023800032EC2AF049509A0F446E44C0F6FF090E11
:10239000F76E0800F550086E096A000E0A6A14EC20
:1023A00028F0492A1F0E4964EBD7496A486A32EC83
:1023B0002AF0485049C044F0456AD8904436453622
:1023C000D89044364536D890443645364426000EDB
:1023D0004522DA0E4424086E000E4520096E000ED8
:1023E0000A6A14EC28F0482A070E4864E0D7492A04
:1023F000030E4964DBD71CEF18F08B518A1101E101
:10240000F4D224D33FEC2AF021D3A0EC28F01ED341
:102410004BEC29F01BD32EEC28F018D388510F0B6E
:10242000020A01E013D3735120EE8EF0DF620ED367
:10243000800E8F6112D08F5126EC1CF000019D6F31
:102440008FC09CF0030E976F820E966F986B996BFE
:102450000A0E9A6FFAEC27F0F9D28F5123EC1FF095
:10246000EDD788510F0B030A01E0F0D2735120EE33
:102470008EF0DF62EBD2800E8F6106D090C044F008
:102480008F5127EC15F0DAD790C04AF08F5170ECDD
:1024900023F0D5D7735120EE8EF0DF62D7D2000E35
:1024A000FAEC29F00001901901E0D0D2030EFAEC09
:1024B00029F00001911901E0C9D2050EFAEC29F0CA
:1024C0000001921901E0C2D2070EFAEC29F00001D6
:1024D000931901E0BBD25050941901E0B7D24F508C
:1024E00020EE95F0DF62B2D28F5186EC29F0AED2A9
:1024F000000EFAEC29F000018F1973E1010EFAECDD
:1025000029F0000190196DE1020EFAEC29F00001AA
:10251000911967E1030EFAEC29F00001921961E1CB
:1025200055885FD0040EFAEC29F000018F1959E1AB
:10253000050EFAEC29F00001901953E1060EFAECB1
:1025400029F0000191194DE1070EFAEC29F0000184
:10255000921947E1558A45D0080EFAEC29F000019E
:102560008F193FE1090EFAEC29F00001901939E1C9
:102570000A0EFAEC29F00001911933E10B0EFAEC86
:1025800029F0000192192DE1558C2BD00C0EFAEC9C
:1025900029F000018F1925E10D0EFAEC29F0000158
:1025A00090191FE10E0EFAEC29F00001911919E1C2
:1025B0000F0EFAEC29F00001921913E1558E11D09B
:1025C000556A0FD08E390F0BB86FB96BB951F8E15E
:1025D000B8518EE0010AA6E0030ABEE0010AD6E087
:1025E000EFD75550F00BF00A01E030D270EC27F035
:1025F0002DD2735120EE8EF0DF6228D2C46B8FC0D3
:10260000C3F090C0C6F0D26B4AD0C351D225A1EC22
:1026100029F00001B86F070E086ED251CAEC28F0FD
:102620000001B96FB9519D0FD96EDA6AB8C0DFFFEA
:10263000070E086ED251CAEC28F0060A0BE0FF0E16
:102640000001C625B86FB96BFF0EB923D251B81976
:10265000B91124E1070E086E0001D251CAEC28F02E
:10266000060A03E1070E000109D0070E086E0001FB
:10267000D251CAEC28F00001B86FB829C56FC55116
:10268000810F966F070E976F986B996B1A0E9A6F62
:10269000C4C09CF0FAEC27F00001C42BD22BC65129
:1026A000D25D01E3D3D1B1D7735120EE8EF0DF625A
:1026B000CDD18FC0C7F08851FE0F070BC86FCD6B0F
:1026C00018D0CD51900FD96EDA6ADF50B06FC75174
:1026D000CD252AEC29F00001C751CD25A1EC29F028
:1026E0000001B86FCD519D0FD96EDA6AB8C0DFFF17
:1026F000CD2BC851CD5DE5E3070E976F986B996BB5
:102700001A0E9A6F9C6BC851810F966FA3D67351A6
:1027100020EE8EF0DF629AD18F5126EC1CF0000182
:10272000B86FB829446E8F5127EC15F087D67351D6
:1027300020EE8EF0DF628AD18F5126EC1CF0000172
:10274000B86FB805446E8F5127EC15F077D68E51CF
:10275000731903E08E2901E079D1CC6B030E976FDA
:10276000880E966F986B996B200E9A6FD16BD1C0C3
:102770009CF0010ED36FD3519C0FD96EDA6ACC5105
:102780000F08FAEC29F0DF6E0001CC2B100ECC659F
:1027900001D004D0D32B070ED365EDD7100ECC6536
:1027A00001D007D0FAEC27F00001D12B020ED16541
:1027B000DED7D36BD351AEEC29F0000908E0D3513A
:1027C0009F0FD96EDA6AD351AEEC29F005D0D35100
:1027D0009F0FD96EDA6A000EDF6ED32B040ED3651D
:1027E000E9D7FAEC27F0050E0001CC6F030ED16F8C
:1027F000D1C09CF0010ED36FD3519C0FD96EDA6A11
:10280000CC51AEEC29F0DF6ECC2BD32B070ED36569
:10281000F3D7FAEC27F00001D12B060ED165E8D7EB
:1028200015D1735120EE8EF0DF6210D1030E976F39
:10283000870E966F986B996B220E9A6F9C0EC6EC62
:1028400029F008D6735120EE8EF0DF62FFD0CE6BF8
:1028500088C0B8F00F0EB817040EB85D12E392C02E
:10286000CFF0D06BD051CF1103E1010ED06FCF6B01
:10287000010ECF5D010ED05907E3010ED06F000E9F
:1028800002D0D06B010ECF6F4FC0BFF050C0C0F070
:1028900090518FC0B8F0B96BB8C0B9F0B86BB8112F
:1028A0004F6EB951506E070E976F986B996B270E4C
:1028B0009A6F9C6B8FC09DF090C09EF0CE51CF5D03
:1028C000B86F000ED059B96F040EB85D000EB9593B
:1028D00002E3040E02D0CE51CF5DC96FC951840FFF
:1028E000966F9151CE259F6FCA6B0ED09151CE2518
:1028F000CA25A1EC29F00001B86FCA51A00FD96E0A
:10290000DA6AB8C0DFFFCA2BC951CA5DEFE3FAEC3F
:1029100027F00001C951CE279C2BCE51B86FB96B5F
:10292000CF51B85DD051B959C9E3BFC04FF0C0C055
:1029300050F08CD0735120EE8EF0DF6287D04FC004
:10294000C1F050C0C2F090518FC0B8F0B96BB8C0A0
:10295000B9F0B86BB8114F6EB951506E91C0CBF051
:1029600014D091519208CB25D96EDA6ADF50B06F3E
:10297000CB512AEC29F00001B86F9151A008CB256A
:10298000D96EDA6AB8C0DFFFCB2B88510F0BB86F56
:10299000B96B9151B827000EB923FC0EB825BA6F58
:1029A000FF0EB921BB6FCB51BC6FBD6BBD51800A0F
:1029B000BE6FBA51BC5DBB51800ABE59D2E3C1C0E3
:1029C0004FF0C2C050F0070E976F88510F0B800F69
:1029D000966F986B996B270E9A6F9C6B8FC09DF0CA
:1029E00090C09EF091C09FF035D58C51010A01E155
:1029F00009D5030A01E109D5040A01E109D50E0A46
:102A000001E109D5010A01E109D5020A01E129D54F
:102A1000070A01E13FD51B0A01E1D4D50F0A01E104
:102A2000E8D5010A01E140D6040A01E170D6030AA3
:102A300001E17DD6010A01E18AD63E0A01E1F1D623
:102A4000040A01E1FFD6030A01E174D71200E8CFBE
:102A500046F0441C456E50504F1001E07BD2466654
:102A600019D032EC2AF0000EF66E090EF76E08004F
:102A7000F550086E096A44C00AF014EC28F0000E04
:102A8000F66E090EF76E0800F550086E096A0DEC37
:102A90002AF0CFD2460421E132EC2AF0000E0001E8
:102AA000A46FA42BA4C0F6FF090EF76E0800F55022
:102AB000086E096A44C00AF014EC28F0000E000108
:102AC000A46FA42BA4C0F6FF090EF76E0800F55002
:102AD000086E096A0DEC2AF0ACD2010E466424D0CF
:102AE000060E466021D032EC2AF04650000F00015D
:102AF000A46FA4C0F6FF090EF76E0800F550086E2B
:102B0000096A44C00AF014EC28F04650000F000196
:102B1000A46FA4C0F6FF090EF76E0800F550086E0A
:102B2000096A0DEC2AF085D2050E46642CD00A0EF7
:102B3000466029D032EC2AF04650000F0001A46F05
:102B4000A4C0F6FF090EF76E0800F550086E096A7A
:102B500044C00AF014EC28F04650000F0001A46FA6
:102B6000A4C0F6FF090EF76E0800F550086E096A5A
:102B70000DEC2AF0456E465000015A0FD96EDA6A04
:102B800044C0DFFF57D2090E466404D00E0E4660E3
:102B900001D0A9D746500E0A73E14450550A6EE1A0
:102BA00060A566D0000EA46F350EA427A4C0F6FF62
:102BB000090EF76E0800F550086E096A0DEC2AF050
:102BC0000001A56F080EA527000EA66F340EA627DC
:102BD000A6C0F6FF090EF76E0800F550086E096AE8
:102BE0000DEC2AF00001A76F100EA727000EA86FAA
:102BF000330EA827A8C0F6FF090EF76E0800F5509F
:102C0000086E096A0DEC2AF00001A96F180EA927B9
:102C1000000EAA6F320EAA27AAC0F6FF090EF76EA1
:102C20000800F550086E096A0DEC2AF00001AB6F40
:102C3000AC6BA92B03D0D890AB37AC37A92FFBD7FF
:102C4000A72B03D0D890AB37AC37A72FFBD7A52B3A
:102C500003D0D890AB37AC37A52FFBD7ABC078F0FB
:102C6000ACC079F0000E79BFFF0E7A6F7B6F04D095
:102C7000786B796B7A6B7B6B550EDBD1456ADAD159
:102C800046500F0A70E14450550AF8E161A566D03C
:102C9000000EA46F390EA427A4C0F6FF090EF76E2C
:102CA0000800F550086E096A0DEC2AF00001A56FC6
:102CB000080EA527000EA66F380EA627A6C0F6FFA1
:102CC000090EF76E0800F550086E096A0DEC2AF03F
:102CD0000001A76F100EA727000EA86F370EA827B8
:102CE000A8C0F6FF090EF76E0800F550086E096AD5
:102CF0000DEC2AF00001A96F180EA927000EAA6F8B
:102D0000360EAA27AAC0F6FF090EF76E0800F55086
:102D1000086E096A0DEC2AF00001AB6FAC6BA92BB1
:102D200003D0D890AB37AC37A92FFBD7A72B03D054
:102D3000D890AB37AC37A72FFBD7A52B03D0D890B3
:102D4000AB37AC37A52FFBD7ABC07CF0ACC07DF068
:102D5000000E7DBFFF0E7E6F7F6F8ED77C6B7D6B0D
:102D60007E6B7F6B89D74650100A70E14450550A3C
:102D700085E162A566D0000EA46F3D0EA427A4C015
:102D8000F6FF090EF76E0800F550086E096A0DECA3
:102D90002AF00001A56F080EA527000EA66F3C0EB5
:102DA000A627A6C0F6FF090EF76E0800F550086EBC
:102DB000096A0DEC2AF00001A76F100EA727000E7C
:102DC000A86F3B0EA827A8C0F6FF090EF76E0800F3
:102DD000F550086E096A0DEC2AF00001A96F180E73
:102DE000A927000EAA6F3A0EAA27AAC0F6FF090E5D
:102DF000F76E0800F550086E096A0DEC2AF0000124
:102E0000AB6FAC6BA92B03D0D890AB37AC37A92FE5
:102E1000FBD7A72B03D0D890AB37AC37A72FFBD766
:102E2000A52B03D0D890AB37AC37A52FFBD7ABC0C1
:102E300080F0ACC081F0000E81BFFF0E826F836F07
:102E40001BD7806B816B826B836B16D74650110A40
:102E50007AE14450550A01E011D763A56FD0000E06
:102E6000A46F410EA427A4C0F6FF090EF76E080058
:102E7000F550086E096A0DEC2AF00001A56F080EE6
:102E8000A527000EA66F400EA627A6C0F6FF090EC6
:102E9000F76E0800F550086E096A0DEC2AF0000183
:102EA000A76F100EA727000EA86F3F0EA827A8C077
:102EB000F6FF090EF76E0800F550086E096A0DEC72
:102EC0002AF00001A96F180EA927000EAA6F3E0E66
:102ED000AA27AAC0F6FF090EF76E0800F550086E83
:102EE000096A0DEC2AF00001AB6FABC0ACF0AD6B22
:102EF000AE6BAF6BA92B05D0D890AC37AD37AE37E2
:102F0000AF37A92FF9D7A72B05D0D890AC37AD375D
:102F1000AE37AF37A72FF9D7A52B05D0D890AC3750
:102F2000AD37AE37AF37A52FF9D7AFC087F0AEC0FA
:102F300086F0ADC085F0ACC084F09ED6846B856B06
:102F4000866B876B99D6210E466474D0620E4660FC
:102F500071D0C9D54F04501027E10F0E46646AD0D6
:102F6000380E466067D032EC2AF04650620F0001FE
:102F7000A46FA4C0F6FF090EF76E0800F550086EA6
:102F8000096A44C00AF014EC28F04650620F0001B0
:102F9000A46FA4C0F6FF090EF76E0800F550086E86
:102FA000096A0DEC2AF045D04F50020A501024E176
:102FB000200E46603FD032EC2AF046509A0F0001B6
:102FC000A46FA4C0F6FF090EF76E0800F550086E56
:102FD000096A44C00AF014EC28F046509A0F000128
:102FE000A46FA4C0F6FF090EF76E0800F550086E36
:102FF000096A0DEC2AF01DD04F50030A50101AE157
:10300000200E466017D032EC2AF0DA0E4624086E05
:10301000096A000E092244C00AF014EC28F01CECE6
:1030200018F0DA0E4624086E096A000E09220DEC2B
:103030002AF0456E4550120036683768386839689E
:103040003A6A3B6A3C6A3D6A436A4350126E136AAD
:10305000D89012361336D89012361336D8901236CE
:103060001336450E1224086E000E1320096E0DEC67
:103070002AF0146E14AEE8D14350126E136AD89041
:1030800012361336D89012361336D89012361336BD
:10309000480E1224086E000E1320096E0DEC2AF063
:1030A000146E14C015F0166A176A186A17C018F063
:1030B00016C017F015C016F0156A4350196E1A6A3B
:1030C000D89019361A36D89019361A36D89019363B
:1030D0001A36460E1924086E000E1A20096E0DECE1
:1030E0002AF01B6E1BC01CF01D6A1E6A1F6A1DC0E1
:1030F0001FF01CC01EF01D6A1C6A4350206E216A1E
:10310000D89020362136D89020362136D8902036D7
:103110002136450E2024086E000E2120096E0DEC8C
:103120002AF0226E020E221622C023F0246A256A9B
:10313000266A170ED8902336243625362636E82EF2
:10314000F9D71C502310276E1D502410286E1E50D6
:103150002510296E1F5026102A6E155027102B6E31
:10316000165028102C6E175029102D6E18502A104A
:103170002E6EFF0E2B10316E2C50326E2D50336E92
:103180002E50346E4350126E136AD8901236133696
:10319000D89012361336D89012361336490E1224B0
:1031A000086E000E1320096E0DEC2AF0146E14C088
:1031B00015F0166A176A186A17C018F016C017F0CB
:1031C00015C016F0156A4350196E1A6AD890193650
:1031D0001A36D89019361A36D89019361A36470E3C
:1031E0001924086E000E1A20096E0DEC2AF01B6ED1
:1031F0001BC01CF01D6A1E6A1F6A1DC01FF01CC088
:103200001EF01D6A1C6A4350206E216AD890203639
:103210002136D89020362136D89020362136450EDA
:103220002024086E000E2120096E0DEC2AF0226E7B
:10323000010E221622C023F0246A256A266A23C0C2
:1032400026F0256A246A236A1C502310276E1D501D
:103250002410286E1E502510296E1F5026102A6E2D
:10326000155027102B6E165028102C6E1750291051
:103270002D6E18502A102E6E43502F6E306AD89043
:103280002F363036D8902F363036D8902F3630360D
:10329000440E2F24086E000E3020096E0DEC2AF02B
:1032A0002B103E6E2C503F6E2D50406E2E50416EB6
:1032B000436608D03EC03AF03FC03BF040C03CF00F
:1032C00041C03DF031503616325037163350381663
:1032D00034503916426A42503EC012F03FC013F0DB
:1032E00040C014F041C015F0E82A05D0D89015323E
:1032F000143213321232E82EF9D7010E1216425050
:103300003AC016F03BC017F03CC018F03DC019F0B1
:10331000E82A05D0D8901932183217321632E82E22
:10332000F9D71650010B12181DE042C012F0010E21
:10333000136E146A122A03D0D89013361436122E44
:10334000FBD7131C156E141C166E176A16BE1706D3
:103350001750186E15503616165037161750381667
:1033600018503916422A1F0E4264B5D73E503A16FD
:103370003F503B1640503C1641503D1643504FE0E5
:10338000426A43C012F04350136E146AD890133649
:103390001436D89013361436D89013361436440E9B
:1033A0001324086E000E1420096E0DEC2AF0156E21
:1033B000122A02D0D8901532122EFCD7010E151603
:1033C00043C016F035C017F0162A02D0D890173235
:1033D000162EFCD71750010B15181DE043C012F034
:1033E000010E136E146A122A03D0D89013361436C5
:1033F000122EFBD713C015F014C016F0000E16BE27
:10340000FF0E176E186E15503616165037161750D9
:10341000381618503916422A070E4264B2D7435064
:10342000126E136AD89012361336D89012361336AD
:10343000D89012361336440E1224086E000E132054
:10344000096E0DEC2AF0356E432A030E4364FDD558
:10345000800EBAEC29F00F010F0E096E1C0E086EDB
:1034600036C00AF037C00BF038C00CF039C00DF090
:10347000010E0E6EC8EC22F00D01D4830F010F0E69
:10348000096E040E086E3AC00AF03BC00BF03CC057
:103490000CF03DC00DF0010E0E6EC8EC22F0000ED7
:1034A000BAEF29F06A51D8A460A563D0000E0A6E65
:1034B000350E0A260AC0F6FF090EF76E0800F55011
:1034C000086E096A0DEC2AF00B6E080E0B26000E32
:1034D0000C6E340E0C260CC0F6FF090EF76E0800B9
:1034E000F550086E096A0DEC2AF00D6E100E0D26CF
:1034F000000E0E6E330E0E260EC0F6FF090EF76E8E
:103500000800F550086E096A0DEC2AF00F6E180ECF
:103510000F26000E106E320E102610C0F6FF090E98
:10352000F76E0800F550086E096A0DEC2AF0116E6E
:10353000126A0F2A03D0D890113612360F2EFBD7FD
:103540000D2A03D0D890113612360D2EFBD70B2A38
:1035500003D0D890113612360B2EFBD7000111C0C4
:1035600078F012C079F0000E79BFFF0E7A6F7B6F92
:103570006A6B6B51D8A461A563D0000E0A6E390E38
:103580000A260AC0F6FF090EF76E0800F550086E0D
:10359000096A0DEC2AF00B6E080E0B26000E0C6E5D
:1035A000380E0C260CC0F6FF090EF76E0800F55019
:1035B000086E096A0DEC2AF00D6E100E0D26000E35
:1035C0000E6E370E0E260EC0F6FF090EF76E0800BF
:1035D000F550086E096A0DEC2AF00F6E180E0F26D2
:1035E000000E106E360E102610C0F6FF090EF76E94
:1035F0000800F550086E096A0DEC2AF0116E126A87
:103600000F2A03D0D890113612360F2EFBD70D2A71
:1036100003D0D890113612360D2EFBD70B2A03D0CB
:10362000D890113612360B2EFBD7000111C07CF05A
:1036300012C07DF0000E7DBFFF0E7E6F7F6F6B6B43
:103640008230E832010B52187DE0000E82B4010E88
:10365000526E82B462AF76D062B106D0802B000E7B
:1036600081238223832305D08007000E815B825B48
:10367000835B8351801181118211D8B462A562D01D
:10368000000E0A6E3D0E0A260AC0F6FF090EF76EFE
:103690000800F550086E096A0DEC2AF00B6E080E52
:1036A0000B26000E0C6E3C0E0C260CC0F6FF090E0D
:1036B000F76E0800F550086E096A0DEC2AF00D6EE1
:1036C000100E0D26000E0E6E3B0E0E260EC0F6FFDF
:1036D000090EF76E0800F550086E096A0DEC2AF025
:1036E0000F6E180E0F26000E106E3A0E102610C028
:1036F000F6FF090EF76E0800F550086E096A0DEC2A
:103700002AF0116E126A0F2A03D0D89011361236A1
:103710000F2EFBD70D2A03D0D890113612360D2E5E
:10372000FBD70B2A03D0D890113612360B2EFBD7BD
:10373000000111C080F012C081F0000E81BFFF0EA9
:10374000826F836F8230E832E832010B53187DE0DC
:10375000000E82B6010E536E82B663AF76D063B1AF
:1037600006D0842B000E85238623872305D084076B
:10377000000E855B865B875B8751841185118611FE
:10378000D8B463A562D0000E0A6E410E0A260AC0A4
:10379000F6FF090EF76E0800F550086E096A0DEC89
:1037A0002AF00B6E080E0B26000E0C6E400E0C2637
:1037B0000CC0F6FF090EF76E0800F550086E096A96
:1037C0000DEC2AF00D6E100E0D26000E0E6E3F0E43
:1037D0000E260EC0F6FF090EF76E0800F550086EB3
:1037E000096A0DEC2AF00F6E180E0F26000E106EEF
:1037F0003E0E102610C0F6FF090EF76E0800F550B9
:10380000086E096A0DEC2AF0116E126A0F2A03D0B5
:10381000D890113612360F2EFBD70D2A03D0D89030
:10382000113612360D2EFBD70B2A03D0D890113645
:1038300012360B2EFBD7000111C084F012C085F0A8
:10384000000E85BFFF0E866F876F1200E8CF19F05C
:10385000186A50504F107AE119660BD0000EF66EC0
:10386000090EF76E0800F550086E096A0DEC2AF093
:10387000F8D019040EE1000E0A6E0A2A0AC0F6FFFB
:10388000090EF76E0800F550086E096A0DEC2AF073
:10389000E8D0010E196411D00E0E19600ED0195027
:1038A000000F0A6E0AC0F6FF090EF76E0800F55009
:1038B000086E096A0DEC2AF0D4D00D0E196405D0FB
:1038C000120E196002D0186ACDD0110E19640BD0F7
:1038D000160E196008D0780E146E1950145CD96E4B
:1038E000DA6A150E29D0150E19640BD01A0E19605C
:1038F00008D07C0E156E1950155CD96EDA6A190E57
:103900001BD0190E19640BD01E0E196008D0800E42
:10391000166E1950165CD96EDA6A1D0E0DD01D0E8A
:1039200019640DD0220E19600AD0840E176E19503A
:10393000175CD96EDA6A210ED926DA6A1AD0210EFE
:10394000196490D0620E19608DD0A9D74F04501021
:1039500064E1040E19600FD00101010E0D6E140E0A
:103960000C6E19500C5C0A6E000E0D580B6E030E97
:103970003AD0DF5076D0030E196410D0080E1960CB
:103980000DD00101010E0F6E180E0E6E19500E5C57
:103990000A6E000E0F580B6E070E25D0070E196425
:1039A00010D00C0E19600DD00101010E116E1C0E0D
:1039B000106E1950105C0A6E000E11580B6E0B0E33
:1039C00012D00B0E196415D0100E196012D001011F
:1039D000010E136E200E126E1950125C0A6E000E4C
:1039E00013580B6E0F0E0A24D96E000E0B20DA6EE0
:1039F000C0D70F0E196436D0380E196033D0195065
:103A0000620F0A6E0AC0F6FF090EF76E0800F55045
:103A1000086E096A0DEC2AF024D04F50020A5010AB
:103A200011E1200E19601ED019509A0F0A6E0AC0BB
:103A3000F6FF090EF76E0800F550086E096A0DECE6
:103A40002AF00FD04F50030A50100CE1200E1960DD
:103A500009D0DA0E1924086E096A000E09220DEC4D
:103A60002AF0186E18501200E8CF14F0516A7750FF
:103A7000C00B166E166632D060AE12D0A49074AE33
:103A800006D01150D96EDA6A000EDB86749E60A0F3
:103A900002D0518001D051900F0E196E600E1AD0D5
:103AA0000F0150AF19D0A49274AC06D01150D96E4A
:103AB000DA6A000EDB86749C5051070B516E020EC1
:103AC000516005D01150D96EDA6A000EDB8E0F0EF0
:103AD000196E500E186E65D0000ECCD01650400AEC
:103AE00046E160AE04D00F0E196E600E3ED00F019D
:103AF00050AF04D00F0E196E500E37D00D01F8B52F
:103B000007D00E0120AF04D00E0E196E200E2DD05E
:103B10000D01F8B707D00E0130AF04D00E0E196EAC
:103B2000300E23D00D01F8B907D00E0140AF04D0FC
:103B30000E0E196E400E19D00D01F8BB05D00E0106
:103B400050AF02D00E0ED7D70D01F8BD05D00E0133
:103B500060AF02D00E0EC8D70D01F8BFBDD70E0161
:103B600070AFBAD70E0E196E700E186E0AD074AE02
:103B7000B3D76F50070BD8EC26F008C018F009C077
:103B800019F018C0D9FF19C0DAFFDF501F0B516EB2
:103B9000A49274AC06D01150D96EDA6A000EDB869E
:103BA000749C18C012F019C013F01150D96EDA6A63
:103BB000DF6A20EE05F01850D9261950DA22DF50BE
:103BC000176E1050D96EDA6A17500F0BDF6E17ACF4
:103BD00005D01150D96EDA6A000EDB8C20EE02F0AF
:103BE0001850D9261950DA22DF50176E17A608D0C0
:103BF0001150D96EDA6A000EDB8A010E176E01D001
:103C0000176A1828086E000E1920096E14C00AF0F1
:103C100017C00BF066EC21F0060E1826000E1922D4
:103C20001050D96EDA6ADF50176E156A0DD018C0C1
:103C3000D9FF19C0DAFF0F50E16EE26ADFCFE7FF6C
:103C4000184A192A0F2A152A1750155CF0E3A4AE5A
:103C500006D01150D96EDA6A000EDB88A49E12C01D
:103C6000D9FF13C0DAFF7F0EDF161650800AD8B4D2
:103C7000749E010E12008B518A1101E1E3D0146A87
:103C800014500A6E0B6AD8900A360B36D8900A3652
:103C90000B36D8900A360B36DA0E0A24086E000E60
:103CA0000B20096E0DEC2AF0136E13AEC7D013ACC7
:103CB00018D014500A6E0B6AD8900A360B36D8907A
:103CC0000A360B36D8900A360B36DA0E0A24086EFE
:103CD000000E0B20096E0DEC2AF000018D1901E099
:103CE000ADD013A811D000018F290EE0000EF66EA2
:103CF000090EF76E0800F550086E096A0DEC2AF0FF
:103D000000018F1901E09AD013A614D00001902968
:103D100011E0000E0A6E0A2A0AC0F6FF090EF76EBD
:103D20000800F550086E096A0DEC2AF000019019A0
:103D300001E084D01450080DDD0EF324086E000E4F
:103D4000F420096E0DEC2AF00A6E1350010B0C6E74
:103D50000B6A0A500B240D6E000E0C200E6E1450D0
:103D6000080DDC0EF324086E000EF420096E0DEC35
:103D70002AF00A6E1350020B0B6E0C6A070ED890D5
:103D80000B360C36E82EFBD70A500B240F6E000EB4
:103D90000C20106E14500A6E0B6AD8900A360B363F
:103DA000D8900A360B36D8900A360B36DF0E0A2426
:103DB000086E000E0B20096E0DEC2AF0116E1450E7
:103DC0000A6E0B6AD8900A360B36D8900A360B3634
:103DD000D8900A360B36DE0E0A24086E000E0B2031
:103DE000096E0DEC2AF0126E000120EE8AF0DECF93
:103DF0000AF0DDCF0BF00D500A1A0E500B1A0F50BF
:103E00000A1610500B160B500A1018E18C5111189D
:103E1000121414E114500A6E0B6AD8900A360B364D
:103E2000D8900A360B36D8900A360B36E00E0A24A4
:103E3000086E000E0B20096E0DEC2AF0142A030EFA
:103E400014641ED71200E8CF1CF01B6A1C50800AB5
:103E500004E154C01BF0546ACCD01C50810A02E12A
:103E6000010E82D01C50820A02E1060E7DD01C5049
:103E7000830A03E16FC01BF0BCD01C50940A03E11D
:103E80003EEC2AF071D01C50950A03E13DEC2AF07B
:103E90006BD01C50960A03E13CEC2AF065D0890EE9
:103EA0001C6005D01C507C0FF0EC29F05DD0880E12
:103EB0001C6408D0910E1C6005D01C50770FE6ECF6
:103EC00029F052D01C50910A03E173C01BF091D02D
:103ED0001C50930A03E14FC01BF08BD01C50920A78
:103EE00002E1505041D01C50970A03E13BEC2AF00C
:103EF0003BD01C50980A03E13AEC2AF035D01C5014
:103F0000990A03E139EC2AF02FD0990E1C642ED0C7
:103F10009E0E1C602BD024EC2AF00BC014F00AC0BB
:103F200013F009C012F008C011F01C50660F196E92
:103F3000195003080C6ED8900C36D8900C36D890D7
:103F40000C360C5011C00DF012C00EF013C00FF063
:103F500014C010F0E82A05D0D89010320F320E327B
:103F60000D32E82EF9D730D01B6E43D09D0E1C6465
:103F70002DD0A20E1C602AD01FEC2AF00BC018F026
:103F80000AC017F009C016F008C015F01C50620FE7
:103F90001A6E1A5003080C6ED8900C36D8900C3656
:103FA000D8900C360C5015C00DF016C00EF017C08E
:103FB0000FF018C010F0E82A05D0D89010320F3258
:103FC0000E320D32E82EF9D70D50CED7CF0E1C642D
:103FD00008D0E00E1C6005D01C50300FFAEC29F020
:103FE000C3D7DF0E1C6405D01C50200FAEEC29F0A7
:103FF000BBD71B501200DBEC27F0BCEC27F000090C
:10400000D8B45DEC0EF0FDEC23F0000E0001DB6F88
:10401000060EDB27DBC0F6FF090EF76E0800F55031
:10402000086E096A0DEC2AF00001606F000EDB6F6C
:10403000070EDB27DBC0F6FF090EF76E0800F55010
:10404000086E096A0DEC2AF00001616F000EDB6F4B
:10405000080EDB27DBC0F6FF090EF76E0800F550EF
:10406000086E096A0DEC2AF00001626F000EDB6F2A
:10407000090EDB27DBC0F6FF090EF76E0800F550CE
:10408000086E096A0DEC2AF00001636F70EC27F0EE
:104090001CEC18F00400FA0E000171650ED07405D6
:1040A0000CE0736932EC2AF0096A010E086EFF0E0B
:1040B0000A6814EC28F070EC27F0886BB5EC28F057
:1040C0001DD0732903E1010E746F24D0030E746FA9
:1040D0005AEC29F01FD099EC25F01CD088AF1AD0EB
:1040E0008B518A1103E1FDEC11F014D03BEC1EF072
:1040F00011D035EC2AF00ED0746B0CD00001745145
:10410000E0E0010AE8E0030AE3E0010AE7E0070A69
:10411000F0E0F2D7E90E0101105D030E1159000E17
:104120001259000E13590BE3106B116B126B136BCA
:1041300048EC27F07451030AD8B4EDEC04F03B0EC0
:1041400000016E650BD06E6B6D2B3B0E6D6502D062
:104150006D6B6C2B170E6C6501D06C6B52EC1AF00A
:1041600099D70F0E1C6E400E1B6E0F0E1E6E300E7A
:104170001D6E0F0E206E200E1F6E0E0E226E200E74
:10418000216E0E0E246E300E236E0E0E266E400E25
:10419000256E0E0E286E500E276E0E0E2A6E600EC5
:1041A000296E0E0E2C6E700E2B6E7750C00B2D6E7E
:1041B0002D6602D0020E01D0080E2E6E0D01D89091
:1041C000F831306E346A7DD03450020DF3501B0F3D
:1041D000D96EDA6ADECF35F0DDCF36F035C031F09A
:1041E00036C032F0020E346404D0D890303230A0A1
:1041F00067D035C0D9FF36C0DAFFDF501A6E1AB665
:104200005FD035C0D9FF36C0DAFFFC0EDF1619C00B
:104210001AF0030E1A1635C0D9FF36C0DAFF1A504D
:10422000DF1219AC04D018504009336E02D018C008
:1042300033F020EE05F03550D9263650DA2233C05F
:10424000DFFF19AA03D0010E336E01D0336A35287F
:10425000086E000E3620096E12C00AF013C00BF073
:1042600014C00CF015C00DF033C00EF0C8EC22F0F5
:10427000060E3526000E36222F6A0FD016C0D9FF43
:1042800017C0DAFF35C0E1FF36C0E2FFDFCFE7FF3E
:10429000164A172A354A362A2F2A18502F5CEEE381
:1042A00031C0D9FF32C0DAFFDF501A6E1AB406D01F
:1042B00031C0D9FF32C0DAFF000EDB86010E05D017
:1042C000342A2E50345C80E3000E12000AC00EF037
:1042D0000B6646D00E50D96EDA6A08C0E1FF09C0FD
:1042E000E2FFE7500C6ED8900C36D8900C36D89080
:1042F0000C34DF6E0E50D96EDA6AD92ADA6A08C039
:10430000E1FF09C0E2FFE7500C6E050E0D6ED8907C
:104310000C320D2EFCD70C50DF6E084A092A08C05B
:10432000D9FF09C0DAFFDF500C6E050E0D6ED89074
:104330000C320D2EFCD70E50D96EDA6A0C50DF12FB
:104340000E50D96EDA6A020ED926DA6ADF6A0E508A
:10435000D96EDA6A030ED926DA6A000EDF6E67D0EC
:104360000E50D96EDA6A020ED926DA6A08C0E1FF69
:1043700009C0E2FFE7500C6E050E0D6ED8900C36AA
:104380000D2EFCD70C50DF6E0E50D96EDA6A030E7C
:10439000D926DA6A08C0E1FF09C0E2FFE7500C6ED7
:1043A000D8900C32D8900C32D8900C30DF6E084A7E
:1043B000092A08C0D9FF09C0DAFFDF500C6E030ECE
:1043C0000C160E50D96EDA6A020ED926DA6A0C5033
:1043D000DF1208C0D9FF09C0DAFFDF500C6ED89099
:1043E0000C32D8900C32D8900C321C0E0C160E5099
:1043F000D96EDA6A020ED926DA6A0C50DF12084A40
:10440000092A08C0D9FF09C0DAFF0E50E16EE26A3E
:10441000E12AE26ADFCFE7FF084A092A08C0D9FF8C
:1044200009C0DAFF0E50E16EE26ADFCFE7FF12004B
:1044300027342834306E2B342C342F6E305009E062
:104440002F5030600FD030502F5C2D6E210E2D5C20
:1044500009E329C025F02AC026F02BC027F02CC084
:1044600028F095D02F5009E030502F600FD02F50FA
:10447000305C2D6E210E2D5C09E325C025F026C091
:1044800026F027C027F028C028F081D0060E2E6E17
:1044900028BE2E8E2CBE2E8C278E286A2B8E2C6A40
:1044A0002F50306018D0D89029362A362B362C362B
:1044B0002F062F5030180BE02E062E50070B07E06A
:1044C000F2D7D8902832273226322532302A2F5080
:1044D0003062F7D71AD030502F6017D0D8902536D9
:1044E00026362736283630062F5030180BE02E0699
:1044F0002E50070B07E0F2D7D8902C322B322A32FD
:1045000029322F2A2F503062F7D72EAE09D0251E20
:10451000261E271E281E252A000E26222722282294
:104520002EAC09D0291E2A1E2B1E2C1E292A000E55
:104530002A222B222C222E6A2550292626502A2276
:1045400027502B2228502C222CAE0BD0291E2A1E9D
:104550002B1E2C1E292A000E2A222B222C22010E71
:104560002E6E29C008F02AC009F02BC00AF02CC01A
:104570000BF030C00CF02EC00DF039EC25F00BC064
:1045800028F00AC027F009C026F008C025F0120064
:104590000A0E116E0E6637D01150D96EDA6ADF50EE
:1045A0000F6ED8900F32D8900F32D8900F3008C0CD
:1045B000D9FF09C0DAFFDF6E1150D96EDA6AD92A45
:1045C000DA6ADF500F6E050E106ED8900F36102E7F
:1045D000FCD708C0D9FF09C0DAFF0F50DF12084A24
:1045E000092A1150D96EDA6ADF500F6E050E106E6F
:1045F000D8900F36102EFCD70F5008C0D9FF09C035
:10460000DAFFDF6E6CD01150D96EDA6A020ED9264D
:10461000DA6ADF500F6E050E106ED8900F32102E32
:10462000FCD70F5008C0D9FF09C0DAFFDF6E115068
:10463000D96EDA6A030ED926DA6ADF500F6ED89087
:104640000F36D8900F36D8900F3608C0D9FF09C062
:10465000DAFF0F50DF12084A092A1150D96EDA6AC0
:10466000020ED926DA6ADF500F6ED8900F36D89036
:104670000F36D8900F34E00B08C0D9FF09C0DAFF1D
:10468000DF6E08C0D9FF09C0DAFF000EDB861150CB
:10469000D96EDA6A020ED926DA6ADF500F6E030E7F
:1046A0000F1608C0D9FF09C0DAFF0F50DF12084A01
:1046B000092A1150D96EDA6AD92ADA6A08C0E1FFEC
:1046C00009C0E2FFDFCFE7FF084A092A1150D96E7F
:1046D000DA6A08C0E1FF09C0E2FFDFCFE7FF12009E
:1046E000E8CFA5F04A1CA46FA551830A02E16F6BC5
:1046F00081D0830EA56510D0890EA5610DD04AC06A
:104700000CF0A5517C0F78EC29F00001A5517C0F2D
:10471000F0EC29F000013BD0A551920A0DE14A507E
:104720004C6E4B6A4F504D6E4E6A4B104F6E4C5054
:104730004E10506E50502BD0A551930A0BE14B6A8E
:1047400050504C6E4A504B104F6E4C50506E4FC0F4
:10475000A4F051D0880EA5651CD0910EA56119D08A
:1047600050C04BF04BC04CF04D6A4C2802E14F2832
:1047700002E04A1C0CD04AC00CF0A551770FF1ECB6
:1047800028F00001A551770FE6EC29F0C3D7A46FFC
:1047900032D0CF0EA56518D0E00EA56115D050C05F
:1047A0004BF04BC04CF04D6A4C28E3E14F28E1E15F
:1047B0004AC00CF0A551300F04EC29F00001A551BE
:1047C000300FFAEC29F0A6D7A551A20AD2E14A503F
:1047D000550A04E1666B676B550ED9D74A50AA0A91
:1047E0000AE1E80E665D030E675904E22EEC2AF03A
:1047F000AA0E90D7A46BA45112000101106B116B8B
:10480000126B136B00016E6B6D6B6C6B526A536AAB
:10481000106A1050040DF350780FD96EDA6ADE6A10
:10482000DE6ADE6ADD6A1050040D140EF324D96EC0
:10483000010EF420DA6EDE6ADE6ADE6ADD6ADD52BF
:10484000DD52102A030E1064E4D700016A6B6B6B13
:104850000101010E096E240E086E0B6A0A6A0D6AC8
:10486000040E0C6E74EC28F00101010E096E2C0E82
:10487000086E0B6A0A6A0D6A040E0C6E74EC28F05E
:104880000101010E096E280E086E0B6A0A6A0D6A94
:10489000040E0C6E74EC28F00101010E096E300E4E
:1048A000086E0B6A0A6A0D6A040E0C6E74EC28F02E
:1048B0000101010E096E340E086E0B6A0A6A0D6A58
:1048C000040E0C6E74EC28F00101010E096E380E16
:1048D000086E0B6A0A6A0D6A040E0C6E74EF28F0FB
:1048E000183419341E6E1E6601D005D01C341D34D8
:1048F000246E246605D0166A176A186A196A57D09A
:1049000024507B0F1E2619C024F01D50241A800E3F
:104910002416188E1C8E000E1D161F6A206A216A2E
:10492000226A070E236E16A008D01A501F261B50AD
:1049300020221C5021221D502222D89019321832D8
:1049400017321632D8901A361B361C361D36232ED7
:10495000EAD7110E236E16A008D01A501F261B503E
:1049600020221C5021221D502222D89019321832A8
:1049700017321632D8902232213220321F32232EA3
:10498000EAD71FC008F020C009F021C00AF022C0F9
:104990000BF01EC00CF024C00DF039EC25F00BC05C
:1049A00019F00AC018F009C017F008C016F012007C
:1049B0000600F2A201D001D02CD0000160AF01D0DE
:1049C00001D025D060B101D001D013D0010E7827DD
:1049D000000E7923000E7A23000E7B237B51781181
:1049E00079117A11D8A401D001D011D0010E6A6FCB
:1049F0000ED07807000E795B7A5B7B5B7B51781178
:104A000079117A11D8A401D001D001D0EFD7F29258
:104A10002FD0F0A001D001D02BD0000161AF01D088
:104A200001D025D061B101D001D013D0010E7C2777
:104A3000000E7D23000E7E23000E7F237F517C110C
:104A40007D117E11D8A401D001D011D0010E6B6F61
:104A50000ED07C07000E7D5B7E5B7F5B7F517C11FF
:104A60007D117E11D8A401D001D001D0EFD7F090F4
:104A700011000C5005E00B50081009100A100BE152
:104A8000086A096A0A6A0B6A53D00C2AD8900B325A
:104A90000A32093208320E6A0F6A106AFE0E0B14CF
:104AA000116E11500E100F1010100CE0EED70C2AE2
:104AB000082A000E09220A220B22D8900B320A3251
:104AC000093208320E6A0F6A106A0B50116E1150CB
:104AD0000E100F10101007E0EAD70C06D890083619
:104AE00009360A360B360AAEF8D70CB002D07F0E64
:104AF0000A16D8900C320CC00EF00F6A106A116AB8
:104B00000EC011F0106A0F6A0E6A0E5008120F5094
:104B1000091210500A1211500B120D50D8A40B8E0E
:104B200008C008F009C009F00AC00AF00BC00BF079
:104B3000120051D0572811E0810E966F976B986B39
:104B4000996B020E9A6F57C09CF0FAEC27F0010E99
:104B50000001756F686B696B45D0040E746F810E30
:104B6000966F9C69070E976F986B996B030E9A6FFF
:104B7000FAEC27F037D088AF0FD08B518A1132E191
:104B80008C51030A2FE1576603D0020E746FE2D7EF
:104B9000572A756B766B26D0E90E685D030E69594E
:104BA00021E3762B020E766514D0576605D0572A7E
:104BB000756B686B696BEED757C073F0030E746F3B
:104BC000756B7351D1EC29F00001766B5AEC29F02A
:104BD00009D0756B07D000017551ACE0010ACBE03C
:104BE000030AF7E10001886B120041C0A4F0000144
:104BF000A56BA66BA76BA6C0A7F0A5C0A6F0A4C026
:104C0000A5F0A46B3F50A86F4050A96FAA6BAB6B87
:104C1000A9C0ABF0A8C0AAF0A96BA86B43C0ACF0C8
:104C2000AD6BAE6BAF6B1A0ED890AC37AD37AE37FD
:104C3000AF37E82EF9D7A851AC11B06FA951AD111B
:104C4000B16FAA51AE11B26FAB51AF11B36FA45196
:104C5000B011B46FA551B111B56FA651B211B66FB5
:104C6000A751B311B76F4250B411476EB551486E9A
:104C7000B651496EB7514A6E47C037F048C038F058
:104C800049C039F04AC03AF044C03BF045C03CF05E
:104C900046C03DF097EC27F00009000ED8A4010EA5
:104CA0001200800EBAEC29F0090E706EFC0E716EC7
:104CB000010E726E200E736E778E779C606A0F0104
:104CC000506B0E01206B306B406B506B606B706BE8
:104CD000E00E0D01F86F0F01006B080E016F026B03
:104CE000036B046BE80E056F1A0E066F076B030E5D
:104CF0000D01D46FD56BE06B110EE16FE26FE36BCA
:104D0000E46BE56BE66BE76B540EF06F050EF16F2D
:104D1000F26BF26B0F0E0F01186FE00E196F1A6B2A
:104D20001B6B19870F0E1C6FE00E1D6F1E691F6B2A
:104D30001D87000EBAEF29F0E8CF27F021C01AF046
:104D400022C01BF0280E8AEC28F0000902E1000EB8
:104D50002ED01F50D96EDA6A28C0DFFF1E50D96EE0
:104D6000DA6A29C0DFFF2A50236E010E2B14246E4D
:104D70002750D96EDA6A23C0DEFF24C0DDFF205041
:104D8000D96EDA6A28C023F029C024F02AC025F0A1
:104D90002BC026F01B0E05D0D890263225322432A7
:104DA0002332E82EF9D72350070BDF6E010E1200D5
:104DB000E8CF0BF024D00F0E0D6E600E1ED00F0149
:104DC0000F0E0D6E500E19D00E010E0E0D6E200E30
:104DD00014D00E010E0E0D6E300E0FD00E010E0E01
:104DE0000D6E400E0AD00E010E0EEBD70E010E0E08
:104DF000E3D70E010E0E0D6E700E0C6E0FD00B5021
:104E0000DAE0010ADCE0030ADFE0010AE2E0070A77
:104E1000E5E0010AE8E0030AE9E0EBD70CC008F09E
:104E20000DC009F01200E8CFBBF0BBC0B8F0000E17
:104E3000F66E090EF76E0800F550086E096A0DEC63
:104E40002AF00001B96FBBC04BF0030E4B16020EE7
:104E50004B264B50000F4C6E4CC0F6FF090EF76E00
:104E60000800F550086E096A0DEC2AF00001BA6FCF
:104E7000406A010E3F6E020E416E73C042F0436AFB
:104E8000030E446E000E466EB80E456EF5EF25F02B
:104E90000001772B3B0E77650CD0776B722B74512A
:104EA000030A07E194EC29F04C6EDCEC29F0DEEC0F
:104EB00028F03B0E0001726502D0726B702B170E4A
:104EC000706501D0706B7451030A09E1552A55C011
:104ED0004EF00F0E4E16020E4E5CD8B0556A120000
:104EE000010E566E29EC2AF00001736F736701D032
:104EF0007369732902E1020E566E886B896B8A6BA7
:104F00008B6B8C6B966B976B986B996B9A6B6F6BCB
:104F1000546A576A746B756B766B4F6A506A686B2C
:104F2000696B666B676B776B726B706B12003E6AB6
:104F3000646B656B17D037C012F038C013F039C0FE
:104F400014F03AC015F03CC016F03DC017F03BC05D
:104F500018F0200E196EB1EC20F0000903E0010EEC
:104F60003E6E06D0E80E0001645D030E6559E3E372
:104F70000001966B3E501200000E3BEC29F0550AE2
:104F800007E1010E3BEC29F0AA0A02E1010E12D062
:104F9000020E566E37EC2AF0FF0ED1EC29F0550EBA
:104FA0000C6E000E17EC29F0AA0E0C6E010E17EC19
:104FB00029F0000E12000F0EC16E926A806A0B0E6D
:104FC000936E816A0D0E946E826A920E69EC29F0DE
:104FD000FB0E096E1D0E086E04EC2AF051EC26F053
:104FE000F194D08EF18CF288F18AF086F28CF28EF8
:104FF000F28C120098C03FF099C040F09AC041F086
:1050000073C042F097C043F096510F0B446E000EF0
:10501000466E9C0E456EF5EC25F04B6E4B6602D04D
:1050200000016F2B4B50120008C0A9FF0AC0A8FF57
:10503000A69EA69CA684000EF2BE010E0B6EF29EEA
:10504000550EA76EAA0EA76EA682A6B2FED70BB00B
:1050500002D0F29E01D0F28EA694120088510F0B5E
:105060000D6E0D5012E0735120EE8EF0DF620DD008
:105070000D0405E0010E0D6408D08F6706D073693A
:10508000FF0ED1EC29F070EC27F0120001EE00F0D9
:105090003C0EEE6AE806FDE100EE60F0440EEE6ABA
:1050A000E806FDE100EE4FF00A0EEE6AE806FDE1CB
:1050B000000EF86E0001FBEF1FF012C008F013C0E5
:1050C00009F014C00AF015C00BF0960E0C6E000E1D
:1050D0000D6A39EC25F00BC015F00AC014F009C0B8
:1050E00013F008C012F0120008C00EF009C00FF053
:1050F00008D00EC0D9FF0FC0DAFF0AC0DFFF0E4A8A
:105100000F2A0C06D8A00D060C28D8B40D28D8B448
:105110001200EFD7E8CF1CF088AF02D0000E0FD0FE
:105120001BC00FF01AC010F01D0E116E1C5034EC95
:105130001DF00009F3E01DAC1DAAF0D7010E12000E
:1051400088C04CF00F0E4C164C040EE1735120EE4B
:105150008EF0DF6209D0800E966F976B986B996B1B
:10516000030E9A6FFAEC27F0120088BF12D08C0E53
:105170001E6E8D0E1F6E890E206E880E216E8E0E95
:10518000226E8A0E9CEC26F02C6E2C5002E0000160
:10519000888F1200E8CF09F0080E0A6E0B6AD890CB
:1051A00009340B340B6ED890093608500B5C02E3BF
:1051B00008500B5E0A2EF3D70B501200E8CF4DF0CB
:1051C000830E0001966F070E976F996B140E986F00
:1051D000090E9A6F9C6B4DC09DF04CC09EF0FAEF8B
:1051E00027F0E8CF0DF0070E0D6401D00CD032ECA3
:1051F0002AF00C0E0D24086E096A000E09220CC05C
:105200000AF014EC28F01200E8CF0DF00F0E0D6438
:1052100001D00CD032EC2AF0140E0D24086E096A6D
:10522000000E09220CC00AF014EC28F01200E8CF9E
:105230000DF0010E0C6401D00CD032EC2AF0030EFC
:105240000C24086E096A000E09220DC00AF014EC45
:1052500028F01200E8CFB1F07F0EB16506D0B0C0E3
:105260004AF0B15170EC23F005D0B0C044F0B15118
:1052700027EC15F01200E8CF0AF0010E0A6402D004
:10528000000E08D0030E0A24086E096A000E0922D7
:105290000DEC2AF0120088510F0B020A0AE173513B
:1052A00020EE8EF0DF6205D08FC073F07351D1EC29
:1052B00029F01200810E0001966F976B986B996B25
:1052C000020E9A6F73C09CF0FAEC27F0010E566E36
:1052D000010CE8CF08F008507F0BD56ED76AD66A6C
:1052E000F29408AE02D0F28A01D0F29AD58E120062
:1052F000E8CF0DF032EC2AF0070E0D24086E096A93
:10530000000E09220CC00AF014EF28F0E8CF0CF0D0
:105310000C0409E132EC2AF0096A086AFF0E0A68F7
:1053200014EC28F0FF001200000E0A6E0A2A0AC0D0
:10533000F6FF090EF76E0800F550086E096A0DEFCA
:105340002AF0E8CF1DF07F0E1D6404D01D5023EC21
:105350001FF003D01D5026EC1CF01200E8CF09F01E
:105360000950BA0F086E08C0F6FF090EF76E080064
:10537000F5501200E8CF08F01F0E6F1608506F129C
:105380006F50E00B0818D8B41200FAD7040E9C6FC7
:105390009D6B9E6B030E9F6FA06B030EA16FA26BA4
:1053A0001200E8CF0CF032EC2AF0096A010E086E08
:1053B0000CC00AF014EF28F0000EF66E090EF76E1E
:1053C0000800F550086E096A0DEF2AF0E8CF0AF0E0
:1053D0000C0E0A24086E096A000E09220DEF2AF04D
:1053E000E8CF0AF0070E0A24086E096A000E0922A7
:1053F0000DEF2AF0E8CF0AF0140E0A24086E096AAD
:10540000000E09220DEF2AF008C00AF009C00BF0C7
:105410000BC0D7FF0AC0D6FF120008C0A9FFA69C88
:10542000A69EA68000F000F0A850120001C003F074
:1054300002C004F004C0D7FF03C0D6FF1200086A00
:10544000096A0A6A0B6A1200086A096A0A6A0B6A20
:105450001200096A010E086E0DEF2AF05DEC0EF0E5
:10546000FDEF23F0A6A21200FDD7566A12005DEFF1
:105470000EF0050C080C010C010C000C010C1200C4
:020000040020DA
:08000000FFFFFFFFFFFFFFFF00
:020000040030CA
:0E000000FF061C1EFF8281FF0FC00FE00F40A5
:00000001FF
