:040800005FEF04F0B2
:04080800F0EF27F0F6
:10081800D8CF05F0E8CF06F0E0CF07F0F2A401D07A
:1008280001D042D0FB0E026E1D0E016E2CEC2DF095
:100838004E4A4F2A00016A4B6B2B010E6427000EAB
:100848006523000E6623000E6723684B692B82A080
:1008580001D001D003D06C6B6D6B02D06C4B6D2B4B
:10086800582A5650020AD8A401D001D00ED0640EDE
:10087800586401D001D009D082A201D001D002D0A1
:10088800829201D08282586A0ED05604D8A401D030
:1008980001D003D08282586A06D0566601D001D0B2
:1008A80002D08292586AF29407C0E0FF06C0E8FFBF
:1008B80005C0D8FF1000BBEF2BF001015D6B5E6B2C
:1008C8005DC1C1F05EC1C2F00001D890C137C23726
:1008D800D890C137C237000EC125D96E010EC2218A
:1008E800DA6EDECFC3F0DECFC4F0DECFC5F0DECFE8
:1008F800C6F001015D51040DF35000017A0FD96E65
:10090800DA6ADECFC7F0DECFC8F0DECFC9F0DECFBF
:10091800CAF0C351C75DCB6FC451C859CC6FC5511C
:10092800C959CD6FC651CA59CE6F5DC1CFF05EC1EE
:10093800D0F0D890CF37D037D890CF37D037100EE7
:10094800CF25D96E010ED021DA6ECBC0DEFFCCC028
:10095800DEFFCDC0DEFFCEC0DDFFD906D90601011E
:100968005D51040DF3507A0FD96EDA6A5DC1C1F09A
:100978005EC1C2F00001D890C137C237D890C137E4
:10098800C237000EC125E16E010EC221E26EDECF34
:10099800E6FFDECFE6FFDECFE6FFDDCFE5FFE5527F
:1009A800E55201015D4B5E2B5E51800A800F040EFB
:1009B800D8B45D5D85E35D6B5E6B5D510001600FD2
:1009C800D96EDA6ADF50C16FC1AFB2D101015D5192
:1009D8000001600FD96EDA6ADF50C16FC1A361D11F
:1009E8005DC1C1F05EC1C2F0D890C137C237D8909E
:1009F800C137C237D890C137C237480EC127000E59
:100A0800C2236C0EC125F66EFE0EC221F76EF86A7F
:100A1800000EF8220900F5CF0EF00A00F5CF0FF00E
:100A2800E3EC2CF00001C36FC3C0C4F0C56BC66B08
:100A3800C76BC6C0C7F0C5C0C6F0C4C0C5F0C46B9C
:100A48005DC1C8F05EC1C9F0D890C837C937D89021
:100A5800C837C937D890C837C937460EC827000ED7
:100A6800C9236C0EC825F66EFE0EC921F76EF86A0A
:100A7800000EF8220900F5CF0EF00A00F5CF0FF0AE
:100A8800E3EC2CF00001CA6FCAC0CBF0CC6BCD6B85
:100A9800CE6BCCC0CEF0CBC0CDF0CC6BCB6B5DC1F8
:100AA800CFF05EC1D0F0D890CF37D037D890CF37BD
:100AB800D037D890CF37D037440ECF27000ED02369
:100AC8006C0ECF25F66EFE0ED021F76EF86A000E7A
:100AD800F8220900F5CF0EF00A00F5CF0FF0E3EC8D
:100AE8002CF00001D16FD1C0D2F0D36BD46BD56B91
:100AF800D2C0D5F0D46BD36BD26BCB51D225D66F85
:100B0800CC51D321D76FCD51D421D86FCE51D52117
:100B1800D96FC451D625DA6FC551D721DB6FC651BD
:100B2800D821DC6FC751D921DD6F5DC1DEF05EC110
:100B3800DFF0D890DE37DF37D890DE37DF37D89050
:100B4800DE37DF374A0EDE27000EDF236C0EDE2588
:100B5800F66EFE0EDF21F76EF86A000EF822090025
:100B6800F5CF0EF00A00F5CF0FF0E3EC2CF0000102
:100B7800DA250101596F000E0001DB2101015A6FCE
:100B8800000E0001DC2101015B6F000E0001DD2178
:100B980001015C6F5DC1C1F05EC1C2F00001D89077
:100BA800C137C237D890C137C237D890C137C2379A
:100BB800860EC127000EC2236C0EC125F66EFE0EEE
:100BC800C221F76EF86A000EF8220900F5CF0EF080
:100BD8000A00F5CF0FF0E3EC2CF00001C36F5DC104
:100BE800C4F05EC1C5F0D890C437C537D890C437B3
:100BF800C537D890C437C537840EC427000EC5231F
:100C08006C0EC425F66EFE0EC521F76EF86A000E4E
:100C1800F8220900F5CF0EF00A00F5CF0FF0E3EC4B
:100C28002CF00001C76FC66BC351C6250101556F73
:100C38000001000EC7210101566F5D51040DF350EC
:100C480000017A0FD96EDA6ADECFC1F0DECFC2F0CA
:100C5800DECFC3F0DECFC4F0C1510101595D000100
:100C6800C25101015A590001C35101015B590001E8
:100C7800C45101015C5915E2200E5D25D96E010EA3
:100C88005E21DA6EDF500DE15D295412200E5D25DC
:100C9800D96E010E5E21DA6E010EDF6E5D514FECEA
:100CA80029F00101200E5D25D96E010E5E21DA6E54
:100CB800DF503EE055510001C16F0101565100015E
:100CC800C26FC36BC46BC1510101595D0001C56F8F
:100CD800C25101015A590001C66FC35101015B5944
:100CE8000001C76FC45101015C590001C86F0101BF
:100CF8005D51040DF35000017A0FD96EDA6ADECF28
:100D0800C9F0DECFCAF0DECFCBF0DECFCCF0C551D4
:100D1800C95DC651CA59C751CB59C851CC5908E207
:100D28000101200E5D25D96E010E5E21DA6EDF6AA3
:100D380001015D4B5E2B5E51800A800F040ED8B412
:100D48005D5D01E23AD65D6B5E6BD8905D35000162
:100D5800C16F01015E350001C26F140EC127000E7C
:100D6800C2236C0EC125F66EFE0EC221F76EF86A1C
:100D7800000EF8220900F5CF0EF00A00F5CF0FF0AB
:100D8800E3EC2CF00001C36FC3AFD8D10101280EEA
:100D98005D25D96E010E5E21DA6EDF5001E087D144
:100DA800D8905D350001C16F01015E350001C26F49
:100DB800140EC127000EC2236C0EC125F66EFE0E5E
:100DC800C221F76EF86A000EF8220900F5CF0EF07E
:100DD8000A00F5CF0FF0E3EC2CF00001C36FC3A1BC
:100DE80066D15DC1C1F05EC1C2F0D890C137C237CB
:100DF800D890C137C237D890C137C237240EC1271F
:100E0800000EC223300EC125F66EFF0EC221F76E0A
:100E1800F86A000EF8220900F5CF0EF00A00F5CFA7
:100E28000FF0E3EC2CF00001C36FC3C0C4F0C56B36
:100E3800C66BC76BC6C0C7F0C5C0C6F0C4C0C5F096
:100E4800C46B5DC1C8F05EC1C9F0D890C837C93756
:100E5800D890C837C937D890C837C937220EC8279D
:100E6800000EC923300EC825F66EFF0EC921F76E95
:100E7800F86A000EF8220900F5CF0EF00A00F5CF47
:100E88000FF0E3EC2CF00001CA6FCAC0CBF0CC6BBA
:100E9800CD6BCE6BCCC0CEF0CBC0CDF0CC6BCB6BDA
:100EA8005DC1CFF05EC1D0F0D890CF37D037D890A1
:100EB800CF37D037D890CF37D037200ECF27000E76
:100EC800D023300ECF25F66EFF0ED021F76EF86ACC
:100ED800000EF8220900F5CF0EF00A00F5CF0FF04A
:100EE800E3EC2CF00001D16FD1C0D2F0D36BD46BFE
:100EF800D56BD2C0D5F0D46BD36BD26BCB51D22586
:100F0800D66FCC51D321D76FCD51D421D86FCE51C4
:100F1800D521D96FC451D625DA6FC551D721DB6FDA
:100F2800C651D821DC6FC751D921DD6F5DC1DEF014
:100F38005EC1DFF0D890DE37DF37D890DE37DF3795
:100F4800D890DE37DF37260EDE27000EDF23300E7F
:100F5800DE25F66EFF0EDF21F76EF86A000EF82226
:100F68000900F5CF0EF00A00F5CF0FF0E3EC2CF0F6
:100F78000001DA250101596F000E0001DB21010192
:100F88005A6F000E0001DC2101015B6F000E0001A9
:100F9800DD2101015C6F5DC1C1F05EC1C2F00001DD
:100FA800D890C137C237D890C137C237D890C13727
:100FB800C237620EC127000EC223300EC125F66E5D
:100FC800FF0EC221F76EF86A000EF8220900F5CF6D
:100FD8000EF00A00F5CF0FF0E3EC2CF00001C36F20
:100FE8005DC1C4F05EC1C5F0D890C437C537D8908C
:100FF800C437C537D890C437C537600EC427000E2C
:10100800C523300EC425F66EFF0EC521F76EF86AAB
:10101800000EF8220900F5CF0EF00A00F5CF0FF008
:10102800E3EC2CF00001C76FC66BC351C625010164
:10103800556F0001000EC7210101566F5DC1C1F057
:101048005EC1C2F00001D890C137C237D890C1370D
:10105800C237100EC125D96E010EC221DA6EDECF5D
:10106800C3F0DECFC4F0DECFC5F0DECFC6F001019D
:1010780059510001C35D01015A510001C4590101D0
:101088005B510001C55901015C510001C6590FE2CD
:1010980001015D295412280E5D25D96E010E5E21CD
:1010A800DA6E010EDF6E5D51030F4FEC29F001017E
:1010B800280E5D25D96E010E5E21DA6EDF503EE006
:1010C8005DC1C1F05EC1C2F00001D890C137C2371E
:1010D800D890C137C237100EC125D96E010EC22172
:1010E800DA6EDECFC3F0DECFC4F0DECFC5F0DECFE0
:1010F800C6F00101555159250001C76F010156512C
:101108005A210001C86F000E01015B210001C96F5F
:10111800000E01015C210001CA6FC351C75DC451B3
:10112800C859C551C959C651CA5908E20101280E02
:101138005D25D96E010E5E21DA6EDF6A01015D4B15
:101148005E2B5E51800A800F040ED8B45D5D01E20B
:10115800FCD55D6B5E6BD8905D350001C16F0101F8
:101168005E350001C26F140EC127000EC2236C0E3B
:10117800C125F66EFE0EC221F76EF86A000EF8223F
:101188000900F5CF0EF00A00F5CF0FF0E3EC2CF0D4
:101198000001C36FC3AFDFD10101240E5D25D96EF5
:1011A800010E5E21DA6EDF5001E086D1D8905D3500
:1011B8000001C16F01015E350001C26F140EC12725
:1011C800000EC2236C0EC125F66EFE0EC221F76E0C
:1011D800F86A000EF8220900F5CF0EF00A00F5CFE4
:1011E8000FF0E3EC2CF00001C36FC3A365D15DC120
:1011F800C1F05EC1C2F0D890C137C237D890C137AC
:10120800C237D890C137C237440EC127000EC22357
:10121800300EC125F66EFF0EC221F76EF86A000E79
:10122800F8220900F5CF0EF00A00F5CF0FF0E3EC35
:101238002CF00001C36FC3C0C4F0C56BC66BC76B8D
:10124800C6C0C7F0C5C0C6F0C4C0C5F0C46B5DC198
:10125800C8F05EC1C9F0D890C837C937D890C83728
:10126800C937D890C837C937420EC827000EC923D6
:10127800300EC825F66EFF0EC921F76EF86A000E0B
:10128800F8220900F5CF0EF00A00F5CF0FF0E3ECD5
:101298002CF00001CA6FCAC0CBF0CC6BCD6BCE6B03
:1012A800CCC0CEF0CBC0CDF0CC6BCB6B5DC1CFF05A
:1012B8005EC1D0F0D890CF37D037D890CF37D0375D
:1012C800D890CF37D037400ECF27000ED023300E1E
:1012D800CF25F66EFF0ED021F76EF86A000EF822C1
:1012E8000900F5CF0EF00A00F5CF0FF0E3EC2CF073
:1012F8000001D16FD1C0D2F0D36BD46BD56BD2C003
:10130800D5F0D46BD36BD26BCB51D225D66FCC51E1
:10131800D321D76FCD51D421D86FCE51D521D96FD4
:10132800C451D625DA6FC551D721DB6FC651D821F4
:10133800DC6FC751D921DD6F5DC1DEF05EC1DFF022
:10134800D890DE37DF37D890DE37DF37D890DE37F2
:10135800DF37460EDE27000EDF23300EDE25F66E61
:10136800FF0EDF21F76EF86A000EF8220900F5CFAC
:101378000EF00A00F5CF0FF0E3EC2CF00001DA25AF
:101388000101596F000E0001DB2101015A6F000EA7
:101398000001DC2101015B6F000E0001DD2101016C
:1013A8005C6F5DC1C1F05EC1C2F00001D890C13769
:1013B800C237D890C137C237D890C137C237620E0A
:1013C800C127000EC223300EC125F66EFF0EC221C2
:1013D800F76EF86A000EF8220900F5CF0EF00A0041
:1013E800F5CF0FF0E3EC2CF00001C36F5DC1C4F042
:1013F8005EC1C5F0D890C437C537D890C437C53753
:10140800D890C437C537600EC427000EC523300EE8
:10141800C425F66EFF0EC521F76EF86A000EF82295
:101428000900F5CF0EF00A00F5CF0FF0E3EC2CF031
:101438000001C76FC66BC351C6250101556F000176
:10144800000EC7210101566F5DC1C1F05EC1C2F037
:101458000001D890C137C237D890C137C237100EB3
:10146800C125D96E010EC221DA6EDECFC3F0DECF00
:10147800C4F0DECFC5F0DECFC6F0C3510101595D1F
:101488000001C45101015A590001C55101015B59BC
:101498000001C65101015C590FE25D51100F541251
:1014A800240E5D25D96E010E5E21DA6E010EDF6E07
:1014B8005D51060F4FEC29F00101240E5D25D96E10
:1014C800010E5E21DA6EDF5046E055510001C16F12
:1014D800010156510001C26FC36BC46BC1510101B8
:1014E800595D0001C56FC25101015A590001C66F0B
:1014F800C35101015B590001C76FC45101015C5917
:101508000001C86F5DC1C9F05EC1CAF0D890C93783
:10151800CA37D890C937CA37100EC925D96E010EF7
:10152800CA21DA6EDECFCBF0DECFCCF0DECFCDF045
:10153800DECFCEF0C551CB5DC651CC59C751CD5980
:10154800C851CE5908E20101240E5D25D96E010E5D
:101558005E21DA6EDF6A01015D4B5E2B5E51800A07
:10156800800F040ED8B45D5D01E2F5D55D6B5E6B4E
:101578005D510001600FD96EDA6ADF50C16FC1AFEB
:10158800C6D0D89001015D350001C16F01015E35FB
:101598000001C26F940EC127000EC2236C0EC12534
:1015A800F66EFE0EC221F76EF86A000EF8220900E8
:1015B800F5CF0EF00A00F5CF0FF0E3EC2CF00009A0
:1015C80001E1A5D001012C0E5D25D96E010E5E2129
:1015D800DA6EDF2AD8905D350001C16F01015E35F2
:1015E8000001C26F940EC127000EC2236C0EC125E4
:1015F800F66EFE0EC221F76EF86A000EF822090098
:10160800F5CF0EF00A00F5CF0FF0E3EC2CF0000157
:10161800C36F01012C0E5D25D96E010E5E21DA6EB5
:10162800DF500001C35D73E201012C0E5D25D96E08
:10163800010E5E21DA6EDF6A5D51600F496F5D5100
:10164800040DF3507A0FD96EDA6ADF504D6F5D5191
:10165800040DF35000017A0FD96EDA6ADECFC1F0BB
:10166800DECFC2F0DECFC3F0DECFC4F0C2C0C1F01F
:10167800C3C0C2F0C4C0C3F0C46BC15101014C6FF8
:101688005D51040DF35000017A0FD96EDA6ADECF8E
:10169800C1F0DECFC2F0DECFC3F0DECFC4F0110E52
:1016A80005D0D890C433C333C233C133E82EF9D739
:1016B800C15101014B6F5D51040DF35000017A0FC8
:1016C800D96EDA6ADECFC1F0DECFC2F0DECFC3F06A
:1016D800DECFC4F0190E05D0D890C433C333C2335B
:1016E800C133E82EF9D7C15101014A6F406A0A0E89
:1016F8003F6E010E416E75C042F0030E436E050E3B
:10170800446E010E466E490E456EACEC28F00101A0
:101718005D4B5E2B5E51800A800F040ED8B45D5D70
:1017280001E226D75D6B5E6BD8905D350001C16F15
:1017380001015E350001C26F140EC127000EC223DD
:101748006C0EC125F66EFE0EC221F76EF86A000E09
:10175800F8220900F5CF0EF00A00F5CF0FF0E3EC00
:101768002CF00001C36FC3AFF1D0D89001015D35F3
:101778000001C16F01015E350001C26F9C0EC127D7
:10178800000EC2236C0EC125F66EFE0EC221F76E46
:10179800F86A000EF8220900F5CF0EF00A00F5CF1E
:1017A8000FF0E3EC2CF0000901E1D0D00101300E7C
:1017B8005D25D96E010E5E21DA6EDF2AD8905D357F
:1017C8000001C16F01015E350001C26F9C0EC12787
:1017D800000EC2236C0EC125F66EFE0EC221F76EF6
:1017E800F86A000EF8220900F5CF0EF00A00F5CFCE
:1017F8000FF0E3EC2CF00001C36F0101300E5D2502
:10180800D96E010E5E21DA6EDF500001C35D01E37F
:101818009DD00101300E5D25D96E010E5E21DA6E74
:10182800DF6A5D51600F496F5DC1C1F05EC1C2F0F2
:101838000001D890C137C237D890C137C237100ECF
:10184800C125D96E010EC221DA6EDF5001014D6F3C
:101858005DC1C1F05EC1C2F00001D890C137C23786
:10186800D890C137C237100EC125D96E010EC221DA
:10187800DA6EDECFC3F0DECFC4F0DECFC5F0DECF48
:10188800C6F0C4C0C3F0C5C0C4F0C6C0C5F0C66BBE
:10189800C35101014C6F5DC1C1F05EC1C2F00001CE
:1018A800D890C137C237D890C137C237100EC1257A
:1018B800D96E010EC221DA6EDECFC3F0DECFC4F0DE
:1018C800DECFC5F0DECFC6F0110E05D0D890C633F6
:1018D800C533C433C333E82EF9D7C35101014B6F65
:1018E8005DC1C1F05EC1C2F00001D890C137C237F6
:1018F800D890C137C237100EC125D96E010EC2214A
:10190800DA6EDECFC3F0DECFC4F0DECFC5F0DECFB7
:10191800C6F0190E05D0D890C633C533C433C333C7
:10192800E82EF9D7C35101014A6F406A0A0E3F6E8B
:10193800090E416E75C042F0030E436E050E446EEB
:10194800010E466E490E456EACEC28F001015D4B68
:101958005E2B5E51800A800F040ED8B45D5D01E2F3
:10196800E3D65D6B5E6B5DC108F05EC109F00B6A82
:10197800030E0A6ED5EC2AF0D89008340001C16F26
:101988000934C26FAC0EC127000EC2236C0EC125EC
:10199800F66EFE0EC221F76EF86A000EF8220900F4
:1019A800F5CF0EF00A00F5CF0FF0E3EC2CF00001B4
:1019B800C36FC3AF3CD3D89001015D350001C16F3F
:1019C80001015E350001C26FA40EC127000EC223BB
:1019D8006C0EC125F66EFE0EC221F76EF86A000E77
:1019E800F8220900F5CF0EF00A00F5CF0FF0E3EC6E
:1019F8002CF0000901E11BD30101340E5D25D96EDD
:101A0800010E5E21DA6EDF2AD8905D350001C16FC4
:101A180001015E350001C26FA40EC127000EC2236A
:101A28006C0EC125F66EFE0EC221F76EF86A000E26
:101A3800F8220900F5CF0EF00A00F5CF0FF0E3EC1D
:101A48002CF00001C36F0101340E5D25D96E010E23
:101A58005E21DA6EDF500001C35D01E3E8D20101C7
:101A6800340E5D25D96E010E5E21DA6EDF6A5DC126
:101A7800C1F05EC1C2F00001D890C137C237D8901A
:101A8800C137C237D890C137C237060EC127000EFA
:101A9800C223A00EC125F66EFF0EC221F76EF86AAA
:101AA800000EF8220900F5CF0EF00A00F5CF0FF06E
:101AB800E3EC2CF00101516F5DC1C1F05EC1C2F0D1
:101AC8000001D890C137C237D890C137C237D890F3
:101AD800C137C237040EC127000EC223A00EC1258C
:101AE800F66EFF0EC221F76EF86A000EF8220900A2
:101AF800F5CF0EF00A00F5CF0FF0E3EC2CF0010162
:101B0800526F5DC1C1F05EC1C2F00001D890C1370B
:101B1800C237D890C137C237D890C137C237020E02
:101B2800C127000EC223A00EC125F66EFF0EC221EA
:101B3800F76EF86A000EF8220900F5CF0EF00A00D9
:101B4800F5CF0FF0E3EC2CF00101536F5DC1C1F04C
:101B58005EC1C2F00001D890C137C237D890C137F2
:101B6800C237D890C137C237A00EC125F66EFF0E16
:101B7800C221F76EF86A000EF8220900F5CF0EF0C0
:101B88000A00F5CF0FF0E3EC2CF00101546F51C1BE
:101B98003DF152C13EF153C13FF154C140F15DC125
:101BA800C1F05EC1C2F00001D890C137C237D890E9
:101BB800C137C237D890C137C237260EC127000EA9
:101BC800C223A00EC125F66EFF0EC221F76EF86A79
:101BD800000EF8220900F5CF0EF00A00F5CF0FF03D
:101BE800E3EC2CF00101516F5DC1C1F05EC1C2F0A0
:101BF8000001D890C137C237D890C137C237D890C2
:101C0800C137C237240EC127000EC223A00EC1253A
:101C1800F66EFF0EC221F76EF86A000EF822090070
:101C2800F5CF0EF00A00F5CF0FF0E3EC2CF0010130
:101C3800526F5DC1C1F05EC1C2F00001D890C137DA
:101C4800C237D890C137C237D890C137C237220EB1
:101C5800C127000EC223A00EC125F66EFF0EC221B9
:101C6800F76EF86A000EF8220900F5CF0EF00A00A8
:101C7800F5CF0FF0E3EC2CF00101536F5DC1C1F01B
:101C88005EC1C2F00001D890C137C237D890C137C1
:101C9800C237D890C137C237200EC127000EC223E1
:101CA800A00EC125F66EFF0EC221F76EF86A000E6F
:101CB800F8220900F5CF0EF00A00F5CF0FF0E3EC9B
:101CC8002CF00101546F51C141F152C142F153C18D
:101CD80043F154C144F15DC108F05EC109F00B6ADB
:101CE800030E0A6ED5EC2AF0D89008340001C16FB3
:101CF8000934C26FAC0EC127000EC2236C0EC12579
:101D0800F66EFE0EC221F76EF86A000EF822090080
:101D1800F5CF0EF00A00F5CF0FF0E3EC2CF0000140
:101D2800C36FC3A169D05DC108F05EC109F00B6A39
:101D3800030E0A6ED5EC2AF0D89008340001C16F62
:101D48000934C26FAC0EC127000EC2236C0EC12528
:101D5800F66EFE0EC221F76EF86A000EF822090030
:101D6800F5CF0EF00A00F5CF0FF0E3EC2CF0180BCE
:101D7800A00901015D25496F3DC11AF03EC11BF064
:101D88003FC11CF040C11DF05DC1C1F05EC1C2F091
:101D98000001D890C137C237D890C137C237100E6A
:101DA800C125D96E010EC221DA6EDECF12F0DECF68
:101DB80013F0DECF14F0DECF15F078EC2BF015C061
:101DC80019F014C018F013C017F012C016F024EC64
:101DD80027F019C028F018C027F017C026F016C041
:101DE80025F041C129F042C12AF043C12BF044C17A
:101DF8002CF0CDEC24F05ED05DC108F05EC109F096
:101E08000B6A030E0A6ED5EC2AF0D890083400014C
:101E1800C16F0934C26FAC0EC127000EC2236C0E0D
:101E2800C125F66EFE0EC221F76EF86A000EF82282
:101E38000900F5CF0EF00A00F5CF0FF0E3EC2CF017
:101E4800180BA00901015D25496F3DC11AF03EC17B
:101E58001BF03FC11CF040C11DF05D51040DF35053
:101E680000017A0FD96EDA6ADECF12F0DECF13F0F6
:101E7800DECF14F0DECF15F078EC2BF015C019F09A
:101E880014C018F013C017F012C016F024EC27F095
:101E980019C028F018C027F017C026F016C025F082
:101EA80041C129F042C12AF043C12BF044C12CF0B2
:101EB800CDEC24F028C048F127C047F126C046F1F0
:101EC80025C045F10101010E586F450E576F20EEF0
:101ED80003F05751D9265851DA22DF504D6F20EEC2
:101EE80002F05751D9265851DA22DF504C6F20EEB4
:101EF80001F05751D9265851DA22DF504B6F57C19C
:101F0800D9FF58C1DAFFDF504A6F5DC108F05EC1E2
:101F180009F00B6A030E0A6ED5EC2AF0D890083443
:101F28000001C16F0934C26FAC0EC127000EC22375
:101F38006C0EC125F66EFE0EC221F76EF86A000E11
:101F4800F8220900F5CF0EF00A00F5CF0FF0E3EC08
:101F58002CF00001C36FC3BD04D001013B6B3C6B87
:101F680004D0020E01013C6F3B6B5DC108F05EC1FD
:101F780009F00B6A030E0A6ED5EC2AF0D8900834E3
:101F88000001C16F0934C26FAE0EC127000EC22313
:101F98006C0EC125F66EFE0EC221F76EF86A000EB1
:101FA800F8220900F5CF0EF00A00F5CF0FF0E3ECA8
:101FB8002CF001013B25386F000E3C21396F5DC1C3
:101FC80008F05EC109F00B6A030E0A6ED5EC2AF020
:101FD800D89008340001C16F0934C26FB00EC12710
:101FE800000EC2236C0EC125F66EFE0EC221F76EDE
:101FF800F86A000EF8220900F5CF0EF00A00F5CFB6
:102008000FF0E3EC2CF001013A6F38C13FF039C111
:1020180040F03AC141F075C042F0030E436E050E20
:10202800446E010E466E490E456EACEC28F0010177
:102038005D4B5E2B5E51800A800F040ED8B45D5D47
:10204800D8B0120090D448EC2DF06C0EF66EFE0E4F
:10205800F76E000EF86E0900F5CF08F00A00F5CF0C
:1020680009F0000E0A6AF2EC2AF048EC2DF06E0E28
:10207800F66EFE0EF76E000EF86E0900F5CF08F04A
:102088000A00F5CF09F0000E0A6AF2EC2AF0496A54
:1020980048EC2DF0D8904934446E456A4536040E14
:1020A8004426000E45226C0E4424F66EFE0E452092
:1020B800F76EF86A000EF8220900F5CF08F00A005A
:1020C800F5CF09F049C00AF0F2EC2AF048EC2DF0FF
:1020D800D8904934446E456A45360C0E4426000EA5
:1020E80045226C0E4424F66EFE0E4520F76EF86A03
:1020F800000EF8220900F5CF08F00A00F5CF09F024
:10210800800E0A6EF2EC2AF048EC2DF0D890493493
:10211800446E456A4536140E4426000E45226C0E60
:102128004424F66EFE0E4520F76EF86A000EF8227B
:102138000900F5CF08F00A00F5CF09F0800E0A6E05
:10214800F2EC2AF048EC2DF0D8904934446E456AF8
:102158004536440E4426000E45226C0E4424F66E85
:10216800FE0E4520F76EF86A000EF8220900F5CF3A
:1021780008F00A00F5CF09F0000E0A6AF2EC2AF01E
:1021880048EC2DF0D8904934446E456A45364C0EDB
:102198004426000E45226C0E4424F66EFE0E4520A1
:1021A800F76EF86A000EF8220900F5CF08F00A0069
:1021B800F5CF09F0000E0A6AF2EC2AF048EC2DF08F
:1021C800D8904934446E456A4536540E4426000E6C
:1021D80045226C0E4424F66EFE0E4520F76EF86A12
:1021E800000EF8220900F5CF08F00A00F5CF09F033
:1021F800000E0A6AF2EC2AF048EC2DF0D890493427
:10220800446E456A45365C0E4426000E45226C0E27
:102218004424F66EFE0E4520F76EF86A000EF8228A
:102228000900F5CF08F00A00F5CF09F0000E0A6A98
:10223800F2EC2AF048EC2DF0D8904934446E456A07
:102248004536640E4426000E45226C0E4424F66E74
:10225800FE0E4520F76EF86A000EF8220900F5CF49
:1022680008F00A00F5CF09F0000E0A6AF2EC2AF02D
:1022780048EC2DF0D8904934446E456A45366C0ECA
:102288004426000E45226C0E4424F66EFE0E4520B0
:10229800F76EF86A000EF8220900F5CF08F00A0078
:1022A800F5CF09F0000E0A6AF2EC2AF048EC2DF09E
:1022B800D8904934446E456A4536740E4426000E5B
:1022C80045226C0E4424F66EFE0E4520F76EF86A21
:1022D800000EF8220900F5CF08F00A00F5CF09F042
:1022E800000E0A6AF2EC2AF048EC2DF0D890493436
:1022F800446E456A45367C0E4426000E45226C0E17
:102308004424F66EFE0E4520F76EF86A000EF82299
:102318000900F5CF08F00A00F5CF09F0000E0A6AA7
:10232800F2EC2AF048EC2DF0D8904934446E456A16
:102338004536940E4426000E45226C0E4424F66E53
:10234800FE0E4520F76EF86A000EF8220900F5CF58
:1023580008F00A00F5CF09F0000E0A6AF2EC2AF03C
:1023680048EC2DF0D8904934446E456A45369C0EA9
:102378004426000E45226C0E4424F66EFE0E4520BF
:10238800F76EF86A000EF8220900F5CF08F00A0087
:10239800F5CF09F0000E0A6AF2EC2AF048EC2DF0AD
:1023A800D8904934446E456A4536A40E4426000E3A
:1023B80045226C0E4424F66EFE0E4520F76EF86A30
:1023C800000EF8220900F5CF08F00A00F5CF09F051
:1023D800000E0A6AF2EC2AF0492A030E496458D61C
:1023E80048EC2DF0F00EF66EFE0EF76E000EF86E4D
:1023F8000900F5CF08F00A00F5CF09F0000E0A6AC7
:10240800F2EC2AF048EC2DF0F20EF66EFE0EF76EA6
:10241800000EF86E0900F5CF08F00A00F5CF09F0B4
:10242800C80E0A6EF2EC2AF048EC2DF0F40EF66EA7
:10243800FE0EF76E000EF86E0900F5CF08F00A00E0
:10244800F5CF09F0000E0A6AF2EC2AF048EC2DF0FC
:10245800F60EF66EFE0EF76E000EF86E0900F5CF5A
:1024680008F00A00F5CF09F0C80E0A6EF2EC2AF05F
:1024780048EC2DF0F80EF66EFE0EF76E000EF86EB4
:102488000900F5CF08F00A00F5CF09F0000E0A6A36
:10249800F2EC2AF048EC2DF0FA0EF66EFE0EF76E0E
:1024A800000EF86E0900F5CF08F00A00F5CF09F024
:1024B800C80E0A6EF2EC2AF048EC2DF0FC0EF66E0F
:1024C800FE0EF76E000EF86E0900F5CF08F00A0050
:1024D800F5CF09F0000E0A6AF2EC2AF048EC2DF06C
:1024E800FE0EF66EFE0EF76E000EF86E0900F5CFC2
:1024F80008F00A00F5CF09F0C80E0A6EF2EC2AF0CF
:1025080048EC2DF0180EF66EFF0EF76E000EF86E02
:102518000900F5CF08F00A00F5CF09F0000E0A6AA5
:10252800F2EC2AF048EC2DF01A0EF66EFF0EF76E5C
:10253800000EF86E0900F5CF08F00A00F5CF09F093
:10254800000E0A6AF2EC2AF048EC2DF01C0EF66E2A
:10255800FF0EF76E000EF86E0900F5CF08F00A00BE
:10256800F5CF09F0000E0A6AF2EC2AF048EC2DF0DB
:102578001E0EF66EFF0EF76E000EF86E0900F5CF10
:1025880008F00A00F5CF09F0000E0A6AF2EC2AF00A
:1025980048EC2DF0200EF66EFF0EF76E000EF86E6A
:1025A8000900F5CF08F00A00F5CF09F0000E0A6A15
:1025B800F2EC2AF048EC2DF0220EF66EFF0EF76EC4
:1025C800000EF86E0900F5CF08F00A00F5CF09F003
:1025D800000E0A6AF2EC2AF048EC2DF0240EF66E92
:1025E800FF0EF76E000EF86E0900F5CF08F00A002E
:1025F800F5CF09F0000E0A6AF2EC2AF048EC2DF04B
:10260800260EF66EFF0EF76E000EF86E0900F5CF77
:1026180008F00A00F5CF09F0000E0A6AF2EC2AF079
:1026280048EC2DF0280EF66EFF0EF76E000EF86ED1
:102638000900F5CF08F00A00F5CF09F0000E0A6A84
:10264800F2EC2AF048EC2DF02A0EF66EFF0EF76E2B
:10265800000EF86E0900F5CF08F00A00F5CF09F072
:10266800000E0A6AF2EC2AF048EC2DF02C0EF66EF9
:10267800FF0EF76E000EF86E0900F5CF08F00A009D
:10268800F5CF09F0000E0A6AF2EC2AF048EC2DF0BA
:102698002E0EF66EFF0EF76E000EF86E0900F5CFDF
:1026A80008F00A00F5CF09F0000E0A6AF2EC2AF0E9
:1026B800466A476A48EC2DF0500EF66EFF0EF76E2C
:1026C800000EF86E0900F5CF44F00900F5CF45F08B
:1026D80046504424086E47504520096E000E0A6A89
:1026E800F2EC2AF0464A472A4750800A800F200E0B
:1026F800D8B4465CDFE348EC2DF0900EF66EFF0E82
:10270800F76E000EF86E0900F5CF08F00A00F5CF55
:1027180009F0000E0A6AF2EC2AF048EC2DF0920E4D
:10272800F66EFF0EF76E000EF86E0900F5CF08F092
:102738000A00F5CF09F0320E0A6EF2EC2AF048ECE6
:102748002DF0940EF66EFF0EF76E000EF86E09006F
:10275800F5CF08F00A00F5CF09F0000E0A6AF2EC8E
:102768002AF048EC2DF0960EF66EFF0EF76E000E6E
:10277800F86E0900F5CF08F00A00F5CF09F0320E1F
:102788000A6EF2EC2AF048EC2DF0980EF66EFF0E69
:10279800F76E000EF86E0900F5CF08F00A00F5CFC5
:1027A80009F0000E0A6AF2EC2AF048EC2DF09A0EB5
:1027B800F66EFF0EF76E000EF86E0900F5CF08F002
:1027C8000A00F5CF09F0320E0A6EF2EC2AF048EC56
:1027D8002DF09C0EF66EFF0EF76E000EF86E0900D7
:1027E800F5CF08F00A00F5CF09F0000E0A6AF2ECFE
:1027F8002AF048EC2DF09E0EF66EFF0EF76E000ED6
:10280800F86E0900F5CF08F00A00F5CF09F0320E8E
:102818000A6EF2EC2AF0496A48EC2DF0D890493457
:10282800446E456A4536A00E4424F66EFF0E4520D8
:10283800F76EF86A000EF8220900F5CF08F00A00D2
:10284800F5CF09F0000E0A6AF2EC2AF0492A1F0EA9
:102858004964E2D7496A486A48EC2DF0485049C0B3
:1028680044F0456AD89044364536D89044364536C3
:10287800D890443645364426000E4522DA0E4424C4
:10288800086E000E4520096E000E0A6AF2EC2AF066
:10289800482A070E4864E0D7492A030E4964DBD763
:1028A800BFEF1AF0E8CF46F0441C456E4D504C106F
:1028B80001E0A7D2466621D048EC2DF06C0EF66EEA
:1028C800FE0EF76E000EF86E0900F5CF08F00A004C
:1028D800F5CF09F044C00AF0F2EC2AF06C0EF66E5F
:1028E800FE0EF76E000EF86E0900F5CF0EF00A0026
:1028F800F5CF0FF0E3EC2CF007D3460421E148ECC8
:102908002DF06E0EF66EFE0EF76E000EF86E0900D4
:10291800F5CF08F00A00F5CF09F044C00AF0F2EC50
:102928002AF06E0EF66EFE0EF76E000EF86E0900B7
:10293800F5CF0EF00A00F5CF0FF0E3EC2CF0E4D25F
:10294800010E466436D0060E466033D048EC2DF0B2
:10295800D89046340001A66FA76BA7376C0EA62542
:10296800F66EFE0EA721F76EF86A000EF82209002F
:10297800F5CF08F00A00F5CF09F044C00AF0F2ECF0
:102988002AF0D89046340001A66FA76BA7376C0EC3
:10299800A625F66EFE0EA721F76EF86A000EF8223D
:1029A8000900F5CF0EF00A00F5CF0FF0E3EC2CF09C
:1029B800ABD2050E46643ED00A0E46603BD048ECCA
:1029C8002DF0D89046340001A66FA76BA7376C0E80
:1029D800A625F66EFE0EA721F76EF86A000EF822FD
:1029E8000900F5CF08F00A00F5CF09F044C00AF055
:1029F800F2EC2AF0D89046340001A66FA76BA737EF
:102A08006C0EA625F66EFE0EA721F76EF86A000E6C
:102A1800F8220900F5CF0EF00A00F5CF0FF0E3EC2D
:102A28002CF0456E465000015A0FD96EDA6A44C040
:102A3800DFFF6BD2090E466404D00E0E466001D04B
:102A480085D746500E0A73E14450550A6EE160A5D9
:102A580066D0D60EF66EFE0EF76E000EF86E090002
:102A6800F5CF0EF00A00F5CF0FF0E3EC2CF00001E3
:102A7800A66F080EA627D40EF66EFE0EF76E000E91
:102A8800F86E0900F5CF0EF00A00F5CF0FF0E3EC71
:102A98002CF00001A76F100EA727D20EF66EFE0EBF
:102AA800F76E000EF86E0900F5CF0EF00A00F5CFAC
:102AB8000FF0E3EC2CF00001A86F180EA827D00E39
:102AC800F66EFE0EF76E000EF86E0900F5CF0EF0EA
:102AD8000A00F5CF0FF0E3EC2CF00001A96FAA6B08
:102AE800A82B03D0D890A937AA37A82FFBD7A72B94
:102AF80003D0D890A937AA37A72FFBD7A62B03D086
:102B0800D890A937AA37A62FFBD7A9C07AF0AAC0B0
:102B18007BF0000E7BBFFF0E7C6F7D6F04D07A6B5D
:102B28007B6B7C6B7D6B550EEFD1456AEED14650C1
:102B38000F0A70E14450550AF8E161A566D0DE0E2F
:102B4800F66EFE0EF76E000EF86E0900F5CF0EF069
:102B58000A00F5CF0FF0E3EC2CF00001A66F080E89
:102B6800A627DC0EF66EFE0EF76E000EF86E090054
:102B7800F5CF0EF00A00F5CF0FF0E3EC2CF00001D2
:102B8800A76F100EA727DA0EF66EFE0EF76E000E70
:102B9800F86E0900F5CF0EF00A00F5CF0FF0E3EC60
:102BA8002CF00001A86F180EA827D80EF66EFE0E9E
:102BB800F76E000EF86E0900F5CF0EF00A00F5CF9B
:102BC8000FF0E3EC2CF00001A96FAA6BA82B03D03F
:102BD800D890A937AA37A82FFBD7A72B03D0D8900E
:102BE800A937AA37A72FFBD7A62B03D0D890A93788
:102BF800AA37A62FFBD7A9C07EF0AAC07FF0000E87
:102C08007FBFFF0E806F816F8ED77E6B7F6B806B6F
:102C1800816B89D74650100A70E14450550A85E106
:102C280062A566D0E60EF66EFE0EF76E000EF86E22
:102C38000900F5CF0EF00A00F5CF0FF0E3EC2CF009
:102C48000001A66F080EA627E40EF66EFE0EF76EBC
:102C5800000EF86E0900F5CF0EF00A00F5CF0FF060
:102C6800E3EC2CF00001A76F100EA727E20EF66E1A
:102C7800FE0EF76E000EF86E0900F5CF0EF00A0092
:102C8800F5CF0FF0E3EC2CF00001A86F180EA82781
:102C9800E00EF66EFE0EF76E000EF86E0900F5CF28
:102CA8000EF00A00F5CF0FF0E3EC2CF00001A96F4D
:102CB800AA6BA82B03D0D890A937AA37A82FFBD77F
:102CC800A72B03D0D890A937AA37A72FFBD7A62BB5
:102CD80003D0D890A937AA37A62FFBD7A9C082F06E
:102CE800AAC083F0000E83BFFF0E846F856F1BD7C9
:102CF800826B836B846B856B16D74650110A7AE119
:102D08004450550A01E011D763A56FD0EE0EF66E58
:102D1800FE0EF76E000EF86E0900F5CF0EF00A00F1
:102D2800F5CF0FF0E3EC2CF00001A66F080EA627F4
:102D3800EC0EF66EFE0EF76E000EF86E0900F5CF7B
:102D48000EF00A00F5CF0FF0E3EC2CF00001A76FAE
:102D5800100EA727EA0EF66EFE0EF76E000EF86E3E
:102D68000900F5CF0EF00A00F5CF0FF0E3EC2CF0D8
:102D78000001A86F180EA827E80EF66EFE0EF76E73
:102D8800000EF86E0900F5CF0EF00A00F5CF0FF02F
:102D9800E3EC2CF00001A96FA9C0AAF0AB6BAC6BF7
:102DA800AD6BA82B05D0D890AA37AB37AC37AD3769
:102DB800A82FF9D7A72B05D0D890AA37AB37AC37AF
:102DC800AD37A72FF9D7A62B05D0D890AA37AB37A0
:102DD800AC37AD37A62FF9D7ADC089F0ACC088F0B5
:102DE800ABC087F0AAC086F09ED6866B876B886BCF
:102DF800896B99D6210E466488D0620E466085D0CC
:102E0800A5D54C044D1031E10F0E46647ED0380E26
:102E180046607BD048EC2DF04650020D300EF3246E
:102E2800F66EFF0EF420F76EF86A000EF82209001D
:102E3800F5CF08F00A00F5CF09F044C00AF0F2EC2B
:102E48002AF04650020D300EF324F66EFF0EF420E1
:102E5800F76EF86A000EF8220900F5CF0EF00A00A6
:102E6800F5CF0FF0E3EC2CF04FD04C50020A4D1088
:102E78002EE1200E466049D048EC2DF04650020D58
:102E8800A00EF324F66EFF0EF420F76EF86A000E1B
:102E9800F8220900F5CF08F00A00F5CF09F044C080
:102EA8000AF0F2EC2AF04650020DA00EF324F66E5A
:102EB800FF0EF420F76EF86A000EF8220900F5CF2D
:102EC8000EF00A00F5CF0FF0E3EC2CF01DD04C50BB
:102ED800030A4D101AE1200E466017D048EC2DF079
:102EE800DA0E4624086E096A000E092244C00AF068
:102EF800F2EC2AF0BFEC1AF0DA0E46240E6E0F6AD6
:102F0800000E0F22E3EC2CF0456E455012008D5157
:102F18008C11D8A41200FDD21200D0EF2BF02BEFA9
:102F28002BF060EF2BF08A510F0B020AD8A4120085
:102F3800755120EE90F0DF621200800E916111D081
:102F48009151C9EC1EF000019F6F91C09EF0030ED5
:102F5800996F820E986F9A6B9B6B0A0E9C6F46EF67
:102F68002BF09151DEEC21F0EED78A510F0B030ABA
:102F7800D8A41200755120EE90F0DF621200800E86
:102F8800916106D092C044F0915156EC14F0DBD711
:102F980092C04AF0915125EC26F0D6D7755120EE13
:102FA80090F0DF621200000E19EC2DF0000192196A
:102FB800D8A41200030E19EC2DF000019319D8A41F
:102FC8001200050E19EC2DF000019419D8A4120076
:102FD800070E19EC2DF000019519D8A412004D50D8
:102FE8009619D8A412004C5020EE97F0DF62120018
:102FF800915164EF2CF0000E19EC2DF0000191199D
:1030080073E1010E19EC2DF0000192196DE1020E29
:1030180019EC2DF00001931967E1030E19EC2DF05E
:103028000001941961E155885FD0040E19EC2DF068
:103038000001911959E1050E19EC2DF000019219C2
:1030480053E1060E19EC2DF0000193194DE1070E1E
:1030580019EC2DF00001941947E1558A45D0080E66
:1030680019EC2DF0000191193FE1090E19EC2DF032
:103078000001921939E10A0E19EC2DF0000193199B
:1030880033E10B0E19EC2DF0000194192DE1558C4C
:103098002BD00C0E19EC2DF00001911925E10D0E25
:1030A80019EC2DF0000192191FE10E0E19EC2DF00C
:1030B8000001931919E10F0E19EC2DF00001941974
:1030C80013E1558E11D0556A0FD090390F0BBB6F95
:1030D800BC6BBC51F8E1BB518EE0010AA6E0030AC3
:1030E800BEE0010AD6E0EFD75550F00BF00AD8B48D
:1030F80069EC2AF01200755120EE90F0DF621200A0
:10310800C96B91C0C8F092C0CBF0D76B4AD0C851F8
:10311800D725EFEC2CF00001BB6F070E086ED751D6
:10312800E5EC2BF00001BC6FBC519F0FD96EDA6A39
:10313800BBC0DFFF070E086ED751E5EC2BF0060A7F
:103148000BE0FF0E0001CB25BB6FBC6BFF0EBC2351
:10315800D751BB19BC1124E1070E086E0001D751E5
:10316800E5EC2BF0060A03E1070E000109D0070E73
:10317800086E0001D751E5EC2BF00001BB6FBB29AD
:10318800CA6FCA51810F986F070E996F9A6B9B6B24
:103198001A0E9C6FC9C09EF046EC2BF00001C92B9B
:1031A800D72BCB51D75DD8B01200B1D7755120EECF
:1031B80090F0DF62120091C0CCF08A51FE0F070B2D
:1031C800CD6FD26B18D0D251920FD96EDA6ADF5018
:1031D8004B6ECC51D22555EC2CF00001CC51D225A8
:1031E800EFEC2CF00001BB6FD2519F0FD96EDA6A59
:1031F800BBC0DFFFD22BCD51D25DE5E3070E996F3F
:103208009A6B9B6B1A0E9C6F9E6BCD51810F986FBA
:1032180046EF2BF0755120EE90F0DF6212009151CD
:10322800C9EC1EF00001BB6FBB29446E915156ECEE
:1032380014F089D6755120EE90F0DF62120091519A
:10324800C9EC1EF00001BB6FBB05446E915156ECF2
:1032580014F079D69051751903E09029D8A412007A
:10326800D16B030E996F880E986F9A6B9B6B200E2B
:103278009C6FD66BD6C09EF0010ED86FD8519E0FAA
:10328800D96EDA6AD1510F0819EC2DF0DF6E000102
:10329800D12B100ED16501D004D0D82B070ED865DC
:1032A800EDD7100ED16501D007D046EC2BF0000108
:1032B800D62B020ED665DED7D86BD851BBEC2CF0D6
:1032C800000908E0D851A10FD96EDA6AD851BBECD1
:1032D8002CF005D0D851A10FD96EDA6A000EDF6E36
:1032E800D82B040ED865E9D746EC2BF0050E000163
:1032F800D16F030ED66FD6C09EF0010ED86FD8518D
:103308009E0FD96EDA6AD151BBEC2CF0DF6ED12B4F
:10331800D82B070ED865F3D746EC2BF00001D62B37
:10332800060ED665E8D7060C755120EE90F0DF62E0
:103338001200030E996F870E986F9A6B9B6B220E83
:103348009C6F9E0E0CEC2AF046EF2BF0755120EE88
:1033580090F0DF621200D36B8AC0BBF00F0EBB1770
:10336800040EBB5D12E394C0D4F0D56BD551D411D3
:1033780003E1010ED56FD46B010ED45D010ED55952
:1033880007E3010ED56F000E02D0D56B010ED46F86
:103398004CC0C2F04DC0C3F0925191C0BBF0BC6BA1
:1033A800BBC0BCF0BB6BBB114C6EBC514D6E070E65
:1033B800996F9A6B9B6B270E9C6F9E6B91C09FF0C9
:1033C80092C0A0F0D351D45DBB6F000ED559BC6F2D
:1033D800040EBB5D000EBC5902E3040E02D0D351AB
:1033E800D45DCE6FCE51840F986F9351D325A16FC2
:1033F800CF6B0ED09351D325CF25EFEC2CF00001E5
:10340800BB6FCF51A20FD96EDA6ABBC0DFFFCF2BDB
:10341800CE51CF5DEFE34EC0C4F04FC0C5F046ECCF
:103428002BF0020E0001C425BB6F000EC521BC6F36
:10343800BB514E5CBC514F58F4E3CE51D3279E2B61
:10344800D351BB6FBC6BD451BB5DD551BC59BAE3EA
:10345800C2C04CF0C3C04DF01200755120EE90F080
:10346800DF6212004CC0C6F04DC0C7F0925191C047
:10347800BBF0BC6BBBC0BCF0BB6BBB114C6EBC5192
:103488004D6E93C0D0F014D093519408D025D96EC6
:10349800DA6ADF504B6ED05155EC2CF00001BB6F4F
:1034A8009351A208D025D96EDA6ABBC0DFFFD02BB2
:1034B8008A510F0BBB6FBC6B9351BB27000EBC230B
:1034C800FC0EBB25BD6FFF0EBC21BE6FD051BF6F78
:1034D800C06BC051800AC16FBD51BF5DBE51800A2B
:1034E800C159D2E3C6C04CF0C7C04DF0070E996F62
:1034F8008A510F0B800F986F9A6B9B6B270E9C6FEE
:103508009E6B91C09FF092C0A0F093C0A1F046EFCF
:103518002BF08E51010A01E1FFD4030A01E1FDD429
:10352800040A01E1FCD40E0A01E1FBD4010A01E11D
:10353800FAD4020A01E119D5070A01E12FD51B0ABD
:1035480001E1C3D50F0A01E1D6D5010A01E12ED662
:10355800040A01E15FD6030A01E16CD6010A01E120
:1035680079D63E0A01E1E0D6040A01E1EFD6030A62
:10357800D8A4120072D736683768386839683A6A4A
:103588003B6A3C6A3D6A436A4350126E136AD8909C
:1035980012361336D89012361336D89012361336A0
:1035A800450E12240E6E000E13200F6EE3EC2CF065
:1035B800146E14AEE8D14350126E136AD8901236C6
:1035C8001336D89012361336D89012361336480E62
:1035D80012240E6E000E13200F6EE3EC2CF0146E06
:1035E80014C015F0166A176A186A17C018F016C0C2
:1035F80017F015C016F0156A4350196E1A6AD8905C
:1036080019361A36D89019361A36D89019361A3605
:10361800460E19240E6E000E1A200F6EE3EC2CF0E5
:103628001B6E1BC01CF01D6A1E6A1F6A1DC01FF09E
:103638001CC01EF01D6A1C6A4350206E216AD89077
:1036480020362136D89020362136D890203621369B
:10365800450E20240E6E000E21200F6EE3EC2CF098
:10366800226E020E221622C023F0246A256A266AD8
:10367800170ED8902336243625362636E82EF9D765
:103688001C502310276E1D502410286E1E50251024
:10369800296E1F5026102A6E155027102B6E1650B3
:1036A80028102C6E175029102D6E18502A102E6EC7
:1036B800FF0E2B10316E2C50326E2D50336E2E5063
:1036C800346E4350126E136AD89012361336D8905F
:1036D80012361336D89012361336490E12240E6E4F
:1036E800000E13200F6EE3EC2CF0146E14C015F0CE
:1036F800166A176A186A17C018F016C017F015C0AE
:1037080016F0156A4350196E1A6AD89019361A3687
:10371800D89019361A36D89019361A36470E192401
:103728000E6E000E1A200F6EE3EC2CF01B6E1BC001
:103738001CF01D6A1E6A1F6A1DC01FF01CC01EF007
:103748001D6A1C6A4350206E216AD89020362136A3
:10375800D89020362136D89020362136450E2024A0
:103768000E6E000E21200F6EE3EC2CF0226E010E7F
:10377800221622C023F0246A256A266A23C026F06E
:10378800256A246A236A1C502310276E1D502410B2
:10379800286E1E502510296E1F5026102A6E1550AF
:1037A80027102B6E165028102C6E175029102D6ECE
:1037B80018502A102E6E43502F6E306AD8902F362C
:1037C8003036D8902F363036D8902F363036440ED3
:1037D8002F240E6E000E30200F6EE3EC2CF02B1011
:1037E8003E6E2C503F6E2D50406E2E50416E4366FB
:1037F80008D03EC03AF03FC03BF040C03CF041C06A
:103808003DF0315036163250371633503816345092
:103818003916426A42503EC012F03FC013F040C011
:1038280014F041C015F0E82A05D0D89015321432AA
:1038380013321232E82EF9D7010E121642503AC04E
:1038480016F03BC017F03CC018F03DC019F0E82A4C
:1038580005D0D8901932183217321632E82EF9D717
:103868001650010B12181DE042C012F0010E136E23
:10387800146A122A03D0D89013361436122EFBD7A6
:10388800131C156E141C166E176A16BE17061750F1
:10389800186E155036161650371617503816185019
:1038A8003916422A1F0E4264B5D73E503A163F5089
:1038B8003B1640503C1641503D1643504FE0426A7B
:1038C80043C012F04350136E146AD890133614365E
:1038D800D89013361436D89013361436440E132461
:1038E8000E6E000E14200F6EE3EC2CF0156E122AEB
:1038F80002D0D8901532122EFCD7010E151643C0EF
:1039080016F035C017F0162A02D0D8901732162EA6
:10391800FCD71750010B15181DE043C012F0010E1B
:10392800136E146A122A03D0D89013361436122E46
:10393800FBD713C015F014C016F0000E16BEFF0E0C
:10394800176E186E1550361616503716175038164B
:1039580018503916422A070E4264B2D74350126EE5
:10396800136AD89012361336D89012361336D89078
:1039780012361336440E12240E6E000E13200F6EEC
:10398800E3EC2CF0356E432A030E4364FDD5800E1C
:10399800D7EC2CF00E010E0E096EFC0E086E36C028
:1039A8000AF037C00BF038C00CF039C00DF0010E2A
:1039B8000E6E7DEC25F00E0146830E0E096EE40EA8
:1039C800086E3AC00AF03BC00BF03CC00CF03DC09A
:1039D8000DF0010E0E6E7DEC25F0000ED7EF2CF0E9
:1039E8005150D8A460A563D0D60EF66EFE0EF76EC1
:1039F800000EF86E0900F5CF0EF00A00F5CF0FF0B3
:103A0800E3EC2CF0106E080E1026D40EF66EFE0EA7
:103A1800F76E000EF86E0900F5CF0EF00A00F5CF2C
:103A28000FF0E3EC2CF0116E100E1126D20EF66E8C
:103A3800FE0EF76E000EF86E0900F5CF0EF00A00C4
:103A4800F5CF0FF0E3EC2CF0126E180E1226D00E04
:103A5800F66EFE0EF76E000EF86E0900F5CF0EF04A
:103A68000A00F5CF0FF0E3EC2CF0136E146A122A5B
:103A780003D0D89013361436122EFBD7112A03D050
:103A8800D89013361436112EFBD7102A03D0D890AD
:103A980013361436102EFBD7000113C07AF014C069
:103AA8007BF0000E7BBFFF0E7C6F7D6F516A6E51FD
:103AB800D8A461A563D0DE0EF66EFE0EF76E000E7A
:103AC800F86E0900F5CF0EF00A00F5CF0FF0E3EC21
:103AD8002CF0106E080E1026DC0EF66EFE0EF76E39
:103AE800000EF86E0900F5CF0EF00A00F5CF0FF0C2
:103AF800E3EC2CF0116E100E1126DA0EF66EFE0EA7
:103B0800F76E000EF86E0900F5CF0EF00A00F5CF3B
:103B18000FF0E3EC2CF0126E180E1226D80EF66E8B
:103B2800FE0EF76E000EF86E0900F5CF0EF00A00D3
:103B3800F5CF0FF0E3EC2CF0136E146A122A03D0C1
:103B4800D89013361436122EFBD7112A03D0D890EA
:103B580013361436112EFBD7102A03D0D8901336FB
:103B68001436102EFBD7000113C07EF014C07FF06E
:103B7800000E7FBFFF0E806F816F6E6B8230E83260
:103B8800010B52187DE0000E82B4010E526E82B411
:103B980062AF76D062B106D0822B000E83238423D5
:103BA800852305D08207000E835B845B855B855186
:103BB800821183118411D8B462A562D0E60EF66E24
:103BC800FE0EF76E000EF86E0900F5CF0EF00A0033
:103BD800F5CF0FF0E3EC2CF0106E080E1026E40E73
:103BE800F66EFE0EF76E000EF86E0900F5CF0EF0B9
:103BF8000A00F5CF0FF0E3EC2CF0116E100E112631
:103C0800E20EF66EFE0EF76E000EF86E0900F5CFA6
:103C18000EF00A00F5CF0FF0E3EC2CF0126E180E40
:103C28001226E00EF66EFE0EF76E000EF86E090014
:103C3800F5CF0EF00A00F5CF0FF0E3EC2CF0136E81
:103C4800146A122A03D0D89013361436122EFBD7D2
:103C5800112A03D0D89013361436112EFBD7102A08
:103C680003D0D89013361436102EFBD7000113C09A
:103C780082F014C083F0000E83BFFF0E846F856F3F
:103C88008230E832E832010B5318D8B41200000E23
:103C980082B6010E536E82B663AF120063B106D0CE
:103CA800862B000E87238823892305D08607000EDC
:103CB800875B885B895B8951861187118811D8B425
:103CC80063A51200EE0EF66EFE0EF76E000EF86E8D
:103CD8000900F5CF0EF00A00F5CF0FF0E3EC2CF059
:103CE800106E080E1026EC0EF66EFE0EF76E000E25
:103CF800F86E0900F5CF0EF00A00F5CF0FF0E3ECEF
:103D08002CF0116E100E1126EA0EF66EFE0EF76EEE
:103D1800000EF86E0900F5CF0EF00A00F5CF0FF08F
:103D2800E3EC2CF0126E180E1226E80EF66EFE0E5C
:103D3800F76E000EF86E0900F5CF0EF00A00F5CF09
:103D48000FF0E3EC2CF0136E146A122A03D0D8900B
:103D580013361436122EFBD7112A03D0D8901336F7
:103D68001436112EFBD7102A03D0D89013361436E8
:103D7800102EFBD7000113C086F014C087F0000E88
:103D880087BFFF0E886F896F1200E8CF1FF01E6A89
:103D98004D504C1001E088D01F660FD06C0EF66EA7
:103DA800FE0EF76E000EF86E0900F5CF0EF00A0051
:103DB800F5CF0FF0E3EC2CF011D11F040FE16E0EDC
:103DC800F66EFE0EF76E000EF86E0900F5CF0EF0D7
:103DD8000A00F5CF0FF0E3EC2CF000D1010E1F64C0
:103DE8001AD00E0E1F6017D0D8901F34106E116AAB
:103DF80011366C0E1024F66EFE0E1120F76EF86A5E
:103E0800000EF8220900F5CF0EF00A00F5CF0FF0EA
:103E1800E3EC2CF0E3D00D0E1F6405D0120E1F60EA
:103E280002D01E6ADCD0110E1F640BD0160E1F6064
:103E380008D07A0E1A6E1F501A5CD96EDA6A150EFF
:103E480029D0150E1F640BD01A0E1F6008D07E0EE5
:103E58001B6E1F501B5CD96EDA6A190E1BD0190E27
:103E68001F640BD01E0E1F6008D0820E1C6E1F50E0
:103E78001C5CD96EDA6A1D0E0DD01D0E1F640DD0A4
:103E8800220E1F600AD0860E1D6E1F501D5CD96E53
:103E9800DA6A210ED926DA6A1AD0210E1F649FD059
:103EA800620E1F609CD0A0D74C044D106DE1040E2B
:103EB8001F600FD00101010E136E100E126E1F50FD
:103EC800125C106E000E1358116E030E3AD0DF50BC
:103ED80085D0030E1F6410D0080E1F600DD001019D
:103EE800010E156E140E146E1F50145C106E000E29
:103EF8001558116E070E25D0070E1F6410D00C0E32
:103F08001F600DD00101010E176E180E166E1F509E
:103F1800165C106E000E1758116E0B0E12D00B0E99
:103F28001F6415D0100E1F6012D00101010E196E0A
:103F38001C0E186E1F50185C106E000E1958116E6A
:103F48000F0E1024D96E000E1120DA6EC0D70F0E96
:103F58001F6445D0380E1F6042D0D8901F34106EB1
:103F6800116A1136300E1024F66EFF0E1120F76E0E
:103F7800F86A000EF8220900F5CF0EF00A00F5CF16
:103F88000FF0E3EC2CF02AD04C50020A4D1017E148
:103F9800200E1F6024D01F50020DA00EF324F66ED1
:103FA800FF0EF420F76EF86A000EF8220900F5CF2C
:103FB8000EF00A00F5CF0FF0E3EC2CF00FD04C50C8
:103FC800030A4D100CE1200E1F6009D0DA0E1F24E1
:103FD8000E6E0F6A000E0F22E3EC2CF01E6E1E50C0
:103FE8001200E8CF14F0506A7250C00B166E1666B5
:103FF80030D060AE12D0779071AE06D01150D96E25
:10400800DA6A000EDB86719E60A002D0508001D073
:1040180050900F0E196E600E1AD00F0130AF000CC1
:10402800779271AC06D01150D96EDA6A000EDB8631
:10403800719C3051070B506E020E506005D0115024
:10404800D96EDA6A000EDB8E0F0E196E300E186EFE
:104058005BD01650400A3EE160AE04D00F0E196ED8
:10406800600E36D00F0130AF04D00F0E196E300E2F
:104078002FD00E017DA580AF04D00E0E196E800ED4
:1040880027D00E017DA790AF04D00E0E196E900EAA
:104098001FD00E017DA9A0AF04D00E0E196EA00E80
:1040A80017D00E017DABB0AF04D00E0E196EB00E56
:1040B8000FD00E017DADC0AF04D00E0E196EC00E2C
:1040C80007D00E017DAFD0AF000C0E0E196ED00ECA
:1040D800186E0AD071AE000C6F50070B93EC29F0E4
:1040E80008C018F009C019F018C0D9FF19C0DAFFC4
:1040F800DF501F0B506E779271AC06D01150D96EFD
:10410800DA6A000EDB86719C18C012F019C013F031
:104118001150D96EDA6ADF6A20EE05F01850D926F8
:104128001950DA22DF50176E1050D96EDA6A17501C
:104138000F0BDF6E17AC05D01150D96EDA6A000E7E
:10414800DB8C20EE02F01850D9261950DA22DF5005
:10415800176E17A608D01150D96EDA6A000EDB8ADE
:10416800010E176E01D0176A1828086E000E192064
:10417800096E14C00AF017C00BF01BEC24F0060EF1
:104188001826000E19221050D96EDA6ADF50176E01
:10419800156A0DD018C0D9FF19C0DAFF0F50E16EAB
:1041A800E26ADFCFE7FF184A192A0F2A152A1750A3
:1041B800155CF0E377AE06D01150D96EDA6A000EBE
:1041C800DB88779E12C0D9FF13C0DAFF7F0EDF1697
:1041D8001650800AD8B4719E010C8D518C11D8B438
:1041E80012001A6A1A50106E116AD89010361136D9
:1041F800D89010361136D89010361136DA0E1024B1
:104208000E6E000E11200F6EE3EC2CF0196E19AE35
:10421800CCD019AC18D01A50106E116AD89010363C
:104228001136D89010361136D89010361136DA0E6D
:1042380010240E6E000E11200F6EE3EC2CF000011E
:104248008F1901E0B2D019A815D00001912912E008
:104258006C0EF66EFE0EF76E000EF86E0900F5CFC6
:104268000EF00A00F5CF0FF0E3EC2CF000019119E5
:1042780001E09BD019A615D00001922912E06E0E1C
:10428800F66EFE0EF76E000EF86E0900F5CF0EF012
:104298000A00F5CF0FF0E3EC2CF00001921901E0D1
:1042A80084D01A50080DDD0EF3240E6E000EF42093
:1042B8000F6EE3EC2CF0106E1950010B126E116AA0
:1042C80010501124136E000E1220146E1A50080D8F
:1042D800DC0EF3240E6E000EF4200F6EE3EC2CF0CF
:1042E800106E1950020B116E126A070ED890113613
:1042F8001236E82EFBD710501124156E000E12202E
:10430800166E1A50106E116AD89010361136D89061
:1043180010361136D89010361136DF0E10240E6E76
:10432800000E11200F6EE3EC2CF0176E1A50106E71
:10433800116AD89010361136D89010361136D890A8
:1043480010361136DE0E10240E6E000E11200F6E80
:10435800E3EC2CF0186E000120EE8CF0DECF10F0AC
:10436800DDCF11F01350101A1450111A15501016F1
:10437800165011161150101018E18E5117181814F4
:1043880014E11A50106E116AD89010361136D89070
:1043980010361136D89010361136E00E10240E6EF5
:1043A800000E11200F6EE3EC2CF01A2A030E1A648B
:1043B80019D7030CE8CF21F0206A2150800A04E1C4
:1043C80054C020F0546ACCD02150810A02E1010E79
:1043D80082D02150820A02E1060E7DD02150830A44
:1043E80003E172C020F0BCD02150940A03E154ECE0
:1043F8002DF071D02150950A03E153EC2DF06BD0CC
:104408002150960A03E152EC2DF065D0890E216007
:1044180005D021507C0F0FEC2DF05DD0880E216463
:1044280008D0910E216005D02150770F05EC2DF0B2
:1044380052D02150910A03E175C020F091D021504B
:10444800930A03E14CC020F08BD02150920A02E17C
:104458004D5041D02150970A03E151EC2DF03BD04B
:104468002150980A03E150EC2DF035D02150990ADB
:1044780003E14FEC2DF02FD0990E21642ED09E0E23
:1044880021602BD03AEC2DF00BC019F00AC018F0BF
:1044980009C017F008C016F02150660F1E6E1E5096
:1044A8000308116ED8901136D8901136D89011366D
:1044B800115016C012F017C013F018C014F019C02C
:1044C80015F0E82A05D0D89015321432133212327A
:1044D800E82EF9D730D0206E43D09D0E21642DD020
:1044E800A20E21602AD035EC2DF00BC01DF00AC0B9
:1044F8001CF009C01BF008C01AF02150620F1F6E93
:104508001F500308116ED8901136D8901136D890E4
:10451800113611501AC012F01BC013F01CC014F051
:104528001DC015F0E82A05D0D89015321432133280
:104538001232E82EF9D71250CED7CF0E216408D008
:10454800E00E216005D02150300F19EC2DF0C3D7B3
:10455800DF0E216405D02150200FBBEC2CF0BBD717
:1045680020501200B5EC2AF00FEC2BF0B2EC26F03C
:10457800780EF66EFE0EF76E000EF86E0900F5CF97
:104588000EF00A00F5CF0FF0E3EC2CF00001606F9D
:104598007A0EF66EFE0EF76E000EF86E0900F5CF75
:1045A8000EF00A00F5CF0FF0E3EC2CF00001616F7C
:1045B8007C0EF66EFE0EF76E000EF86E0900F5CF53
:1045C8000EF00A00F5CF0FF0E3EC2CF00001626F5B
:1045D8007E0EF66EFE0EF76E000EF86E0900F5CF31
:1045E8000EF00A00F5CF0FF0E3EC2CF00001636F3A
:1045F80069EC2AF0BFEC1AF00400C50E00016C5DEE
:10460800090E6D590EE376050CE0756948EC2DF03E
:10461800096A010E086EFF0E0A68F2EC2AF069ECCE
:104628002AF08A6BA5EC2BF01DD0752903E1010E49
:10463800766F24D0030E766F73EC2CF01FD050ECFD
:1046480028F01CD08AAF1AD08D518C1103E18BEC65
:1046580017F014D0F1EC20F011D04BEC2DF00ED067
:10466800766B0CD000017651E0E0010AE8E0030A1D
:10467800E3E0010AE7E0070AF0E0F2D7E90E0001FB
:10468800645D030E6559000E6659000E67590BE309
:10469800646B656B666B676B40EC2AF07651030AB6
:1046A800D8B461EC04F03B0E000171650BD0716B5E
:1046B800702B3B0E706502D0706B6F2B170E6F65F9
:1046C80001D06F6BF4EC1CF097D70F0E1C6E200E08
:1046D8001B6E0F0E1E6E100E1D6E0F0E206E1F6AC3
:1046E8000E010E0E226E800E216E0E0E246E900E9E
:1046F800236E0E0E266EA00E256E0E0E286EB00EC0
:10470800276E0E0E2A6EC00E296E0E0E2C6ED00E5F
:104718002B6E7250C00B2D6E2D6602D0020E01D08A
:10472800080E2E6ED8907D31306E346A7CD03450AD
:10473800020DF3501B0FD96EDA6ADECF35F0DDCFEC
:1047480036F035C031F036C032F0020E346404D091
:10475800D890303230A066D035C0D9FF36C0DAFFE5
:10476800DF501A6E1AB65ED035C0D9FF36C0DAFFF0
:10477800FC0EDF1619C01AF0030E1A1635C0D9FF41
:1047880036C0DAFF1A50DF1219AC04D018504009AD
:10479800336E02D018C033F020EE05F03550D9261C
:1047A8003650DA2233C0DFFF19AA03D0010E336E68
:1047B80001D0336A3528086E000E3620096E12C003
:1047C8000AF013C00BF014C00CF015C00DF033C084
:1047D8000EF07DEC25F0060E3526000E36222F6AE7
:1047E8000FD016C0D9FF17C0DAFF35C0E1FF36C0B9
:1047F800E2FFDFCFE7FF164A172A354A362A2F2A63
:1048080018502F5CEEE331C0D9FF32C0DAFFDF5019
:104818001A6E1AB4010C31C0D9FF32C0DAFF000E8B
:10482800DB86010C342A2E50345C81E3000C0AC06C
:104838000EF00B6646D00E50D96EDA6A08C0E1FF5A
:1048480009C0E2FFE7500C6ED8900C36D8900C36B1
:10485800D8900C34DF6E0E50D96EDA6AD92ADA6A2B
:1048680008C0E1FF09C0E2FFE7500C6E050E0D6EAF
:10487800D8900C320D2EFCD70C50DF6E084A092A4E
:1048880008C0D9FF09C0DAFFDF500C6E050E0D6EA7
:10489800D8900C320D2EFCD70E50D96EDA6A0C5017
:1048A800DF120E50D96EDA6A020ED926DA6ADF6A8A
:1048B8000E50D96EDA6A030ED926DA6A000EDF6E58
:1048C800000C0E50D96EDA6A020ED926DA6A08C0D0
:1048D800E1FF09C0E2FFE7500C6E050E0D6ED8909F
:1048E8000C360D2EFCD70C50DF6E0E50D96EDA6ADE
:1048F800030ED926DA6A08C0E1FF09C0E2FFE750D3
:104908000C6ED8900C32D8900C32D8900C30DF6EE8
:10491800084A092A08C0D9FF09C0DAFFDF500C6E1F
:10492800030E0C160E50D96EDA6A020ED926DA6A10
:104938000C50DF1208C0D9FF09C0DAFFDF500C6E37
:10494800D8900C32D8900C32D8900C321C0E0C1621
:104958000E50D96EDA6A020ED926DA6A0C50DF12C6
:10496800084A092A08C0D9FF09C0DAFF0E50E16ECB
:10497800E26AE12AE26ADFCFE7FF084A092A08C0AB
:10498800D9FF09C0DAFF0E50E16EE26ADFCFE7FF18
:10499800120027342834306E2B342C342F6E3050CC
:1049A80009E02F5030600FD030502F5C2D6E210E53
:1049B8002D5C09E329C025F02AC026F02BC027F07A
:1049C8002CC028F012002F5009E030502F600FD073
:1049D8002F50305C2D6E210E2D5C09E325C025F08B
:1049E80026C026F027C027F028C028F01200060E9F
:1049F8002E6E28BE2E8E2CBE2E8C278E286A2B8ECD
:104A08002C6A2F50306018D0D89029362A362B3689
:104A18002C362F062F5030180BE02E062E50070B81
:104A280007E0F2D7D8902832273226322532302AAA
:104A38002F503062F7D71AD030502F6017D0D89047
:104A4800253626362736283630062F5030180BE004
:104A58002E062E50070B07E0F2D7D8902C322B32B7
:104A68002A3229322F2A2F503062F7D72EAE09D09A
:104A7800251E261E271E281E252A000E262227222E
:104A880028222EAC09D0291E2A1E2B1E2C1E292AAC
:104A9800000E2A222B222C222E6A25502926265047
:104AA8002A2227502B2228502C222CAE0BD0291E2C
:104AB8002A1E2B1E2C1E292A000E2A222B222C22CB
:104AC800010E2E6E29C008F02AC009F02BC00AF08A
:104AD8002CC00BF030C00CF02EC00DF090EC27F07D
:104AE8000BC028F00AC027F009C026F008C025F03E
:104AF80012000A0E116E0E6637D01150D96EDA6A9E
:104B0800DF500F6ED8900F32D8900F32D8900F30F8
:104B180008C0D9FF09C0DAFFDF6E1150D96EDA6A12
:104B2800D92ADA6ADF500F6E050E106ED8900F364C
:104B3800102EFCD708C0D9FF09C0DAFF0F50DF12CA
:104B4800084A092A1150D96EDA6ADF500F6E050E2D
:104B5800106ED8900F36102EFCD70F5008C0D9FF12
:104B680009C0DAFFDF6E12001150D96EDA6A020E40
:104B7800D926DA6ADF500F6E050E106ED8900F3204
:104B8800102EFCD70F5008C0D9FF09C0DAFFDF6E1E
:104B98001150D96EDA6A030ED926DA6ADF500F6E21
:104BA800D8900F36D8900F36D8900F3608C0D9FF56
:104BB80009C0DAFF0F50DF12084A092A1150D96ECE
:104BC800DA6A020ED926DA6ADF500F6ED8900F36ED
:104BD800D8900F36D8900F34E00B08C0D9FF09C021
:104BE800DAFFDF6E08C0D9FF09C0DAFF000EDB86E6
:104BF8001150D96EDA6A020ED926DA6ADF500F6EC2
:104C0800030E0F1608C0D9FF09C0DAFF0F50DF12D4
:104C1800084A092A1150D96EDA6AD92ADA6A08C00C
:104C2800E1FF09C0E2FFDFCFE7FF084A092A115078
:104C3800D96EDA6A08C0E1FF09C0E2FFDFCFE7FFFB
:104C48001200E8CFABF04A1CAA6FAB51830A02E10D
:104C5800726B81D0830EAB6510D0890EAB610DD01D
:104C68004AC00CF0AB517C0FADEC2CF00001AB51FD
:104C78007C0F0FEC2DF000013BD0AB51920A0DE1F7
:104C88004A50A76FA66B4C50A86FA96BA6114C6E23
:104C9800A751A9114D6E4D502BD0AB51930A0BE182
:104CA800A66B4D50A76F4A50A6114C6EA7514D6E7A
:104CB8004CC0AAF051D0880EAB651CD0910EAB61E8
:104CC80019D04DC0A6F0A6C0A7F0A86BA72902E18D
:104CD8004C2802E04A1C0CD04AC00CF0AB51770FAC
:104CE8001FEC2CF00001AB51770F05EC2DF0C3D76A
:104CF800AA6F32D0CF0EAB6518D0E00EAB6115D0DD
:104D08004DC0A6F0A6C0A7F0A86BA729E3E14C28E0
:104D1800E1E14AC00CF0AB51300F31EC2CF000014E
:104D2800AB51300F19EC2DF0A6D7AB51A20AD2E146
:104D38004A50550A04E16A6B6B6B550ED9D74A5035
:104D4800AA0A0AE1E80E6A5D030E6B5904E244EC14
:104D58002DF0AA0E90D7AA6BAA5112000001646B1D
:104D6800656B666B676B716B706B6F6B526A536ABE
:104D7800106A1050040DF3507A0FD96EDA6ADE6AA1
:104D8800DE6ADE6ADD6A1050040D100EF324D96E57
:104D9800010EF420DA6EDE6ADE6ADE6ADD6ADD5252
:104DA800DD52102A030E1064E4D7516A00016E6BBD
:104DB8000101010E096E200E086E0B6A0A6A0D6A5F
:104DC800040E0C6E8FEC2BF00101010E096E280EFB
:104DD800086E0B6A0A6A0D6A040E0C6E8FEC2BF0D3
:104DE8000101010E096E240E086E0B6A0A6A0D6A2B
:104DF800040E0C6E8FEC2BF00101010E096E2C0EC7
:104E0800086E0B6A0A6A0D6A040E0C6E8FEC2BF0A2
:104E18000101010E096E300E086E0B6A0A6A0D6AEE
:104E2800040E0C6E8FEC2BF00101010E096E340E8E
:104E3800086E0B6A0A6A0D6A040E0C6E8FEF2BF06F
:104E4800183419341E6E1E6605D0166A176A186A59
:104E5800196A12001C341D34246E246605D0166AA3
:104E6800176A186A196A120024507B0F1E2619C087
:104E780024F01D50241A800E2416188E1C8E000E45
:104E88001D161F6A206A216A226A070E236E16A061
:104E980008D01A501F261B5020221C5021221D50BA
:104EA8002222D8901932183217321632D8901A3670
:104EB8001B361C361D36232EEAD7110E236E16A07C
:104EC80008D01A501F261B5020221C5021221D508A
:104ED8002222D8901932183217321632D89022323C
:104EE800213220321F32232EEAD71FC008F020C0FB
:104EF80009F021C00AF022C00BF01EC00CF024C03B
:104F08000DF090EC27F00BC019F00AC018F009C09A
:104F180017F008C016F012000C5005E00B500810EE
:104F280009100A100BE1086A096A0A6A0B6A12007A
:104F38000C2AD8900B320A32093208320E6A0F6AEC
:104F4800106AFE0E0B14116E11500E100F10101077
:104F58000CE0EED70C2A082A000E09220A220B229E
:104F6800D8900B320A32093208320E6A0F6A106A78
:104F78000B50116E11500E100F10101007E0EAD7E9
:104F88000C06D890083609360A360B360AAEF8D71A
:104F98000CB002D07F0E0A16D8900C320CC00EF05E
:104FA8000F6A106A116A0EC011F0106A0F6A0E6A51
:104FB8000E5008120F50091210500A1211500B12FD
:104FC8000D50D8A40B8E08C008F009C009F00AC01B
:104FD8000AF00BC00BF01200F2A201D001D02CD0C5
:104FE800000160AF01D001D025D060B101D001D05F
:104FF80013D0010E7A27000E7B23000E7C23000EAF
:105008007D237D517A117B117C11D8A401D001D068
:1050180011D0010E516E0ED07A07000E7B5B7C5BBF
:105028007D5B7D517A117B117C11D8A401D001D010
:1050380001D0EFD7F2922FD0F0A001D001D02BD021
:10504800000161AF01D001D025D061B101D001D0FC
:1050580013D0010E7E27000E7F23000E8023000E42
:10506800812381517E117F118011D8A401D001D0F4
:1050780011D0010E6E6F0ED07E07000E7F5B805B35
:10508800815B81517E117F118011D8A401D001D09C
:1050980001D0EFD7F090110051D0572811E0810EC0
:1050A800986F996B9A6B9B6B020E9C6F57C09EF022
:1050B80046EC2BF0010E0001776F4E6A4F6A45D01F
:1050C800040E766F810E986F9E69070E996F9A6B22
:1050D8009B6B030E9C6F46EC2BF037D08AAF0FD03A
:1050E8008D518C1132E18E51030A2FE1576603D09E
:1050F800020E766FE2D7572A776B786B26D0E90EC7
:105108004E5C030E4F5821E3782B020E786514D0BD
:10511800576605D0572A776B4E6A4F6AEED757C045
:1051280075F0030E766F776B7551FAEC2CF0000171
:10513800786B73EC2CF009D0776B07D000017751AE
:10514800ACE0010ACBE0030AF7E100018A6B120028
:1051580041C0A6F00001A76BA86BA96BA8C0A9F075
:10516800A7C0A8F0A6C0A7F0A66B3F50AA6F4050F2
:10517800AB6FAC6BAD6BABC0ADF0AAC0ACF0AB6BBA
:10518800AA6B43C0AEF0AF6BB06BB16B1A0ED89080
:10519800AE37AF37B037B137E82EF9D7AA51AE11CD
:1051A800B26FAB51AF11B36FAC51B011B46FAD5119
:1051B800B111B56FA651B211B66FA751B311B76F40
:1051C800A851B411B86FA951B511B96F4250B611B1
:1051D800476EB751486EB851496EB9514A6E47C0CB
:1051E80037F048C038F049C039F04AC03AF044C0F6
:1051F8003BF045C03CF046C03DF090EC2AF0000979
:1052080001E1000C010C800ED7EC2CF0090E0E0108
:10521800436FFC0E446F010E456F200E706E728E48
:10522800729C606A0F01306B0E01806B906BA06BF3
:10523800B06BC06BD06BE00E7D6FE06B080EE16F5A
:10524800E26BE36BE46BE80EE56F1A0EE66FE76B53
:10525800030E466F476B716B110E726F736F746B31
:10526800756B766B776B786B540E796F050E7A6F6A
:105278007B6B7B6B0F0EF86FE00EF96FFA6BFB6BB5
:10528800F9870F0EFC6FE00EFD6FFE69FF6BFD875F
:10529800000ED7EF2CF0E8CFC0F0C0C0BDF06C0E08
:1052A800F66EFE0EF76E000EF86E0900F5CF0EF0E2
:1052B8000A00F5CF0FF0E3EC2CF00001BE6FC0C080
:1052C800BAF0030EBA17D890BA35BB6FBC6BBC37AF
:1052D800040EBB27000EBC236C0EBB25F66EFE0E1B
:1052E800BC21F76EF86A000EF8220900F5CF0EF01F
:1052F8000A00F5CF0FF0E3EC2CF00001BF6F406A15
:10530800010E3F6E020E416E75C042F0436A030EF5
:10531800446E000E466EBD0E456EACEF28F0E8CF29
:105328000BF028D00F0E0D6E600E22D00F010F0E5D
:105338000D6E300E1DD00E010E0E0D6E800E18D0A3
:105348000E010E0E0D6E900E13D00E010E0E0D6E88
:10535800A00E0ED00E010E0E0D6EB00E09D00E016D
:105368000E0E0D6EC00E04D00E010E0E0D6ED00E78
:105378000C6E0FD00B50D6E0010AD8E0030ADBE030
:10538800010ADEE0070AE1E0010AE4E0030AE7E0D7
:10539800EBD70CC008F00DC009F01200E8CF27F0D9
:1053A80021C01AF022C01BF0280E0CEC2CF00009CA
:1053B80001E1000C1F50D96EDA6A28C0DFFF1E50C9
:1053C800D96EDA6A29C0DFFF2A50236E010E2B142A
:1053D800246E2750D96EDA6A23C0DEFF24C0DDFFB1
:1053E8002050D96EDA6A28C023F029C024F02AC0D8
:1053F80025F02BC026F01B0E05D0D890263225327A
:1054080024322332E82EF9D72350070BDF6E010C24
:10541800E8CF08F00850D96EDA6A040EDF6E08503B
:10542800D96EDA6AD92ADA6ADF6A0850D96EDA6A76
:10543800020ED926DA6ADF6A0850D96EDA6A030ED4
:10544800D926DA6A030EDF6E0850D96EDA6A040EBE
:10545800D926DA6ADF6A0850D96EDA6A050ED926C3
:10546800DA6A030EDF6E0850D96EDA6A060ED9269C
:10547800DA6A000EDF6E000C792B3B0E79650DD0D1
:10548800796B742B7651030A08E191EC2CF000013A
:10549800BA6F9FEC2CF0F9EC2BF03B0E0001746511
:1054A80002D0746B732B170E736501D0736B765132
:1054B800030AD8A41200552A55C0BCF00F0EBC1719
:1054C800020EBC5DD8B0556A1200010E566E3FEC54
:1054D8002DF00001756F756701D07569752902E1B6
:1054E800020E566E8A6B8B6B8C6B8D6B8E6B986B0A
:1054F800996B9A6B9B6B9C6B726B546A576A766B51
:10550800776B786B4C6A4D6A4E6A4F6A6A6B6B6B45
:10551800796B746B736B12003E6A686B696B17D09A
:1055280037C012F038C013F039C014F03AC015F083
:105538003CC016F03DC017F03BC018F0200E196EA5
:1055480069EC23F0000903E0010E3E6E06D0E80E78
:105558000001685D030E6959E3E30001986B3E5052
:1055680012000F0EC16E100E926E806A0B0E936EB3
:10557800816A0D0E946E826A920E82EC2CF0FB0EFC
:10558800096E1D0E086E23EC2DF007EC29F0F1943E
:10559800D08EF18CF288F18AF086F28CF28EF28C41
:1055A800120008500A02F3CF0CF0F4CF0DF00850A7
:1055B8000B02F3CFF4FFF36AF3500C26F4500D22DC
:1055C80009500A02F3CFF4FFF36AF3500C26F450A3
:1055D8000D220CC008F00DC009F012000950030B91
:1055E800756E08C074FF0AC073FF7F9E7F9C7F841E
:1055F800000EF2BE010E0B6EF29E550E7E6EAA0EC6
:105608007E6E7F827FB2FED70BB002D0F29E01D0B1
:10561800F28E7F941200000EC9EC2CF0550A06E1B8
:10562800010EC9EC2CF0AA0AD8B41200020E566E6C
:105638004DEC2DF0FF0EFAEC2CF0550E0C6E000E12
:1056480043EC2CF0AA0E0C6E010E43EF2CF08A519D
:105658000F0B020AD8A41200755120EE90F0DF62F9
:10566800120091C075F07551FAEC2CF0810E000112
:10567800986F996B9A6B9B6B070E9C6F75C09EF029
:1056880046EF2BF09AC03FF09BC040F09CC041F021
:1056980075C042F099C043F098510F0B446E000E4C
:1056A800466E9E0E456EACEC28F04B6E4B6602D0F3
:1056B8000001722B4B5012008A510F0B106E1050C4
:1056C800D8B41200755120EE90F0DF621200100479
:1056D80005E0010E1064010C9167010C7569FF0E5D
:1056E800FAEC2CF069EF2AF012C008F013C009F0A8
:1056F80014C00AF015C00BF0960E0C6E000E0D6A61
:1057080090EC27F00BC015F00AC014F009C013F094
:1057180008C012F0120008C00EF009C00FF008D03F
:105728000EC0D9FF0FC0DAFF0AC0DFFF0E4A0F2AEA
:105738000C06D8A00D060C28D8B40D28D8B4120031
:10574800EFD78ABF12008E0E1E6E8F0E1F6E8B0E45
:10575800206E8A0E216E900E226E8C0ED2EC29F0ED
:105768002C6E2C50D8B4120000018A8F120001EE62
:1057780000F0380EEE6AE806FDE100EE60F0460E35
:10578800EE6AE806FDE100EE4CF00D0EEE6AE80662
:10579800FDE10001B6EF22F08AC0BAF00F0EBA1789
:1057A800BA05D8A41200755120EE90F0DF621200FD
:1057B800800E986F996B9A6B9B6B030E9C6F46EFEC
:1057C8002BF0E8CF09F0080E0A6E0B6AD89009345E
:1057D8000B340B6ED890093608500B5C02E3085066
:1057E8000B5E0A2EF3D70B501200E8CFBBF0830EE6
:1057F8000001986F070E996F9B6B140E9A6F090E34
:105808009C6F9E6BBBC09FF0BAC0A0F046EF2BF018
:10581800E8CF1CF08ABF000C1BC00FF01AC010F0B4
:105828001D0E116E1C50F5EC1FF00009F4E01DACC4
:105838001DAA000C010CE8CF0DF0070E0D6401D075
:10584800070C48EC2DF00C0E0D24086E096A000EAA
:1058580009220CC00AF0F2EF2AF0E8CF0DF00F0E83
:105868000D6401D00F0C48EC2DF0140E0D24086EB9
:10587800096A000E09220CC00AF0F2EF2AF0E8CFFC
:105888000DF0010E0C6401D0010C48EC2DF0030E54
:105898000C24086E096A000E09220DC00AF0F2EF06
:1058A8002AF0E8CFAEF07F0EAE6505D04BC04AF0C7
:1058B800AE5125EF26F04BC044F0AE5156EF14F030
:1058C800E8CF0CF00C04D8A4120048EC2DF0096ABB
:1058D800086AFF0E0A68F2EC2AF0FF001200810E37
:1058E8000001986F996B9A6B9B6B020E9C6F75C049
:1058F8009EF046EC2BF0010E566E010CE8CF08F036
:1059080008507F0BD56ED76AD66AF29408AE02D0DB
:10591800F28A01D0F29AD58E12006E0EF66EFE0E45
:10592800F76E000EF86E0900F5CF0EF00A00F5CFFD
:105938000FF0E3EF2CF06C0EF66EFE0EF76E000E15
:10594800F86E0900F5CF0EF00A00F5CF0FF0E3EF7F
:105958002CF0E8CF0DF048EC2DF0070E0D24086E62
:10596800096A000E09220CC00AF0F2EF2AF0E8CF0B
:1059780008F0E00E0824F66EF76AFF0EF722F86AC0
:10598800000EF8220800F5501200E8CF10F0010EC2
:10599800106401D0000C030E10240E6E0F6A000E66
:1059A8000F22E3EF2CF0E8CF08F01F0E6F16085017
:1059B8006F126F50E00B0818D8B41200FAD70F50C6
:1059C800030B756E0EC074FF7F9C7F9E7F8000F076
:1059D80000F073501200E8CF22F07F0E226403D04B
:1059E8002250DEEF21F02250C9EF1EF0E8CF0CF074
:1059F80048EC2DF0096A010E086E0CC00AF0F2EFAF
:105A08002AF0E8CF10F00C0E10240E6E0F6A000E6C
:105A18000F22E3EF2CF0E8CF10F0070E10240E6EE3
:105A28000F6A000E0F22E3EF2CF0E8CF10F0140EEF
:105A380010240E6E0F6A000E0F22E3EF2CF008C040
:105A48000AF009C00BF00BC0D7FF0AC0D6FF12003E
:105A580001C003F002C004F004C0D7FF03C0D6FFA2
:105A68001200086A096A0A6A0B6A1200086A096A57
:105A78000A6A0B6A12000F6A010E0E6EE3EF2CF031
:105A880027EC10F0B2EF26F07FA21200FDD7566A7D
:105A9800120027EF10F0050C080C010C030C000C89
:045AA800010C1200DB
:10FE6C004400450046004700480049004A004B004A
:10FE7C004C004D004E004F0050005100FF00FF00A1
:10FE8C00FF00FF00FF00FF00FF00FF00FF00FF006E
:10FE9C00FF00FF00FF00FF00FF00FF00FF00FF005E
:10FEAC00FF00FF005200530054005500560057004D
:10FEBC00580059005A005B005C005D005E005F005A
:10FECC00600061006200630064006500660067000A
:10FEDC00680069006A006B006C006D006E006F00BA
:10FEEC00700071007200730074007500760077006A
:10FEFC00780079007A007B007C007D007E007F001A
:10FF0C0080008100820083008400850086008700C9
:10FF1C00880089008A008B008C008D008E008F0079
:10FF2C0090009100FF00FF00FF00FF00FF00FF00AA
:10FF3C00FF00FF00FF00FF00FF00FF00FF00FF00BD
:10FF4C00FF00FF009200930094009500960097002C
:10FF5C00980099009A009B009C009D009E009F00B9
:10FF6C00A000A100A200A300A400A500A600A70069
:10FF7C00A800A900AA00AB00AC00AD00AE00AF0019
:10FF8C00B000B100B200B300B400B500B600B700C9
:10FF9C00B800B900BA00BB00BC00BD00BE00BF0079
:10FFAC00C000C100C200C300C400C500C600C70029
:10FFBC00C800C900CA00CB00CC00CD00CE00CF00D9
:10FFCC00D000D100D200D300D400D500D600D70089
:10FFDC00D800D9007777772E6575726F736F75724D
:10FFEC0063652E73652F61636372615F312E786D6B
:04FFFC006C00000095
:020000040020DA
:08000000FFFFFFFFFFFFFFFF00
:020000040030CA
:0E00000015126F7EFF8991FF0FC00FE00F40B9
:00000001FF
