:040800005FEF04F0B2
:0408080001ED27F0E7
:10081800D8CF05F0E8CF06F0E0CF07F0F2A401D07A
:1008280001D042D0FB0E026E1D0E016E99EC2CF029
:100838004E4A4F2A00016A4B6B2B010E6427000EAB
:100848006523000E6623000E6723684B692B82A080
:1008580001D001D003D06C6B6D6B02D06C4B6D2B4B
:10086800582A5650020AD8A401D001D00ED0640EDE
:10087800586401D001D009D082A201D001D002D0A1
:10088800829201D08282586A0ED05604D8A401D030
:1008980001D003D08282586A06D0566601D001D0B2
:1008A80002D08292586AF29407C0E0FF06C0E8FFBF
:1008B80005C0D8FF1000E3EF2AF0440045004600C9
:1008C8004700480049004A004B004C004D004E00CC
:1008D8004F0050005100FF00FF00FF00FF00FF0025
:1008E800FF00FF00FF00FF00FF00FF00FF00FF0008
:1008F800FF00FF00FF00FF00FF00FF00FF005200A5
:1009080053005400550056005700580059005A002B
:100918005B005C005D005E005F00600061006200DB
:1009280063006400650066006700680069006A008B
:100938006B006C006D006E006F007000710072003B
:1009480073007400750076007700780079007A00EB
:100958007B007C007D007E007F008000810082009B
:1009680083008400850086008700880089008A004B
:100978008B008C008D008E008F0090009100FF008E
:10098800FF00FF00FF00FF00FF00FF00FF00FF0067
:10099800FF00FF00FF00FF00FF00FF00FF009200C4
:1009A80093009400950096009700980099009A008B
:1009B8009B009C009D009E009F00A000A100A2003B
:1009C800A300A400A500A600A700A800A900AA00EB
:1009D800AB00AC00AD00AE00AF00B000B100B2009B
:1009E800B300B400B500B600B700B800B900BA004B
:1009F800BB00BC00BD00BE00BF00C000C100C200FB
:100A0800C300C400C500C600C700C800C900CA00AA
:100A1800CB00CC00CD00CE00CF00D000D100D2005A
:100A2800D300D400D500D600D700D800D9007777F6
:100A3800772E6575726F736F757263652E73652F88
:100A480061636372615F312E786D6C000000010193
:100A58005D6B5E6B5DC1C1F05EC1C2F00001D890F4
:100A6800C137C237D890C137C237000EC125D96EF9
:100A7800010EC221DA6EDECFC3F0DECFC4F0DECFC6
:100A8800C5F0DECFC6F001015D51040DF350000141
:100A98007A0FD96EDA6ADECFC7F0DECFC8F0DECFC4
:100AA800C9F0DECFCAF0C351C75DCB6FC451C85976
:100AB800CC6FC551C959CD6FC651CA59CE6F5DC1EA
:100AC800CFF05EC1D0F0D890CF37D037D890CF379D
:100AD800D037100ECF25D96E010ED021DA6ECBC0DB
:100AE800DEFFCCC0DEFFCDC0DEFFCEC0DDFFD90605
:100AF800D90601015D51040DF3507A0FD96EDA6AF7
:100B08005DC1C1F05EC1C2F00001D890C137C237E3
:100B1800D890C137C237000EC125E16E010EC2213F
:100B2800E26EDECFE6FFDECFE6FFDECFE6FFDDCF0B
:100B3800E5FFE552E55201015D4B5E2B5E51800AEF
:100B4800800F040ED8B45D5D85E35D6B5E6B5D510F
:100B58000001600FD96EDA6ADF50C16FC1AFA0D152
:100B680001015D510001600FD96EDA6ADF50C16F73
:100B7800C1A34FD15DC1C1F05EC1C2F0D890C137E9
:100B8800C237D890C137C237D890C137C237480E5C
:100B9800C127000EC223C20EC125F66E080EC2215F
:100BA800F76E0900F5CF0EF00A00F5CF0FF090ECC4
:100BB8002CF00001C36FC3C0C4F0C56BC66BC76B14
:100BC800C6C0C7F0C5C0C6F0C4C0C5F0C46B5DC11F
:100BD800C8F05EC1C9F0D890C837C937D890C837AF
:100BE800C937D890C837C937460EC827000EC92359
:100BF800C20EC825F66E080EC921F76E0900F5CF9A
:100C08000EF00A00F5CF0FF090EC2CF00001CA6F3F
:100C1800CAC0CBF0CC6BCD6BCE6BCCC0CEF0CBC00A
:100C2800CDF0CC6BCB6B5DC1CFF05EC1D0F0D8906E
:100C3800CF37D037D890CF37D037D890CF37D037B5
:100C4800440ECF27000ED023C20ECF25F66E080E15
:100C5800D021F76E0900F5CF0EF00A00F5CF0FF09E
:100C680090EC2CF00001D16FD1C0D2F0D36BD46BD3
:100C7800D56BD2C0D5F0D46BD36BD26BCB51D22508
:100C8800D66FCC51D321D76FCD51D421D86FCE5147
:100C9800D521D96FC451D625DA6FC551D721DB6F5D
:100CA800C651D821DC6FC751D921DD6F5DC1DEF097
:100CB8005EC1DFF0D890DE37DF37D890DE37DF3718
:100CC800D890DE37DF374A0EDE27000EDF23C20E4C
:100CD800DE25F66E080EDF21F76E0900F5CF0EF05F
:100CE8000A00F5CF0FF090EC2CF00001DA25010195
:100CF800596F000E0001DB2101015A6F000E00013F
:100D0800DC2101015B6F000E0001DD2101015C6F38
:100D18005DC1C1F05EC1C2F00001D890C137C237D1
:100D2800D890C137C237D890C137C237860EC1278D
:100D3800000EC223C20EC125F66E080EC221F76E40
:100D48000900F5CF0EF00A00F5CF0FF090EC2CF06B
:100D58000001C36F5DC1C4F05EC1C5F0D890C4374F
:100D6800C537D890C437C537D890C437C537840E2F
:100D7800C427000EC523C20EC425F66E080EC52171
:100D8800F76E0900F5CF0EF00A00F5CF0FF090ECE2
:100D98002CF00001C76FC66BC351C6250101556F02
:100DA8000001000EC7210101566F5D51040DF3507B
:100DB80000017A0FD96EDA6ADECFC1F0DECFC2F059
:100DC800DECFC3F0DECFC4F0C1510101595D00018F
:100DD800C25101015A590001C35101015B59000177
:100DE800C45101015C5915E2200E5D25D96E010E32
:100DF8005E21DA6EDF500DE15D295412200E5D256B
:100E0800D96E010E5E21DA6E010EDF6E5D51C5EC02
:100E180028F00101200E5D25D96E010E5E21DA6EE3
:100E2800DF503EE055510001C16F010156510001EC
:100E3800C26FC36BC46BC1510101595D0001C56F1D
:100E4800C25101015A590001C66FC35101015B59D2
:100E58000001C76FC45101015C590001C86F01014D
:100E68005D51040DF35000017A0FD96EDA6ADECFB6
:100E7800C9F0DECFCAF0DECFCBF0DECFCCF0C55163
:100E8800C95DC651CA59C751CB59C851CC5908E296
:100E98000101200E5D25D96E010E5E21DA6EDF6A32
:100EA80001015D4B5E2B5E51800A800F040ED8B4A1
:100EB8005D5D01E24CD65D6B5E6BD8905D350001DF
:100EC800C16F01015E350001C26F140EC127000E0B
:100ED800C223C20EC125F66E080EC221F76E0900A4
:100EE800F5CF0EF00A00F5CF0FF090EC2CF00001D2
:100EF800C36FC3AFC3D10101280E5D25D96E010EA2
:100F08005E21DA6EDF5001E072D1D8905D350001C4
:100F1800C16F01015E350001C26F140EC127000EBA
:100F2800C223C20EC125F66E080EC221F76E090053
:100F3800F5CF0EF00A00F5CF0FF090EC2CF0000181
:100F4800C36FC3A154D15DC1C1F05EC1C2F0D890D6
:100F5800C137C237D890C137C237D890C137C237E6
:100F6800240EC127000EC223860EC125F66E090E77
:100F7800C221F76E0900F5CF0EF00A00F5CF0FF089
:100F880090EC2CF00001C36FC3C0C4F0C56BC66BF6
:100F9800C76BC6C0C7F0C5C0C6F0C4C0C5F0C46B37
:100FA8005DC1C8F05EC1C9F0D890C837C937D890BC
:100FB800C837C937D890C837C937220EC827000E96
:100FC800C923860EC825F66E090EC921F76E0900D9
:100FD800F5CF0EF00A00F5CF0FF090EC2CF00001E1
:100FE800CA6FCAC0CBF0CC6BCD6BCE6BCCC0CEF089
:100FF800CBC0CDF0CC6BCB6B5DC1CFF05EC1D0F078
:10100800D890CF37D037D890CF37D037D890CF3780
:10101800D037200ECF27000ED023860ECF25F66EB0
:10102800090ED021F76E0900F5CF0EF00A00F5CFB2
:101038000FF090EC2CF00001D16FD1C0D2F0D36B3F
:10104800D46BD56BD2C0D5F0D46BD36BD26BCB51EC
:10105800D225D66FCC51D321D76FCD51D421D86F9B
:10106800CE51D521D96FC451D625DA6FC551D721B4
:10107800DB6FC651D821DC6FC751D921DD6F5DC147
:10108800DEF05EC1DFF0D890DE37DF37D890DE378C
:10109800DF37D890DE37DF37260EDE27000EDF2356
:1010A800860EDE25F66E090EDF21F76E0900F5CFF4
:1010B8000EF00A00F5CF0FF090EC2CF00001DA25C5
:1010C8000101596F000E0001DB2101015A6F000E6A
:1010D8000001DC2101015B6F000E0001DD2101012F
:1010E8005C6F5DC1C1F05EC1C2F00001D890C1372C
:1010F800C237D890C137C237D890C137C237620ECD
:10110800C127000EC223860EC125F66E090EC22124
:10111800F76E0900F5CF0EF00A00F5CF0FF090EC4E
:101128002CF00001C36F5DC1C4F05EC1C5F0D8905A
:10113800C437C537D890C437C537D890C437C537F2
:10114800600EC427000EC523860EC425F66E090E50
:10115800C521F76E0900F5CF0EF00A00F5CF0FF0A4
:1011680090EC2CF00001C76FC66BC351C625010176
:10117800556F0001000EC7210101566F5DC1C1F016
:101188005EC1C2F00001D890C137C237D890C137CC
:10119800C237100EC125D96E010EC221DA6EDECF1C
:1011A800C3F0DECFC4F0DECFC5F0DECFC6F001015C
:1011B80059510001C35D01015A510001C45901018F
:1011C8005B510001C55901015C510001C6590FE28C
:1011D80001015D295412280E5D25D96E010E5E218C
:1011E800DA6E010EDF6E5D51030FC5EC28F00101C8
:1011F800280E5D25D96E010E5E21DA6EDF503EE0C5
:101208005DC1C1F05EC1C2F00001D890C137C237DC
:10121800D890C137C237100EC125D96E010EC22130
:10122800DA6EDECFC3F0DECFC4F0DECFC5F0DECF9E
:10123800C6F00101555159250001C76F01015651EA
:101248005A210001C86F000E01015B210001C96F1E
:10125800000E01015C210001CA6FC351C75DC45172
:10126800C859C551C959C651CA5908E20101280EC1
:101278005D25D96E010E5E21DA6EDF6A01015D4BD4
:101288005E2B5E51800A800F040ED8B45D5D01E2CA
:1012980014D65D6B5E6BD8905D350001C16F01019E
:1012A8005E350001C26F140EC127000EC223C20EA4
:1012B800C125F66E080EC221F76E0900F5CF0EF0B3
:1012C8000A00F5CF0FF090EC2CF00001C36FC3AF0C
:1012D800CAD10101240E5D25D96E010E5E21DA6E98
:1012E800DF5001E071D1D8905D350001C16F010177
:1012F8005E350001C26F140EC127000EC223C20E54
:10130800C125F66E080EC221F76E0900F5CF0EF062
:101318000A00F5CF0FF090EC2CF00001C36FC3A3C7
:1013280053D15DC1C1F05EC1C2F0D890C137C23798
:10133800D890C137C237D890C137C237440EC127B9
:10134800000EC223860EC125F66E090EC221F76E65
:101358000900F5CF0EF00A00F5CF0FF090EC2CF055
:101368000001C36FC3C0C4F0C56BC66BC76BC6C0F2
:10137800C7F0C5C0C6F0C4C0C5F0C46B5DC1C8F035
:101388005EC1C9F0D890C837C937D890C837C937AF
:10139800D890C837C937420EC827000EC923860E11
:1013A800C825F66E090EC921F76E0900F5CF0EF0B3
:1013B8000A00F5CF0FF090EC2CF00001CA6FCAC0FC
:1013C800CBF0CC6BCD6BCE6BCCC0CEF0CBC0CDF020
:1013D800CC6BCB6B5DC1CFF05EC1D0F0D890CF376E
:1013E800D037D890CF37D037D890CF37D037400EB6
:1013F800CF27000ED023860ECF25F66E090ED021FA
:10140800F76E0900F5CF0EF00A00F5CF0FF090EC5B
:101418002CF00001D16FD1C0D2F0D36BD46BD56B57
:10142800D2C0D5F0D46BD36BD26BCB51D225D66F4B
:10143800CC51D321D76FCD51D421D86FCE51D521DE
:10144800D96FC451D625DA6FC551D721DB6FC65184
:10145800D821DC6FC751D921DD6F5DC1DEF05EC1D7
:10146800DFF0D890DE37DF37D890DE37DF37D89017
:10147800DE37DF37460EDE27000EDF23860EDE2539
:10148800F66E090EDF21F76E0900F5CF0EF00A009F
:10149800F5CF0FF090EC2CF00001DA250101596F1F
:1014A800000E0001DB2101015A6F000E0001DC2152
:1014B80001015B6F000E0001DD2101015C6F5DC160
:1014C800C1F05EC1C2F00001D890C137C237D890D0
:1014D800C137C237D890C137C237620EC127000E54
:1014E800C223860EC125F66E090EC221F76E0900C9
:1014F800F5CF0EF00A00F5CF0FF090EC2CF00001BC
:10150800C36F5DC1C4F05EC1C5F0D890C437C5379C
:10151800D890C437C537D890C437C537600EC427AC
:10152800000EC523860EC425F66E090EC521F76E7A
:101538000900F5CF0EF00A00F5CF0FF090EC2CF073
:101548000001C76FC66BC351C6250101556F000165
:10155800000EC7210101566F5DC1C1F05EC1C2F026
:101568000001D890C137C237D890C137C237100EA2
:10157800C125D96E010EC221DA6EDECFC3F0DECFEF
:10158800C4F0DECFC5F0DECFC6F0C3510101595D0E
:101598000001C45101015A590001C55101015B59AB
:1015A8000001C65101015C590FE25D51100F541240
:1015B800240E5D25D96E010E5E21DA6E010EDF6EF6
:1015C8005D51060FC5EC28F00101240E5D25D96E8A
:1015D800010E5E21DA6EDF5046E055510001C16F01
:1015E800010156510001C26FC36BC46BC1510101A7
:1015F800595D0001C56FC25101015A590001C66FFA
:10160800C35101015B590001C76FC45101015C5905
:101618000001C86F5DC1C9F05EC1CAF0D890C93772
:10162800CA37D890C937CA37100EC925D96E010EE6
:10163800CA21DA6EDECFCBF0DECFCCF0DECFCDF034
:10164800DECFCEF0C551CB5DC651CC59C751CD596F
:10165800C851CE5908E20101240E5D25D96E010E4C
:101668005E21DA6EDF6A01015D4B5E2B5E51800AF6
:10167800800F040ED8B45D5D01E20DD65D6B5E6B24
:101688005D510001600FD96EDA6ADF50C16FC1AFDA
:10169800C0D0D89001015D350001C16F01015E35F0
:1016A8000001C26F940EC127000EC223C20EC125CD
:1016B800F66E080EC221F76E0900F5CF0EF00A008B
:1016C800F5CF0FF090EC2CF0000901E1A2D0010158
:1016D8002C0E5D25D96E010E5E21DA6EDF2AD890B8
:1016E8005D350001C16F01015E350001C26F940EC6
:1016F800C127000EC223C20EC125F66E080EC221F4
:10170800F76E0900F5CF0EF00A00F5CF0FF090EC58
:101718002CF00001C36F01012C0E5D25D96E010E5E
:101728005E21DA6EDF500001C35D73E201012C0E09
:101738005D25D96E010E5E21DA6EDF6A5D51600F9C
:10174800496F5D51040DF3507A0FD96EDA6ADF5094
:101758004D6F5D51040DF35000017A0FD96EDA6AAE
:10176800DECFC1F0DECFC2F0DECFC3F0DECFC4F0F3
:10177800C2C0C1F0C3C0C2F0C4C0C3F0C46BC15181
:1017880001014C6F5D51040DF35000017A0FD96EC1
:10179800DA6ADECFC1F0DECFC2F0DECFC3F0DECF33
:1017A800C4F0110E05D0D890C433C333C233C1334B
:1017B800E82EF9D7C15101014B6F5D51040DF3506B
:1017C80000017A0FD96EDA6ADECFC1F0DECFC2F03F
:1017D800DECFC3F0DECFC4F0190E05D0D890C433E5
:1017E800C333C233C133E82EF9D7C15101014A6F5F
:1017F800406A0A0E3F6E010E416E75C042F0030E3C
:10180800436E050E446E010E466E490E456E1EEC83
:1018180028F001015D4B5E2B5E51800A800F040E9B
:10182800D8B45D5D01E22CD75D6B5E6BD8905D35F9
:101838000001C16F01015E350001C26F140EC1279E
:10184800000EC223C20EC125F66E080EC221F76E25
:101858000900F5CF0EF00A00F5CF0FF090EC2CF050
:101868000001C36FC3AFEBD0D89001015D35000113
:10187800C16F01015E350001C26F9C0EC127000EC9
:10188800C223C20EC125F66E080EC221F76E0900EA
:10189800F5CF0EF00A00F5CF0FF090EC2CF0000910
:1018A80001E1CDD00101300E5D25D96E010E5E211A
:1018B800DA6EDF2AD8905D350001C16F01015E350F
:1018C8000001C26F9C0EC127000EC223C20EC125A3
:1018D800F66E080EC221F76E0900F5CF0EF00A0069
:1018E800F5CF0FF090EC2CF00001C36F0101300E22
:1018F8005D25D96E010E5E21DA6EDF500001C35DF1
:1019080001E39DD00101300E5D25D96E010E5E21E7
:10191800DA6EDF6A5D51600F496F5DC1C1F05EC16B
:10192800C2F00001D890C137C237D890C137C2374A
:10193800100EC125D96E010EC221DA6EDF500101E9
:101948004D6F5DC1C1F05EC1C2F00001D890C137D2
:10195800C237D890C137C237100EC125D96E010ED3
:10196800C221DA6EDECFC3F0DECFC4F0DECFC5F021
:10197800DECFC6F0C4C0C3F0C5C0C4F0C6C0C5F051
:10198800C66BC35101014C6F5DC1C1F05EC1C2F0AD
:101998000001D890C137C237D890C137C237100E6E
:1019A800C125D96E010EC221DA6EDECFC3F0DECFBB
:1019B800C4F0DECFC5F0DECFC6F0110E05D0D8904A
:1019C800C633C533C433C333E82EF9D7C351010135
:1019D8004B6F5DC1C1F05EC1C2F00001D890C13744
:1019E800C237D890C137C237100EC125D96E010E43
:1019F800C221DA6EDECFC3F0DECFC4F0DECFC5F091
:101A0800DECFC6F0190E05D0D890C633C533C4331F
:101A1800C333E82EF9D7C35101014A6F406A0A0E51
:101A28003F6E090E416E75C042F0030E436E050EFF
:101A3800446E010E466E490E456E1EEC28F00101FB
:101A48005D4B5E2B5E51800A800F040ED8B45D5D3D
:101A580001E2ECD65D6B5E6B5DC108F05EC109F01A
:101A68000B6A030E0A6E43EC2AF0D8900834000182
:101A7800C16F0934C26FAC0EC127000EC223C20E5B
:101A8800C125F66E080EC221F76E0900F5CF0EF0DB
:101A98000A00F5CF0FF090EC2CF00001C36FC3AF34
:101AA8000CD3D89001015D350001C16F01015E358D
:101AB8000001C26FA40EC127000EC223C20EC125A9
:101AC800F66E080EC221F76E0900F5CF0EF00A0077
:101AD800F5CF0FF090EC2CF0000901E1EED20101F6
:101AE800340E5D25D96E010E5E21DA6EDF2AD8909C
:101AF8005D350001C16F01015E350001C26FA40EA2
:101B0800C127000EC223C20EC125F66E080EC221DF
:101B1800F76E0900F5CF0EF00A00F5CF0FF090EC44
:101B28002CF00001C36F0101340E5D25D96E010E42
:101B38005E21DA6EDF500001C35D01E3BED2010110
:101B4800340E5D25D96E010E5E21DA6EDF6A5DC145
:101B5800C1F05EC1C2F00001D890C137C237D89039
:101B6800C137C237D890C137C237060EC127000E19
:101B7800C223F60EC125F66E090EC221F76E0900C2
:101B8800F5CF0EF00A00F5CF0FF090EC2CF0010124
:101B9800516F5DC1C1F05EC1C2F00001D890C1377C
:101BA800C237D890C137C237D890C137C237040E70
:101BB800C127000EC223F60EC125F66E090EC221FA
:101BC800F76E0900F5CF0EF00A00F5CF0FF090EC94
:101BD8002CF00101526F5DC1C1F05EC1C2F000017D
:101BE800D890C137C237D890C137C237D890C137DB
:101BF800C237020EC127000EC223F60EC125F66EAB
:101C0800090EC221F76E0900F5CF0EF00A00F5CFD4
:101C18000FF090EC2CF00101536F5DC1C1F05EC173
:101C2800C2F00001D890C137C237D890C137C23747
:101C3800D890C137C237F60EC125F66E090EC221FB
:101C4800F76E0900F5CF0EF00A00F5CF0FF090EC13
:101C58002CF00101546F51C13DF152C13EF153C105
:101C68003FF154C140F15DC1C1F05EC1C2F0000155
:101C7800D890C137C237D890C137C237D890C1374A
:101C8800C237260EC127000EC223F60EC125F66EF6
:101C9800090EC221F76E0900F5CF0EF00A00F5CF44
:101CA8000FF090EC2CF00101516F5DC1C1F05EC1E5
:101CB800C2F00001D890C137C237D890C137C237B7
:101CC800D890C137C237240EC127000EC223F60EA2
:101CD800C125F66E090EC221F76E0900F5CF0EF088
:101CE8000A00F5CF0FF090EC2CF00101526F5DC1A6
:101CF800C1F05EC1C2F00001D890C137C237D89098
:101D0800C137C237D890C137C237220EC127000E5B
:101D1800C223F60EC125F66E090EC221F76E090020
:101D2800F5CF0EF00A00F5CF0FF090EC2CF0010182
:101D3800536F5DC1C1F05EC1C2F00001D890C137D8
:101D4800C237D890C137C237D890C137C237200EB2
:101D5800C127000EC223F60EC125F66E090EC22158
:101D6800F76E0900F5CF0EF00A00F5CF0FF090ECF2
:101D78002CF00101546F51C141F152C142F153C1DC
:101D880043F154C144F15DC108F05EC109F00B6A2A
:101D9800030E0A6E43EC2AF0D89008340001C16F94
:101DA8000934C26FAC0EC127000EC223C20EC12572
:101DB800F66E080EC221F76E0900F5CF0EF00A0084
:101DC800F5CF0FF090EC2CF00001C36FC3A166D0E3
:101DD8005DC108F05EC109F00B6A030E0A6E43ECA0
:101DE8002AF0D89008340001C16F0934C26FAC0ED4
:101DF800C127000EC223C20EC125F66E080EC221ED
:101E0800F76E0900F5CF0EF00A00F5CF0FF090EC51
:101E18002CF0180BA00901015D25496F3DC11AF08E
:101E28003EC11BF03FC11CF040C11DF05DC1C1F0B7
:101E38005EC1C2F00001D890C137C237D890C1370F
:101E4800C237100EC125D96E010EC221DA6EDECF5F
:101E580012F0DECF13F0DECF14F0DECF15F0FAEC7F
:101E68002AF015C019F014C018F013C017F012C0EA
:101E780016F099EC26F019C028F018C027F017C002
:101E880026F016C025F041C129F042C12AF043C10D
:101E98002BF044C12CF097EC23F05BD05DC108F027
:101EA8005EC109F00B6A030E0A6E43EC2AF0D89063
:101EB80008340001C16F0934C26FAC0EC127000E8F
:101EC800C223C20EC125F66E080EC221F76E0900A4
:101ED800F5CF0EF00A00F5CF0FF090EC2CF0180BB0
:101EE800A00901015D25496F3DC11AF03EC11BF0F3
:101EF8003FC11CF040C11DF05D51040DF3500001BD
:101F08007A0FD96EDA6ADECF12F0DECF13F0DECFA9
:101F180014F0DECF15F0FAEC2AF015C019F014C051
:101F280018F013C017F012C016F099EC26F019C07B
:101F380028F018C027F017C026F016C025F041C1B8
:101F480029F042C12AF043C12BF044C12CF097EC90
:101F580023F028C048F127C047F126C046F125C024
:101F680045F10101010E586F450E576F20EE03F041
:101F78005751D9265851DA22DF504D6F20EE02F022
:101F88005751D9265851DA22DF504C6F20EE01F014
:101F98005751D9265851DA22DF504B6F57C1D9FF14
:101FA80058C1DAFFDF504A6F5DC108F05EC109F021
:101FB8000B6A030E0A6E43EC2AF0D890083400012D
:101FC800C16F0934C26FAC0EC127000EC223C20E06
:101FD800C125F66E080EC221F76E0900F5CF0EF086
:101FE8000A00F5CF0FF090EC2CF00001C36FC3BDD1
:101FF80004D001013B6B3C6B04D0020E01013C6F25
:102008003B6B5DC108F05EC109F00B6A030E0A6EF6
:1020180043EC2AF0D89008340001C16F0934C26F2C
:10202800AE0EC127000EC223C20EC125F66E080EE1
:10203800C221F76E0900F5CF0EF00A00F5CF0FF0B8
:1020480090EC2CF001013B25386F000E3C21396FD4
:102058005DC108F05EC109F00B6A030E0A6E43EC1D
:102068002AF0D89008340001C16F0934C26FB00E4D
:10207800C127000EC223C20EC125F66E080EC2216A
:10208800F76E0900F5CF0EF00A00F5CF0FF090ECCF
:102098002CF001013A6F38C13FF039C140F03AC124
:1020A80041F075C042F0030E436E050E446E010EFA
:1020B800466E490E456E1EEC28F001015D4B5E2B05
:1020C8005E51800A800F040ED8B45D5DD8B012004E
:1020D800C3D4B5EC2CF0C20EF66E080EF76E0900EC
:1020E800F5CF08F00A00F5CF09F0000E0A6AB1EC46
:1020F8002AF0B5EC2CF0C40EF66E080EF76E090047
:10210800F5CF08F00A00F5CF09F0000E0A6AB1EC25
:102118002AF0496AB5EC2CF0D8904934446E456AE7
:102128004536040E4426000E4522C20E4424F66E9F
:10213800080E4520F76E0900F5CF08F00A00F5CF24
:1021480009F049C00AF0B1EC2AF0B5EC2CF0D890AF
:102158004934446E456A45360C0E4426000E452225
:10216800C20E4424F66E080E4520F76E0900F5CF1E
:1021780008F00A00F5CF09F0800E0A6EB1EC2AF0DB
:10218800B5EC2CF0D8904934446E456A4536140EA7
:102198004426000E4522C20E4424F66E080E452041
:1021A800F76E0900F5CF08F00A00F5CF09F0800EA8
:1021B8000A6EB1EC2AF0B5EC2CF0D8904934446E94
:1021C800456A4536440E4426000E4522C20E442474
:1021D800F66E080E4520F76E0900F5CF08F00A00E4
:1021E800F5CF09F0000E0A6AB1EC2AF0B5EC2CF034
:1021F800D8904934446E456A45364C0E4426000E44
:102208004522C20E4424F66E080E4520F76E0900DA
:10221800F5CF08F00A00F5CF09F0000E0A6AB1EC14
:102228002AF0B5EC2CF0D8904934446E456A45360E
:10223800540E4426000E4522C20E4424F66E080EA3
:102248004520F76E0900F5CF08F00A00F5CF09F030
:10225800000E0A6AB1EC2AF0B5EC2CF0D89049349B
:10226800446E456A45365C0E4426000E4522C20E71
:102278004424F66E080E4520F76E0900F5CF08F0E5
:102288000A00F5CF09F0000E0A6AB1EC2AF0B5ECA5
:102298002CF0D8904934446E456A4536640E44267D
:1022A800000E4522C20E4424F66E080E4520F76E35
:1022B8000900F5CF08F00A00F5CF09F0000E0A6A08
:1022C800B1EC2AF0B5EC2CF0D8904934446E456A4C
:1022D80045366C0E4426000E4522C20E4424F66E86
:1022E800080E4520F76E0900F5CF08F00A00F5CF73
:1022F80009F0000E0A6AB1EC2AF0B5EC2CF0D8907F
:102308004934446E456A4536740E4426000E45220B
:10231800C20E4424F66E080E4520F76E0900F5CF6C
:1023280008F00A00F5CF09F0000E0A6AB1EC2AF0AD
:10233800B5EC2CF0D8904934446E456A45367C0E8D
:102348004426000E4522C20E4424F66E080E45208F
:10235800F76E0900F5CF08F00A00F5CF09F0000E76
:102368000A6AB1EC2AF0B5EC2CF0D8904934446EE6
:10237800456A4536940E4426000E4522C20E442472
:10238800F66E080E4520F76E0900F5CF08F00A0032
:10239800F5CF09F0000E0A6AB1EC2AF0B5EC2CF082
:1023A800D8904934446E456A45369C0E4426000E42
:1023B8004522C20E4424F66E080E4520F76E090029
:1023C800F5CF08F00A00F5CF09F0000E0A6AB1EC63
:1023D8002AF0B5EC2CF0D8904934446E456A45365D
:1023E800A40E4426000E4522C20E4424F66E080EA2
:1023F8004520F76E0900F5CF08F00A00F5CF09F07F
:10240800000E0A6AB1EC2AF0492A030E496482D602
:10241800B5EC2CF0460EF66E090EF76E0900F5CFF6
:1024280008F00A00F5CF09F0000E0A6AB1EC2AF0AC
:10243800B5EC2CF0480EF66E090EF76E0900F5CFD4
:1024480008F00A00F5CF09F0C80E0A6EB1EC2AF0C0
:10245800B5EC2CF04A0EF66E090EF76E0900F5CFB2
:1024680008F00A00F5CF09F0000E0A6AB1EC2AF06C
:10247800B5EC2CF04C0EF66E090EF76E0900F5CF90
:1024880008F00A00F5CF09F0C80E0A6EB1EC2AF080
:10249800B5EC2CF04E0EF66E090EF76E0900F5CF6E
:1024A80008F00A00F5CF09F0000E0A6AB1EC2AF02C
:1024B800B5EC2CF0500EF66E090EF76E0900F5CF4C
:1024C80008F00A00F5CF09F0C80E0A6EB1EC2AF040
:1024D800B5EC2CF0520EF66E090EF76E0900F5CF2A
:1024E80008F00A00F5CF09F0000E0A6AB1EC2AF0EC
:1024F800B5EC2CF0540EF66E090EF76E0900F5CF08
:1025080008F00A00F5CF09F0C80E0A6EB1EC2AF0FF
:10251800B5EC2CF06E0EF66E090EF76E0900F5CFCD
:1025280008F00A00F5CF09F0000E0A6AB1EC2AF0AB
:10253800B5EC2CF0700EF66E090EF76E0900F5CFAB
:1025480008F00A00F5CF09F0000E0A6AB1EC2AF08B
:10255800B5EC2CF0720EF66E090EF76E0900F5CF89
:1025680008F00A00F5CF09F0000E0A6AB1EC2AF06B
:10257800B5EC2CF0740EF66E090EF76E0900F5CF67
:1025880008F00A00F5CF09F0000E0A6AB1EC2AF04B
:10259800B5EC2CF0760EF66E090EF76E0900F5CF45
:1025A80008F00A00F5CF09F0000E0A6AB1EC2AF02B
:1025B800B5EC2CF0780EF66E090EF76E0900F5CF23
:1025C80008F00A00F5CF09F0000E0A6AB1EC2AF00B
:1025D800B5EC2CF07A0EF66E090EF76E0900F5CF01
:1025E80008F00A00F5CF09F0000E0A6AB1EC2AF0EB
:1025F800B5EC2CF07C0EF66E090EF76E0900F5CFDF
:1026080008F00A00F5CF09F0000E0A6AB1EC2AF0CA
:10261800B5EC2CF07E0EF66E090EF76E0900F5CFBC
:1026280008F00A00F5CF09F0000E0A6AB1EC2AF0AA
:10263800B5EC2CF0800EF66E090EF76E0900F5CF9A
:1026480008F00A00F5CF09F0000E0A6AB1EC2AF08A
:10265800B5EC2CF0820EF66E090EF76E0900F5CF78
:1026680008F00A00F5CF09F0000E0A6AB1EC2AF06A
:10267800B5EC2CF0840EF66E090EF76E0900F5CF56
:1026880008F00A00F5CF09F0000E0A6AB1EC2AF04A
:10269800466A476AB5EC2CF0A60EF66E090EF76E80
:1026A8000900F5CF44F00900F5CF45F04650442421
:1026B800086E47504520096E000E0A6AB1EC2AF0F0
:1026C800464A472A4750800A800F200ED8B4465CF5
:1026D800E1E3B5EC2CF0E60EF66E090EF76E090094
:1026E800F5CF08F00A00F5CF09F0000E0A6AB1EC40
:1026F8002AF0B5EC2CF0E80EF66E090EF76E09001C
:10270800F5CF08F00A00F5CF09F0320E0A6EB1ECE9
:102718002AF0B5EC2CF0EA0EF66E090EF76E0900F9
:10272800F5CF08F00A00F5CF09F0000E0A6AB1ECFF
:102738002AF0B5EC2CF0EC0EF66E090EF76E0900D7
:10274800F5CF08F00A00F5CF09F0320E0A6EB1ECA9
:102758002AF0B5EC2CF0EE0EF66E090EF76E0900B5
:10276800F5CF08F00A00F5CF09F0000E0A6AB1ECBF
:102778002AF0B5EC2CF0F00EF66E090EF76E090093
:10278800F5CF08F00A00F5CF09F0320E0A6EB1EC69
:102798002AF0B5EC2CF0F20EF66E090EF76E090071
:1027A800F5CF08F00A00F5CF09F0000E0A6AB1EC7F
:1027B8002AF0B5EC2CF0F40EF66E090EF76E09004F
:1027C800F5CF08F00A00F5CF09F0320E0A6EB1EC29
:1027D8002AF0496AB5EC2CF0D8904934446E456A21
:1027E8004536F60E4424F66E090E4520F76E0900AC
:1027F800F5CF08F00A00F5CF09F0000E0A6AB1EC2F
:102808002AF0492A1F0E4964E5D7496A486AB5EC97
:102818002CF0485049C044F0456AD89044364536B3
:10282800D89044364536D890443645364426000E6E
:102838004522DA0E4424086E000E4520096E000E6B
:102848000A6AB1EC2AF0482A070E4864E0D7492AF8
:10285800030E4964DBD75FEF1AF08D518C1101E14B
:1028680003D333D3C2EC2CF030D33DEC2BF02DD373
:102878007CEC2AF02AD3CBEC2AF027D38A510F0B11
:10288800020A01E022D3755120EE90F0DF621DD3D9
:10289800800E916112D0915149EC1EF000019F6F9A
:1028A80091C09EF0030E996F820E986F9A6B9B6B86
:1028B8000A0E9C6F97EC2AF008D3915158EC21F03E
:1028C800EDD78A510F0B030A01E0FFD2755120EEB4
:1028D80090F0DF62FAD2800E916106D092C044F087
:1028E80091516AEC17F0DAD792C04AF091519AECFC
:1028F80025F0D5D7755120EE90F0DF62E6D2000EB4
:102908007DEC2CF00001921901E0DFD2030E7DEC82
:102918002CF00001931901E0D8D2050E7DEC2CF0C3
:102928000001941901E0D1D2070E7DEC2CF00001D2
:10293800951901E0CAD24D50961901E0C6D24C5003
:1029480020EE97F0DF62C1D2915114EC2CF0BDD289
:10295800000E7DEC2CF00001911973E1010E7DEC65
:102968002CF0000192196DE1020E7DEC2CF00001B3
:10297800931967E1030E7DEC2CF00001941961E1D5
:1029880055885FD0040E7DEC2CF00001911959E1B7
:10299800050E7DEC2CF00001921953E1060E7DEC3A
:1029A8002CF0000193194DE1070E7DEC2CF000018D
:1029B800941947E1558A45D0080E7DEC2CF00001AA
:1029C80091193FE1090E7DEC2CF00001921939E1D3
:1029D8000A0E7DEC2CF00001931933E10B0E7DEC0F
:1029E8002CF0000194192DE1558C2BD00C0E7DECA8
:1029F8002CF00001911925E10D0E7DEC2CF0000161
:102A080092191FE10E0E7DEC2CF00001931919E1CB
:102A18000F0E7DEC2CF00001941913E1558E11D0A6
:102A2800556A0FD090390F0BBB6FBC6BBC51F8E1E6
:102A3800BB518EE0010AA6E0030ABEE0010AD6E017
:102A4800EFD75550F00BF00A01E03FD2D7EC29F050
:102A58003CD2755120EE90F0DF6237D2C96B91C03D
:102A6800C8F092C0CBF0D76B4AD0C851D72522EC1A
:102A78002CF00001BB6F070E086ED75167EC2BF0E6
:102A88000001BC6FBC519F0FD96EDA6ABBC0DFFF73
:102A9800070E086ED75167EC2BF0060A0BE0FF0E05
:102AA8000001CB25BB6FBC6BFF0EBC23D751BB19F4
:102AB800BC1124E1070E086E0001D75167EC2BF01A
:102AC800060A03E1070E000109D0070E086E00018F
:102AD800D75167EC2BF00001BB6FBB29CA6FCA51F5
:102AE800810F986F070E996F9A6B9B6B1A0E9C6FEC
:102AF800C9C09EF097EC2AF00001C92BD72BCB5107
:102B0800D75D01E3E2D1B1D7755120EE90F0DF62D5
:102B1800DCD191C0CCF08A51FE0F070BCD6FD26B80
:102B280018D0D251920FD96EDA6ADF504B6ECC5161
:102B3800D225C7EC2BF00001CC51D22522EC2CF089
:102B48000001BB6FD2519F0FD96EDA6ABBC0DFFF9D
:102B5800D22BCD51D25DE5E3070E996F9A6B9B6B33
:102B68001A0E9C6F9E6BCD51810F986FA3D675512D
:102B780020EE90F0DF62A9D1915149EC1EF00001DE
:102B8800BB6FBB29446E91516AEC17F087D675511B
:102B980020EE90F0DF6299D1915149EC1EF00001CE
:102BA800BB6FBB05446E91516AEC17F077D6905114
:102BB800751903E0902901E088D1D16B030E996F54
:102BC800880E986F9A6B9B6B200E9C6FD66BD6C045
:102BD8009EF0010ED86FD8519E0FD96EDA6AD15186
:102BE8000F087DEC2CF0DF6E0001D12B100ED165A3
:102BF80001D004D0D82B070ED865EDD7100ED165BB
:102C080001D007D097EC2AF00001D62B020ED6652A
:102C1800DED7D86BD85153EC2CF0000908E0D85116
:102C2800A10FD96EDA6AD85153EC2CF005D0D851DF
:102C3800A10FD96EDA6A000EDF6ED82B040ED865A4
:102C4800E9D797EC2AF0050E0001D16F030ED66F75
:102C5800D6C09EF0010ED86FD8519E0FD96EDA6A91
:102C6800D15153EC2CF0DF6ED12BD82B070ED86541
:102C7800F3D797EC2AF00001D62B060ED665E8D7D5
:102C880024D1755120EE90F0DF621FD1030E996FA9
:102C9800870E986F9A6B9B6B220E9C6F9E0E7BEC37
:102CA80029F008D6755120EE90F0DF620ED1D36B73
:102CB8008AC0BBF00F0EBB17040EBB5D12E394C0B5
:102CC800D4F0D56BD551D41103E1010ED56FD46B77
:102CD800010ED45D010ED55907E3010ED56F000E24
:102CE80002D0D56B010ED46F4CC0C2F04DC0C3F0FA
:102CF800925191C0BBF0BC6BBBC0BCF0BB6BBB11AD
:102D08004C6EBC514D6E070E996F9A6B9B6B270EDC
:102D18009C6F9E6B91C09FF092C0A0F0D351D45D80
:102D2800BB6F000ED559BC6F040EBB5D000EBC59BD
:102D380002E3040E02D0D351D45DCE6FCE51840F7E
:102D4800986F9351D325A16FCF6B0ED09351D32594
:102D5800CF2522EC2CF00001BB6FCF51A20FD96E0A
:102D6800DA6ABBC0DFFFCF2BCE51CF5DEFE34EC099
:102D7800C4F04FC0C5F097EC2AF0020E0001C4253C
:102D8800BB6F000EC521BC6FBB514E5CBC514F5888
:102D9800F4E3CE51D3279E2BD351BB6FBC6BD451D8
:102DA800BB5DD551BC59BAE3C2C04CF0C3C04DF0AD
:102DB8008CD0755120EE90F0DF6287D04CC0C6F001
:102DC8004DC0C7F0925191C0BBF0BC6BBBC0BCF00A
:102DD800BB6BBB114C6EBC514D6E93C0D0F014D080
:102DE80093519408D025D96EDA6ADF504B6ED051D2
:102DF800C7EC2BF00001BB6F9351A208D025D96E08
:102E0800DA6ABBC0DFFFD02B8A510F0BBB6FBC6BDC
:102E18009351BB27000EBC23FC0EBB25BD6FFF0ED4
:102E2800BC21BE6FD051BF6FC06BC051800AC16F4B
:102E3800BD51BF5DBE51800AC159D2E3C6C04CF036
:102E4800C7C04DF0070E996F8A510F0B800F986F0E
:102E58009A6B9B6B270E9C6F9E6B91C09FF092C0E4
:102E6800A0F093C0A1F026D58E51010A01E1FAD451
:102E7800030A01E1FAD4040A01E1FAD40E0A01E1D5
:102E8800FAD4010A01E1FAD4020A01E11AD5070AC3
:102E980001E130D51B0A01E1C5D50F0A01E1D9D5F9
:102EA800010A01E131D6040A01E161D6030A01E110
:102EB8006ED6010A01E17BD63E0A01E1E2D6040A98
:102EC80001E1F0D6030A01E174D71200E8CF46F019
:102ED800441C456E4D504C1001E073D246661DD01F
:102EE800B5EC2CF0C20EF66E080EF76E0900F5CFA1
:102EF80008F00A00F5CF09F044C00AF0B1EC2AF056
:102F0800C20EF66E080EF76E0900F5CF0EF00A0035
:102F1800F5CF0FF090EC2CF0CBD246041DE1B5ECC8
:102F28002CF0C40EF66E080EF76E0900F5CF08F007
:102F38000A00F5CF09F044C00AF0B1EC2AF0C40E3B
:102F4800F66E080EF76E0900F5CF0EF00A00F5CF01
:102F58000FF090EC2CF0ACD2010E466430D0060E87
:102F680046602DD0B5EC2CF0D89046340001A66F01
:102F7800A76BA737C20EA625F66E080EA721F76E17
:102F88000900F5CF08F00A00F5CF09F044C00AF0AF
:102F9800B1EC2AF0D89046340001A66FA76BA7378A
:102FA800C20EA625F66E080EA721F76E0900F5CF0A
:102FB8000EF00A00F5CF0FF090EC2CF079D2050E48
:102FC800466438D00A0E466035D0B5EC2CF0D8905F
:102FD80046340001A66FA76BA737C20EA625F66E6A
:102FE800080EA721F76E0900F5CF08F00A00F5CF03
:102FF80009F044C00AF0B1EC2AF0D8904634000138
:10300800A66FA76BA737C20EA625F66E080EA721D6
:10301800F76E0900F5CF0EF00A00F5CF0FF090EC2F
:103028002CF0456E465000015A0FD96EDA6A44C03A
:10303800DFFF3FD2090E466404D00E0E466001D071
:1030480091D746500E0A6BE14450550A66E160A5D7
:103058005ED02C0EF66E090EF76E0900F5CF0EF055
:103068000A00F5CF0FF090EC2CF00001A66F080EC7
:10307800A6272A0EF66E090EF76E0900F5CF0EF098
:103088000A00F5CF0FF090EC2CF00001A76F100E9E
:10309800A727280EF66E090EF76E0900F5CF0EF079
:1030A8000A00F5CF0FF090EC2CF00001A86F180E75
:1030B800A827260EF66E090EF76E0900F5CF0EF05A
:1030C8000A00F5CF0FF090EC2CF00001A96FAA6B65
:1030D800A82B03D0D890A937AA37A82FFBD7A72B9E
:1030E80003D0D890A937AA37A72FFBD7A62B03D090
:1030F800D890A937AA37A62FFBD7A9C07AF0AAC0BB
:103108007BF0000E7BBFFF0E7C6F7D6F04D07A6B67
:103118007B6B7C6B7D6B550ECBD1456ACAD1465013
:103128000F0A68E14450550AF8E161A55ED0340EF3
:10313800F66E090EF76E0900F5CF0EF00A00F5CF0E
:103148000FF090EC2CF00001A66F080EA627320EA7
:10315800F66E090EF76E0900F5CF0EF00A00F5CFEE
:103168000FF090EC2CF00001A76F100EA727300E7F
:10317800F66E090EF76E0900F5CF0EF00A00F5CFCE
:103188000FF090EC2CF00001A86F180EA8272E0E57
:10319800F66E090EF76E0900F5CF0EF00A00F5CFAE
:1031A8000FF090EC2CF00001A96FAA6BA82B03D0AC
:1031B800D890A937AA37A82FFBD7A72B03D0D89028
:1031C800A937AA37A72FFBD7A62B03D0D890A937A2
:1031D800AA37A62FFBD7A9C07EF0AAC07FF0000EA1
:1031E8007FBFFF0E806F816F96D77E6B7F6B806B82
:1031F800816B91D74650100A68E14450550A8DE119
:1032080062A55ED03C0EF66E090EF76E0900F5CF8A
:103218000EF00A00F5CF0FF090EC2CF00001A66F2D
:10322800080EA6273A0EF66E090EF76E0900F5CFBE
:103238000EF00A00F5CF0FF090EC2CF00001A76F0C
:10324800100EA727380EF66E090EF76E0900F5CF97
:103258000EF00A00F5CF0FF090EC2CF00001A86FEB
:10326800180EA827360EF66E090EF76E0900F5CF70
:103278000EF00A00F5CF0FF090EC2CF00001A96FCA
:10328800AA6BA82B03D0D890A937AA37A82FFBD7A9
:10329800A72B03D0D890A937AA37A72FFBD7A62BDF
:1032A80003D0D890A937AA37A62FFBD7A9C082F098
:1032B800AAC083F0000E83BFFF0E846F856F2BD7E3
:1032C800826B836B846B856B26D74650110A72E13B
:1032D8004450550A01E021D763A567D0440EF66E25
:1032E800090EF76E0900F5CF0EF00A00F5CF0FF0C2
:1032F80090EC2CF00001A66F080EA627420EF66E81
:10330800090EF76E0900F5CF0EF00A00F5CF0FF0A1
:1033180090EC2CF00001A76F100EA727400EF66E58
:10332800090EF76E0900F5CF0EF00A00F5CF0FF081
:1033380090EC2CF00001A86F180EA8273E0EF66E30
:10334800090EF76E0900F5CF0EF00A00F5CF0FF061
:1033580090EC2CF00001A96FA9C0AAF0AB6BAC6B84
:10336800AD6BA82B05D0D890AA37AB37AC37AD37A3
:10337800A82FF9D7A72B05D0D890AA37AB37AC37E9
:10338800AD37A72FF9D7A62B05D0D890AA37AB37DA
:10339800AC37AD37A62FF9D7ADC089F0ACC088F0EF
:1033A800ABC087F0AAC086F0B6D6866B876B886BF1
:1033B800896BB1D6210E46647CD0620E466079D006
:1033C800D1D54C044D102BE10F0E466472D0380E47
:1033D80046606FD0B5EC2CF04650020D860EF324F3
:1033E800F66E090EF420F76E0900F5CF08F00A0012
:1033F800F5CF09F044C00AF0B1EC2AF04650020DAE
:10340800860EF324F66E090EF420F76E0900F5CF48
:103418000EF00A00F5CF0FF090EC2CF049D04C508C
:10342800020A4D1028E1200E466043D0B5EC2CF07E
:103438004650020DF60EF324F66E090EF420F76ED0
:103448000900F5CF08F00A00F5CF09F044C00AF0EA
:10345800B1EC2AF04650020DF60EF324F66E090E72
:10346800F420F76E0900F5CF0EF00A00F5CF0FF043
:1034780090EC2CF01DD04C50030A4D101AE1200E90
:10348800466017D0B5EC2CF0DA0E4624086E096AAF
:10349800000E092244C00AF0B1EC2AF05FEC1AF0E1
:1034A800DA0E46240E6E0F6A000E0F2290EC2CF0F6
:1034B800456E4550120036683768386839683A6A88
:1034C8003B6A3C6A3D6A436A4350126E136AD8905D
:1034D80012361336D89012361336D8901236133661
:1034E800450E12240E6E000E13200F6E90EC2CF079
:1034F800146E14AEE8D14350126E136AD890123687
:103508001336D89012361336D89012361336480E22
:1035180012240E6E000E13200F6E90EC2CF0146E19
:1035280014C015F0166A176A186A17C018F016C082
:1035380017F015C016F0156A4350196E1A6AD8901C
:1035480019361A36D89019361A36D89019361A36C6
:10355800460E19240E6E000E1A200F6E90EC2CF0F9
:103568001B6E1BC01CF01D6A1E6A1F6A1DC01FF05F
:103578001CC01EF01D6A1C6A4350206E216AD89038
:1035880020362136D89020362136D890203621365C
:10359800450E20240E6E000E21200F6E90EC2CF0AC
:1035A800226E020E221622C023F0246A256A266A99
:1035B800170ED8902336243625362636E82EF9D726
:1035C8001C502310276E1D502410286E1E502510E5
:1035D800296E1F5026102A6E155027102B6E165074
:1035E80028102C6E175029102D6E18502A102E6E88
:1035F800FF0E2B10316E2C50326E2D50336E2E5024
:10360800346E4350126E136AD89012361336D8901F
:1036180012361336D89012361336490E12240E6E0F
:10362800000E13200F6E90EC2CF0146E14C015F0E1
:10363800166A176A186A17C018F016C017F015C06E
:1036480016F0156A4350196E1A6AD89019361A3648
:10365800D89019361A36D89019361A36470E1924C2
:103668000E6E000E1A200F6E90EC2CF01B6E1BC015
:103678001CF01D6A1E6A1F6A1DC01FF01CC01EF0C8
:103688001D6A1C6A4350206E216AD8902036213664
:10369800D89020362136D89020362136450E202461
:1036A8000E6E000E21200F6E90EC2CF0226E010E93
:1036B800221622C023F0246A256A266A23C026F02F
:1036C800256A246A236A1C502310276E1D50241073
:1036D800286E1E502510296E1F5026102A6E155070
:1036E80027102B6E165028102C6E175029102D6E8F
:1036F80018502A102E6E43502F6E306AD8902F36ED
:103708003036D8902F363036D8902F363036440E93
:103718002F240E6E000E30200F6E90EC2CF02B1024
:103728003E6E2C503F6E2D50406E2E50416E4366BB
:1037380008D03EC03AF03FC03BF040C03CF041C02A
:103748003DF0315036163250371633503816345053
:103758003916426A42503EC012F03FC013F040C0D2
:1037680014F041C015F0E82A05D0D890153214326B
:1037780013321232E82EF9D7010E121642503AC00F
:1037880016F03BC017F03CC018F03DC019F0E82A0D
:1037980005D0D8901932183217321632E82EF9D7D8
:1037A8001650010B12181DE042C012F0010E136EE4
:1037B800146A122A03D0D89013361436122EFBD767
:1037C800131C156E141C166E176A16BE17061750B2
:1037D800186E1550361616503716175038161850DA
:1037E8003916422A1F0E4264B5D73E503A163F504A
:1037F8003B1640503C1641503D1643504FE0426A3C
:1038080043C012F04350136E146AD890133614361E
:10381800D89013361436D89013361436440E132421
:103828000E6E000E14200F6E90EC2CF0156E122AFE
:1038380002D0D8901532122EFCD7010E151643C0AF
:1038480016F035C017F0162A02D0D8901732162E67
:10385800FCD71750010B15181DE043C012F0010EDC
:10386800136E146A122A03D0D89013361436122E07
:10387800FBD713C015F014C016F0000E16BEFF0ECD
:10388800176E186E1550361616503716175038160C
:1038980018503916422A070E4264B2D74350126EA6
:1038A800136AD89012361336D89012361336D89039
:1038B80012361336440E12240E6E000E13200F6EAD
:1038C80090EC2CF0356E432A030E4364FDD5800E30
:1038D80047EC2CF00F010F0E096E1C0E086E36C057
:1038E8000AF037C00BF038C00CF039C00DF0010EEB
:1038F8000E6EF2EC24F00D01D4830F010F0E096E49
:10390800040E086E3AC00AF03BC00BF03CC00CF045
:103918003DC00DF0010E0E6EF2EC24F0000E47EFE4
:103928002CF05150D8A460A55BD02C0EF66E090E71
:10393800F76E0900F5CF0EF00A00F5CF0FF090EC06
:103948002CF0106E080E10262A0EF66E090EF76E71
:103958000900F5CF0EF00A00F5CF0FF090EC2CF02F
:10396800116E100E1126280EF66E090EF76E09005C
:10397800F5CF0EF00A00F5CF0FF090EC2CF0126E98
:10398800180E1226260EF66E090EF76E0900F5CFF0
:103998000EF00A00F5CF0FF090EC2CF0136E146ABD
:1039A800122A03D0D89013361436122EFBD7112AB8
:1039B80003D0D89013361436112EFBD7102A03D013
:1039C800D89013361436102EFBD7000113C07AF0A6
:1039D80014C07BF0000E7BBFFF0E7C6F7D6F516AB9
:1039E8006E51D8A461A55BD0340EF66E090EF76E41
:1039F8000900F5CF0EF00A00F5CF0FF090EC2CF08F
:103A0800106E080E1026320EF66E090EF76E0900BB
:103A1800F5CF0EF00A00F5CF0FF090EC2CF0116EF8
:103A2800100E1126300EF66E090EF76E0900F5CF4E
:103A38000EF00A00F5CF0FF090EC2CF0126E180E75
:103A480012262E0EF66E090EF76E0900F5CF0EF04F
:103A58000A00F5CF0FF090EC2CF0136E146A122ABE
:103A680003D0D89013361436122EFBD7112A03D060
:103A7800D89013361436112EFBD7102A03D0D890BD
:103A880013361436102EFBD7000113C07EF014C075
:103A98007FF0000E7FBFFF0E806F816F6E6B8230EC
:103AA800E832010B521875E0000E82B4010E526E16
:103AB80082B462AF6ED062B106D0822B000E83232F
:103AC8008423852305D08207000E835B845B855B96
:103AD8008551821183118411D8B462A55AD03C0E45
:103AE800F66E090EF76E0900F5CF0EF00A00F5CF55
:103AF8000FF090EC2CF0106E080E10263A0EF66EB1
:103B0800090EF76E0900F5CF0EF00A00F5CF0FF099
:103B180090EC2CF0116E100E1126380EF66E090E70
:103B2800F76E0900F5CF0EF00A00F5CF0FF090EC14
:103B38002CF0126E180E1226360EF66E090EF76E5F
:103B48000900F5CF0EF00A00F5CF0FF090EC2CF03D
:103B5800136E146A122A03D0D89013361436122E14
:103B6800FBD7112A03D0D89013361436112EFBD761
:103B7800102A03D0D89013361436102EFBD7000124
:103B880013C082F014C083F0000E83BFFF0E846F51
:103B9800856F8230E832E832010B531875E0000E69
:103BA80082B6010E536E82B663AF6ED063B106D093
:103BB800862B000E87238823892305D08607000ECD
:103BC800875B885B895B8951861187118811D8B416
:103BD80063A55AD0440EF66E090EF76E0900F5CFAC
:103BE8000EF00A00F5CF0FF090EC2CF0106E080ED6
:103BF8001026420EF66E090EF76E0900F5CF0EF08C
:103C08000A00F5CF0FF090EC2CF0116E100E112673
:103C1800400EF66E090EF76E0900F5CF0EF00A0099
:103C2800F5CF0FF090EC2CF0126E180E12263E0E07
:103C3800F66E090EF76E0900F5CF0EF00A00F5CF03
:103C48000FF090EC2CF0136E146A122A03D0D8905F
:103C580013361436122EFBD7112A03D0D8901336F8
:103C68001436112EFBD7102A03D0D89013361436E9
:103C7800102EFBD7000113C086F014C087F0000E89
:103C880087BFFF0E886F896F1200E8CF1FF01E6A8A
:103C98004D504C1001E081D01F660DD0C20EF66E5B
:103CA800080EF76E0900F5CF0EF00A00F5CF0FF0F9
:103CB80090EC2CF006D11F040DE1C40EF66E080E30
:103CC800F76E0900F5CF0EF00A00F5CF0FF090EC73
:103CD8002CF0F7D0010E1F6417D00E0E1F6014D001
:103CE800D8901F34106E116A1136C20E1024F66E69
:103CF800080E1120F76E0900F5CF0EF00A00F5CF77
:103D08000FF090EC2CF0DDD00D0E1F6405D0120ED4
:103D18001F6002D01E6AD6D0110E1F640BD0160E7B
:103D28001F6008D07A0E1A6E1F501A5CD96EDA6AB4
:103D3800150E29D0150E1F640BD01A0E1F6008D05F
:103D48007E0E1B6E1F501B5CD96EDA6A190E1BD0D3
:103D5800190E1F640BD01E0E1F6008D0820E1C6E39
:103D68001F501C5CD96EDA6A1D0E0DD01D0E1F6423
:103D78000DD0220E1F600AD0860E1D6E1F501D5CCE
:103D8800D96EDA6A210ED926DA6A1AD0210E1F6492
:103D980099D0620E1F6096D0A3D74C044D106AE1EB
:103DA800040E1F600FD00101010E136E100E126E6B
:103DB8001F50125C106E000E1358116E030E3AD08D
:103DC800DF507FD0030E1F6410D0080E1F600DD087
:103DD8000101010E156E140E146E1F50145C106E46
:103DE800000E1558116E070E25D0070E1F6410D04F
:103DF8000C0E1F600DD00101010E176E180E166E05
:103E08001F50165C106E000E1758116E0B0E12D054
:103E18000B0E1F6415D0100E1F6012D00101010E89
:103E2800196E1C0E186E1F50185C106E000E195873
:103E3800116E0F0E1024D96E000E1120DA6EC0D745
:103E48000F0E1F643FD0380E1F603CD0D8901F342F
:103E5800106E116A1136860E1024F66E090E1120A6
:103E6800F76E0900F5CF0EF00A00F5CF0FF090ECD1
:103E78002CF027D04C50020A4D1014E1200E1F6080
:103E880021D01F50020DF60EF324F66E090EF42011
:103E9800F76E0900F5CF0EF00A00F5CF0FF090ECA1
:103EA8002CF00FD04C50030A4D100CE1200E1F606F
:103EB80009D0DA0E1F240E6E0F6A000E0F2290EC46
:103EC8002CF01E6E1E501200E8CF14F0506A775086
:103ED800C00B166E166632D060AE12D0A49074AEC7
:103EE80006D01150D96EDA6A000EDB86749E60A087
:103EF80002D0508001D050900F0E196E600E1AD06B
:103F08000F0150AF19D0A49274AC06D01150D96EDD
:103F1800DA6A000EDB86749C5051070B506E020E55
:103F2800506005D01150D96EDA6A000EDB8E0F0E84
:103F3800196E500E186E65D0000ECCD01650400A7F
:103F480046E160AE04D00F0E196E600E3ED00F0130
:103F580050AF04D00F0E196E500E37D00D01F8B5C2
:103F680007D00E0120AF04D00E0E196E200E2DD0F2
:103F78000D01F8B707D00E0130AF04D00E0E196E40
:103F8800300E23D00D01F8B907D00E0140AF04D090
:103F98000E0E196E400E19D00D01F8BB05D00E019A
:103FA80050AF02D00E0ED7D70D01F8BD05D00E01C7
:103FB80060AF02D00E0EC8D70D01F8BFBDD70E01F5
:103FC80070AFBAD70E0E196E700E186E0AD074AE96
:103FD800B3D76F50070B40EC29F008C018F009C0A0
:103FE80019F018C0D9FF19C0DAFFDF501F0B506E47
:103FF800A49274AC06D01150D96EDA6A000EDB8632
:10400800749C18C012F019C013F01150D96EDA6AF6
:10401800DF6A20EE05F01850D9261950DA22DF5051
:10402800176E1050D96EDA6A17500F0BDF6E17AC87
:1040380005D01150D96EDA6A000EDB8C20EE02F042
:104048001850D9261950DA22DF50176E17A608D053
:104058001150D96EDA6A000EDB8A010E176E01D094
:10406800176A1828086E000E1920096E14C00AF085
:1040780017C00BF0E5EC22F0060E1826000E1922E8
:104088001050D96EDA6ADF50176E156A0DD018C055
:10409800D9FF19C0DAFF0F50E16EE26ADFCFE7FF00
:1040A800184A192A0F2A152A1750155CF0E3A4AEEE
:1040B80006D01150D96EDA6A000EDB88A49E12C0B1
:1040C800D9FF13C0DAFF7F0EDF161650800AD8B466
:1040D800749E010E12008D518C1101E1E4D01A6A10
:1040E8001A50106E116AD89010361136D8901036C2
:1040F8001136D89010361136DA0E10240E6E000ED6
:1041080011200F6E90EC2CF0196E19AEC8D019ACB6
:1041180018D01A50106E116AD89010361136D890EF
:1041280010361136D89010361136DA0E10240E6E6D
:10413800000E11200F6E90EC2CF000018F1901E099
:10414800AED019A813D00001912910E0C20EF66E66
:10415800080EF76E0900F5CF0EF00A00F5CF0FF044
:1041680090EC2CF00001911901E099D019A613D018
:104178000001922910E0C40EF66E080EF76E0900D1
:10418800F5CF0EF00A00F5CF0FF090EC2CF00001FF
:10419800921901E084D01A50080DDD0EF3240E6E3A
:1041A800000EF4200F6E90EC2CF0106E1950010BDD
:1041B800126E116A10501124136E000E1220146E24
:1041C8001A50080DDC0EF3240E6E000EF4200F6E4C
:1041D80090EC2CF0106E1950020B116E126A070E3B
:1041E800D89011361236E82EFBD710501124156ED0
:1041F800000E1220166E1A50106E116AD8901036E2
:104208001136D89010361136D89010361136DF0E88
:1042180010240E6E000E11200F6E90EC2CF0176E0D
:104228001A50106E116AD89010361136D890103680
:104238001136D89010361136DE0E10240E6E000E90
:1042480011200F6E90EC2CF0186E000120EE8CF00F
:10425800DECF10F0DDCF11F01350101A1450111AE0
:1042680015501016165011161150101018E18E51D5
:104278001718181414E11A50106E116AD8901036D5
:104288001136D89010361136D89010361136E00E07
:1042980010240E6E000E11200F6E90EC2CF01A2ACE
:1042A800030E1A641DD71200E8CF21F0206A2150AE
:1042B800800A04E154C020F0546ACCD02150810A0D
:1042C80002E1010E82D02150820A02E1060E7DD061
:1042D8002150830A03E172C020F0BCD02150940A17
:1042E80003E1C1EC2CF071D02150950A03E1C0EC38
:1042F8002CF06BD02150960A03E1BFEC2CF065D06E
:10430800890E216005D021507C0F73EC2CF05DD014
:10431800880E216408D0910E216005D02150770FB6
:1043280069EC2CF052D02150910A03E175C020F0BD
:1043380091D02150930A03E14CC020F08BD021503A
:10434800920A02E14D5041D02150970A03E1BEEC98
:104358002CF03BD02150980A03E1BDEC2CF035D06D
:104368002150990A03E1BCEC2CF02FD0990E21645E
:104378002ED09E0E21602BD0A7EC2CF00BC019F08C
:104388000AC018F009C017F008C016F02150660FCF
:104398001E6E1E500308116ED8901136D890113633
:1043A800D8901136115016C012F017C013F018C06B
:1043B80014F019C015F0E82A05D0D8901532143237
:1043C80013321232E82EF9D730D0206E43D09D0E2A
:1043D80021642DD0A20E21602AD0A2EC2CF00BC0B3
:1043E8001DF00AC01CF009C01BF008C01AF02150CB
:1043F800620F1F6E1F500308116ED8901136D890A7
:104408001136D890113611501AC012F01BC013F093
:104418001CC014F01DC015F0E82A05D0D89015323C
:10442800143213321232E82EF9D71250CED7CF0EEB
:10443800216408D0E00E216005D02150300F7DECBA
:104448002CF0C3D7DF0E216405D02150200F53EC88
:104458002CF0BBD7205012000F0E1C6E400E1B6EA6
:104468000F0E1E6E300E1D6E0F0E206E200E1F6E6C
:104478000E0E226E200E216E0E0E246E300E236E4E
:104488000E0E266E400E256E0E0E286E500E276EEE
:104498000E0E2A6E600E296E0E0E2C6E700E2B6E8E
:1044A8007750C00B2D6E2D6602D0020E01D0080E7B
:1044B8002E6E0D01D890F831306E346A7DD03450AC
:1044C800020DF3501B0FD96EDA6ADECF35F0DDCF5F
:1044D80036F035C031F036C032F0020E346404D004
:1044E800D890303230A067D035C0D9FF36C0DAFF57
:1044F800DF501A6E1AB65FD035C0D9FF36C0DAFF62
:10450800FC0EDF1619C01AF0030E1A1635C0D9FFB3
:1045180036C0DAFF1A50DF1219AC04D0185040091F
:10452800336E02D018C033F020EE05F03550D9268E
:104538003650DA2233C0DFFF19AA03D0010E336EDA
:1045480001D0336A3528086E000E3620096E12C075
:104558000AF013C00BF014C00CF015C00DF033C0F6
:104568000EF0F2EC24F0060E3526000E36222F6AE5
:104578000FD016C0D9FF17C0DAFF35C0E1FF36C02B
:10458800E2FFDFCFE7FF164A172A354A362A2F2AD5
:1045980018502F5CEEE331C0D9FF32C0DAFFDF508C
:1045A8001A6E1AB406D031C0D9FF32C0DAFF000E35
:1045B800DB86010E05D0342A2E50345C80E3000ED1
:1045C80012000AC00EF00B6646D00E50D96EDA6A99
:1045D80008C0E1FF09C0E2FFE7500C6ED8900C3626
:1045E800D8900C36D8900C34DF6E0E50D96EDA6A3B
:1045F800D92ADA6A08C0E1FF09C0E2FFE7500C6E69
:10460800050E0D6ED8900C320D2EFCD70C50DF6EB7
:10461800084A092A08C0D9FF09C0DAFFDF500C6E22
:10462800050E0D6ED8900C320D2EFCD70E50D96E9B
:10463800DA6A0C50DF120E50D96EDA6A020ED926E9
:10464800DA6ADF6A0E50D96EDA6A030ED926DA6A98
:10465800000EDF6E67D00E50D96EDA6A020ED926C8
:10466800DA6A08C0E1FF09C0E2FFE7500C6E050EE8
:104678000D6ED8900C360D2EFCD70C50DF6E0E50F8
:10468800D96EDA6A030ED926DA6A08C0E1FF09C0D2
:10469800E2FFE7500C6ED8900C32D8900C32D890CC
:1046A8000C30DF6E084A092A08C0D9FF09C0DAFFB2
:1046B800DF500C6E030E0C160E50D96EDA6A020E1D
:1046C800D926DA6A0C50DF1208C0D9FF09C0DAFF10
:1046D800DF500C6ED8900C32D8900C32D8900C3237
:1046E8001C0E0C160E50D96EDA6A020ED926DA6A3A
:1046F8000C50DF12084A092A08C0D9FF09C0DAFF9E
:104708000E50E16EE26AE12AE26ADFCFE7FF084A6B
:10471800092A08C0D9FF09C0DAFF0E50E16EE26A23
:10472800DFCFE7FF120027342834306E2B342C34C7
:104738002F6E305009E02F5030600FD030502F5C72
:104748002D6E210E2D5C09E329C025F02AC026F024
:104758002BC027F02CC028F095D02F5009E03050FE
:104768002F600FD02F50305C2D6E210E2D5C09E389
:1047780025C025F026C026F027C027F028C028F03D
:1047880081D0060E2E6E28BE2E8E2CBE2E8C278E25
:10479800286A2B8E2C6A2F50306018D0D890293672
:1047A8002A362B362C362F062F5030180BE02E06C3
:1047B8002E50070B07E0F2D7D8902832273226323E
:1047C8002532302A2F503062F7D71AD030502F6058
:1047D80017D0D890253626362736283630062F505B
:1047E80030180BE02E062E50070B07E0F2D7D890B2
:1047F8002C322B322A3229322F2A2F503062F7D707
:104808002EAE09D0251E261E271E281E252A000E7C
:104818002622272228222EAC09D0291E2A1E2B1E2A
:104828002C1E292A000E2A222B222C222E6A2550E1
:10483800292626502A2227502B2228502C222CAEFB
:104848000BD0291E2A1E2B1E2C1E292A000E2A22B6
:104858002B222C22010E2E6E29C008F02AC009F046
:104868002BC00AF02CC00BF030C00CF02EC00DF09D
:1048780062EC27F00BC028F00AC027F009C026F028
:1048880008C025F0120023EC2AF060EC2AF027EC8F
:1048980026F0CE0EF66E080EF76E0900F5CF0EF074
:1048A8000A00F5CF0FF090EC2CF00001606FD00EED
:1048B800F66E080EF76E0900F5CF0EF00A00F5CF78
:1048C8000FF090EC2CF00001616FD20EF66E080E1E
:1048D800F76E0900F5CF0EF00A00F5CF0FF090EC57
:1048E8002CF00001626FD40EF66E080EF76E090008
:1048F800F5CF0EF00A00F5CF0FF090EC2CF0000188
:10490800636FD7EC29F05FEC1AF00400C50E0001C4
:104918006C5D090E6D590EE376050CE07569B5EC12
:104928002CF0096A010E086EFF0E0A68B1EC2AF035
:10493800D7EC29F08A6B52EC2BF01DD0752903E1D6
:10494800010E766F24D0030E766FE8EC2BF01FD0A3
:10495800C2EC27F01CD08AAF1AD08D518C1103E11C
:1049680031EC14F014D06FEC20F011D0B8EC2CF02E
:104978000ED0766B0CD000017651E0E0010AE8E039
:10498800030AE3E0010AE7E0070AF0E0F2D7E90EDC
:104998000001645D030E6559000E6659000E6759E3
:1049A8000BE3646B656B666B676BAFEC29F0765154
:1049B800030AD8B42BEC05F03B0E000171650BD04F
:1049C800716B702B3B0E706502D0706B6F2B170EDE
:1049D8006F6501D06F6B95EC1CF097D70A0E116EBE
:1049E8000E6637D01150D96EDA6ADF500F6ED89044
:1049F8000F32D8900F32D8900F3008C0D9FF09C0B5
:104A0800DAFFDF6E1150D96EDA6AD92ADA6ADF5016
:104A18000F6E050E106ED8900F36102EFCD708C0FA
:104A2800D9FF09C0DAFF0F50DF12084A092A1150CE
:104A3800D96EDA6ADF500F6E050E106ED8900F36F9
:104A4800102EFCD70F5008C0D9FF09C0DAFFDF6E5F
:104A58006CD01150D96EDA6A020ED926DA6ADF50A4
:104A68000F6E050E106ED8900F32102EFCD70F5017
:104A780008C0D9FF09C0DAFFDF6E1150D96EDA6AB3
:104A8800030ED926DA6ADF500F6ED8900F36D89009
:104A98000F36D8900F3608C0D9FF09C0DAFF0F507B
:104AA800DF12084A092A1150D96EDA6A020ED9268D
:104AB800DA6ADF500F6ED8900F36D8900F36D8903C
:104AC8000F34E00B08C0D9FF09C0DAFFDF6E08C059
:104AD800D9FF09C0DAFF000EDB861150D96EDA6AF9
:104AE800020ED926DA6ADF500F6E030E0F1608C0C1
:104AF800D9FF09C0DAFF0F50DF12084A092A1150FE
:104B0800D96EDA6AD92ADA6A08C0E1FF09C0E2FF79
:104B1800DFCFE7FF084A092A1150D96EDA6A08C0C0
:104B2800E1FF09C0E2FFDFCFE7FF1200E8CFABF0FB
:104B38004A1CAA6FAB51830A02E1726B81D0830EC3
:104B4800AB6510D0890EAB610DD04AC00CF0AB51EB
:104B58007C0F06EC2CF00001AB517C0F73EC2CF0B1
:104B680000013BD0AB51920A0DE14A50A76FA66BEA
:104B78004C50A86FA96BA6114C6EA751A9114D6E88
:104B88004D502BD0AB51930A0BE1A66B4D50A76F3C
:104B98004A50A6114C6EA7514D6E4CC0AAF051D088
:104BA800880EAB651CD0910EAB6119D04DC0A6F034
:104BB800A6C0A7F0A86BA72902E14C2802E04A1C6E
:104BC8000CD04AC00CF0AB51770F8EEC2BF00001E3
:104BD800AB51770F69EC2CF0C3D7AA6F32D0CF0E48
:104BE800AB6518D0E00EAB6115D04DC0A6F0A6C0DD
:104BF800A7F0A86BA729E3E14C28E1E14AC00CF033
:104C0800AB51300FA1EC2BF00001AB51300F7DEC14
:104C18002CF0A6D7AB51A20AD2E14A50550A04E1BA
:104C28006A6B6B6B550ED9D74A50AA0A0AE1E80E8F
:104C38006A5D030E6B5904E2B1EC2CF0AA0E90D712
:104C4800AA6BAA5112000001646B656B666B676BF7
:104C5800716B706B6F6B526A536A106A1050040D57
:104C6800F3507A0FD96EDA6ADE6ADE6ADE6ADD6AC6
:104C78001050040D100EF324D96E010EF420DA6ED4
:104C8800DE6ADE6ADE6ADD6ADD52DD52102A030E54
:104C98001064E4D7516A00016E6B0101010E096EC0
:104CA800200E086E0B6A0A6A0D6A040E0C6E11EC6F
:104CB8002BF00101010E096E280E086E0B6A0A6AB4
:104CC8000D6A040E0C6E11EC2BF00101010E096E39
:104CD800240E086E0B6A0A6A0D6A040E0C6E11EC3B
:104CE8002BF00101010E096E2C0E086E0B6A0A6A80
:104CF8000D6A040E0C6E11EC2BF00101010E096E09
:104D0800300E086E0B6A0A6A0D6A040E0C6E11ECFE
:104D18002BF00101010E096E340E086E0B6A0A6A47
:104D28000D6A040E0C6E11EF2BF0183419341E6E38
:104D38001E6601D005D01C341D34246E246605D0AF
:104D4800166A176A186A196A57D024507B0F1E26EC
:104D580019C024F01D50241A800E2416188E1C8E9B
:104D6800000E1D161F6A206A216A226A070E236E2A
:104D780016A008D01A501F261B5020221C50212292
:104D88001D502222D8901932183217321632D89074
:104D98001A361B361C361D36232EEAD7110E236E03
:104DA80016A008D01A501F261B5020221C50212262
:104DB8001D502222D8901932183217321632D89044
:104DC8002232213220321F32232EEAD71FC008F0A8
:104DD80020C009F021C00AF022C00BF01EC00CF060
:104DE80024C00DF062EC27F00BC019F00AC018F0CF
:104DF80009C017F008C016F012000600F2A201D090
:104E080001D02CD0000160AF01D001D025D060B115
:104E180001D001D013D0010E7A27000E7B23000E9B
:104E28007C23000E7D237D517A117B117C11D8A43F
:104E380001D001D011D0010E516E0ED07A07000EAC
:104E48007B5B7C5B7D5B7D517A117B117C11D8A4E7
:104E580001D001D001D0EFD7F2922FD0F0A001D02D
:104E680001D02BD0000161AF01D001D025D061B1B4
:104E780001D001D013D0010E7E27000E7F23000E33
:104E88008023000E812381517E117F118011D8A4C7
:104E980001D001D011D0010E6E6F0ED07E07000E2A
:104EA8007F5B805B815B81517E117F118011D8A46B
:104EB80001D001D001D0EFD7F09011000C5005E0DF
:104EC8000B50081009100A100BE1086A096A0A6AEF
:104ED8000B6A53D00C2AD8900B320A3209320832A6
:104EE8000E6A0F6A106AFE0E0B14116E11500E1026
:104EF8000F1010100CE0EED70C2A082A000E092219
:104F08000A220B22D8900B320A32093208320E6A72
:104F18000F6A106A0B50116E11500E100F101010FE
:104F280007E0EAD70C06D890083609360A360B3659
:104F38000AAEF8D70CB002D07F0E0A16D8900C3201
:104F48000CC00EF00F6A106A116A0EC011F0106AD8
:104F58000F6A0E6A0E5008120F50091210500A12EA
:104F680011500B120D50D8A40B8E08C008F009C0C0
:104F780009F00AC00AF00BC00BF0120051D05728F4
:104F880011E0810E986F996B9A6B9B6B020E9C6F68
:104F980057C09EF097EC2AF0010E0001776F4E6A19
:104FA8004F6A45D0040E766F810E986F9E69070E82
:104FB800996F9A6B9B6B030E9C6F97EC2AF037D016
:104FC8008AAF0FD08D518C1132E18E51030A2FE137
:104FD800576603D0020E766FE2D7572A776B786B45
:104FE80026D0E90E4E5C030E4F5821E3782B020EB3
:104FF800786514D0576605D0572A776B4E6A4F6A82
:10500800EED757C075F0030E766F776B75515EEC6F
:105018002CF00001786BE8EC2BF009D0776B07D007
:1050280000017751ACE0010ACBE0030AF7E1000187
:105038008A6B120041C0A6F00001A76BA86BA96B90
:10504800A8C0A9F0A7C0A8F0A6C0A7F0A66B3F50BB
:10505800AA6F4050AB6FAC6BAD6BABC0ADF0AAC0E4
:10506800ACF0AB6BAA6B43C0AEF0AF6BB06BB16B7F
:105078001A0ED890AE37AF37B037B137E82EF9D718
:10508800AA51AE11B26FAB51AF11B36FAC51B011A1
:10509800B46FAD51B111B56FA651B211B66FA7512A
:1050A800B311B76FA851B411B86FA951B511B96F41
:1050B8004250B611476EB751486EB851496EB95152
:1050C8004A6E47C037F048C038F049C039F04AC086
:1050D8003AF044C03BF045C03CF046C03DF0FEEC21
:1050E80029F00009000ED8A4010E1200800E47EC2A
:1050F8002CF0090E706EFC0E716E010E726E200E91
:10510800736E778E779C606A0F01506B0E01206B6F
:10511800306B406B506B606B706BE00E0D01F86F7D
:105128000F01006B080E016F026B036B046BE80E36
:10513800056F1A0E066F076B030E0D01D46FD56B42
:10514800E06B110EE16FE26FE36BE46BE56BE66B0E
:10515800E76B540EF06F050EF16FF26BF26B0F0EEA
:105168000F01186FE00E196F1A6B1B6B19870F0E62
:105178001C6FE00E1D6F1E691F6B1D87000E47EF29
:105188002CF0E8CFC0F0C0C0BDF0C20EF66E080E1D
:10519800F76E0900F5CF0EF00A00F5CF0FF090EC8E
:1051A8002CF00001BE6FC0C0BAF0030EBA17D89039
:1051B800BA35BB6FBC6BBC37040EBB27000EBC23D3
:1051C800C20EBB25F66E080EBC21F76E0900F5CF9E
:1051D8000EF00A00F5CF0FF090EC2CF00001BF6F35
:1051E800406A010E3F6E020E416E75C042F0436A7E
:1051F800030E446E000E466EBD0E456E1EEF28F07F
:10520800E8CF27F021C01AF022C01BF0280E27ECA7
:105218002BF0000902E1000E2ED01F50D96EDA6A79
:1052280028C0DFFF1E50D96EDA6A29C0DFFF2A5076
:10523800236E010E2B14246E2750D96EDA6A23C010
:10524800DEFF24C0DDFF2050D96EDA6A28C023F0C3
:1052580029C024F02AC025F02BC026F01B0E05D04B
:10526800D8902632253224322332E82EF9D723501B
:10527800070BDF6E010E1200E8CF0BF024D00F0EE3
:105288000D6E600E1ED00F010F0E0D6E500E19D050
:105298000E010E0E0D6E200E14D00E010E0E0D6EA8
:1052A800300E0FD00E010E0E0D6E400E0AD00E01FC
:1052B8000E0EEBD70E010E0EE3D70E010E0E0D6E7D
:1052C800700E0C6E0FD00B50DAE0010ADCE0030A16
:1052D800DFE0010AE2E0070AE5E0010AE8E0030A84
:1052E800E9E0EBD70CC008F00DC009F01200E8CFD8
:1052F80008F00850D96EDA6A040EDF6E0850D96ECD
:10530800DA6AD92ADA6ADF6A0850D96EDA6A020ECE
:10531800D926DA6ADF6A0850D96EDA6A030ED92606
:10532800DA6A030EDF6E0850D96EDA6A040ED926DF
:10533800DA6ADF6A0850D96EDA6A050ED926DA6A9F
:10534800030EDF6E0850D96EDA6A060ED926DA6ABD
:10535800000EDF6E000C792B3B0E79650DD0796B52
:10536800742B7651030A08E12FEC2CF00001BA6F78
:105378003BEC2CF07BEC2BF03B0E0001746502D06B
:10538800746B732B170E736501D0736B7651030A18
:1053980009E1552A55C0BCF00F0EBC17020EBC5DC2
:1053A800D8B0556A1200010E566EACEC2CF0000114
:1053B800756F756701D07569752902E1020E566E21
:1053C8008A6B8B6B8C6B8D6B8E6B986B996B9A6BF6
:1053D8009B6B9C6B726B546A576A766B776B786BB6
:1053E8004C6A4D6A4E6A4F6A6A6B6B6B796B746B69
:1053F800736B12003E6A686B696B17D037C012F086
:1054080038C013F039C014F03AC015F03CC016F09B
:105418003DC017F03BC018F0200E196E30EC22F09A
:10542800000903E0010E3E6E06D0E80E0001685D3B
:10543800030E6959E3E30001986B3E5012000F0E0A
:10544800C16E100E926E806A0B0E936E816A0D0EFD
:10545800946E826A920EF7EC2BF0FB0E096E1D0E0D
:10546800086E87EC2CF07AEC28F0F194D08EF18C51
:10547800F288F18AF086F28CF28EF28C12000850D3
:105488000A02F3CF0CF0F4CF0DF008500B02F3CF63
:10549800F4FFF36AF3500C26F4500D2209500A0267
:1054A800F3CFF4FFF36AF3500C26F4500D220CC02E
:1054B80008F00DC009F01200000ED8EC2BF0550AC8
:1054C80005E1010ED8EC2BF0AA0A11E0020E566E87
:1054D800BAEC2CF0FF0E5EEC2CF0550E0C6E000EA4
:1054E800B4EC2BF0AA0E0C6E010EB4EC2BF01200EB
:1054F8008A510F0B020A16E1755120EE90F0DF6217
:1055080011D091C075F075515EEC2CF0810E000140
:10551800986F996B9A6B9B6B070E9C6F75C09EF08A
:1055280097EC2AF012009AC03FF09BC040F09CC054
:1055380041F075C042F099C043F098510F0B446E8A
:10554800000E466E9E0E456E1EEC28F04B6E4B66A6
:1055580002D00001722B4B50120008C0A9FF0AC0EC
:10556800A8FFA69EA69CA684000EF2BE010E0B6E96
:10557800F29E550EA76EAA0EA76EA682A6B2FED7F9
:105588000BB002D0F29E01D0F28EA69412008A517E
:105598000F0B106E105012E0755120EE90F0DF6284
:1055A8000DD0100405E0010E106408D0916706D0F4
:1055B8007569FF0E5EEC2CF0D7EC29F0120001EEB5
:1055C80000F0380EEE6AE806FDE100EE60F0460EE7
:1055D800EE6AE806FDE100EE4CF00D0EEE6AE80614
:1055E800FDE1000EF86E000147EF24F012C008F04C
:1055F80013C009F014C00AF015C00BF0960E0C6E1B
:10560800000E0D6A62EC27F00BC015F00AC014F00A
:1056180009C013F008C012F0120008C00EF009C04B
:105628000FF008D00EC0D9FF0FC0DAFF0AC0DFFFA5
:105638000E4A0F2A0C06D8A00D060C28D8B40D283F
:10564800D8B41200EFD7E8CF1CF08AAF02D0000E12
:105658000FD01BC00FF01AC010F01D0E116E1C5099
:1056680068EC1FF00009F3E01DAC1DAAF0D7010E8D
:1056780012008AC0BAF00F0EBA17BA050EE17551BA
:1056880020EE90F0DF6209D0800E986F996B9A6BCC
:105698009B6B030E9C6F97EC2AF012008ABF12D006
:1056A8008E0E1E6E8F0E1F6E8B0E206E8A0E216E52
:1056B800900E226E8C0E04EC29F02C6E2C5002E019
:1056C80000018A8F1200E8CF09F0080E0A6E0B6AF3
:1056D800D89009340B340B6ED890093608500B5CFF
:1056E80002E308500B5E0A2EF3D70B501200E8CFE6
:1056F800BBF0830E0001986F070E996F9B6B140E19
:105708009A6F090E9C6F9E6BBBC09FF0BAC0A0F049
:1057180097EF2AF0E8CF0DF0070E0D6401D00CD0FA
:10572800B5EC2CF00C0E0D24086E096A000E092247
:105738000CC00AF0B1EC2AF01200E8CF0DF00F0E01
:105748000D6401D00CD0B5EC2CF0140E0D24086EAD
:10575800096A000E09220CC00AF0B1EC2AF0120006
:10576800E8CF0DF0010E0C6401D00CD0B5EC2CF094
:10577800030E0C24086E096A000E09220DC00AF0F7
:10578800B1EC2AF01200E8CFAEF07F0EAE6506D07D
:105798004BC04AF0AE519AEC25F005D04BC044F00E
:1057A800AE516AEC17F01200E8CF10F0010E106449
:1057B80002D0000E08D0030E10240E6E0F6A000EE1
:1057C8000F2290EC2CF01200810E0001986F996B5B
:1057D8009A6B9B6B020E9C6F75C09EF097EC2AF03B
:1057E800010E566E010CE8CF08F008507F0BD56EFD
:1057F800D76AD66AF29408AE02D0F28A01D0F29A39
:10580800D58E1200E8CF0DF0B5EC2CF0070E0D2464
:10581800086E096A000E09220CC00AF0B1EF2AF0DE
:10582800E8CF0CF00C0409E1B5EC2CF0096A086A21
:10583800FF0E0A68B1EC2AF0FF001200E8CF22F050
:105848007F0E226404D0225058EC21F003D022505D
:1058580049EC1EF01200C40EF66E080EF76E090031
:10586800F5CF0EF00A00F5CF0FF090EF2CF0C20E36
:10587800F66E080EF76E0900F5CF0EF00A00F5CFA8
:105888000FF090EF2CF0E8CF08F01F0E6F160850BD
:105898006F126F50E00B0818D8B41200FAD7E8CF8F
:1058A80008F0360E0824F66EF76A0A0EF72208008A
:1058B800F5501200E8CF0CF0B5EC2CF0096A010E97
:1058C800086E0CC00AF0B1EF2AF0E8CF10F00C0E09
:1058D80010240E6E0F6A000E0F2290EF2CF0E8CF06
:1058E80010F0070E10240E6E0F6A000E0F2290EFB4
:1058F8002CF0E8CF10F0140E10240E6E0F6A000E74
:105908000F2290EF2CF008C00AF009C00BF00BC072
:10591800D7FF0AC0D6FF12000EC0A9FFA69CA69EFC
:10592800A68000F000F0A850120001C003F002C0E9
:1059380004F004C0D7FF03C0D6FF1200086A096A42
:105948000A6A0B6A1200086A096A0A6A0B6A120074
:105958000F6A010E0E6E90EF2CF06DEC10F027EF31
:1059680026F0A6A21200FDD7566A12006DEF10F0BD
:0E597800050C080C010C030C000C010C1200B5
:020000040020DA
:08000000FFFFFFFFFFFFFFFF00
:020000040030CA
:0E000000FF06041EFF8281FF0FC00FE00F40BD
:00000001FF
